:100000000C9426040C944E040C944E040C944E0450
:100010000C944E040C944E040C944E040C944E0418
:100020000C944E040C944E040C944E040C944E0408
:100030000C944E040C944E040C944E040C944E04F8
:100040000C9446060C944E040C9489090C94C10936
:100050000C944E040C944E040C944E040C944E04D8
:100060000C944E040C944E04636C6F73653A2066D6
:1000700061696C65642C206E6F202A434C4F532AB3
:1000800000636C6F73653A20676F74202A434C4F8E
:10009000532A002A434C4F532A00636C6F73650D3B
:1000A000005465726D696E616C20726561647900DF
:1000B000556E657870656374656420726573703A17
:1000C00020004661696C656420746F20636F6E6EFA
:1000D0006563743A20004F50454E2A00656E616298
:1000E0006C65486F7374526573746F72653A2073F0
:1000F000746F7265642000302E302E302E30007305
:10010000656E64746F3A206661696C656420746F13
:1001100020737461727420636F6D6D616E64003C56
:1001200074696D656F75743E00556E6578706563B2
:1001300074656420636861723A20004661696C6589
:100140006420746F20636F6E6E6563743A20004F95
:1001500050454E2A005769466C79206861732063C8
:1001600072617368656420616E642077696C6C20CD
:100170007265626F6F742E2E2E004661696C656425
:1001800020746F206765742070726F6D7074000D3D
:10019000006F70656E20006F70656E20003235351F
:1001A0002E3235352E302E30003136392E32353460
:1001B0002E312E3100363420627974657300506917
:1001C0006E67207472790070696E672000736574C1
:1001D00020752069006C656176650D0047573D000C
:1001E0000D006A6F696E20004173736F63696174FB
:1001F000656421004641494C4544007365742061A3
:1002000064686F632070726F62650073657420614B
:1002100064686F6320626561636F6E00736574204C
:10022000776C616E2074780040420F000080841E5D
:10023000000160EC530002808D5B0008405489008F
:1002400009C0D8A70003001BB7000A80A812010B41
:1002500000366E010C005125020D006CDC020E8090
:10026000F937030F73657420776C616E20726174C7
:100270006500736574206F7074207265706C6163C3
:10028000650073657420776C616E207068726173AD
:10029000650073657420776C616E206B65790073FF
:1002A000657420776C616E206368616E007365749D
:1002B00020776C616E2073736964007365742077B6
:1002C0006C616E2068696465203100736574207309
:1002D000797320696F66756E630073657420636F50
:1002E0006D6D2073697A650073657420636F6D6D41
:1002F000206D617463680073657420636F6D6D2099
:1003000074696D6500302E302E302E3000736574A8
:100310002062726F61646361737420696E746572C8
:1003200076616C007365742075617274206D6F6402
:1003300065007365742074696D6520656E61626C1B
:1003400065007365742074696D65207A6F6E650051
:100350007365742074696D6520706F7274007365C5
:10036000742074696D6520616464726573730073D1
:1003700065742069702070726F746F636F6C0073A6
:1003800065742069702070726F746F636F6C007396
:1003900065742069702064686370007365742064FC
:1003A0006E73206164647265737300736574206991
:1003B0007020676174657761790073657420697076
:1003C000206E65746D61736B0073657420697020B5
:1003D0006E65746D61736B00536574486F73743A26
:1003E000206661696C656420746F20737461727437
:1003F00020636F6D6D616E64007365742069702099
:1004000072656D6F74650073657420697020686F24
:1004100073740073657420697020686F737400735F
:100420006574206970206C6F63616C706F7274000A
:1004300073657420697020616464726573730073FE
:1004400065742069702061646472657373007365FC
:100450007420776C616E206A6F696E00736574201A
:100460006F20640053657420466163746F72792055
:1004700044656661756C747300666163746F72794C
:1004800020524553544F52450D002A5265626F6FFA
:10049000742A007265626F6F740D0053746F726915
:1004A0006E6700736176650D003C74696D656F75EC
:1004B000743E004552523A2000414F4B0D0A004510
:1004C00052523A2000015544502C0000025443502F
:1004D0002C000004534543555200085443505F43D9
:1004E0000010485454502C00205241572C0000401A
:1004F000534D54502C0053455256455200434143EE
:100500004845004155544F4950004F4E004F464614
:10051000006C6F6F6B75702000676574436F6E3A87
:100520002054435020646973636F6E6E6563746515
:100530006400676574436F6E3A2054435020636FC4
:100540006E6E65637465640073686F7720630D0079
:10055000676574436F6E3A206661696C65642074E8
:100560006F207374617274004661696C65642074F5
:100570006F20657869740A0D00455849540D0A00CA
:10058000657869740D00434D440D0A00242424004D
:10059000434D440D0A002424240073657450726F87
:1005A0006D7074206661696C6564006D756C74694A
:1005B0004D617463685F503A20006D617463685FD9
:1005C000503A20007265616454696D656F757420DE
:1005D0002D2074696D6564206F7574003A20003AAF
:1005E000200064656275672064756D7000617661D6
:1005F000696C61626C653A207065656B203D200016
:100600002A4F50454E2A002A434C4F532A00455248
:10061000524F52207065656B2E322062756666659A
:1006200072206F7665726C6F77004552524F522080
:100630007065656B2E3120627566666572206F7617
:1006400065726C6F77004661696C656420746F2019
:100650006578697420636F6D6D616E64206D6F6481
:1006600065004661696C656420746F20656E746511
:100670007220636F6D6D616E64206D6F64650046FE
:1006800061696C656420746F2073657420636F6D9D
:100690006D2072656D6F74650073657420636F6D96
:1006A0006D2072656D6F74652030004661696C6500
:1006B0006420746F207475726E206F666620737983
:1006C00073207072696E740073657420737973207F
:1006D0007072696E746C766C2030004661696C656E
:1006E0006420746F207475726E206F666620656377
:1006F000686F007365742075206D20310067657424
:100700002069700D0049503D004E4D3D0047573D5A
:1007100000676574206D61630D004D616320416465
:1007200064723D0067657420776C616E0D005353F1
:1007300049443D00676574206F70740D0044657610
:1007400069636549643D0067657420750D00426109
:100750007564726174653D0073686F772074696DAC
:10076000650D0054696D653D00557054696D653DBA
:10077000006765742074696D650D005A6F6E653D84
:100780000067657420646E730D0041646472657364
:10079000733D0073686F77207420740D00525443CA
:1007A0003D00444843503D004D6F64653D00676522
:1007B0007420636F6D6D0D00466C75736854696DC0
:1007C00065723D004D61746368436861723D004627
:1007D0006C75736853697A653D0073686F77207232
:1007E0007373690D00525353493D282D00464C4107
:1007F00047533D307800484F53543D0050524F54BA
:100800004F3D00676574206164686F630D00426549
:1008100061636F6E3D0050726F62653D00526562AC
:100820006F6F743D004A6F696E3D00526174653DA3
:10083000005478506F7765723D005265706C61634B
:10084000653D000037067B0A0B0B061911241FBEFD
:10085000CFEFD4E0DEBFCDBF13E0A0E0B1E0E8E32E
:10086000F3E302C005900D92A631B107D9F714E069
:10087000A6E1B3E001C01D92AB35B107E1F718E086
:10088000CCE4D8E004C02297FE010E945419C4347D
:10089000D107C9F70E9424070C949A190C94000000
:1008A000DC01ED91FC910190F081E02D0995089516
:1008B0008BE094E060E071E00E94CC0786E193E079
:1008C0000E94C50E181619064CF486E193E00E94AA
:1008D0003B0FBC018BE094E00E9450048BE094E05D
:1008E0000E94D608009751F38BE094E00E9405091E
:1008F000682F86E193E00E94960CE0CF0E948E065E
:1009000020916C0330916D0340916E0350916F0301
:10091000621B730B840B950B693E23E0720720E08A
:10092000820720E0920708F445C0809170039091FF
:100930007103A0917203B09173030196A11DB11DC3
:100940008093700390937103A0937203B093730329
:100950008BE094E06FE071E00E9499074091700392
:100960005091710360917203709173038BE094E076
:100970002AE030E00E945B0886E193E060E271E0EB
:100980000E94990740917003509171036091720326
:100990007091730386E193E02AE030E00E945B08E7
:1009A0000E948E0660936C0370936D0380936E03B8
:1009B00090936F038BE094E00E94D608009749F073
:1009C0008BE094E00E9405098437910511F40E94A0
:1009D000580408950F931F93DF93CF93CDB7DEB7DD
:1009E000A0970FB6F894DEBF0FBECDBF8BE094E0AA
:1009F00040E052EC61E070E00E94FC098BE094E082
:100A00006EE271E00E94CC078BE094E067E371E056
:100A10000E94990786E193E00E943A0DBC018BE0A9
:100A200094E04AE050E00E94BB0886E193E00E9417
:100A300027158A309105A1F08BE094E065E471E020
:100A40000E94CC0786E193E06AE070E00E94F9160C
:100A500086E193E00E94541686E193E00E9493178A
:100A600086E193E00E945918882361F58BE094E0B9
:100A700068E671E00E94CC0786E193E065E572E0EC
:100A80000E94141786E193E064E672E00E941F174B
:100A900086E193E00E94101786E193E060E27EE435
:100AA0000E942D18882329F08BE094E068E771E01C
:100AB0000DC08BE094E06CE871E00E94CC070E94CE
:100AC000580406C08BE094E068EA71E00E94CC070D
:100AD00086E193E08E010F5F1F4FB80140E250E0C6
:100AE0000E941D148BE094E06FEB71E00E94990767
:100AF0008BE094E0B8010E9499078BE094E065ECEC
:100B000071E00E94990786E193E0B8010E94841881
:100B1000882329F08BE094E06BEC71E004C08BE05B
:100B200094E06EEC71E00E94CC078BE094E065ED00
:100B300071E00E94990786E193E06AEE71E00E94FD
:100B40008418882329F08BE094E06BEC71E004C0FA
:100B50008BE094E06EEC71E00E94CC0786E193E0BC
:100B600061E00E94F61686E193E065EF71E04AE6E7
:100B70005FE10E949D168BE094E062E072E00E94CB
:100B8000990786E193E08E010F5F1F4FB80140E2A5
:100B900050E00E942514BC018BE094E00E94CC0739
:100BA0008BE094E068E072E00E94990786E193E0B0
:100BB000B80140E250E00E94F913BC018BE094E0E0
:100BC0000E94CC078BE094E06DE072E00E949907F0
:100BD00086E193E0B80140E250E00E941514BC01A8
:100BE0008BE094E00E94CC078BE094E067E172E038
:100BF0000E94990786E193E0B80140E250E00E942C
:100C00001D14BC018BE094E00E94CC0786E193E0C8
:100C100061E272E00E947C168BE094E06BE272E08D
:100C20000E94990786E193E0B80140E250E00E94FB
:100C30003514BC018BE094E00E94CC0786E193E080
:100C400065EF71E04AE65FE10E949D168BE094E05B
:100C500066E372E00E94CC07A0960FB6F894DEBF60
:100C60000FBECDBFCF91DF911F910F9108950F93CC
:100C700084E793E060E040E020E000E00E94FF0AAB
:100C800086E193E00E94F90C0F9108951F920F9254
:100C90000FB60F9211242F933F938F939F93AF938F
:100CA000BF9380917E0390917F03A0918003B091C8
:100CB0008103309182030196A11DB11D232F2D5F69
:100CC0002D3720F02D570196A11DB11D20938203D1
:100CD00080937E0390937F03A0938003B09381035E
:100CE00080917A0390917B03A0917C03B0917D0366
:100CF0000196A11DB11D80937A0390937B03A0936D
:100D00007C03B0937D03BF91AF919F918F913F91F1
:100D10002F910F900FBE0F901F9018958FB7F894DA
:100D200020917E0330917F03409180035091810395
:100D30008FBFB901CA0108959FB7F89420917A0333
:100D400030917B0340917C0350917D0386B5A89B35
:100D500006C08F3F21F02F5F3F4F4F4F5F4F9FBF28
:100D6000542F432F322F2227280F311D411D511D93
:100D700082E0220F331F441F551F8A95D1F7B90116
:100D8000CA010895EF92FF920F931F93CF93DF93C1
:100D90007B018C010E949C06EB010FC00E949C0607
:100DA0006C1B7D0B83E0683E780738F00894E108FF
:100DB000F10801091109C851DC4FE114F1040105E2
:100DC000110561F7DF91CF911F910F91FF90EF9087
:100DD0000895789484B5826084BD84B5816084BDB3
:100DE00085B5826085BD85B5816085BDEEE6F0E0A4
:100DF000808181608083E1E8F0E010828081826000
:100E00008083808181608083E0E8F0E08081816080
:100E10008083E1EBF0E0808184608083E0EBF0E0B0
:100E2000808181608083EAE7F0E080818460808354
:100E300080818260808380818160808380818068FE
:100E400080831092C1000895CF93DF930E94E9063A
:100E50000E94EA04C8EBD9E00E947E042097E1F3E7
:100E60000E94B809F9CFCF92DF92EF92FF920F93D1
:100E70001F93CF93DF936C017B018A01C0E0D0E028
:100E80000FC0D7016D917D01D601ED91FC910190CC
:100E9000F081E02DC6010995C80FD91F01501040FF
:100EA0000115110571F7CE01DF91CF911F910F91BF
:100EB000FF90EF90DF90CF9008956115710591F04C
:100EC000DB010D900020E9F7AD0141505040461B79
:100ED000570BDC01ED91FC910280F381E02D099527
:100EE0009C0102C020E030E0C9010895EF92FF921A
:100EF0000F931F93CF93DF937C01062F172FC0E032
:100F0000D0E0F8010F5F1F4F6491662351F0F701A5
:100F1000A081B181ED91FC91C7010995C80FD91F3E
:100F2000F0CFCE01DF91CF911F910F91FF90EF9005
:100F300008950E945D070895DC01ED91FC910190F8
:100F4000F081E02D099508950F931F93CF93DF93C0
:100F5000EC016DE00E949C078C01CE016AE00E94CA
:100F60009C07080F191FC801DF91CF911F910F91A6
:100F700008950F931F93CF93DF93EC010E947607A0
:100F80008C01CE010E94A407080F191FC801DF9130
:100F9000CF911F910F9108950F931F93CF93DF93DC
:100FA000EC010E945D078C01CE010E94A407080F8E
:100FB000191FC801DF91CF911F910F9108950F93D1
:100FC0001F93CF93DF93EC010E949C078C01CE010D
:100FD0000E94A407080F191FC801DF91CF911F912C
:100FE0000F9108958F929F92AF92BF92CF92DF920E
:100FF000EF92FF920F931F93DF93CF93CDB7DEB79E
:10100000A1970FB6F894DEBF0FBECDBF6C01042FC1
:10101000E52FCB01122F19A2223008F41AE021E2A9
:10102000E22EF12CEC0EFD1E812E9924AA24BB2465
:1010300003C0022FE32FCA01602F7E2FA501940168
:101040000E943019129F802D1124081B0894E1087A
:10105000F1080A3014F4005D01C0095CF701008357
:10106000211531054105510521F7C601B7010E943F
:101070005D07A1960FB6F894DEBF0FBECDBFCF912E
:10108000DF911F910F91FF90EF90DF90CF90BF9075
:10109000AF909F908F9008952115310549F4DC01A0
:1010A000ED91FC910190F081E02D642F0995089558
:1010B0000E94F20708950F931F93CF93DF93EC01E3
:1010C0000E944C088C01CE010E94A407080F191F32
:1010D000C801DF91CF911F910F9108959A01462F7A
:1010E00050E060E070E00E944C080895CF92DF92DB
:1010F000EF92FF920F931F93CF93DF93EC017A014E
:101100008B012115310541F4E881F9810190F081CD
:10111000E02D642F09951AC02A303105A9F477FF14
:1011200012C06DE20E949C076C0144275527BA014A
:101130004E195F09600B710BCE012AE00E94F20785
:10114000C80ED91E04C02AE00E94F2076C01C60135
:10115000DF91CF911F910F91FF90EF90DF90CF9093
:1011600008959A01FB01AF01662757FD6095762F20
:101170000E94760808950F931F93CF93DF93EC019D
:101180009A01CB01AC01662757FD6095762FCE0101
:101190000E9476088C01CE010E94A407080F191F37
:1011A000C801DF91CF911F910F910895FC018485B3
:1011B0009585FC01E05CFF4F208131818E5B9F4F64
:1011C000FC0180819181281B390B2F733070C9017C
:1011D0000895FC0184859585FC01E05CFF4F40810A
:1011E0005181FC01EE5BFF4F208131814217530793
:1011F00041F00190F081E02DE80FF91F208130E0EF
:1012000002C02FEF3FEFC9010895FC018485958549
:10121000FC01E05CFF4F40815181FC01EE5BFF4F20
:10122000208131814217530771F0A081B181A80F4D
:10123000B91F2C918081918101968F739070918359
:10124000808330E002C02FEF3FEFC9010895FC0119
:1012500081A1882329F0A489B5898C9186FFFBCFD1
:1012600011A20895FC0126853785D901A05CBF4FE6
:101270008D919C9101968F739070D901AE5BBF4F99
:101280004D915C91119784179507D1F3D901A05C1A
:10129000BF4F0D90BC91A02DA20FB31F6C93A685DC
:1012A000B785A05CBF4F11969C938E93A689B78992
:1012B0002C9181E090E0078C02C0880F991F0A945E
:1012C000E2F7282B2C9381E081A30488F589E02D97
:1012D00080818064808381E090E00895FB01E05C80
:1012E000FF4F208131812F5F3F4F2F733070DB0123
:1012F000AE5BBF4F4D915C9111972417350739F0C4
:10130000A081B181A60FB71F8C93318320830895EC
:1013100008951F920F920FB60F9211242F933F93AF
:101320004F935F936F937F938F939F93AF93BF93ED
:10133000EF93FF938091C00082FD07C08091C600AB
:1013400063E873E00E946E0902C08091C600FF91BD
:10135000EF91BF91AF919F918F917F916F915F912D
:101360004F913F912F910F900FBE0F901F901895A6
:101370008BE094E00E94D608009711F00E94880943
:1013800008951F920F920FB60F9211242F933F933F
:101390008F939F93EF93FF9320910704309108045C
:1013A0008091090490910A042817390731F480913B
:1013B000C1008F7D8093C10014C0E0910904F091B9
:1013C0000A04E953FC4F20818091090490910A049A
:1013D00001968F73907090930A0480930904209370
:1013E000C600FF91EF919F918F913F912F910F90A8
:1013F0000FBE0F901F901895DF92EF92FF920F9300
:101400001F93CF93DF93EC017A018B01DD24D394FA
:10141000403081EE580780E0680780E0780749F4A3
:10142000DD24EC89FD89108260E874E88EE190E0AB
:101430000FC0EC89FD8981E090E008A002C0880F10
:10144000991F0A94E2F7808360E079E08DE390E0F1
:10145000A80197010E94301921503040404050406F
:10146000569547953795279580E12030380710F03D
:10147000DD20B1F6E889F9893083EA89FB89208388
:1014800019A2EE89FF89408181E090E09C010C8CDB
:1014900002C0220F331F0A94E2F7422B4083EE89E9
:1014A000FF8940819C010D8C02C0220F331F0A94DA
:1014B000E2F7422B4083EE89FF8940819C010E8C2C
:1014C00002C0220F331F0A94E2F7422B4083EE89B9
:1014D000FF8920810F8C02C0880F991F0A94E2F7C0
:1014E000809582238083DF91CF911F910F91FF9090
:1014F000EF90DF90089510920E0410920D0488EE84
:1015000093E0A0E0B0E080930F0490931004A093C8
:101510001104B0931204EDE0F4E083E792E09293BB
:10152000829383E893E09587848787EC93E097879D
:10153000868785EC90E0918B808B84EC90E0938B98
:10154000828B80EC90E0958B848B81EC90E0978B84
:10155000868B82EC90E0918F808F86EC90E0938F69
:10156000828F84E0848F83E0858F87E0868F85E09B
:10157000878F81E080A308958F929F92AF92BF9250
:10158000CF92DF92EF92FF920F931F93CF93DF934F
:101590004C017B0182E0A82EB12CA80CB91CC0E044
:1015A000D0E0CC24DD24F50161915F01C7014AE060
:1015B00050E00E946E088C01C7016EE20E949C07F9
:1015C000080F191FC00ED11E2196C330D10559F73F
:1015D000C701F40165814AE050E00E946E08C80E20
:1015E000D91EC601DF91CF911F910F91FF90EF900F
:1015F000DF90CF90BF90AF909F908F9008950F9302
:10160000FC0183E892E09183808362834383248397
:1016100005830F91089583E892E090932E048093C0
:101620002D0410922F041092300410923104109265
:1016300032040895DC011C968D919C911D97DC016C
:10164000ED91FC910680F781E02D09950895DC016C
:101650001C968D919C911D97DC01ED91FC9104806D
:10166000F581E02D09950895DC011C968D919C91E2
:101670001D97DC01ED91FC910284F385E02D099525
:101680000895DC011C968D919C911D97DC01ED91D4
:10169000FC910084F185E02D099508952F923F92E9
:1016A0004F925F926F927F928F929F92AF92BF9272
:1016B000CF92DF92EF92FF920F931F93DF93CF931E
:1016C000CDB7DEB760970FB6F894DEBF0FBECDBFC3
:1016D0006B017C01590118014E010894811C911C79
:1016E0004A3021F500E010E09AE0492E512C612C9F
:1016F000712C02C069017A01C701B601A3019201F0
:101700000E9430198C2D805D622F660F962F990FE5
:10171000990F960F891BF40181934F010F5F1F4FA3
:10172000211531054105510529F732C0F40100E0CA
:1017300010E0D701C6018F709070A070B070282F94
:101740008A309105A105B10510F480E301C081E460
:10175000820F81930F5F1F4F84E0F694E794D79434
:10176000C7948A95D1F7C114D104E104F10409F7B3
:10177000CE010196FC01E00FF11F28E720830F5FE7
:101780001F4F800F911F20E3FC0120830F5F1F4F2D
:10179000FE013196E00FF11FD50120E030E0089402
:1017A0002108310882918D932F5F3F4FC801821B22
:1017B000930B181619061CF4221533059CF3F5013A
:1017C000E20FF31F1082C90160960FB6F894DEBFD6
:1017D0000FBECDBFCF91DF911F910F91FF90EF9082
:1017E000DF90CF90BF90AF909F908F907F906F9041
:1017F0005F904F903F902F9008950F931F93FC019F
:1018000000E020E030E0A90155C0812F80538A30EC
:10181000C0F4DA01C90144E0880F991FAA1FBB1F59
:101820004A95D1F7212F332727FD3095432F532F8A
:101830002053304040405040280F391F4A1F5B1F43
:1018400039C0812F81568630A0F4CA01B90134E035
:10185000660F771F881F991F3A95D1F7212F3327DD
:1018600027FD3095432F532F27553040404050409F
:1018700017C0812F81548630C0F4CA01B90124E019
:10188000660F771F881F991F2A95D1F7212F3327BD
:1018900027FD3095432F532F275330404040504071
:1018A000260F371F481F591F05C0183739F400236A
:1018B00029F401E01191112309F0A7CFB901CA0160
:1018C0001F910F910895EF92FF921F93CF93DF9393
:1018D000E82EE7017E01F92EE70120E030E0A901C2
:1018E0001AC0812F80538A30C8F4CA01B9012AE096
:1018F00030E040E050E00E941119212F332727FDEE
:101900003095432F532F2053304040405040260FF6
:10191000371F481F591F1991112319F7B901CA011F
:10192000DF91CF911F91FF90EF900895DC01AE5AA7
:10193000BF4F2D913C911197FC01EC5AFF4F408114
:101940005181241735076CF4FC01E05BFF4F0190D7
:10195000F081E02DE20FF31F60832F5F3F4F2D9347
:101960003C93CF96FC01A081B181ED91FC91119740
:101970000190F081E02DCD010995089520914C044E
:10198000222369F4FC01FF9680819181DC01ED91B5
:10199000FC910084F185E02D09959C0109C0E0913E
:1019A0004D04F0E0E25BFB4F2081332727FD3095AB
:1019B000C9010895FC01FF9680819181DC01ED91C0
:1019C000FC910284F385E02D09950895FC01A4851E
:1019D000B585109751F0ED91FC9111970190F08130
:1019E000E02DCD0109959C0102C020E030E0C90145
:1019F0000895FC011382128228EE33E040E050E0AB
:101A0000248335834683578389E992E091838083D9
:101A1000DF01AD5BBF4F1D921C92DF01AB5BBF4F7F
:101A20002D933D934D935C931397DF01AF5BBF4FB5
:101A300089E892E08D939C93DF01A35BBF4F1D92D9
:101A40001C9215861786168617AA10AE81E0808B29
:101A5000818B1486DF01A05BBF4F1D921C92DF01BA
:101A6000AE5ABF4F11961C921E92EC5AFF4F118234
:101A700010820895DF93CF9300D0CDB7DEB7809169
:101A80005704909158049E012F5F3F4F009719F41F
:101A90002B55344002C0281B390B3A832983898196
:101AA0009A810F900F90CF91DF9108950E9499072E
:101AB0000895DC01ED91FC910190F081E02D0995F4
:101AC00008950E94760708956F927F928F929F9259
:101AD000AF92BF92CF92DF92EF92FF920F931F933C
:101AE000CF93DF93EC013B018A010E948E064B01EC
:101AF0005C016801EE24FF248E01015C1F4F6CC065
:101B0000D8018D919C91DC01ED91FC910480F581CF
:101B1000E02D0995181619060CF05EC0F8018081B9
:101B20009181DC01ED91FC910680F781E02D099512
:101B3000C82EF3018083DE01AE5ABF4F8D919C9178
:101B40001197FE01EC5AFF4F2081318182179307D4
:101B50006CF4FE01E05BFF4F0190F081E02DE80F97
:101B6000F91FC082019611969C938E938C858823D1
:101B700009F449C08E010F5B1F4F60914A047091B8
:101B80004B04CB01019690934B0480934A04C80107
:101B90004AE050E00E94B108C8016CED75E00E9477
:101BA0007607CC2DDD27C7FDD095C801BE0140E1E9
:101BB00050E00E94B108CE010E945A19009741F0EE
:101BC000C80160E20E949C07C8016C2D0E949C071E
:101BD000C8010E94A40717C00E948E0668197909DF
:101BE0008A099B096C157D058E059F0508F488CF31
:101BF0008C85882351F0CE018F5B9F4F64EC75E09C
:101C00000E94B90702C081E001C080E0DF91CF915E
:101C10001F910F91FF90EF90DF90CF90BF90AF900A
:101C20009F908F907F906F900895DF92EF92FF9238
:101C30000F931F93CF93DF93EC01FB0120914C0492
:101C4000222301F1442319F0319691E001C090E084
:101C500080914D04890F13C03491332309F44BC094
:101C6000893010F4A82F01C0A0E08F5FB0E0A25B24
:101C7000BB4F4C91431709F05DC031969F5F92179F
:101C800058F303C0442309F431968F010F5F1F4FAF
:101C9000D490B1E4EB2EF12CEC0EFD1E36C08093F7
:101CA0005604893010F01092560480914C048F5FD6
:101CB00080934C04893008F43DC0CE018F5B9F4F68
:101CC0006AE276E00E94B90735C0809356048930F5
:101CD00010F01092560480914C048F5F80934C0456
:101CE000893028F0C7016EE076E00E94B907F8015C
:101CF000D490DD2041F410924C0410924D041092C7
:101D0000560481E018C00F5F1F4F6091560470E0C9
:101D1000625B7B4FCE0144EF51E00E94640D8091E5
:101D20005604E82FF0E0E25BFB4F90818F5F9D153A
:101D300061F2B5CF80E0DF91CF911F910F91FF90BD
:101D4000EF90DF900895CF93DF93EC01462F60E092
:101D500076E00E94150E882319F081E08FAB01C058
:101D600080E0DF91CF910895CF93DF93EC01462F70
:101D700067E076E00E94150E882319F01FAA81E023
:101D800001C080E0DF91CF910895CF92DF92EF9272
:101D9000FF920F931F93CF93DF93EC018C01015CB3
:101DA0001F4FD8018D919C91DC01ED91FC91048035
:101DB000F581E02D09956C01181619060CF049C043
:101DC0008C858823C1F081E4E82EF12CEC0EFD1EF9
:101DD000C7016DEE75E00E947607F8018081918160
:101DE000DC01ED91FC910084F185E02D0995682FCF
:101DF000C7010E94DF078E01015C1F4FF80180813F
:101E00009181DC01ED91FC910084F185E02D099533
:101E10008A329105F1F48FA9882339F0CE0161E06F
:101E20000E94B40E8823D1F404C0CE0161E00E9468
:101E3000A30EC0904C04DD24F80180819181DC0167
:101E4000ED91FC910480F581E02D0995C80ED91E15
:101E500008C080914C04C80ED11C03C0CC24CA9485
:101E6000DC2CC601DF91CF911F910F91FF90EF9075
:101E7000DF90CF900895CF93DF93EC0180914C04D5
:101E8000882381F090914D04E92FF0E0E25BFB4F55
:101E9000208130E09F5F90934D04993060F1109263
:101EA0004D0429C0FE01FF9680819181DC01ED91F6
:101EB000FC910680F781E02D09959C018FA988236C
:101EC00001F12A323105E9F4CE0160E00E94B40E3E
:101ED0008823A9F480914D04E82FF0E0E25BFB4FEA
:101EE000208130E08F5F80934D04893010F0109294
:101EF0004D0480914C04815080934C0402C02FEF1C
:101F00003FEFC901DF91CF910895CF92DF92EF9219
:101F1000FF920F931F93DF93CF930F92CDB7DEB74E
:101F20007C016B018E010F5F1F4FC701B801A60135
:101F30000E94640D8823C9F70F90CF91DF911F9104
:101F40000F91FF90EF90DF90CF900895CB016AE35F
:101F500074E00E947D1921E0009709F420E0822FAF
:101F600008956F927F928F929F92AF92BF92CF927D
:101F7000DF92EF92FF920F931F93DF93CF930F9215
:101F8000CDB7DEB74C017B015A016115710549F1EE
:101F9000FB018081882329F18B016E010894C11C0B
:101FA000D11C3B010894611C711C13C08981F8018C
:101FB0009081891719F40F5F1F4F07C0F7019081B7
:101FC000891711F4830101C08701F80180818823FA
:101FD00041F0C401B601A5010E94640D882331F7C8
:101FE00001C081E00F90CF91DF911F910F91FF9081
:101FF000EF90DF90CF90BF90AF909F908F907F90A9
:102000006F9008952F923F924F925F926F927F92BE
:102010008F929F92BF92CF92DF92EF92FF920F9397
:102020001F93DF93CF930F92CDB7DEB76C017B0187
:102030001A01FC018485882361F086010F5B1F4F24
:10204000C8016AEB75E00E947607C801B7010E94DB
:10205000B907F701B490BB2039F187014E0108940C
:10206000811C911C6B2C772427010894411C511C66
:1020700013C089818B1519F40F5F1F4F09C0992771
:1020800087FD90958615970511F4820101C087019F
:10209000F801B490BB2041F0C601B401A1010E9437
:1020A000640D882331F701C081E00F90CF91DF915B
:1020B0001F910F91FF90EF90DF90CF90BF909F9076
:1020C0008F907F906F905F904F903F902F900895EA
:1020D0002F923F924F925F926F927F928F929F9238
:1020E000AF92BF92CF92DF92EF92FF920F931F9326
:1020F000DF93CF9300D00F92CDB7DEB74C013B01F9
:10210000A42E29012DB63EB6242F30E0C901880F38
:10211000991F820F931F2DB73EB7281B390B0FB69F
:10212000F8943EBF0FBE2DBF8DB79EB701968A8330
:102130009B83062F172DE82EF92EBB2491E4C92E80
:10214000D12CC80CD91C28C0F7011082F80180815D
:102150009181F70192838183F40184858823A9F01A
:10216000C6016BEA75E00E947607C6016B2D4AE056
:1021700050E00E946E08C60160E20E949C07F801D0
:1021800060817181C6010E94B907B39423E030E0F9
:10219000E20EF31E0E5F1F4FBA14B0F227C0119665
:1021A000ED91FC9112976491961769F0F901E08026
:1021B000F1801296FC92EE921197F701649170E013
:1021C0004617570729F431961296FC93EE93119710
:1021D0001196ED91FC911297E49113962E5F3F4F6B
:1021E000EE23E1F08F5F8A1520F4D9CF8E010F5FC7
:1021F0001F4FC401B801A2010E94640D882369F039
:102200009981492F552747FD5095262D372D6A81F5
:102210008B81A62FB82F80E0E6CF8FEF0FB6F89412
:102220003EBE0FBE2DBE0F900F900F90CF91DF914D
:102230001F910F91FF90EF90DF90CF90BF90AF90E4
:102240009F908F907F906F905F904F903F902F90D6
:102250000895CF93DF93EC018D858823C9F0CE01DB
:1022600060E875E00E94610DCE0169E775E044EF1A
:1022700051E00E940210882311F01D8609C0CE0192
:102280008F5B9F4F68E675E00E94B90780E001C050
:1022900081E0DF91CF9108952F923F924F925F920C
:1022A0006F927F928F929F92BF92CF92DF92EF9226
:1022B000FF920F931F93DF93CF930F92CDB7DEB7AB
:1022C0002C017B01490100E010E06E010894C11C63
:1022D000D11C6EEF262E6FEF362E240E351E3A01DE
:1022E0000894610871083BC0B9808B2D8D3051F581
:1022F000C201B601A4010E94640D89818A3041F4B3
:10230000E114F104E9F1F701E00FF11F108238C088
:10231000E114F104B9F0021513055CF4F701E00FC4
:10232000F11FB0820F5F1F4FF701E00FF11F808395
:1023300007C00615170534F4F701E00FF11FB0824E
:102340000F5F1F4F0615170554F4E114F10439F01F
:10235000F701E00FF11F898180830F5F1F4FC201DA
:10236000B601A4010E94640D882309F0BDCFE114D9
:10237000F10421F00E0D1F1DF801108200E010E0A5
:10238000C8010F90CF91DF911F910F91FF90EF90B7
:10239000DF90CF90BF909F908F907F906F905F90D5
:1023A0004F903F902F900895BF92CF92DF92EF927F
:1023B000FF920F931F93DF93CF930F92CDB7DEB7AA
:1023C0008C017E010894E11CF11C47C089818C338B
:1023D00009F043C080933A047BE3E72E74E0F72EC4
:1023E000BB24B3946E010894C11CD11CC801B60172
:1023F00044EF51E00E94640D8823C9F18981F701FF
:1024000081937F01B3948E3321F5C801B60144EF67
:1024100051E00E94640D882351F18981803239F5A1
:10242000EB2DF0E0E65CFB4F8083B394EB2DF0E006
:10243000E65CFB4F108281E080933904C80160E0C4
:1024400070E040E050E024EF31E00E944C1181E068
:102450000FC0FB2DFC3051F60AC0C801B70144EF94
:1024600051E00E94640D882309F0B0CF01C080E0E4
:102470000F90CF91DF911F910F91FF90EF90DF9020
:10248000CF90BF9008951F93CF93DF93EC01AB01E2
:1024900080913904882371F4CE010E94D411182F41
:1024A000882371F4CE018F5B9F4F6AE975E00E942B
:1024B000B90706C0CE016AE374E00E94B10F182F7D
:1024C000812FDF91CF911F910895FF920F931F935A
:1024D000CF93DF93EC018D85882309F06FC06AEFFD
:1024E00070E080E090E00E94C206CE0166E975E0EF
:1024F0000E94610D6AEF70E080E090E00E94C206E9
:10250000CE0160E975E044EF51E00E94021088239B
:10251000F9F080913904882309F049C0E5E0FE2EE6
:102520008E01015C1F4FF801A081B181ED91FC91FA
:1025300011970190F081E02DCD016DE00995CE015C
:1025400064EF71E00E944312882389F5FA9459F7E9
:10255000FE01FF96A081B181ED91FC911197019050
:10256000F081E02DCD016DE00995CE0164EF71E0C1
:102570000E9443128823D9F405E06AEF70E080E0FE
:1025800090E00E94C206CE016CE875E00E94610DE9
:102590006AEF70E080E090E00E94C206CE0166E83B
:1025A00075E044EF51E00E940210882319F081E0A9
:1025B0008D8705C0015009F780E001C081E0DF91FF
:1025C000CF911F910F91FF900895CF93DF93EC016E
:1025D0008D85882329F4CE010E946512882339F065
:1025E0008E859F8501969F878E8781E001C080E060
:1025F000DF91CF910895FC01268537852150304029
:10260000378726872115310519F40E94291108956D
:1026100081E00895CF92DF92EF92FF920F931F9384
:10262000CF93DF93EC018B017A0169010E94E512DF
:10263000882349F1000F111F000F111F0B551D4F6B
:10264000F80160817181CE010E94610DF801628103
:102650007381CE0144EF51E00E940210882381F083
:10266000CE01B701A60124EF31E00E944C11CE014A
:1026700064EF71E00E944312CE010E94FB1207C07A
:10268000CE010E94FB12F2E4EF2EF2E0FF2EC70112
:10269000DF91CF911F910F91FF90EF90DF90CF903E
:1026A0000895CF92DF92EF92FF920F931F93DF93E3
:1026B000CF93CDB7DEB760970FB6F894DEBF0FBEED
:1026C000CDBF8C010E94E512882351F4C8018F5BB5
:1026D0009F4F60E575E00E94B907EE24FF2479C0A2
:1026E000C80168E475E00E94610DC8016E0108949C
:1026F000C11CD11CB60140E150E024EF31E00E9442
:102700004C117C01C801B6010E94A60F882351F02C
:10271000C801B60140E150E024EF31E00E944C11C5
:102720007C0105C0C80164EF71E00E944312CE0134
:10273000019625E0E216F1042CF097012450304078
:10274000820F931F0E94FD0B7B01862F8F70F80173
:1027500081AFC70144E0969587954A95E1F781706E
:1027600082AFC70135E0969587953A95E1F781707C
:1027700083AFC70126E0969587952A95E1F781708A
:1027800084AFC701880F892F881F990B919581709D
:1027900085AF8F2D86958F7086AFC8010E94FB1282
:1027A000F80191AD8485913049F497AB882389F085
:1027B000C8018F5B9F4F62E375E009C0F80117AA5B
:1027C000882339F0C8018F5B9F4F69E175E00E9453
:1027D000B907C70160960FB6F894DEBF0FBECDBF34
:1027E000CF91DF911F910F91FF90EF90DF90CF90ED
:1027F00008950F931F938B019A0160E070E0A80188
:102800000E940A13009749F0E02FF12FCF01219188
:10281000222329F02A33D1F702C0802F912FFC0107
:102820001082C8011F910F910895FB019A0161E088
:1028300070E0AF010E940A130895FB019A0162E063
:1028400070E0AF010E940A130895FB019A0163E052
:1028500070E0AF010E940A130895FB019A0164E041
:1028600070E0AF010E940A130895FB019A0165E030
:1028700070E0AF010E940A130895FF920F931F9317
:10288000DF93CF93CDB7DEB72B970FB6F894DEBFAB
:102890000FBECDBFF42E8E010F5F1F4FA8012BE09E
:1028A00030E00E940A13009769F08F2D8A3021F4DE
:1028B000C8010E94630C03C0C8010E94FD0B9B016C
:1028C000AC0103C020E030E0A901B901CA012B9698
:1028D0000FB6F894DEBF0FBECDBFCF91DF911F9131
:1028E0000F91FF900895AF92BF92CF92DF92EF9237
:1028F000FF920F931F93DF93CF930F92CDB7DEB765
:102900008C017B015A0169010E94E5128823B9F10B
:10291000C80161E175E00E94610DC801B7010E9424
:10292000560DC8016AE472E00E94560DC801B70155
:1029300048E853E10E94B10F8823C9F0C801BE01E5
:102940006F5F7F4F44EF51E00E94640DC801B501F5
:10295000A60124EF31E00E944C11C80164EF71E040
:102960000E944312C8010E94FB1281E009C0C80105
:1029700064EF71E00E944312C8010E94FB1280E0E4
:102980000F90CF91DF911F910F91FF90EF90DF900B
:10299000CF90BF90AF9008950F931F93DF93CF9385
:1029A000CDB7DEB760970FB6F894DEBF0FBECDBFD0
:1029B0006CE070E08E010F5F1F4FA80120E130E056
:1029C0000E940A130097B9F1C8016DE075E043E079
:1029D00050E00E946019009731F1C8016AE075E08B
:1029E00042E050E00E9460190097F9F0C80163E0EE
:1029F00075E046E050E00E9460190097C1F0C80100
:102A00006DEF74E045E050E00E946019009789F096
:102A1000C80166EF74E046E050E00E94601900973C
:102A200051F484E009C080E007C081E005C082E085
:102A300003C083E001C08FEF60960FB6F894DEBF4D
:102A40000FBECDBFCF91DF911F910F9108956EE022
:102A500070E04AE00E943D14CB010895CF92DF92CE
:102A6000EF92FF920F931F93DF93CF9300D000D08C
:102A7000CDB7DEB78C016B017A018FEB94E09A83BE
:102A8000898389EB94E09C838B83C801BE016F5FCF
:102A90007F4F42E024EF31E00E9468108130E9F07E
:102AA000882399F4C801B601A70124EF31E00E9400
:102AB0004C110F5B1F4FC80163EB74E00E94760757
:102AC000C801B6010E94CC0706C0C60169EA74E0DD
:102AD000A7010E946E1980E001C081E00F900F9065
:102AE0000F900F90CF91DF911F910F91FF90EF907A
:102AF000DF90CF9008958F929F92AF92BF92CF9226
:102B0000DF92EF92FF920F931F93DF93CF93CDB796
:102B1000DEB760970FB6F894DEBF0FBECDBF7C0165
:102B20004B015A0169010E94E512882309F46EC025
:102B3000C701B4010E94610DC114D10441F1C70164
:102B400060E20E94590D0023E9F086017FE4C72E60
:102B5000D12CCE0CDF1C0FC0F701A081B1816032F7
:102B600031F4ED91FC91C701D6016C9103C0ED9158
:102B7000FC91C7010995F8010F5F1F4F649166230F
:102B800059F72EC0C701B6010E94610D29C0A114DA
:102B9000B10431F1C70160E20E94590D0023E1F058
:102BA00085016FE4C62ED12CCE0CDF1C0FC0F701BF
:102BB000A081B181603231F4ED91FC91C701D60161
:102BC0006C9103C0ED91FC91C7010995F8016191E9
:102BD0008F01662361F704C0C701B5010E94560D3D
:102BE000C7016DE00E94590DC701BE016F5F7F4FA5
:102BF00040E150E00E942E15082FC70164EF71E0FC
:102C00000E944312C7010E94FB1201C000E0802F06
:102C100060960FB6F894DEBF0FBECDBFCF91DF91A7
:102C20001F910F91FF90EF90DF90CF90BF90AF90EA
:102C30009F908F900895AF92BF92CF92DF92EF92C4
:102C4000FF920F931F93DF93CF93CDB7DEB72B97F0
:102C50000FB6F894DEBF0FBECDBF6C015B01CA0199
:102C6000B901402F7E010894E11CF11C97010BE093
:102C700010E00E944E0BC601B501A70120E030E034
:102C800000E00E947B152B960FB6F894DEBF0FBEB6
:102C9000CDBFCF91DF911F910F91FF90EF90DF900B
:102CA000CF90BF90AF9008951F93CF93DF93EC0127
:102CB0000E94E5128823D9F0CE0163EA74E00E94F5
:102CC000610DCE016BE974E044EF51E00E94021007
:102CD000882339F0CE0164EF71E00E94431211E0C5
:102CE00001C010E0CE010E94FB12812F01C080E0E4
:102CF000DF91CF911F9108950F93AB016CE574E0C4
:102D000020E030E000E00E947B150F9108950F93C2
:102D1000AB0167E074E020E030E000E00E947B154A
:102D20000F9108950F939B0140E050E069EF73E02D
:102D30000AE00E941B160F910895EF92FF920F93E5
:102D40001F93CF93DF93EC018B017A010E94E51270
:102D5000882349F4CE018F5B9F4F68ED73E00E949A
:102D6000B90780E013C0CE01B8010E9487168823FE
:102D700041F0CE01B7010E949216882311F001E0C4
:102D800001C000E0CE010E94FB12802FDF91CF91A5
:102D90001F910F91FF90EF9008950F93DF93CF93C2
:102DA00000D0CDB7DEB76A3070F4605D69831A82F7
:102DB0006FE873E0AE014F5F5F4F20E030E000E06E
:102DC0000E947B1501C080E00F900F90CF91DF91A2
:102DD0000F9108950F93262F30E040E050E06FE709
:102DE00073E000E10E941B160F9108950E94EA16FD
:102DF00008950F939B0140E050E067EF72E00AE016
:102E00000E941B160F9108950F936BEB72E040E048
:102E100050E020E030E000E00E947B150F91089523
:102E200061E00E94CD1608950F93AB016DEA72E048
:102E300020E030E000E00E947B150F9108950F9391
:102E40001F93CF93DF93EC01AB0162E872E020E0C7
:102E500030E001E00E947B15182FCE010E9404177C
:102E6000812FDF91CF911F910F9108956BE170E059
:102E700040E10E943D14862F08950F93CF93DF9376
:102E8000EC011CAA1BAA1B8A63EF76E040E050E02D
:102E900020E030E000E00E947B15882339F4CE0169
:102EA0008F5B9F4F6BED76E00E94B907CE0168EC17
:102EB00076E040E050E020E030E000E00E947B154A
:102EC000882339F4CE018F5B9F4F6BEA76E00E9436
:102ED000B907CE0169E976E040E050E020E030E05B
:102EE00000E00E947B15882339F4CE018F5B9F4F51
:102EF0006FE776E00E94B907CE010E945113CE0120
:102F00000E94CC14882319F091E0843009F490E0F9
:102F1000988BCE010E943617C15BDF4F8883DF910B
:102F2000CF910F910895CF93DF93EC010E94E512AA
:102F3000882301F1CE0163E974E00E94610DCE01A6
:102F40006AE874E044EF51E00E940210882321F403
:102F5000CE010E94FB120EC068E873E180E090E0B1
:102F60000E94C2061D861F861E86CE010E943D1746
:102F700081E001C080E0DF91CF910895CF92DF9290
:102F8000EF92FF920F931F93DF93CF9300D000D067
:102F9000CDB7DEB78C017B016A0184EF91E09A83A3
:102FA000898388EE91E09C838B83C8010E94E5129F
:102FB000882309F444C0C80162EE71E00E94610DEB
:102FC000E114F10421F0C801B7010E94560DC801B7
:102FD00060EE71E00E94610DC801BE016F5F7F4F1E
:102FE00042E096010E946810E82EC80164E670E095
:102FF0000E94850F8E2D8130F9F4F801E2AE8089B0
:10300000882361F0C8016CED71E048E95AE30E9441
:103010000210C80164E670E00E94850FC80160E0FC
:1030200070E040E050E024EF31E00E944C11C80114
:103030000E94FB1281E004C0C8010E94FB1280E0E4
:103040000F900F900F900F90CF91DF911F910F91E4
:10305000FF90EF90DF90CF900895EF92FF920F9343
:103060001F93DF93CF93CDB7DEB7C054D0400FB6D8
:10307000F894DEBF0FBECDBF7C018E010F5F1F4FE6
:10308000B80140E450E00E942D14C701B80140E2AD
:103090005EE40E94BE17C05CDF4F0FB6F894DEBF3F
:1030A0000FBECDBFCF91DF911F910F91FF90EF9099
:1030B000089521E0FC0182AD813009F020E0822FEB
:1030C0000895FF920F931F93F62E072F10E08F2D78
:1030D000902F0E94630C6F3F71058105910509F0E7
:1030E00070F4EF2DF02FFE2E0F2F8191982F90531B
:1030F0009A30C8F38E3219F41F5F133041F780E025
:103100001F910F91FF900895DF92EF92FF920F931E
:103110001F93DF93CF93CDB7DEB760970FB6F894C8
:10312000DEBF0FBECDBF7C01162F072F0E94611896
:10313000882381F4C701612F702F8E010F5F1F4F0D
:10314000A80120E130E00E947314882309F44FC0E5
:10315000D02E02C0D12E102FC7010E94E512C70148
:1031600067EC71E00E94610DC7016D2D712F0E9407
:10317000560DC7016DE00E94590DC7016EEB71E05D
:1031800044EF51E00E940210C70160E070E040E0AF
:1031900050E024EF31E00E944C11C70164EF71E070
:1031A0000E944312882301F1C70165EB71E048E8F2
:1031B00053E10E9402108823B9F0C70160E070E07B
:1031C00040E050E024EF31E00E944C11C70160E084
:1031D00070E040E050E028E833E10E944C11C70164
:1031E0000E94FB1281E004C0C7010E94FB1280E034
:1031F00060960FB6F894DEBF0FBECDBFCF91DF91C2
:103200001F910F91FF90EF90DF9008950F9383E34C
:1032100094E060E040E020E000E00E94FF0A0F91AF
:103220000895629FD001739FF001829FE00DF11D10
:10323000649FE00DF11D929FF00D839FF00D749F30
:10324000F00D659FF00D9927729FB00DE11DF91FDC
:10325000639FB00DE11DF91FBD01CF011124089539
:10326000A1E21A2EAA1BBB1BFD010DC0AA1FBB1F8A
:10327000EE1FFF1FA217B307E407F50720F0A21BFC
:10328000B30BE40BF50B661F771F881F991F1A9469
:1032900069F760957095809590959B01AC01BD0193
:1032A000CF010895EE0FFF1F0590F491E02D0994D2
:1032B000803209F091113BC080528F55E0F708959C
:1032C000FB01DC014150504030F08D910590801998
:1032D00019F40020B9F7881B990B0895FB01DC0154
:1032E0004150504048F005900D920020C9F701C0B0
:1032F0001D9241505040E0F70895FB015191552334
:10330000A9F0BF01DC014D9145174111E1F759F4D6
:10331000CD010190002049F04D9140154111C9F3B4
:10332000FB014111EFCF81E090E0019708959927CB
:0833300088270895F894FFCFEF
:103338005465726D696E616C2072656164790053C1
:10334800656E64696E67206D6573736167652000DB
:1033580048656C6C6F2C20636F756E743D005374F8
:10336800617274696E670046726565206D656D6F80
:1033780072793A2000526573746F72696E672066BD
:103388006C7573682074696D656F757420746F202F
:1033980031306D73656373004A6F696E696E6720BB
:1033A8006E6574776F726B004A6F696E656420771B
:1033B800696669206E6574776F726B004661696C27
:1033C800656420746F206A6F696E2077696669206A
:1033D8006E6574776F726B00416C726561647920F9
:1033E8006A6F696E6564206E6574776F726B0070C2
:1033F800696E672000202E2E2E20006F6B006661FC
:10340800696C65640070696E6720676F6F676C65CB
:103418002E636F6D202E2E2E2000676F6F676C65F0
:103428002E636F6D003139322E3136382E312E36FB
:1034380030004D41433A200049503A20004E65740F
:103448006D61736B3A2000476174657761793A2042
:10345800005769666C792D55445000446576696358
:103468006549443A20005769466C79207265616461
:1034780079003C6572726F723E000D00726174656E
:103488003A200020007769666C79303931325F65FF
:103498006D6231007769666C795F313937330000C6
:1034A80000000032093307D6080509E90827090092
:1034B800000000BC0A00000000E60C3307270B1AC6
:1034C8000B410B340B00000000960C3307C50E3B74
:1034D8000FBE0CDA0CFD060507FD060907FD060DF3
:1034E8000711071A0724072E0734073D0747074E19
:1034F80007580763075807690771077B0781078A19
:103508000793079D07FD06A2074707A807AE07B858
:1035180007AE07C407AE07CF07DA07E507FD06EDD4
:1035280007FD06F607FD06FC0703080E0803081644
:103538000803081D082407250824072B0824073139
:063548000834073A0800F8
:00000001FF
