:100000000C949C040C94C4040C94C4040C942C0D07
:100010000C94500D0C94740D0C94C4040C94C404F2
:100020000C94C4040C94C4040C94C4040C94C40430
:100030000C94C4040C94C4040C94C4040C94C40420
:100040000C94F1060C94C4040C94340A0C946C0ABD
:100050000C94C4040C94C4040C94C4040C94C40400
:100060000C94C4040C94C40400C2010001001100EB
:1000700011000C0000E100000A002500250021000D
:10008000009600001900390039003600127A00008D
:100090001F004600460044008070000022004D0012
:1000A0004D004A00004B00003600750075007200DC
:1000B000403800004A009C009C0099008025000008
:1000C0007200EC00EC00E900C0120000E900DA0167
:1000D000DA01D70160090000D701B603B603B30304
:1000E000B0040000B3036E076E076B072C0100001D
:1000F000DC0EC11DC11DBE1D636C6F73653A2066A9
:1001000061696C65642C206E6F202A434C4F532A22
:1001100000636C6F73653A20676F74202A434C4FFD
:10012000532A002A434C4F532A00636C6F73650DAA
:10013000005465726D696E616C207265616479004E
:10014000556E657870656374656420726573703A86
:1001500020004661696C656420746F20636F6E6E69
:100160006563743A20004F50454E2A00656E616207
:100170006C65486F7374526573746F72653A20735F
:10018000746F7265642000302E302E302E30007374
:10019000656E64746F3A206661696C656420746F83
:1001A00020737461727420636F6D6D616E64003CC6
:1001B00074696D656F75743E00556E657870656322
:1001C00074656420636861723A20004661696C65F9
:1001D0006420746F20636F6E6E6563743A20004F05
:1001E00050454E2A005769466C7920686173206338
:1001F00072617368656420616E642077696C6C203D
:100200007265626F6F742E2E2E004661696C656494
:1002100020746F206765742070726F6D7074000DAC
:10022000006F70656E20006F70656E20003235358E
:100230002E3235352E302E30003136392E323534CF
:100240002E312E3100363420627974657300506986
:100250006E67207472790070696E67200073657430
:1002600020752069006C656176650D0047573D007B
:100270000D006A6F696E20004173736F636961746A
:10028000656421004641494C454400736574206112
:1002900064686F632070726F6265007365742061BB
:1002A00064686F6320626561636F6E0073657420BC
:1002B000776C616E2074780040420F000080841ECD
:1002C000000160EC530002808D5B000840548900FF
:1002D00009C0D8A70003001BB7000A80A812010BB1
:1002E00000366E010C005125020D006CDC020E8000
:1002F000F937030F73657420776C616E2072617437
:100300006500736574206F7074207265706C616332
:10031000650073657420776C616E2070687261731C
:10032000650073657420776C616E206B657900736E
:10033000657420776C616E206368616E007365740C
:1003400020776C616E207373696400736574207725
:100350006C616E2068696465203100736574207378
:10036000797320696F66756E630073657420636FBF
:100370006D6D2073697A650073657420636F6D6DB0
:10038000206D617463680073657420636F6D6D2008
:1003900074696D6500302E302E302E300073657418
:1003A0002062726F61646361737420696E74657238
:1003B00076616C007365742075617274206D6F6472
:1003C00065007365742074696D6520656E61626C8B
:1003D00065007365742074696D65207A6F6E6500C1
:1003E0007365742074696D6520706F727400736535
:1003F000742074696D652061646472657373007341
:1004000065742069702070726F746F636F6C007315
:1004100065742069702070726F746F636F6C007305
:10042000657420697020646863700073657420646B
:100430006E73206164647265737300736574206900
:1004400070206761746577617900736574206970E5
:10045000206E65746D61736B007365742069702024
:100460006E65746D61736B00536574486F73743A95
:10047000206661696C656420746F207374617274A6
:1004800020636F6D6D616E64007365742069702008
:1004900072656D6F74650073657420697020686F94
:1004A00073740073657420697020686F73740073CF
:1004B0006574206970206C6F63616C706F7274007A
:1004C000736574206970206164647265737300736E
:1004D000657420697020616464726573730073656C
:1004E0007420776C616E206A6F696E00736574208A
:1004F0006F20640053657420466163746F727920C5
:1005000044656661756C747300666163746F7279BB
:1005100020524553544F52450D002A5265626F6F69
:10052000742A007265626F6F740D0053746F726984
:100530006E6700736176650D003C74696D656F755B
:10054000743E004552523A2000414F4B0D0A00457F
:1005500052523A2000015544502C0000025443509E
:100560002C000004534543555200085443505F4348
:100570000010485454502C00205241572C00004089
:10058000534D54502C00534552564552004341435D
:100590004845004155544F4950004F4E004F464684
:1005A000006C6F6F6B75702000676574436F6E3AF7
:1005B0002054435020646973636F6E6E6563746585
:1005C0006400676574436F6E3A2054435020636F34
:1005D0006E6E65637465640073686F7720630D00E9
:1005E000676574436F6E3A206661696C6564207458
:1005F0006F207374617274004661696C6564207465
:100600006F20657869740A0D00455849540D0A0039
:10061000657869740D00434D440D0A0024242400BC
:10062000434D440D0A002424240073657450726FF6
:100630006D7074206661696C6564006D756C7469B9
:100640004D617463685F503A20006D617463685F48
:10065000503A20007265616454696D656F7574204D
:100660002D2074696D6564206F7574003A20003A1E
:10067000200064656275672064756D700061766145
:10068000696C61626C653A207065656B203D200085
:100690002A4F50454E2A002A434C4F532A004552B8
:1006A000524F52207065656B2E322062756666650A
:1006B00072206F7665726C6F77004552524F5220F0
:1006C0007065656B2E3120627566666572206F7687
:1006D00065726C6F77004661696C656420746F2089
:1006E0006578697420636F6D6D616E64206D6F64F1
:1006F00065004661696C656420746F20656E746581
:100700007220636F6D6D616E64206D6F646500466D
:1007100061696C656420746F2073657420636F6D0C
:100720006D2072656D6F74650073657420636F6D05
:100730006D2072656D6F74652030004661696C656F
:100740006420746F207475726E206F6666207379F2
:1007500073207072696E74007365742073797320EE
:100760007072696E746C766C2030004661696C65DD
:100770006420746F207475726E206F6666206563E6
:10078000686F007365742075206D20310067657493
:100790002069700D0049503D004E4D3D0047573DCA
:1007A00000676574206D61630D004D6163204164D5
:1007B00064723D0067657420776C616E0D00535361
:1007C00049443D00676574206F70740D0044657680
:1007D00069636549643D0067657420750D00426179
:1007E0007564726174653D0073686F772074696D1C
:1007F000650D0054696D653D00557054696D653D2A
:10080000006765742074696D650D005A6F6E653DF3
:100810000067657420646E730D00416464726573D3
:10082000733D0073686F77207420740D0052544339
:100830003D00444843503D004D6F64653D00676591
:100840007420636F6D6D0D00466C75736854696D2F
:1008500065723D004D61746368436861723D004696
:100860006C75736853697A653D0073686F772072A1
:100870007373690D00525353493D282D00464C4176
:1008800047533D307800484F53543D0050524F5429
:100890004F3D00676574206164686F630D004265B9
:1008A00061636F6E3D0050726F62653D005265621C
:1008B0006F6F743D004A6F696E3D00526174653D13
:1008C000005478506F7765723D005265706C6163BB
:1008D000653D0000000000240027002A0000000001
:1008E00000250028002B000000000023002600291E
:1008F00000040404040404040402020202020203C9
:1009000003030303030102040810204080010204D2
:100910000810200102040810200000000700020156
:100920000000030406000000000000000000E706CD
:10093000260BB60B081DEC0611241FBECFEFD4E02A
:10094000DEBFCDBF13E0A0E0B1E0E4EFFCE302C006
:1009500005900D92AC33B107D9F714E0ACE3B3E0E6
:1009600001C01D92A13EB107E1F719E0C6E3D9E04D
:1009700004C02297FE010E94271ECE32D107C9F77C
:100980000E94CF070C946D1E0C9400000F938130D1
:100990009105A1F48CE393E066E047E020E00E943B
:1009A000E60D86EB93E060E040E020E000E00E948E
:1009B000AA0B88E593E00E94D01006C0009721F4AE
:1009C0008CE393E00E94E90E0F910895DC01ED9114
:1009D000FC910190F081E02D099508958DE494E05B
:1009E00060E071E00E94770888E593E00E949C1225
:1009F000181619064CF488E593E00E941213BC0106
:100A00008DE494E00E94E6048DE494E00E94810964
:100A1000009751F38DE494E00E94B009682F88E5B7
:100A200093E00E946D10E0CF0E9439072091AE0341
:100A30003091AF034091B0035091B103621B730B2F
:100A4000840B950B693E23E0720720E0820720E0CB
:100A5000920708F445C08091B2039091B303A0912E
:100A6000B403B091B5030196A11DB11D8093B203EB
:100A70009093B303A093B403B093B5038DE494E0D3
:100A80006FE071E00E9444084091B2035091B303BB
:100A90006091B4037091B5038DE494E02AE030E0F6
:100AA0000E94060988E593E060E271E00E94440834
:100AB0004091B2035091B3036091B4037091B503B8
:100AC00088E593E02AE030E00E9406090E94390799
:100AD0006093AE037093AF038093B0039093B10320
:100AE0008DE494E00E948109009749F08DE494E040
:100AF0000E94B0098437910511F40E94EE04089514
:100B00000F931F93DF93CF93CDB7DEB7A0970FB6A8
:100B1000F894DEBF0FBECDBF8DE494E040E052EC10
:100B200061E070E00E94A70A8DE494E06EE271E05B
:100B30000E9477088DE494E067E371E00E94440826
:100B400088E593E00E941111BC018DE494E04AE035
:100B500050E00E9466098CE393E040E855E260E0D3
:100B600070E00E94130E88E593E06CE373E040E0D0
:100B700050E00E94951B882341F48DE494E065E4E5
:100B800071E00E9477080E94EE0488E593E00E94DD
:100B9000FE188A309105A1F08DE494E06BE571E0D8
:100BA0000E94770888E593E06AE070E00E94D01A1E
:100BB00088E593E00E942B1A88E593E00E946A1B67
:100BC00088E593E00E945B1C882361F58DE494E046
:100BD0006EE771E00E94770888E593E06BE672E0CB
:100BE0000E94EB1A88E593E06AE772E00E94F61A29
:100BF00088E593E00E94E71A88E593E060E27EE4EE
:100C00000E942F1C882329F08DE494E06EE871E0A7
:100C10000DC08DE494E062EA71E00E9477080E94C2
:100C2000EE0406C08DE494E06EEB71E00E9477085C
:100C300088E593E08E010F5F1F4FB80140E250E05E
:100C40000E94F4178DE494E065ED71E00E94440881
:100C50008DE494E0B8010E9444088DE494E06BEDCB
:100C600071E00E94440888E593E0B8010E94861C68
:100C7000882329F08DE494E061EE71E004C08DE4F6
:100C800094E064EE71E00E9477088DE494E06BEEEE
:100C900071E00E94440888E593E060E072E00E9401
:100CA000861C882329F08DE494E061EE71E004C095
:100CB0008DE494E064EE71E00E94770888E593E0AB
:100CC00061E00E94CD1A88E593E06BE072E04AE6AD
:100CD0005FE10E94741A8DE494E068E172E00E9482
:100CE000440888E593E08E010F5F1F4FB80140E292
:100CF00050E00E94FC17BC018DE494E00E9477084C
:100D00008DE494E06EE172E00E94440888E593E08F
:100D1000B80140E250E00E94D017BC018DE494E09D
:100D20000E9477088DE494E063E272E00E94440838
:100D300088E593E0B80140E250E00E94EC17BC0166
:100D40008DE494E00E9477088DE494E06DE272E017
:100D50000E94440888E593E0B80140E250E00E9418
:100D6000F417BC018DE494E00E94770888E593E0D5
:100D700067E372E00E94531A8DE494E061E472E04C
:100D80000E94440888E593E0B80140E250E00E94E8
:100D90000C18BC018DE494E00E94770888E593E08C
:100DA0006BE072E04AE65FE10E94741A8DE494E021
:100DB0006CE472E00E947708A0960FB6F894DEBF4C
:100DC0000FBECDBFCF91DF911F910F91089581E0AC
:100DD00090E00E94C604089580E090E00E94C6045E
:100DE00008951F920F920FB60F9211242F933F93E5
:100DF0008F939F93AF93BF938091C0039091C10352
:100E0000A091C203B091C3033091C4030196A11D08
:100E1000B11D232F2D5F2D3720F02D570196A11DD9
:100E2000B11D2093C4038093C0039093C103A0938A
:100E3000C203B093C3038091BC039091BD03A09102
:100E4000BE03B091BF030196A11DB11D8093BC03E9
:100E50009093BD03A093BE03B093BF03BF91AF9126
:100E60009F918F913F912F910F900FBE0F901F90E8
:100E700018958FB7F8942091C0033091C103409129
:100E8000C2035091C3038FBFB901CA0108959FB730
:100E9000F8942091BC033091BD034091BE03509162
:100EA000BF0386B5A89B06C08F3F21F02F5F3F4F41
:100EB0004F4F5F4F9FBF542F432F322F2227280FB2
:100EC000311D411D511D82E0220F331F441F551F4C
:100ED0008A95D1F7B901CA010895EF92FF920F9355
:100EE0001F93CF93DF937B018C010E944707EB0197
:100EF0000FC00E9447076C1B7D0B83E0683E78079C
:100F000038F00894E108F10801091109C851DC4FD3
:100F1000E114F1040105110561F7DF91CF911F91F3
:100F20000F91FF90EF900895789484B5826084BD0E
:100F300084B5816084BD85B5826085BD85B58160DD
:100F400085BDEEE6F0E0808181608083E1E8F0E03D
:100F50001082808182608083808181608083E0E86C
:100F6000F0E0808181608083E1EBF0E0808184604B
:100F70008083E0EBF0E0808181608083EAE7F0E04D
:100F800080818460808380818260808380818160B1
:100F900080838081806880831092C1000895CF9300
:100FA000DF930E9494070E948005C3E6DAE00E9466
:100FB00014052097E1F30E94630AF9CFCF92DF92E4
:100FC000EF92FF920F931F93CF93DF936C017B01FE
:100FD0008A01C0E0D0E00FC0D7016D917D01D6013C
:100FE000ED91FC910190F081E02DC6010995C80FAB
:100FF000D91F015010400115110571F7CE01DF9185
:10100000CF911F910F91FF90EF90DF90CF900895B7
:101010006115710591F0DB010D900020E9F7AD013C
:1010200041505040461B570BDC01ED91FC91028072
:10103000F381E02D09959C0102C020E030E0C90158
:101040000895EF92FF920F931F93CF93DF937C014C
:10105000062F172FC0E0D0E0F8010F5F1F4F6491FB
:10106000662351F0F701A081B181ED91FC91C70198
:101070000995C80FD91FF0CFCE01DF91CF911F91F5
:101080000F91FF90EF9008950E9408080895DC01E9
:10109000ED91FC910190F081E02D099508950F9359
:1010A0001F93CF93DF93EC016DE00E9447088C0102
:1010B000CE016AE00E944708080F191FC801DF919E
:1010C000CF911F910F9108950F931F93CF93DF93AB
:1010D000EC010E9421088C01CE010E944F08080FEC
:1010E000191FC801DF91CF911F910F9108950F93A0
:1010F0001F93CF93DF93EC010E9408088C01CE016F
:101100000E944F08080F191FC801DF91CF911F914E
:101110000F9108950F931F93CF93DF93EC010E94DB
:1011200047088C01CE010E944F08080F191FC80103
:10113000DF91CF911F910F9108958F929F92AF925F
:10114000BF92CF92DF92EF92FF920F931F93DF93A4
:10115000CF93CDB7DEB7A1970FB6F894DEBF0FBE21
:10116000CDBF6C01042FE52FCB01122F19A2223025
:1011700008F41AE021E2E22EF12CEC0EFD1E812E85
:101180009924AA24BB2403C0022FE32FCA01602F95
:101190007E2FA50194010E94EF1D129F802D112426
:1011A000081B0894E108F1080A3014F4005D01C03E
:1011B000095CF7010083211531054105510521F72F
:1011C000C601B7010E940808A1960FB6F894DEBFC9
:1011D0000FBECDBFCF91DF911F910F91FF90EF9088
:1011E000DF90CF90BF90AF909F908F900895211582
:1011F000310549F4DC01ED91FC910190F081E02D85
:10120000642F099508950E949D0808950F931F93D8
:10121000CF93DF93EC010E94F7088C01CE010E946E
:101220004F08080F191FC801DF91CF911F910F912F
:1012300008959A01462F50E060E070E00E94F708A0
:101240000895CF92DF92EF92FF920F931F93CF9367
:10125000DF93EC017A018B012115310541F4E8811E
:10126000F9810190F081E02D642F09951AC02A3090
:101270003105A9F477FF12C06DE20E9447086C01A6
:1012800044275527BA014E195F09600B710BCE0137
:101290002AE00E949D08C80ED91E04C02AE00E94C0
:1012A0009D086C01C601DF91CF911F910F91FF90B6
:1012B000EF90DF90CF9008959A01FB01AF01662770
:1012C00057FD6095762F0E94210908950F931F9373
:1012D000CF93DF93EC019A01CB01AC01662757FD58
:1012E0006095762FCE010E9421098C01CE010E94CB
:1012F0004F08080F191FC801DF91CF911F910F915F
:101300000895FC0184859585FC01E05CFF4F2081F8
:1013100031818E5B9F4FFC0180819181281B390BAD
:101320002F733070C9010895FC0184859585FC01F7
:10133000E05CFF4F40815181FC01EE5BFF4F20815B
:1013400031814217530741F00190F081E02DE80F01
:10135000F91F208130E002C02FEF3FEFC90108954F
:10136000FC0184859585FC01E05CFF4F4081518143
:10137000FC01EE5BFF4F208131814217530771F072
:10138000A081B181A80FB91F2C9180819181019614
:101390008F7390709183808330E002C02FEF3FEF16
:1013A000C9010895FC0181A1882329F0A489B58988
:1013B0008C9186FFFBCF11A20895FC01268537850D
:1013C000D901A05CBF4F8D919C9101968F73907055
:1013D000D901AE5BBF4F4D915C9111978417950772
:1013E000D1F3D901A05CBF4F0D90BC91A02DA20FED
:1013F000B31F6C93A685B785A05CBF4F11969C93D5
:101400008E93A689B7892C9181E090E0078C02C069
:10141000880F991F0A94E2F7282B2C9381E081A36F
:101420000488F589E02D80818064808381E090E0EC
:101430000895FB01E05CFF4F208131812F5F3F4F1A
:101440002F733070DB01AE5BBF4F4D915C911197F4
:101450002417350739F0A081B181A60FB71F8C93EF
:1014600031832083089508951F920F920FB60F9233
:1014700011242F933F934F935F936F937F938F9399
:101480009F93AF93BF93EF93FF938091C00082FD32
:1014900007C08091C60065EC73E00E94190A02C083
:1014A0008091C600FF91EF91BF91AF919F918F9175
:1014B0007F916F915F914F913F912F910F900FBE50
:1014C0000F901F9018958DE494E00E948109009779
:1014D00011F00E94330A08951F920F920FB60F92D7
:1014E00011242F933F938F939F93EF93FF9320911A
:1014F000490430914A0480914B0490914C04281780
:10150000390731F48091C1008F7D8093C10014C0F0
:10151000E0914B04F0914C04E75FFB4F20818091F8
:101520004B0490914C0401968F73907090934C04EF
:1015300080934B042093C600FF91EF919F918F9170
:101540003F912F910F900FBE0F901F901895DF9233
:10155000EF92FF920F931F93CF93DF93EC017A01E9
:101560008B01DD24D394403081EE580780E068077A
:1015700080E0780749F4DD24EC89FD89108260E879
:1015800074E88EE190E00FC0EC89FD8981E090E085
:1015900008A002C0880F991F0A94E2F7808360E0D8
:1015A00079E08DE390E0A80197010E94EF1D2150A2
:1015B000304040405040569547953795279580E1FB
:1015C0002030380710F0DD20B1F6E889F989308342
:1015D000EA89FB89208319A2EE89FF89408181E095
:1015E00090E09C010C8C02C0220F331F0A94E2F79A
:1015F000422B4083EE89FF8940819C010D8C02C003
:10160000220F331F0A94E2F7422B4083EE89FF89B1
:1016100040819C010E8C02C0220F331F0A94E2F716
:10162000422B4083EE89FF8920810F8C02C0880FF6
:10163000991F0A94E2F7809582238083DF91CF91EE
:101640001F910F91FF90EF90DF900895109250043A
:1016500010924F0488EE93E0A0E0B0E08093510434
:1016600090935204A0935304B0935404EFE4F4E035
:1016700089E892E09293829385EC93E09587848742
:1016800089E094E09787868785EC90E0918B808B4A
:1016900084EC90E0938B828B80EC90E0958B848B34
:1016A00081EC90E0978B868B82EC90E0918F808F1D
:1016B00086EC90E0938F828F84E0848F83E0858F27
:1016C00087E0868F85E0878F81E080A308958F92E1
:1016D0009F92AF92BF92CF92DF92EF92FF920F93C1
:1016E0001F93CF93DF934C017B0182E0A82EB12C96
:1016F000A80CB91CC0E0D0E0CC24DD24F501619138
:101700005F01C7014AE050E00E9419098C01C7013E
:101710006EE20E944708080F191FC00ED11E2196C5
:10172000C330D10559F7C701F40165814AE050E0A3
:101730000E941909C80ED91EC601DF91CF911F91D1
:101740000F91FF90EF90DF90CF90BF90AF909F9060
:101750008F9008950F93FC0189E992E09183808333
:1017600062834383248305830F91089589E992E07E
:101770009093700480936F0410927104109272041D
:10178000109273041092740408952091750430919E
:10179000760428173907B1F49091B8048091B70402
:1017A000981781F0E091B804F0E0E958FB4F2081F0
:1017B0008091B80490E001968F7390708093B80484
:1017C00030E002C02FEF3FEFC9010895209175046A
:1017D000309176042817390779F48091B704209165
:1017E000B80490E0805C9F4F821B910960E470E038
:1017F0000E94DC1D9C0102C020E030E0C901089578
:1018000020917504309176042817390749F48FB771
:10181000F8941092B7049091B7049093B8048FBFD6
:10182000089520917504309176042817390781F4C2
:101830009091B8048091B704981751F0E091B804E2
:10184000F0E0E958FB4F2081332727FD309502C097
:101850002FEF3FEFC901089520E001972FEF8F3F51
:101860009207D9F70895FC01809175049091760450
:101870008E179F0791F0838D8E7F838F8FB7F8949B
:101880001092B7049091B7049093B804F093760443
:10189000E09375048FBF81E0089580E00895EF9292
:1018A000FF920F931F93CF93DF93EC018B8DEE8507
:1018B000FF859D8581FF04C08081892329F445C06F
:1018C0008081892309F041C08B899C890E942C0C5E
:1018D00008E010E0EE24E394FF248D899E890E94A5
:1018E0002C0CEE85FF8580819D85892311F0FE28D3
:1018F00003C08E2D8095F822EE0C0150104069F740
:101900008F89988D0E942C0C8B8D81FDF094809195
:10191000B7042091B80490E001968F73907030E086
:101920008217930779F0E091B704F0E0E958FB4F94
:10193000F0828091B70490E001968F73907080934D
:10194000B70403C08B8D81608B8FDF91CF911F9186
:101950000F91FF90EF900895FC01A189B2899089C1
:10196000662329F42C91892F8095822302C08C91C3
:10197000892B8C930895DF92EF92FF920F931F9320
:10198000CF93DF93EC01E62E898D9A8D009739F481
:1019900081E090E09B838A8320E030E04BC0DFB69B
:1019A000F8948B8D61E081FF60E0CE010E94AC0C69
:1019B000898D9A8D05960E942C0C8B8D81FF19C004
:1019C00008E010E0FF24F3948F2D8E2119F0CE0152
:1019D00060E002C0CE0161E00E94AC0C898D9A8D5E
:1019E0000E942C0CFF0C0150104071F7CE0160E0FA
:1019F00018C008E010E0FF24F3948F2D8E2119F019
:101A0000CE0161E002C0CE0160E00E94AC0C898D85
:101A10009A8D0E942C0CFF0C0150104071F7CE01E2
:101A200061E00E94AC0CDFBE898D9A8D0E942C0C67
:101A300021E030E0C901DF91CF911F910F91FF901C
:101A4000EF90DF900895809175049091760400974F
:101A500011F00E944F0C08951F920F920FB60F9233
:101A600011242F933F934F935F936F937F938F93A3
:101A70009F93AF93BF93EF93FF930E94230DFF912A
:101A8000EF91BF91AF919F918F917F916F915F91F6
:101A90004F913F912F910F900FBE0F901F9018956F
:101AA0001F920F920FB60F9211242F933F934F93D3
:101AB0005F936F937F938F939F93AF93BF93EF93B6
:101AC000FF930E94230DFF91EF91BF91AF919F91E2
:101AD0008F917F916F915F914F913F912F910F90D7
:101AE0000FBE0F901F9018951F920F920FB60F9276
:101AF00011242F933F934F935F936F937F938F9313
:101B00009F93AF93BF93EF93FF930E94230DFF9199
:101B1000EF91BF91AF919F918F917F916F915F9165
:101B20004F913F912F910F900FBE0F901F901895DE
:101B30001F93CF93DF93EC01162F862F61E00E9455
:101B4000401D812F61E00E94851D812F90E0FC01E6
:101B5000EB5FF64FE491E88BFC01EF50F74FE49117
:101B6000F0E0EE0FFF1FE352F74F85919491898BC0
:101B70009A8BDF91CF911F9108951F93CF93DF939D
:101B8000EC01162F862F60E00E94401D8B8D81FD99
:101B900004C0812F61E00E94851D1C87812F90E089
:101BA000FC01EB5FF64FE491ED87FC01EF50F74F3E
:101BB000E491F0E0EE0FFF1FE951F74F859194910A
:101BC0008E879F87DF91CF911F9108951F93CF93A9
:101BD000DF93EC01162F1B821A8288EE93E0A0E0BF
:101BE000B0E08C839D83AE83BF838FE992E09983BD
:101BF00088831C8A1B8A1E8A1D8A188E1F8A1A8E49
:101C0000198E8B8D2170220F8C7F822B8B8FCE01B2
:101C1000642F0E94980DCE01612F0E94BD0DDF91AF
:101C2000CF911F910895EF92FF920F931F93CF933F
:101C3000DF93EC017A018B011A8E198E188E1F8AA0
:101C40001E8A1D8A1C8A1B8A40E050E09A01220FDE
:101C5000331F240F351F220F331F220F331FF901AB
:101C6000E859FF4F85919591A591B4918E159F05E7
:101C7000A007B107E9F4F901E459FF4F8591949168
:101C80008B8B9C8BF901E259FF4F859194918D8B41
:101C90009E8BF901E059FF4F859194918F8B988F1E
:101CA0002E583F4FF90185919491898F9A8F06C0E4
:101CB0004F5F5F4F4C30510509F0C8CF8F89988D29
:101CC000009709F448C09C85963108F040C02091E7
:101CD0006800983020F09E3020F082E003C084E05D
:101CE00001C081E0822B809368004C85483048F029
:101CF0004E3060F04631C8F1A0E0B0E0E0E0F0E046
:101D000009C0ADE6B0E0EDE6F0E004C0ABE6B0E05F
:101D1000EBE6F0E05081483040F481E090E002C012
:101D2000880F991F4A95E2F710C0242F30E04E30FB
:101D300018F42850304002C02E50304081E090E02E
:101D400002C0880F991F2A95E2F7852B8C93898D05
:101D50009A8D0E942C0CCE010E94330CDF91CF9102
:101D60001F910F91FF90EF900895ACE6B0E0ECE684
:101D7000F0E0D0CFFC014485463150F5483028F0E2
:101D80004E3030F0ECE6F0E005C0EDE6F0E002C0E9
:101D9000EBE6F0E05081483040F481E090E002C092
:101DA000880F991F4A95E2F710C0242F30E04E307B
:101DB00018F42850304002C02E50304081E090E0AE
:101DC00002C0880F991F2A95E2F7809585238083AA
:101DD00008952FE932E0FC01318320830E94BA0E7E
:101DE0000895DC011C968D919C911D97DC01ED916D
:101DF000FC910680F781E02D09950895DC011C9681
:101E00008D919C911D97DC01ED91FC910480F581F1
:101E1000E02D09950895DC011C968D919C911D97EC
:101E2000DC01ED91FC910284F385E02D0995089584
:101E3000DC011C968D919C911D97DC01ED91FC912C
:101E40000084F185E02D099508952F923F924F92DD
:101E50005F926F927F928F929F92AF92BF92CF923A
:101E6000DF92EF92FF920F931F93DF93CF93CDB743
:101E7000DEB760970FB6F894DEBF0FBECDBF6B0123
:101E80007C01590118014E010894811C911C4A30B3
:101E900021F500E010E09AE0492E512C612C712CC4
:101EA00002C069017A01C701B601A30192010E9433
:101EB000EF1D8C2D805D622F660F962F990F990F65
:101EC000960F891BF40181934F010F5F1F4F21155E
:101ED00031054105510529F732C0F40100E010E059
:101EE000D701C6018F709070A070B070282F8A3013
:101EF0009105A105B10510F480E301C081E4820FD2
:101F000081930F5F1F4F84E0F694E794D794C794B2
:101F10008A95D1F7C114D104E104F10409F7CE0187
:101F20000196FC01E00FF11F28E720830F5F1F4F90
:101F3000800F911F20E3FC0120830F5F1F4FFE01E4
:101F40003196E00FF11FD50120E030E00894210820
:101F5000310882918D932F5F3F4FC801821B930BF5
:101F6000181619061CF4221533059CF3F501E20F2F
:101F7000F31F1082C90160960FB6F894DEBF0FBE42
:101F8000CDBFCF91DF911F910F91FF90EF90DF9028
:101F9000CF90BF90AF909F908F907F906F905F9009
:101FA0004F903F902F9008950F931F93FC0100E0F6
:101FB00020E030E0A90155C0812F80538A30C0F461
:101FC000DA01C90144E0880F991FAA1FBB1F4A9577
:101FD000D1F7212F332727FD3095432F532F20533F
:101FE000304040405040280F391F4A1F5B1F39C006
:101FF000812F81568630A0F4CA01B90134E0660F02
:10200000771F881F991F3A95D1F7212F332727FD76
:102010003095432F532F275530404040504017C034
:10202000812F81548630C0F4CA01B90124E0660FC3
:10203000771F881F991F2A95D1F7212F332727FD56
:102040003095432F532F2753304040405040260FA8
:10205000371F481F591F05C0183739F4002329F4CA
:1020600001E01191112309F0A7CFB901CA011F9115
:102070000F910895EF92FF921F93CF93DF93E82E75
:10208000E7017E01F92EE70120E030E0A9011AC046
:10209000812F80538A30C8F4CA01B9012AE030E0A8
:1020A00040E050E00E94BD1D212F332727FD3095D1
:1020B000432F532F2053304040405040260F371FAE
:1020C000481F591F1991112319F7B901CA01DF914E
:1020D000CF911F91FF90EF900895DC01AE5ABF4F52
:1020E0002D913C911197FC01EC5AFF4F4081518199
:1020F000241735076CF4FC01E05BFF4F0190F08181
:10210000E02DE20FF31F60832F5F3F4F2D933C9331
:10211000CF96FC01A081B181ED91FC9111970190C6
:10212000F081E02DCD01099508952091D20422235C
:1021300069F4FC01FF9680819181DC01ED91FC91B5
:102140000084F185E02D09959C0109C0E091D3043C
:10215000F0E0EC52FB4F2081332727FD3095C90179
:102160000895FC01FF9680819181DC01ED91FC9145
:102170000284F385E02D09950895FC01A485B585B9
:10218000109751F0ED91FC9111970190F081E02DA5
:10219000CD0109959C0102C020E030E0C9010895FD
:1021A000FC011382128228EE33E040E050E02483E9
:1021B0003583468357838FEB92E091838083DF01E1
:1021C000AD5BBF4F1D921C92DF01AB5BBF4F2D93E8
:1021D0003D934D935C931397DF01AF5BBF4F8FEA45
:1021E00092E08D939C93DF01A35BBF4F1D921C92E5
:1021F00015861786168617AA10AE81E0808B818B14
:102200001486DF01A05BBF4F1D921C92DF01AE5A06
:10221000BF4F11961C921E92EC5AFF4F11821082F2
:102220000895DF93CF9300D0CDB7DEB78091DD0462
:102230009091DE049E012F5F3F4F009719F4215EBD
:10224000344002C0281B390B3A83298389819A8143
:102250000F900F90CF91DF9108950E944408089548
:10226000DC01ED91FC910190F081E02D099508953C
:102270000E94210808956F927F928F929F92AF9251
:10228000BF92CF92DF92EF92FF920F931F93CF9363
:10229000DF93EC013B018A010E9439074B015C018D
:1022A0006801EE24FF248E01015C1F4F6CC0D80131
:1022B0008D919C91DC01ED91FC910480F581E02DE4
:1022C0000995181619060CF05EC0F80180819181FD
:1022D000DC01ED91FC910680F781E02D0995C82E77
:1022E000F3018083DE01AE5ABF4F8D919C9111970F
:1022F000FE01EC5AFF4F20813181821793076CF465
:10230000FE01E05BFF4F0190F081E02DE80FF91F27
:10231000C082019611969C938E938C85882309F434
:1023200049C08E010F5B1F4F6091D0047091D104A2
:10233000CB0101969093D1048093D004C8014AE068
:1023400050E00E945C09C8016CE676E00E9421081A
:10235000CC2DDD27C7FDD095C801BE0140E150E07E
:102360000E945C09CE010E942D1E009741F0C80119
:1023700060E20E944708C8016C2D0E944708C8010E
:102380000E944F0817C00E943907681979098A0905
:102390009B096C157D058E059F0508F488CF8C85FB
:1023A000882351F0CE018F5B9F4F64E576E00E9459
:1023B000640802C081E001C080E0DF91CF911F91ED
:1023C0000F91FF90EF90DF90CF90BF90AF909F90D4
:1023D0008F907F906F900895DF92EF92FF920F930E
:1023E0001F93CF93DF93EC01FB012091D2042223B2
:1023F00001F1442319F0319691E001C090E0809101
:10240000D304890F13C03491332309F44BC08930AE
:1024100010F4A82F01C0A0E08F5FB0E0AC52BB4F1A
:102420004C91431709F05DC031969F5F921758F3A6
:1024300003C0442309F431968F010F5F1F4FD490DE
:10244000B1E4EB2EF12CEC0EFD1E36C08093DC04C3
:10245000893010F01092DC048091D2048F5F809359
:10246000D204893008F43DC0CE018F5B9F4F6AEBE8
:1024700076E00E94640835C08093DC04893010F057
:102480001092DC048091D2048F5F8093D204893053
:1024900028F0C7016EE976E00E946408F801D49044
:1024A000DD2041F41092D2041092D3041092DC0487
:1024B00081E018C00F5F1F4F6091DC0470E06C5228
:1024C0007B4FCE0144EF51E00E943B118091DC0430
:1024D000E82FF0E0EC52FB4F90818F5F9D1561F289
:1024E000B5CF80E0DF91CF911F910F91FF90EF90DA
:1024F000DF900895CF93DF93EC01462F60E976E0FB
:102500000E94EC11882319F081E08FAB01C080E0BC
:10251000DF91CF910895CF93DF93EC01462F67E9C8
:1025200076E00E94EC11882319F01FAA81E001C017
:1025300080E0DF91CF910895CF92DF92EF92FF92EA
:102540000F931F93CF93DF93EC018C01015C1F4F1E
:10255000D8018D919C91DC01ED91FC910480F58175
:10256000E02D09956C01181619060CF049C08C85F0
:102570008823C1F081E4E82EF12CEC0EFD1EC7018A
:102580006DE776E00E942108F80180819181DC01ED
:10259000ED91FC910084F185E02D0995682FC7012C
:1025A0000E948A088E01015C1F4FF8018081918191
:1025B000DC01ED91FC910084F185E02D09958A32D2
:1025C0009105F1F48FA9882339F0CE0161E00E94D2
:1025D0008B128823D1F404C0CE0161E00E947A12EC
:1025E000C090D204DD24F80180819181DC01ED915D
:1025F000FC910480F581E02D0995C80ED91E08C014
:102600008091D204C80ED11C03C0CC24CA94DC2C07
:10261000C601DF91CF911F910F91FF90EF90DF9056
:10262000CF900895CF93DF93EC018091D20488235B
:1026300081F09091D304E92FF0E0EC52FB4F208120
:1026400030E09F5F9093D304993060F11092D304EF
:1026500029C0FE01FF9680819181DC01ED91FC9102
:102660000680F781E02D09959C018FA9882301F14F
:102670002A323105E9F4CE0160E00E948B128823F2
:10268000A9F48091D304E82FF0E0EC52FB4F2081B5
:1026900030E08F5F8093D304893010F01092D30420
:1026A0008091D20481508093D20402C02FEF3FEF7B
:1026B000C901DF91CF910895CF92DF92EF92FF92FF
:1026C0000F931F93DF93CF930F92CDB7DEB77C01AB
:1026D0006B018E010F5F1F4FC701B801A6010E9459
:1026E0003B118823C9F70F90CF91DF911F910F9174
:1026F000FF90EF90DF90CF900895CB0160EC74E0F5
:102700000E94501E21E0009709F420E0822F0895D6
:102710006F927F928F929F92AF92BF92CF92DF92F1
:10272000EF92FF920F931F93DF93CF930F92CDB74A
:10273000DEB74C017B015A016115710549F1FB01BE
:102740008081882329F18B016E010894C11CD11C62
:102750003B010894611C711C13C08981F8019081B0
:10276000891719F40F5F1F4F07C0F7019081891770
:1027700011F4830101C08701F8018081882341F0B1
:10278000C401B601A5010E943B11882331F701C0A5
:1027900081E00F90CF91DF911F910F91FF90EF900B
:1027A000DF90CF90BF90AF909F908F907F906F9071
:1027B00008952F923F924F925F926F927F928F92E5
:1027C0009F92BF92CF92DF92EF92FF920F931F934F
:1027D000DF93CF930F92CDB7DEB76C017B011A0167
:1027E000FC018485882361F086010F5B1F4FC801BF
:1027F0006AE476E00E942108C801B7010E946408DB
:10280000F701B490BB2039F187014E010894811C77
:10281000911C6B2C772427010894411C511C13C078
:1028200089818B1519F40F5F1F4F09C0992787FD08
:1028300090958615970511F4820101C08701F80172
:10284000B490BB2041F0C601B401A1010E943B112C
:10285000882331F701C081E00F90CF91DF911F9164
:102860000F91FF90EF90DF90CF90BF909F908F904F
:102870007F906F905F904F903F902F9008952F9290
:102880003F924F925F926F927F928F929F92AF9200
:10289000BF92CF92DF92EF92FF920F931F93DF933D
:1028A000CF9300D00F92CDB7DEB74C013B01A42EE1
:1028B00029012DB63EB6242F30E0C901880F991F9B
:1028C000820F931F2DB73EB7281B390B0FB6F89414
:1028D0003EBF0FBE2DBF8DB79EB701968A839B83E7
:1028E000062F172DE82EF92EBB2491E4C92ED12CEA
:1028F000C80CD91C28C0F7011082F8018081918191
:10290000F70192838183F40184858823A9F0C601AD
:102910006BE376E00E942108C6016B2D4AE050E08F
:102920000E941909C60160E20E944708F80160810F
:102930007181C6010E946408B39423E030E0E20E86
:10294000F31E0E5F1F4FBA14B0F227C01196ED911F
:10295000FC9112976491961769F0F901E080F1807B
:102960001296FC92EE921197F701649170E046176F
:10297000570729F431961296FC93EE93119711960E
:10298000ED91FC911297E49113962E5F3F4FEE2349
:10299000E1F08F5F8A1520F4D9CF8E010F5F1F4FB2
:1029A000C401B801A2010E943B11882369F09981FA
:1029B000492F552747FD5095262D372D6A818B814C
:1029C000A62FB82F80E0E6CF8FEF0FB6F8943EBE6B
:1029D0000FBE2DBE0F900F900F90CF91DF911F91E2
:1029E0000F91FF90EF90DF90CF90BF90AF909F90AE
:1029F0008F907F906F905F904F903F902F900895B1
:102A0000CF93DF93EC018D858823C9F0CE0160E17F
:102A100076E00E943811CE0169E076E044EF51E0A3
:102A20000E94D913882311F01D8609C0CE018F5B47
:102A30009F4F68EF75E00E94640880E001C081E06C
:102A4000DF91CF9108952F923F924F925F926F92B4
:102A50007F928F929F92BF92CF92DF92EF92FF92DE
:102A60000F931F93DF93CF930F92CDB7DEB72C0157
:102A70007B01490100E010E06E010894C11CD11CEB
:102A80006EEF262E6FEF362E240E351E3A01089477
:102A9000610871083BC0B9808B2D8D3051F5C201A2
:102AA000B601A4010E943B1189818A3041F4E114EE
:102AB000F104E9F1F701E00FF11F108238C0E114D1
:102AC000F104B9F0021513055CF4F701E00FF11FF2
:102AD000B0820F5F1F4FF701E00FF11F808307C027
:102AE0000615170534F4F701E00FF11FB0820F5FF0
:102AF0001F4F0615170554F4E114F10439F0F701DE
:102B0000E00FF11F898180830F5F1F4FC201B60163
:102B1000A4010E943B11882309F0BDCFE114F10408
:102B200021F00E0D1F1DF801108200E010E0C80119
:102B30000F90CF91DF911F910F91FF90EF90DF9059
:102B4000CF90BF909F908F907F906F905F904F90AD
:102B50003F902F900895BF92CF92DF92EF92FF9215
:102B60000F931F93DF93CF930F92CDB7DEB78C01F6
:102B70007E010894E11CF11C47C089818C3309F067
:102B800043C08093C00471ECE72E74E0F72EBB24A1
:102B9000B3946E010894C11CD11CC801B60144EF66
:102BA00051E00E943B118823C9F18981F70181938B
:102BB0007F01B3948E3321F5C801B60144EF51E093
:102BC0000E943B11882351F18981803239F5EB2D28
:102BD000F0E0E054FB4F8083B394EB2DF0E0E05441
:102BE000FB4F108281E08093BF04C80160E070E079
:102BF00040E050E024EF31E00E94231581E00FC057
:102C0000FB2DFC3051F60AC0C801B70144EF51E07A
:102C10000E943B11882309F0B0CF01C080E00F90E3
:102C2000CF91DF911F910F91FF90EF90DF90CF90A8
:102C3000BF9008951F93CF93DF93EC01AB01809178
:102C4000BF04882371F4CE010E94AB15182F88238E
:102C500071F4CE018F5B9F4F6AE276E00E946408B8
:102C600006C0CE0160EC74E00E948813182F812FFB
:102C7000DF91CF911F910895FF920F931F93CF93F0
:102C8000DF93EC018D85882309F06FC06AEF70E057
:102C900080E090E00E946D07CE0166E276E00E943F
:102CA00038116AEF70E080E090E00E946D07CE017D
:102CB00060E276E044EF51E00E94D9138823F9F0F6
:102CC0008091BF04882309F049C0E5E0FE2E8E0103
:102CD000015C1F4FF801A081B181ED91FC9111972A
:102CE0000190F081E02DCD016DE00995CE0164EFFA
:102CF00071E00E941A16882389F5FA9459F7FE01AB
:102D0000FF96A081B181ED91FC9111970190F08126
:102D1000E02DCD016DE00995CE0164EF71E00E94D8
:102D20001A168823D9F405E06AEF70E080E090E09D
:102D30000E946D07CE016CE176E00E9438116AEFC7
:102D400070E080E090E00E946D07CE0166E176E0E1
:102D500044EF51E00E94D913882319F081E08D8758
:102D600005C0015009F780E001C081E0DF91CF91FB
:102D70001F910F91FF900895CF93DF93EC018D8504
:102D8000882329F4CE010E943C16882339F08E85D1
:102D90009F8501969F878E8781E001C080E0DF914B
:102DA000CF910895FC012685378521503040378723
:102DB00026872115310519F40E940015089581E038
:102DC0000895CF92DF92EF92FF920F931F93CF93CC
:102DD000DF93EC018B017A0169010E94BC16882304
:102DE00049F1000F111F000F111F05531D4FF8016E
:102DF00060817181CE010E943811F8016281738176
:102E0000CE0144EF51E00E94D913882381F0CE0116
:102E1000B701A60124EF31E00E942315CE0164EF33
:102E200071E00E941A16CE010E94D21607C0CE0190
:102E30000E94D216F8E5EF2EF2E0FF2EC701DF91D7
:102E4000CF911F910F91FF90EF90DF90CF90089559
:102E5000CF92DF92EF92FF920F931F93DF93CF9366
:102E6000CDB7DEB760970FB6F894DEBF0FBECDBF0B
:102E70008C010E94BC16882351F4C8018F5B9F4FC0
:102E800060EE75E00E946408EE24FF2479C0C8015A
:102E900068ED75E00E943811C8016E010894C11CEC
:102EA000D11CB60140E150E024EF31E00E9423152F
:102EB0007C01C801B6010E947D13882351F0C8012E
:102EC000B60140E150E024EF31E00E9423157C017F
:102ED00005C0C80164EF71E00E941A16CE01019688
:102EE00025E0E216F1042CF0970124503040820FC7
:102EF000931F0E94D40F7B01862F8F70F80181AF42
:102F0000C70144E0969587954A95E1F7817082AFB5
:102F1000C70135E0969587953A95E1F7817083AFC3
:102F2000C70126E0969587952A95E1F7817084AFD1
:102F3000C701880F892F881F990B9195817085AFE4
:102F40008F2D86958F7086AFC8010E94D216F8012A
:102F500091AD8485913049F497AB882389F0C801FD
:102F60008F5B9F4F62EC75E009C0F80117AA8823B8
:102F700039F0C8018F5B9F4F69EA75E00E946408D1
:102F8000C70160960FB6F894DEBF0FBECDBFCF91DC
:102F9000DF911F910F91FF90EF90DF90CF900895F8
:102FA0000F931F938B019A0160E070E0A8010E94CB
:102FB000E116009749F0E02FF12FCF012191222354
:102FC00029F02A33D1F702C0802F912FFC01108203
:102FD000C8011F910F910895FB019A0161E070E013
:102FE000AF010E94E1160895FB019A0162E070E0D2
:102FF000AF010E94E1160895FB019A0163E070E0C1
:10300000AF010E94E1160895FB019A0164E070E0AF
:10301000AF010E94E1160895FB019A0165E070E09E
:10302000AF010E94E1160895FF920F931F93DF9363
:10303000CF93CDB7DEB72B970FB6F894DEBF0FBE98
:10304000CDBFF42E8E010F5F1F4FA8012BE030E0A3
:103050000E94E116009769F08F2D8A3021F4C80193
:103060000E943A1003C0C8010E94D40F9B01AC011A
:1030700003C020E030E0A901B901CA012B960FB6C8
:10308000F894DEBF0FBECDBFCF91DF911F910F919E
:10309000FF900895AF92BF92CF92DF92EF92FF928E
:1030A0000F931F93DF93CF930F92CDB7DEB78C01B1
:1030B0007B015A0169010E94BC168823B9F1C8013D
:1030C00061EA75E00E943811C801B7010E942D1114
:1030D000C80160E672E00E942D11C801B70148E8FE
:1030E00053E10E9488138823C9F0C801BE016F5FB5
:1030F0007F4F44EF51E00E943B11C801B501A6018A
:1031000024EF31E00E942315C80164EF71E00E94B2
:103110001A16C8010E94D21681E009C0C80164EFE6
:1031200071E00E941A16C8010E94D21680E00F902A
:10313000CF91DF911F910F91FF90EF90DF90CF9093
:10314000BF90AF9008950F931F93DF93CF93CDB7A8
:10315000DEB760970FB6F894DEBF0FBECDBF6CE050
:1031600070E08E010F5F1F4FA80120E130E00E9448
:10317000E1160097B9F1C8016DE975E043E050E050
:103180000E94331E009731F1C8016AE975E042E000
:1031900050E00E94331E0097F9F0C80163E975E022
:1031A00046E050E00E94331E0097C1F0C8016DE870
:1031B00075E045E050E00E94331E009789F0C80199
:1031C00066E875E046E050E00E94331E009751F437
:1031D00084E009C080E007C081E005C082E003C050
:1031E00083E001C08FEF60960FB6F894DEBF0FBE8C
:1031F000CDBFCF91DF911F910F9108956EE070E0E8
:103200004AE00E941418CB010895CF92DF92EF920A
:10321000FF920F931F93DF93CF9300D000D0CDB7D1
:10322000DEB78C016B017A018FE495E09A83898384
:1032300089E495E09C838B83C801BE016F5F7F4F5B
:1032400042E024EF31E00E943F148130E9F088230E
:1032500099F4C801B601A70124EF31E00E942315BB
:103260000F5B1F4FC80163E475E00E942108C8018D
:10327000B6010E94770806C0C60169E375E0A701A0
:103280000E94411E80E001C081E00F900F900F90DE
:103290000F90CF91DF911F910F91FF90EF90DF90F2
:1032A000CF9008958F929F92AF92BF92CF92DF926C
:1032B000EF92FF920F931F93DF93CF93CDB7DEB7BB
:1032C00060970FB6F894DEBF0FBECDBF7C014B01F7
:1032D0005A0169010E94BC16882309F46EC0C70117
:1032E000B4010E943811C114D10441F1C70160E258
:1032F0000E9430110023E9F086017FE4C72ED12C13
:10330000CE0CDF1C0FC0F701A081B181603231F417
:10331000ED91FC91C701D6016C9103C0ED91FC9138
:10332000C7010995F8010F5F1F4F6491662359F794
:103330002EC0C701B6010E94381129C0A114B104E2
:1033400031F1C70160E20E9430110023E1F08501F4
:103350006FE4C62ED12CCE0CDF1C0FC0F701A0816C
:10336000B181603231F4ED91FC91C701D6016C91CD
:1033700003C0ED91FC91C7010995F80161918F019E
:10338000662361F704C0C701B5010E942D11C70172
:103390006DE00E943011C701BE016F5F7F4F40E1B9
:1033A00050E00E940519082FC70164EF71E00E94E8
:1033B0001A16C7010E94D21601C000E0802F609645
:1033C0000FB6F894DEBF0FBECDBFCF91DF911F9136
:1033D0000F91FF90EF90DF90CF90BF90AF909F90B4
:1033E0008F900895AF92BF92CF92DF92EF92FF92AB
:1033F0000F931F93DF93CF93CDB7DEB72B970FB605
:10340000F894DEBF0FBECDBF6C015B01CA01B901EC
:10341000402F7E010894E11CF11C97010BE010E0A5
:103420000E94250FC601B501A70120E030E000E0B1
:103430000E9452192B960FB6F894DEBF0FBECDBF77
:10344000CF91DF911F910F91FF90EF90DF90CF9080
:10345000BF90AF9008951F93CF93DF93EC010E942C
:10346000BC168823D9F0CE0163E375E00E943811C1
:10347000CE016BE275E044EF51E00E94D91388233E
:1034800039F0CE0164EF71E00E941A1611E001C01C
:1034900010E0CE010E94D216812F01C080E0DF91A2
:1034A000CF911F9108950F93AB016CEE74E020E073
:1034B00030E000E00E9452190F9108950F93AB0184
:1034C00067E974E020E030E000E00E9452190F91BB
:1034D00008950F939B0140E050E069E874E00AE032
:1034E0000E94F2190F910895EF92FF920F931F938C
:1034F000CF93DF93EC018B017A010E94BC168823E5
:1035000049F4CE018F5B9F4F68E674E00E94640827
:1035100080E013C0CE01B8010E945E1A882341F0FA
:10352000CE01B7010E94691A882311F001E001C0A1
:1035300000E0CE010E94D216802FDF91CF911F9123
:103540000F91FF90EF9008950F93DF93CF9300D0EA
:10355000CDB7DEB76A3070F4605D69831A826FE1BF
:1035600074E0AE014F5F5F4F20E030E000E00E946A
:10357000521901C080E00F900F90CF91DF910F9111
:1035800008950F93262F30E040E050E06FE074E0A4
:1035900000E10E94F2190F9108950E94C11A089546
:1035A0000F939B0140E050E067E873E00AE00E945F
:1035B000F2190F9108950F936BE473E040E050E02F
:1035C00020E030E000E00E9452190F91089561E080
:1035D0000E94A41A08950F93AB016DE373E020E0FD
:1035E00030E000E00E9452190F9108950F931F934D
:1035F000CF93DF93EC01AB0162E173E020E030E0B8
:1036000001E00E945219182FCE010E94DB1A812F6F
:10361000DF91CF911F910F9108956BE170E040E130
:103620000E941418862F08950F93CF93DF93EC0117
:103630001CAA1BAA1B8A63E877E040E050E020E068
:1036400030E000E00E945219882339F4CE018F5BEC
:103650009F4F6BE677E00E946408CE0168E577E053
:1036600040E050E020E030E000E00E945219882362
:1036700039F4CE018F5B9F4F6BE377E00E946408C3
:10368000CE0169E277E040E050E020E030E000E089
:103690000E945219882339F4CE018F5B9F4F6FE04F
:1036A00077E00E946408CE010E942817CE010E9494
:1036B000A318882319F091E0843009F490E0988BE6
:1036C000CE010E940D1BC15BDF4F8883DF91CF913C
:1036D0000F910895CF93DF93EC010E94BC168823CD
:1036E00001F1CE0163E275E00E943811CE016AE17A
:1036F00075E044EF51E00E94D913882321F4CE01F4
:103700000E94D2160EC068E873E180E090E00E944B
:103710006D071D861F861E86CE010E94141B81E048
:1037200001C080E0DF91CF910895CF93DF93EC014A
:10373000FC01E35BFF4F51834083FC01FF967183E3
:1037400060830E943C16882331F4CE018F5B9F4F2B
:1037500062EF76E00DC0CE010E94141BCE010E94E4
:103760000015882349F4CE018F5B9F4F66ED76E00C
:103770000E94640880E001C081E0DF91CF9108954C
:10378000CF92DF92EF92FF920F931F93DF93CF932D
:1037900000D000D0CDB7DEB78C017B016A0184E890
:1037A00092E09A83898388E792E09C838B83C801A7
:1037B0000E94BC16882309F444C0C80162E772E085
:1037C0000E943811E114F10421F0C801B7010E94F0
:1037D0002D11C80160E772E00E943811C801BE01D6
:1037E0006F5F7F4F42E096010E943F14E82EC801B0
:1037F00064E670E00E945C138E2D8130F9F4F801CC
:10380000E2AE8089882361F0C8016CE672E048E985
:103810005AE30E94D913C80164E670E00E945C1369
:10382000C80160E070E040E050E024EF31E00E9429
:103830002315C8010E94D21681E004C0C8010E946D
:10384000D21680E00F900F900F900F90CF91DF91E4
:103850001F910F91FF90EF90DF90CF900895EF921E
:10386000FF920F931F93DF93CF93CDB7DEB7C05472
:10387000D0400FB6F894DEBF0FBECDBF7C018E01E5
:103880000F5F1F4FB80140E450E00E940418C701C9
:10389000B80140E25EE40E94C01BC05CDF4F0FB67F
:1038A000F894DEBF0FBECDBFCF91DF911F910F9176
:1038B000FF90EF90089521E0FC0182AD813009F086
:1038C00020E0822F0895FF920F931F93F62E072F6B
:1038D00010E08F2D902F0E943A106F3F71058105E7
:1038E000910509F070F4EF2DF02FFE2E0F2F81912E
:1038F000982F90539A30C8F38E3219F41F5F13300B
:1039000041F780E01F910F91FF900895DF92EF92B1
:10391000FF920F931F93DF93CF93CDB7DEB76097DE
:103920000FB6F894DEBF0FBECDBF7C01162F072F58
:103930000E94631C882381F4C701612F702F8E01C0
:103940000F5F1F4FA80120E130E00E944A18882332
:1039500009F44FC0D02E02C0D12E102FC7010E94F3
:10396000BC16C70167E572E00E943811C7016D2DD2
:10397000712F0E942D11C7016DE00E943011C70107
:103980006EE472E044EF51E00E94D913C70160E099
:1039900070E040E050E024EF31E00E942315C701C1
:1039A00064EF71E00E941A16882301F1C70165E4F3
:1039B00072E048E853E10E94D9138823B9F0C701A7
:1039C00060E070E040E050E024EF31E00E94231519
:1039D000C70160E070E040E050E028E833E10E9479
:1039E0002315C7010E94D21681E004C0C7010E94BE
:1039F000D21680E060960FB6F894DEBF0FBECDBF42
:103A0000CF91DF911F910F91FF90EF90DF9008957C
:103A10000F9389EB94E060E040E020E000E00E943A
:103A2000AA0B0F910895833071F0843028F481300F
:103A3000A1F0823021F514C08630B1F08730D1F08A
:103A40008430E9F404C0809180008F7703C08091B6
:103A500080008F7D80938000089584B58F7702C0A9
:103A600084B58F7D84BD08958091B0008F77809359
:103A7000B00008958091B0008F7D8093B0000895CC
:103A8000EF92FF92CF93DF9390E0FC01EB5FF64F54
:103A900044918F50974FFC018491882389F190E0E5
:103AA000880F991FFC01ED52F74F25913491D901F0
:103AB0008352974FFC0125913491E22EE7017E015C
:103AC000F32EE701662349F49FB7F8948C91409553
:103AD00084238C93888184230BC0623059F49FB770
:103AE000F8948C91242F209582238C938881842BA9
:103AF000888305C09FB7F8948C91842B8C939FBFCB
:103B0000DF91CF91FF90EF9008950F931F93DF9374
:103B1000CF930F92CDB7DEB7282F30E0F901E75EE3
:103B2000F64F8491F901EB5FF64F14912F50374F08
:103B3000F90104910023D9F0882321F069830E94C0
:103B4000131D6981E02FF0E0EE0FFF1FE352F74FE6
:103B500085919491DC019FB7F894662321F48C91B0
:103B60001095812302C08C91812B8C939FBF0F9065
:103B7000CF91DF911F910F910895629FD001739FA4
:103B8000F001829FE00DF11D649FE00DF11D929FF9
:103B9000F00D839FF00D749FF00D659FF00D992738
:103BA000729FB00DE11DF91F639FB00DE11DF91F5C
:103BB000BD01CF011124089597FB092E07260AD0D5
:103BC00077FD04D02ED006D000201AF470956195B0
:103BD0007F4F0895F6F7909581959F4F0895A1E244
:103BE0001A2EAA1BBB1BFD010DC0AA1FBB1FEE1F77
:103BF000FF1FA217B307E407F50720F0A21BB30BC2
:103C0000E40BF50B661F771F881F991F1A9469F73D
:103C100060957095809590959B01AC01BD01CF0199
:103C20000895AA1BBB1B51E107C0AA1FBB1FA61703
:103C3000B70710F0A61BB70B881F991F5A95A9F755
:103C400080959095BC01CD010895EE0FFF1F059062
:103C5000F491E02D0994803209F091113BC080521B
:103C60008F55E0F70895FB01DC014150504030F0E2
:103C70008D910590801919F40020B9F7881B990BD4
:103C80000895FB01DC014150504048F005900D9231
:103C90000020C9F701C01D9241505040E0F708953F
:103CA000FB0151915523A9F0BF01DC014D9145174E
:103CB0004111E1F759F4CD010190002049F04D91F7
:103CC00040154111C9F3FB014111EFCF81E090E0B4
:103CD0000197089599278827089519E0C6E3D9E048
:103CE00004C0FE010E94271E2296C833D107C9F7DF
:043CF000F894FFCF76
:103CF4005465726D696E616C2072656164790053FC
:103D0400656E64696E67206D657373616765200015
:103D140048656C6C6F2C20636F756E743D00537432
:103D2400617274696E670046726565206D656D6FBA
:103D340072793A20004661696C656420746F20735F
:103D440074617274207769666C7900526573746F5C
:103D540072696E6720666C7573682074696D656F2F
:103D6400757420746F2031306D73656373004A6F0E
:103D7400696E696E67206E6574776F726B004A6F47
:103D8400696E65642077696669206E6574776F7201
:103D94006B004661696C656420746F206A6F696E9C
:103DA4002077696669206E6574776F726B00416C69
:103DB4007265616479206A6F696E6564206E6574EA
:103DC400776F726B0070696E672000202E2E2E2094
:103DD400006F6B006661696C65640070696E6720D2
:103DE400676F6F676C652E636F6D202E2E2E20001B
:103DF400676F6F676C652E636F6D003139322E31DA
:103E040036382E312E3630004D41433A2000495089
:103E14003A20004E65746D61736B3A2000476174FB
:103E2400657761793A20005769666C792D5544505D
:103E34000044657669636549443A20005769466CD5
:103E440079207265616479003C6572726F723E001C
:103E54000D00726174653A200020007769666C7900
:103E6400303931325F656D6231007769666C795F34
:103E7400313937330000000000DD09DE078109B065
:103E8400099409D20900000000670B00000000BB80
:103E94000CDE07E60BC50B110C000C00000000BD86
:103EA40010DE07FE0EF10E180F0B0F000000006D60
:103EB40010DE079C1212139510B1108D0795078D13
:103EC4000799078D079D07A107AA07B407BE07C472
:103ED40007CD07D707DE07E807F307E807F9070167
:103EE400080B0811081A0823082D088D073208D773
:103EF4000738083E0848083E0854083E085F086A28
:103F04000875088D077D088D0786088D078C089332
:103F1400089E089308A6089308AD08B407B508B42A
:0C3F240007BB08B407C108C407CA0800A6
:00000001FF
