:100000000C94AC000C94D4000C94D4000C94041008
:100010000C9428100C944C100C94D4000C94D40024
:100020000C94D4000C94D4000C94D4000C94D40000
:100030000C94D4000C94D4000C94D4000C94D400F0
:100040000C940B0A0C94D4000C94130C0C944B0CD1
:100050000C94D4000C94D4000C94D4000C94D400D0
:100060000C94D4000C94D40000C2010001001100D3
:1000700011000C0000E100000A002500250021000D
:10008000009600001900390039003600127A00008D
:100090001F004600460044008070000022004D0012
:1000A0004D004A00004B00003600750075007200DC
:1000B000403800004A009C009C0099008025000008
:1000C0007200EC00EC00E900C0120000E900DA0167
:1000D000DA01D70160090000D701B603B603B30304
:1000E000B0040000B3036E076E076B072C0100001D
:1000F000DC0EC11DC11DBE1D000000002400270034
:100100002A0000000000250028002B00000000004D
:100110002300260029000404040404040404020249
:100120000202020203030303030301020408102076
:100130004080010204081020010204081020000081
:100140000007000201000003040600000000000098
:100150000000010A5C0E060A11241FBECFEFD8E092
:10016000DEBFCDBF12E0A0E0B1E0EAE4F6E202C0FB
:1001700005900D92AE3CB107D9F713E0AEECB2E0BA
:1001800001C01D92A13EB107E1F711E0C6E5D1E043
:1001900004C02297FE010E941413C235D107C9F78B
:1001A0000E94DB0A0C9418130C9400000F93DF9349
:1001B000CF93CDB7DEB760970FB6F894DEBF0FBE12
:1001C000CDBF002309F459C029833A834B835C8354
:1001D0006D837E838F83988760E2601B8D819E8113
:1001E000AF81B8851616CCF09C01AD01550F220BDE
:1001F000322FA9012D873E874F87588B262F332713
:1002000027FD3095309521953F4F04C0B595A795B2
:10021000979587952A95D2F724C09C01AD01002EB1
:1002200004C055954795379527950A94D2F72D87A1
:100230003E874F87588B04C0880F991FAA1FBB1F8A
:100240006A95D2F729813A814B815C8104C0569529
:100250004795379527950A95D2F7822B932BA42B98
:10026000B52B89879A87AB87BC8729853A854B85CB
:100270005C856D857E858F85988960960FB6F8942C
:10028000DEBF0FBECDBFCF91DF910F910895ACE4DB
:10029000B0E0EDE4F1E00C94DB12F50129833A8340
:1002A0004B835C836D837E838F839887A986FA87CF
:1002B000CB86DC86ED86FE860F87188B8D809E8030
:1002C000AF80B884B7FE67C02195B1E0121608F080
:1002D000B0E03195A1E0131608F0A0E0232E2B1A10
:1002E000B22DBB24B394321508F0BB24AB29419541
:1002F00031E0141608F030E0342E3A1AA32DBB2456
:10030000B394431508F0BB243B29519541E01516E1
:1003100008F040E0A52EA31A31E05A1508F030E0AD
:10032000432B619531E0161608F030E0B62EB41A72
:1003300041E06B1508F040E0342B719541E0171651
:1003400008F040E0572F531B31E0751708F030E0FC
:10035000432B819531E0181608F030E0482E441AFE
:10036000442D61E0841508F060E0362B9195931BD5
:100370002983BA83AB83AC82BD825E834F83988727
:100380002FEF3FEF4FEF5FEF21962CAF3DAF4EAF1A
:100390005FAF219706C021961CAE1DAE1EAE1FAEEC
:1003A00021978D859E85AF85B889B7FF68C0219656
:1003B0004CAD5DAD6EAD7FAD21974095509560958C
:1003C000709521964CAF5DAF6EAF7FAF2197E195F1
:1003D00081E01E1608F080E0F19591E01F1608F00C
:1003E00090E04F2F481B81E0F41708F080E0982B35
:1003F000C19481E01C1408F080E06C2D691B91E031
:10040000C61608F090E0892BD19491E01D1408F0F5
:1004100090E05D2D581B81E0D51608F080E0982B08
:10042000E19481E01E1408F080E03E2D391B91E03C
:10043000E31608F090E0892BF19491E01F1408F086
:1004400090E02F2D281B81E0F21608F080E0982B19
:10045000019581E0101608F080E0702F791B972F2E
:1004600071E0091708F070E0872B1195181BE987D8
:100470004A876B875C873D872E879F87188B798596
:100480006A855B854C853D852E859F858889E981B8
:10049000E98BEA81EA8BEB81EB8BEC81EC8BED81D4
:1004A000ED8BEE81EE8BEF81EF8BE885E88F798F16
:1004B0006A8F5B8F4C8F3D8F2E8F9F8F88A3E98C27
:1004C000FA8C0B8D1C8D2D8D3E8D4F8D58A18989F9
:1004D0009A89AB89BC898DAB9EABAFABB8AFAD8809
:1004E000BE88CF88D88C211531054105510509F00A
:1004F000BEC3AE14BF04C006D10608F04FC190E0E1
:10050000E91690E0F90691E0090790E0190758F420
:10051000AFEFEA16F1040105110509F090F420E0AF
:1005200030E0A90117C0B0E0EB16B0E0FB06B0E088
:100530000B07B1E01B0750F420E130E040E050E051
:1005400009C028E030E040E050E004C028E130E09D
:1005500040E050E0D801C701022E04C0B695A7952F
:10056000979587950A94D2F782559E4FFC0160813A
:1005700080E290E0A0E0B0E0821B930BA40BB50BEF
:10058000861B9109A109B1090097A105B105A1F147
:10059000082E04C0EE0CFF1C001F111F0A94D2F796
:1005A000A6019501082E04C0220F331F441F551FBA
:1005B0000A94D2F760E270E0681B790BADA8BEA880
:1005C000CFA8D8AC04C0D694C794B794A7946A9522
:1005D000D2F7A22AB32AC42AD52A2DA83EA84FA80A
:1005E00058AC04C0220C331C441C551C8A95D2F70D
:1005F0002DAA3EAA4FAA58AE380188249924A801F2
:100600009701407050702DA73EA74FA758ABC60169
:10061000B501A40193010E948612222E532E442E6E
:10062000352E69AB7AAB8BAB9CABC601B501A4018F
:1006300093010E948612822D952DA42DB32D89A79A
:100640009AA7ABA7BCA7BC01CD012DA53EA54FA580
:1006500058A90E94A8125B016C0149A95AA96BA96B
:100660007CA9DA01992788272DA83EA84FA858AC65
:10067000920144275527822B932BA42BB52B8A1547
:100680009B05AC05BD0530F529A53AA54BA55CA594
:10069000215030404040504029A73AA74BA75CA7C3
:1006A0008E0D9F1DA01FB11F8E159F05A007B107BE
:1006B00088F08A159B05AC05BD0560F421503040DB
:1006C0004040504029A73AA74BA75CA78E0D9F1D1D
:1006D000A01FB11FAC01BD014A195B096C097D095E
:1006E0005A016B01CB01BA01A40193010E94861249
:1006F000222E532E442E352E69AB7AAB8BAB9CAB9E
:10070000C601B501A40193010E948612A22CB52C4A
:10071000C42CD32CC601B5012DA53EA54FA558A9C3
:100720000E94A8123B014C0169A97AA98BA99CA936
:10073000AB01332722278DA99EA9AFA9B8ADA07020
:10074000B070282B392B4A2B5B2B26153705480513
:100750005905C0F40894A108B108C108D1082E0DAC
:100760003F1D401F511F2E153F054007510750F0F8
:10077000261537054805590528F40894A108B1083D
:10078000C108D10889A59AA5ABA5BCA58C01FF24F9
:10079000EE24EA28FB280C291D29C7C4E114F10422
:1007A0000105110559F461E070E080E090E0A801D6
:1007B00097010E94861279018A0110C090E0E91623
:1007C00090E0F90691E0090790E0190758F4AFEFBF
:1007D000EA16F1040105110509F090F420E030E07B
:1007E000A90117C0B0E0EB16B0E0FB06B0E00B07C4
:1007F000B1E01B0750F420E130E040E050E009C0D8
:1008000028E030E040E050E004C028E130E040E083
:1008100050E0D801C701022E04C0B695A795979560
:1008200087950A94D2F782559E4FFC018081280F4C
:10083000311D411D511D80E290E0A0E0B0E0821B1F
:10084000930BA40BB50B61F4150126012E183F087C
:10085000400A510A81E0A82EB12CC12CD12C29C10B
:10086000082E04C0EE0CFF1C001F111F0A94D2F7C3
:1008700015012601022E04C05694479437942794FC
:100880000A94D2F729A63AA64BA65CA6B601A50102
:10089000082E04C0440F551F661F771F0A94D2F715
:1008A0004DA75EA76FA778AB2DA83EA84FA858AC60
:1008B00004C056944794379427942A95D2F7ADA450
:1008C000BEA4CFA4D8A8A228B328C428D528ADA6F2
:1008D000BEA6CFA6D8AA2DA93EA94FA958AD04C03F
:1008E000220F331F441F551F8A95D2F72DAB3EAB05
:1008F0004FAB58AF380188249924B801A701607024
:10090000707049AB5AAB6BAB7CAB69A57AA58BA574
:100910009CA5A40193010E948612222E532E442EE0
:10092000352E69AF7AAF8BAF9CAF69A57AA58BA541
:100930009CA5A40193010E948612A22CB52CC42C64
:10094000D32CA9A6BAA6CBA6DCA6C601B50129A9B7
:100950003AA94BA95CA90E94A8125B016C0129ACC1
:100960003AAC4BAC5CACD101992788272DA43EA4AE
:100970004FA458A8920144275527822B932BA42BD0
:10098000B52B8A159B05AC05BD0530F529A53AA503
:100990004BA55CA5215030404040504029A73AA7C4
:1009A0004BA75CA78E0D9F1DA01FB11F8E159F0525
:1009B000A007B10788F08A159B05AC05BD0560F45A
:1009C000215030404040504029A73AA74BA75CA790
:1009D0008E0D9F1DA01FB11FAC01BD014A195B09FF
:1009E0006C097D095A016B01CB01BA01A401930185
:1009F0000E948612222E532E442E352E69AF7AAFD6
:100A00008BAF9CAFC601B501A40193010E94861271
:100A1000622C752C842C932CC401B30129A93AA90A
:100A20004BA95CA90E94A8129B01AC0169AD7AADEB
:100A30008BAD9CAD6B01BB24AA248DA59EA5AFA553
:100A4000B8A9A070B070A82AB92ACA2ADB2AA216AF
:100A5000B306C406D506E0F408946108710881085D
:100A60009108AE0CBF1CC01ED11EAE14BF04C00640
:100A7000D10670F0A216B306C406D50648F4089451
:100A80006108710881089108AE0CBF1CC01ED11E00
:100A900015012601221A330A440A550A89A59AA586
:100AA000ABA5BCA56C01BB24AA24A628B728C828DE
:100AB000D9289801442755272DA73EA74FA758AB03
:100AC000B801A7016070707049AB5AAB6BAB7CABDF
:100AD000C201B1012DA53EA54FA558A90E948612BD
:100AE000622E932E842E752E69AF7AAF8BAF9CAF9A
:100AF000C201B1012DA53EA54FA558A90E9486129D
:100B0000862D992DA82DB72D89A79AA7ABA7BCA78D
:100B1000BC01CD0129A93AA94BA95CA90E94A81240
:100B20003B014C0129AC3AAC4BAC5CACD1019927F0
:100B300088272DA83EA84FA858AC920144275527D6
:100B4000822B932BA42BB52B86159705A805B905E9
:100B500030F529A53AA54BA55CA521503040404071
:100B6000504029A73AA74BA75CA78E0D9F1DA01F39
:100B7000B11F8E159F05A007B10788F08615970550
:100B8000A805B90560F4215030404040504029A7E5
:100B90003AA74BA75CA78E0D9F1DA01FB11FAC01EC
:100BA000BD0146195709680979093A014B01CB0182
:100BB000BA012DA53EA54FA558A90E948612522E16
:100BC000432E342E252E69AF7AAF8BAF9CAFC40174
:100BD000B3012DA53EA54FA558A90E948612652CEC
:100BE000742C832C922CC401B30129A93AA94BA9D6
:100BF0005CA90E94A8121B012C0169AD7AAD8BADD6
:100C00009CADAB01332722278DA99EA9AFA9B8AD12
:100C1000A070B070282B392B4A2B5B2B2215330583
:100C200044055505C0F408946108710881089108CD
:100C30002E0D3F1D401F511F2E153F054007510728
:100C400050F0221533054405550528F40894610831
:100C500071088108910889A59AA5ABA5BCA58C014E
:100C6000FF24EE24E628F7280829192961C2A216D4
:100C7000B306C406D50608F448C2203090E0390710
:100C800091E0490790E0590750F42F3F31054105A5
:100C9000510509F090F466247724430119C02030EF
:100CA000A0E03A07A0E04A07A1E05A0760F490E10B
:100CB000692E712C812C912C0BC088E0682E712C30
:100CC000812C912C05C0B8E16B2E712C812C912CBC
:100CD000DA01C901062C04C0B695A79597958795AA
:100CE0000A94D2F782559E4FFC018081680E711CD8
:100CF000811C911C80E290E0A0E0B0E08619970989
:100D0000A809B90989F42A153B054C055D0508F4C5
:100D100003C22DA83EA84FA858AC2E143F0440068D
:100D2000510608F0F9C1F1C189AF19012A0104C0C7
:100D3000220C331C441C551C8A95D2F7D801C701DC
:100D4000062C04C0B695A795979587950A94D2F777
:100D5000282A392A4A2A5B2AA801970109AC04C02B
:100D6000220F331F441F551F0A94D2F729962CAF28
:100D70003DAF4EAF5FAF299786017501062C04C0C9
:100D800016950795F794E7940A94D2F7B601A50152
:100D900009AC04C0440F551F661F771F0A94D2F791
:100DA0004DA75EA76FA778AB6DA97EA98FA998AD57
:100DB00004C096958795779567956A94D2F73B011D
:100DC0004C018DA59EA5AFA5B8A986299729A8296C
:100DD000B9298DA79EA7AFA7B8AB5201CC24DD24BB
:100DE000A9AABAAACBAADCAAA201910140705070AC
:100DF0002D962CAF3DAF4EAF5FAF2D97C801B70119
:100E0000A60195010E948612622EA32ED42EC52E15
:100E100025966CAF7DAF8EAF9FAF2597C801B70108
:100E200029A93AA94BA95CA90E948612E62CFA2CA2
:100E30000D2D1C2DE9A6FAA60BA71CA7C801B7010A
:100E40002D962CAD3DAD4EAD5FAD2D970E94A812F5
:100E50002596ACACBDACCEACDFAC25978501FF24AC
:100E6000EE24ADA4BEA4CFA4D8A89601442755274C
:100E7000E22AF32A042B152BE616F70608071907B2
:100E800030F529A53AA54BA55CA52150304040403E
:100E9000504029A73AA74BA75CA7E20CF31C041DFE
:100EA000151DE214F3040405150588F0E616F7068F
:100EB0000807190760F4215030404040504029A7EE
:100EC0003AA74BA75CA7E20CF31C041D151DE61AFC
:100ED000F70A080B190BC801B70129A93AA94BA9B0
:100EE0005CA90E948612A22ED32EC42EB52E259662
:100EF0006CAF7DAF8EAF9FAF2597C801B70129A911
:100F00003AA94BA95CA90E9486126A2C7D2C8C2CD4
:100F10009B2CC401B3012D962CAD3DAD4EAD5FAD04
:100F20002D970E94A8129B01AC012596ACACBDACDC
:100F3000CEACDFAC2597D50199278827ADA4BEA4F8
:100F4000CFA4D8A86FEFE62E6FEFF62E012D112D4E
:100F5000AE20BF20C022D1228A299B29AC29BD29DD
:100F600082179307A407B507E0F408946108710895
:100F700081089108820D931DA41DB51D821593054E
:100F8000A405B50570F082179307A407B50748F4C8
:100F900008946108710881089108820D931DA41DB1
:100FA000B51D1C012D01221A330A440A550A2DA62B
:100FB0003EA64FA658AAA9A4BAA4CBA4DCA4850136
:100FC000FF24EE24E628F72808291929AFEFAA2ED6
:100FD000AFEFBA2EC12CD12CAE20BF20C022D1221F
:100FE00018014424552429966CAC7DAC8EAC9FAC82
:100FF00029972FEF3FEF40E050E0622273228422D6
:10100000952229966CAD7DAD8EAD9FAD2997AC0133
:101010006627772749A75AA76BA77CA7C601B50102
:10102000A40193010E94A81269AB7AAB8BAB9CAB75
:10103000C601B50129A53AA54BA55CA50E94A81239
:101040005B016C01C201B101A40193010E94A812CD
:101050003B014C01C201B10129A53AA54BA55CA5F4
:101060000E94A8129B01AC01A60CB71CC81CD91C7D
:1010700029A83AA84BA85CA8C201AA27BB27A80E9A
:10108000B91ECA1EDB1EA614B704C804D90420F476
:10109000205030404F4F5F4FC601AA27BB27820F19
:1010A000931FA41FB51F2DA53EA54FA558A928170E
:1010B00039074A075B0718F182179307A407B5079A
:1010C000A1F56501BB24AA2489A99AA9ABA9BCA949
:1010D000A070B070A80EB91ECA1EDB1E8DA99EA9F5
:1010E000AFA9B8AD09AC04C0880F991FAA1FBB1FD8
:1010F0000A94D2F78A159B05AC05BD05B0F4089497
:10110000E108F1080109110910C0AA24BB246501F6
:10111000EE24FF2487010CC0AA24BB24650181E0D2
:10112000E82EF12C012D112D03C0AA24BB2465014A
:10113000FE01B19688E0DF011D928A95E9F7E9A2E8
:10114000FAA20BA31CA3ADA2BEA2CFA2D8A62E2D9D
:101150003AA14BA15CA16A2D7EA18FA198A52196F1
:101160002CAC3DAC4EAC5FAC219721143104410452
:10117000510409F456C02195E1E0121608F0E0E0B0
:101180003195F1E0131608F0F0E0032F0E1BE1E0BB
:10119000301708F0E0E0FE2B4195E1E0141608F06E
:1011A000E0E0142F1F1B31E0411708F030E0E32B83
:1011B0005195F1E0151608F0F0E0B52FBE1B31E0B7
:1011C0005B1708F030E0F32B6195E1E0161608F0AC
:1011D000E0E0A62EAF1A31E06A1508F030E0E32B0C
:1011E0007195F1E0171608F0F0E0A72FAE1B31E083
:1011F0007A1708F030E0F32B8195E1E0181608F03B
:10120000E0E0382E3F1AF32D31E0831508F030E08E
:10121000E32B9195302F412F5B2F6A2D7A2F8F2F43
:101220009E1BC45BDF4FE2E10C94F7128130910505
:1012300041F48EEC92E065E044E020E00E94BE10B4
:101240000895009721F48EEC92E00E94C111089558
:10125000DC01ED91FC910190F081E02D099508955C
:10126000CF93DF93CBE7D3E0CE0140E051EE60E0D7
:1012700070E00E94860CCE0160E071E00E944D0B90
:10128000CE0163E171E00E944D0BCE0167E371E096
:101290000E944D0B8EEC92E040E855E260E070E079
:1012A0000E94EB10DF91CF9108958BE793E060E609
:1012B00071E00E944D0B8EEC92E00E94BE0E0097F2
:1012C000B9F08BE793E06FE671E00E944D0B09C027
:1012D0008EEC92E00E949D0EBC018BE793E00E9491
:1012E00028098EEC92E00E94BE0E009789F70895BF
:1012F0008BE793E06FE771E00E944D0B08958BE759
:1013000093E065E971E00E944D0B8EEC92E00E9443
:10131000BE0E181619064CF48EEC92E00E949D0E3B
:10132000BC018BE793E00E9428098BE793E00E94C1
:10133000600B009751F38BE793E00E948F0B682FAF
:101340008EEC92E00E94930FE0CFCF93DF93C3E047
:10135000D0E08EEC92E064EA71E00E942D0B66E929
:1013600070E080E090E00E94790A219791F76AEF9F
:1013700070E080E090E00E94790ADF91CF910895BB
:101380008EEC92E00E94380B089560ED77E080E0EB
:1013900090E00E94790A0E94A5096AEF70E080E05F
:1013A00090E00E94790A8EEC92E066EA71E00E9479
:1013B0004D0B6AEF70E080E090E00E94790A0E9495
:1013C00055096AEF70E080E090E00E94790A0E947F
:1013D000C0096AEF70E080E090E00E94790A0E9404
:1013E00055098BE793E00E94600B009749F08BE76B
:1013F00093E00E948F0B8437910511F40E947F09BE
:10140000089581E090E00E941609089580E090E040
:101410000E94160908951F920F920FB60F92112481
:101420002F933F938F939F93AF93BF938091EE023F
:101430009091EF02A091F002B091F1023091F2028E
:101440000196A11DB11D232F2D5F2D3720F02D57A3
:101450000196A11DB11D2093F2028093EE0290939C
:10146000EF02A093F002B093F1028091EA02909112
:10147000EB02A091EC02B091ED020196A11DB11D0D
:101480008093EA029093EB02A093EC02B093ED02FA
:10149000BF91AF919F918F913F912F910F900FBE70
:1014A0000F901F9018959FB7F8942091EA02309101
:1014B000EB024091EC025091ED0286B5A89B06C06C
:1014C0008F3F21F02F5F3F4F4F4F5F4F9FBF542FF4
:1014D000432F322F2227280F311D411D511D82E03D
:1014E000220F331F441F551F8A95D1F7B901CA0136
:1014F0000895EF92FF920F931F93CF93DF937B0199
:101500008C010E94530AEB010FC00E94530A6C1B0E
:101510007D0B83E0683E780738F00894E108F10815
:1015200001091109C851DC4FE114F104010511054D
:1015300061F7DF91CF911F910F91FF90EF90089588
:10154000789484B5826084BD84B5816084BD85B59E
:10155000826085BD85B5816085BDEEE6F0E0808165
:1015600081608083E1E8F0E0108280818260808386
:10157000808181608083E0E8F0E080818160808309
:10158000E1EBF0E0808184608083E0EBF0E080813B
:1015900081608083EAE7F0E08081846080838081DD
:1015A0008260808380818160808380818068808385
:1015B0001092C1000895CF93DF930E94A00A0E9469
:1015C0003009C2E4DCE00E94C5092097E1F30E94E3
:1015D000420CF9CFCF92DF92EF92FF920F931F93BD
:1015E000CF93DF936C017B018A01C0E0D0E00FC094
:1015F000D7016D917D01D601ED91FC910190F081B3
:10160000E02DC6010995C80FD91F015010400115E2
:10161000110571F7CE01DF91CF911F910F91FF90CE
:10162000EF90DF90CF9008956115710591F0DB0187
:101630000D900020E9F7AD0141505040461B570B7B
:10164000DC01ED91FC910280F381E02D09959C0174
:1016500002C020E030E0C90108950E94140B0895F3
:10166000DC01ED91FC910190F081E02D0995089548
:101670000F931F93CF93DF93EC016DE00E94300B2B
:101680008C01CE016AE00E94300B080F191FC801BF
:10169000DF91CF911F910F9108950F931F93CF93D7
:1016A000DF93EC010E94140B8C01CE010E94380BD9
:1016B000080F191FC801DF91CF911F910F91089555
:1016C000FC0184859585FC01E05CFF4F2081318120
:1016D0008E5B9F4FFC0180819181281B390B2F73FA
:1016E0003070C9010895FC0184859585FC01E05C9A
:1016F000FF4F40815181FC01EE5BFF4F2081318122
:101700004217530741F00190F081E02DE80FF91FD7
:10171000208130E002C02FEF3FEFC9010895FC01A6
:1017200084859585FC01E05CFF4F40815181FC017F
:10173000EE5BFF4F208131814217530771F0A0818A
:10174000B181A80FB91F2C918081918101968F736F
:1017500090709183808330E002C02FEF3FEFC9018A
:101760000895FC0181A1882329F0A489B5898C9171
:1017700086FFFBCF11A20895FC0126853785D9018C
:10178000A05CBF4F8D919C9101968F739070D90191
:10179000AE5BBF4F4D915C91119784179507D1F3C4
:1017A000D901A05CBF4F0D90BC91A02DA20FB31F1B
:1017B0006C93A685B785A05CBF4F11969C938E93C2
:1017C000A689B7892C9181E090E0078C02C0880F30
:1017D000991F0A94E2F7282B2C9381E081A30488B7
:1017E000F589E02D80818064808381E090E0089518
:1017F000FB01E05CFF4F208131812F5F3F4F2F7352
:101800003070DB01AE5BBF4F4D915C911197241797
:10181000350739F0A081B181A60FB71F8C933183B2
:101820002083089508951F920F920FB60F921124EE
:101830002F933F934F935F936F937F938F939F93D8
:10184000AF93BF93EF93FF938091C00082FD07C0D9
:101850008091C60063EF72E00E94F80B02C0809195
:10186000C600FF91EF91BF91AF919F918F917F91B2
:101870006F915F914F913F912F910F900FBE0F90FD
:101880001F9018958BE793E00E94600B009711F072
:101890000E94120C08951F920F920FB60F921124FE
:1018A0002F933F938F939F93EF93FF932091770311
:1018B000309178038091790390917A032817390742
:1018C00031F48091C1008F7D8093C10014C0E091FC
:1018D0007903F0917A03E95CFC4F208180917903D0
:1018E00090917A0301968F73907090937A0380930E
:1018F00079032093C600FF91EF919F918F913F91C3
:101900002F910F900FBE0F901F9018952F923F921E
:101910004F925F926F927F928F929F92AF92BF92FF
:10192000CF92DF92EF92FF920F931F93DF93CF93AB
:10193000CDB7DEB727970FB6F894DEBF0FBECDBF89
:101940009F838E834A835B836C837D8321E029831D
:10195000403081EE580780E0680780E0780729F57D
:101960001982AE81BF815496ED91FC9155971082FA
:101970008A819B81AC81BD811C012D0120E834E866
:101980004EE150E060E070E080E090E051016201E3
:10199000EE24FF2400E010E00E944701022F0150D6
:1019A000E1E0021708F497C095C0AE81BF8154965C
:1019B000ED91FC91559781E090E090960C9002C0DB
:1019C000880F991F0A94E2F780838A819B81AC81FA
:1019D000BD811C012D0120E039E04DE350E060E0C5
:1019E00070E080E090E051016201EE24FF2400E00D
:1019F00010E00E944701F22EFA94E1E0F21608F09E
:101A0000E0E0232F215001E0231708F000E02E2E04
:101A1000220E31E0221608F030E0032B242F215053
:101A200011E0241708F010E0020F31E0021708F06F
:101A300030E0132B252F2150B1E0251708F0B0E03E
:101A4000120F31E0121708F030E0B32B262F21508F
:101A5000A1E0261708F0A0E0B20F31E0B21708F0BD
:101A600030E0A32B272F2150F1E0271708F0F0E0FA
:101A7000A20F31E0A21708F030E0F32B282F2150FD
:101A8000E1E0281708F0E0E0F20F81E0F21708F03B
:101A900080E0E82B9150E90F2F2D322DA8016B2FFC
:101AA0007A2F8F2F9E2FE7FF90C02F5F31E02F15E9
:101AB00008F030E0320D41E0321508F040E0400F10
:101AC00051E0401708F050E0510F61E0511708F461
:101AD0006CC06AC0E0E0232F215011E0231708F00A
:101AE00010E0FE2EF20E31E0F21608F030E0132B7B
:101AF000342F315021E0341708F020E0130F41E07B
:101B0000131708F040E0242B352F3150B1E0351782
:101B100008F0B0E0222E230E21E0231608F020E08A
:101B2000B22B262F2150A1E0261708F0A0E0B20F1B
:101B300031E0B21708F030E0A32B272F2150F1E05D
:101B4000271708F0F0E0A20F31E0A21708F030E00C
:101B5000F32B282F2150E1E0281708F0E0E0F20FE6
:101B600081E0F21708F080E0E82B9150E90F202F78
:101B70003F2D412F522D6B2F7A2F8F2F9E2FE7FF56
:101B800024C02F5F31E0201708F030E03F0D41E026
:101B90003F1508F040E0410F51E0411708F050E0D8
:101BA000520D61E0521508F060E06B0F71E06B17A9
:101BB00008F070E07A0F81E07A1708F080E08F0F6C
:101BC00091E08F1708F090E09E0F01E00E94D60090
:101BD000822F932FA0E180309A0720F0B981BB2398
:101BE00009F0BECEAE81BF815096ED91FC91519728
:101BF00090835296ED91FC915397808391961C921D
:101C000091975696ED91FC915797408181E090E035
:101C10009C015C960C905C9702C0220F331F0A94C3
:101C2000E2F7422B40835696ED91FC915797408105
:101C30009C015D960C905D9702C0220F331F0A94A1
:101C4000E2F7422B40835696ED91FC9157974081E5
:101C50009C015E960C905E9702C0220F331F0A947F
:101C6000E2F7422B40835696ED91FC9157972081E5
:101C70005F960C905F9702C0880F991F0A94E2F755
:101C800080958223808327960FB6F894DEBF0FBE1F
:101C9000CDBFCF91DF911F910F91FF90EF90DF901B
:101CA000CF90BF90AF909F908F907F906F905F90FC
:101CB0004F903F902F90089510927E0310927D03D5
:101CC00088EE93E0A0E0B0E080937F0390938003E0
:101CD000A0938103B0938203EDE7F3E082EB92E0FF
:101CE0009293829383EF92E09587848787E393E0D2
:101CF0009787868785EC90E0918B808B84EC90E0D1
:101D0000938B828B80EC90E0958B848B81EC90E0C0
:101D1000978B868B82EC90E0918F808F86EC90E0A1
:101D2000938F828F84E0848F83E0858F87E0868F16
:101D300085E0878F81E080A3089520919D033091F5
:101D40009E0328173907B1F49091E0038091DF03D7
:101D5000981781F0E091E003F0E0E156FC4F20811C
:101D60008091E00390E001968F7390708093E00380
:101D700030E002C02FEF3FEFC901089520919D038D
:101D800030919E032817390779F48091DF03209161
:101D9000E00390E0805C9F4F821B910960E470E05B
:101DA0000E9473129C0102C020E030E0C901089536
:101DB00020919D0330919E032817390749F48FB76E
:101DC000F8941092DF039091DF039093E0038FBFAC
:101DD000089520919D0330919E032817390781F4BF
:101DE0009091E0038091DF03981751F0E091E003B8
:101DF000F0E0E156FC4F2081332727FD309502C0EB
:101E00002FEF3FEFC901089520E001972FEF8F3F9B
:101E10009207D9F70895FC0180919D0390919E034C
:101E20008E179F0791F0838D8E7F838F8FB7F894E5
:101E30001092DF039091DF039093E003F0939E03F1
:101E4000E0939D038FBF81E0089580E00895EF92B5
:101E5000FF920F931F93CF93DF93EC018B8DEE8551
:101E6000FF859D8581FF04C08081892329F445C0B9
:101E70008081892309F041C08B899C890E94040FCD
:101E800008E010E0EE24E394FF248D899E890E94EF
:101E9000040FEE85FF8580819D85892311F0FE2842
:101EA00003C08E2D8095F822EE0C0150104069F78A
:101EB0008F89988D0E94040F8B8D81FDF094809105
:101EC000DF032091E00390E001968F73907030E083
:101ED0008217930779F0E091DF03F0E0E156FC4FC1
:101EE000F0828091DF0390E001968F739070809371
:101EF000DF0303C08B8D81608B8FDF91CF911F91AA
:101F00000F91FF90EF900895FC01A189B28990890B
:101F1000662329F42C91892F8095822302C08C910D
:101F2000892B8C930895DF92EF92FF920F931F936A
:101F3000CF93DF93EC01E62E898D9A8D009739F4CB
:101F400081E090E09B838A8320E030E04BC0DFB6E5
:101F5000F8948B8D61E081FF60E0CE010E94840FD8
:101F6000898D9A8D05960E94040F8B8D81FF19C073
:101F700008E010E0FF24F3948F2D8E2119F0CE019C
:101F800060E002C0CE0161E00E94840F898D9A8DCD
:101F90000E94040FFF0C0150104071F7CE0160E069
:101FA00018C008E010E0FF24F3948F2D8E2119F063
:101FB000CE0161E002C0CE0160E00E94840F898DF5
:101FC0009A8D0E94040FFF0C0150104071F7CE0152
:101FD00061E00E94840FDFBE898D9A8D0E94040FFC
:101FE00021E030E0C901DF91CF911F910F91FF9067
:101FF000EF90DF90089580919D0390919E0300974C
:1020000011F00E94270F08951F920F920FB60F92A2
:1020100011242F933F934F935F936F937F938F93ED
:102020009F93AF93BF93EF93FF930E94FB0FFF919A
:10203000EF91BF91AF919F918F917F916F915F9140
:102040004F913F912F910F900FBE0F901F901895B9
:102050001F920F920FB60F9211242F933F934F931D
:102060005F936F937F938F939F93AF93BF93EF9300
:10207000FF930E94FB0FFF91EF91BF91AF919F9152
:102080008F917F916F915F914F913F912F910F9021
:102090000FBE0F901F9018951F920F920FB60F92C0
:1020A00011242F933F934F935F936F937F938F935D
:1020B0009F93AF93BF93EF93FF930E94FB0FFF910A
:1020C000EF91BF91AF919F918F917F916F915F91B0
:1020D0004F913F912F910F900FBE0F901F90189529
:1020E0001F93CF93DF93EC01162F862F61E00E94A0
:1020F000F611812F61E00E943B12812F90E0FC01DC
:10210000E65DFE4FE491E88BFC01EA5EFE4FE49150
:10211000F0E0EE0FFF1FEE5FFE4F85919491898BEB
:102120009A8BDF91CF911F9108951F93CF93DF93E7
:10213000EC01162F862F60E00E94F6118B8D81FD39
:1021400004C0812F61E00E943B121C87812F90E028
:10215000FC01E65DFE4FE491ED87FC01EA5EFE4F77
:10216000E491F0E0EE0FFF1FE45FFE4F8591949144
:102170008E879F87DF91CF911F9108951F93CF93F3
:10218000DF93EC01162F1B821A8288EE93E0A0E009
:10219000B0E08C839D83AE83BF8382EC92E0998311
:1021A00088831C8A1B8A1E8A1D8A188E1F8A1A8E93
:1021B000198E8B8D2170220F8C7F822B8B8FCE01FD
:1021C000642F0E947010CE01612F0E949510DF9144
:1021D000CF911F910895EF92FF920F931F93CF938A
:1021E000DF93EC017A018B011A8E198E188E1F8AEB
:1021F0001E8A1D8A1C8A1B8A40E050E09A01220F29
:10220000331F240F351F220F331F220F331FF901F5
:10221000E859FF4F85919591A591B4918E159F0531
:10222000A007B107E9F4F901E459FF4F85919491B2
:102230008B8B9C8BF901E259FF4F859194918D8B8B
:102240009E8BF901E059FF4F859194918F8B988F68
:102250002E583F4FF90185919491898F9A8F06C02E
:102260004F5F5F4F4C30510509F0C8CF8F89988D73
:10227000009709F448C09C85963108F040C0209131
:102280006800983020F09E3020F082E003C084E0A7
:1022900001C081E0822B809368004C85483048F073
:1022A0004E3060F04631C8F1A0E0B0E0E0E0F0E090
:1022B00009C0ADE6B0E0EDE6F0E004C0ABE6B0E0AA
:1022C000EBE6F0E05081483040F481E090E002C05D
:1022D000880F991F4A95E2F710C0242F30E04E3046
:1022E00018F42850304002C02E50304081E090E079
:1022F00002C0880F991F2A95E2F7852B8C93898D50
:102300009A8D0E94040FCE010E940B0FDF91CF9196
:102310001F910F91FF90EF900895ACE6B0E0ECE6CE
:10232000F0E0D0CFFC014485463150F5483028F02C
:102330004E3030F0ECE6F0E005C0EDE6F0E002C033
:10234000EBE6F0E05081483040F481E090E002C0DC
:10235000880F991F4A95E2F710C0242F30E04E30C5
:1023600018F42850304002C02E50304081E090E0F8
:1023700002C0880F991F2A95E2F7809585238083F4
:10238000089522EC32E0FC01318320830E949211F7
:102390000895833071F0843028F48130A1F08230C8
:1023A00021F514C08630B1F08730D1F08430E9F4E3
:1023B00004C0809180008F7703C0809180008F7D62
:1023C00080938000089584B58F7702C084B58F7D97
:1023D00084BD08958091B0008F778093B0000895F8
:1023E0008091B0008F7D8093B0000895EF92FF92AE
:1023F000CF93DF9390E0FC01E65DFE4F44918A5E4F
:102400009E4FFC018491882389F190E0880F991FE9
:10241000FC01E850FF4F25913491D9018E5F9E4F0A
:10242000FC0125913491E22EE7017E01F32EE701B4
:10243000662349F49FB7F8948C91409584238C933C
:10244000888184230BC0623059F49FB7F8948C9133
:10245000242F209582238C938881842B888305C028
:102460009FB7F8948C91842B8C939FBFDF91CF9171
:10247000FF90EF9008950F931F93DF93CF930F92E8
:10248000CDB7DEB7282F30E0F901E25CFE4F849132
:10249000F901E65DFE4F14912A5E3E4FF901049169
:1024A0000023D9F0882321F069830E94C911698132
:1024B000E02FF0E0EE0FFF1FEE5FFE4F859194914D
:1024C000DC019FB7F894662321F48C911095812349
:1024D00002C08C91812B8C939FBF0F90CF91DF9185
:1024E0001F910F91089597FB092E07260AD077FDBB
:1024F00004D04DD006D000201AF4709561957F4F1E
:102500000895F6F7909581959F4F0895A1E21A2EB0
:10251000AA1BBB1BFD010DC0AA1FBB1FEE1FFF1F87
:10252000A217B307E407F50720F0A21BB30BE40BD7
:10253000F50B661F771F881F991F1A9469F760951E
:102540007095809590959B01AC01BD01CF010895D8
:10255000629FD001739FF001829FE00DF11D649F87
:10256000E00DF11D929FF00D839FF00D749FF00D13
:10257000659FF00D9927729FB00DE11DF91F639FB4
:10258000B00DE11DF91FBD01CF0111240895AA1B53
:10259000BB1B51E107C0AA1FBB1FA617B70710F04E
:1025A000A61BB70B881F991F5A95A9F78095909580
:1025B000BC01CD0108952F923F924F925F926F928E
:1025C0007F928F929F92AF92BF92CF92DF92EF92C3
:1025D000FF920F931F93CF93DF93CDB7DEB7CA1B44
:1025E000DB0B0FB6F894DEBF0FBECDBF09942A886F
:1025F000398848885F846E847D848C849B84AA8417
:10260000B984C884DF80EE80FD800C811B81AA81A3
:10261000B981CE0FD11D0FB6F894DEBF0FBECDBF6E
:10262000ED010895EE0FFF1F0590F491E02D099440
:1026300011E0C6E5D1E004C0FE010E941413229609
:0A264000C835D107C9F7F894FFCFA1
:10264A00426567696E205769466920436F6E6669FD
:10265A0067200057616974696E6720666F7220632C
:10266A006F6E74726F6C6C657220746F2073657410
:10267A00746C652E2E2E004F70656E696E6720731E
:10268A006F6674776172652073657269616C207018
:10269A006F727420353736303020626175642E00CF
:1026AA00497320646174612074686572653F0059DA
:1026BA0065732C2072656164696E672E2E2E004E3A
:1026CA006F204461746120746F20636F6C6C656362
:1026DA00742E2E2E005465726D696E616C207265BF
:1026EA00616479002400676574206D6163000001EC
:1026FA000202030303030404040404040404050596
:10270A00050505050505050505050505050506066D
:10271A00060606060606060606060606060606064F
:10272A00060606060606060606060606060607073D
:10273A00070707070707070707070707070707071F
:10274A00070707070707070707070707070707070F
:10275A0007070707070707070707070707070707FF
:10276A0007070707070707070707070707070808ED
:10277A0008080808080808080808080808080808CF
:10278A0008080808080808080808080808080808BF
:10279A0008080808080808080808080808080808AF
:1027AA00080808080808080808080808080808089F
:1027BA00080808080808080808080808080808088F
:1027CA00080808080808080808080808080808087F
:1027DA00080808080808080808080808080808086F
:1027EA00080808080808080808080808080800006F
:1027FA000000BC0BEA0A600B8F0B730BB10B0000D5
:0E280A000000930FEA0ABE0E9D0EE90ED80ED6
:00000001FF
