:100000000C946F040C9497040C9497040C9497042C
:100010000C9497040C9497040C9497040C949704F4
:100020000C9497040C9497040C9497040C949704E4
:100030000C9497040C9497040C9497040C949704D4
:100040000C9497040C9497040C94570F0C949704F9
:100050000C940F130C9471130C9497040C94970444
:100060000C9497040C9497040C9497040C949704A4
:100070000C9438130C94AC130C94970400002100DA
:10008000240027002A0000002200250028002B0061
:1000900000002000230026002900020202020202C2
:1000A000020204040404040404040303030303031A
:1000B00003030101010101010101010204081020F3
:1000C0004080010204081020408001020408102032
:1000D000408080402010080402010000000102005E
:1000E00000000000000004030706000000000000FC
:1000F00000000000000000000000636C6F73653AB0
:10010000206661696C65642C206E6F202A434C4F19
:10011000532A00636C6F73653A20676F74202A431B
:100120004C4F532A002A434C4F532A00636C6F7381
:10013000650D005465726D696E616C207265616455
:100140007900556E657870656374656420726573B7
:10015000703A20004661696C656420746F20636F9B
:100160006E6E6563743A20004F50454E2A00656EEE
:1001700061626C65486F7374526573746F72653A2F
:100180002073746F7265642000302E302E302E3054
:100190000073656E64746F3A206661696C656420F3
:1001A000746F20737461727420636F6D6D616E641F
:1001B000003C74696D656F75743E00556E657870AE
:1001C000656374656420636861723A200046616902
:1001D0006C656420746F20636F6E6E6563743A2083
:1001E000004F50454E2A005769466C79206861736C
:1001F000206372617368656420616E642077696C46
:100200006C207265626F6F742E2E2E004661696CD1
:10021000656420746F206765742070726F6D7074F0
:10022000000D006F70656E20006F70656E200032EB
:1002300035352E3235352E302E30003136392E32CE
:1002400035342E312E3100363420627974657300D6
:1002500050696E67207472790070696E6720007350
:10026000657420752069006C656176650D004757DF
:100270003D000D006A6F696E20004173736F636902
:100280006174656421004641494C454400736574BE
:10029000206164686F632070726F626500736574BB
:1002A000206164686F6320626561636F6E007365CF
:1002B0007420776C616E2074780040420F000080DB
:1002C000841E000160EC530002808D5B00084054E6
:1002D000890009C0D8A70003001BB7000A80A81234
:1002E000010B00366E010C005125020D006CDC0282
:1002F0000E80F937030F73657420776C616E20727E
:1003000061746500736574206F7074207265706C21
:100310006163650073657420776C616E207068722C
:100320006173650073657420776C616E206B65790D
:100330000073657420776C616E206368616E007372
:10034000657420776C616E207373696400736574E3
:1003500020776C616E206869646520310073657474
:100360002073797320696F66756E630073657420FE
:10037000636F6D6D2073697A650073657420636FB8
:100380006D6D206D617463680073657420636F6DBB
:100390006D2074696D6500302E302E302E30007364
:1003A00065742062726F61646361737420696E7436
:1003B000657276616C007365742075617274206D6E
:1003C0006F6465007365742074696D6520656E6186
:1003D000626C65007365742074696D65207A6F6E58
:1003E00065007365742074696D6520706F727400A8
:1003F0007365742074696D652061646472657373DC
:10040000007365742069702070726F746F636F6C15
:10041000007365742069702070726F746F636F6C05
:10042000007365742069702064686370007365747C
:1004300020646E7320616464726573730073657405
:100440002069702067617465776179007365742035
:100450006970206E65746D61736B007365742069DB
:1004600070206E65746D61736B00536574486F73B3
:10047000743A206661696C656420746F20737461DE
:10048000727420636F6D6D616E64007365742069B2
:10049000702072656D6F74650073657420697020DB
:1004A000686F73740073657420697020686F73746B
:1004B00000736574206970206C6F63616C706F727B
:1004C000740073657420697020616464726573736D
:1004D00000736574206970206164647265737300D1
:1004E00073657420776C616E206A6F696E00736546
:1004F00074206F20640053657420466163746F72CA
:10050000792044656661756C747300666163746F0D
:10051000727920524553544F52450D002A5265625C
:100520006F6F742A007265626F6F740D0053746F81
:1005300072696E6700736176650D003C74696D6564
:100540006F75743E004552523A2000414F4B0D0AE0
:10055000004552523A2000015544502C00000254EC
:1005600043502C0000045345435552000854435057
:100570005F430010485454502C00205241572C0027
:100580000040534D54502C005345525645520043A1
:1005900041434845004155544F4950004F4E004F8C
:1005A0004646006C6F6F6B75702000676574436F13
:1005B0006E3A2054435020646973636F6E6E6563B6
:1005C00074656400676574436F6E3A20544350202D
:1005D000636F6E6E65637465640073686F77206324
:1005E0000D00676574436F6E3A206661696C6564DF
:1005F00020746F207374617274004661696C656465
:1006000020746F20657869740A0D00455849540DAF
:100610000A00657869740D00434D440D0A002424D6
:100620002400434D440D0A002424240073657450B3
:10063000726F6D7074206661696C6564006D756CB5
:1006400074694D617463685F503A20006D61746332
:10065000685F503A20007265616454696D656F751A
:1006600074202D2074696D6564206F7574003A20C4
:10067000003A200064656275672064756D700061E2
:100680007661696C61626C653A207065656B203DCE
:1006900020002A4F50454E2A002A434C4F532A002F
:1006A0004552524F52207065656B2E32206275663E
:1006B000666572206F7665726C6F77004552524F97
:1006C00052207065656B2E312062756666657220FA
:1006D0006F7665726C6F77004661696C6564207433
:1006E0006F206578697420636F6D6D616E64206D35
:1006F0006F6465004661696C656420746F20656E87
:1007000074657220636F6D6D616E64206D6F6465DA
:10071000004661696C656420746F207365742063A2
:100720006F6D6D2072656D6F746500736574206305
:100730006F6D6D2072656D6F746520300046616964
:100740006C656420746F207475726E206F6666200D
:10075000737973207072696E740073657420737995
:1007600073207072696E746C766C2030004661691B
:100770006C656420746F207475726E206F666620DD
:100780006563686F007365742075206D20310067A4
:1007900065742069700D0049503D004E4D3D004785
:1007A000573D00676574206D61630D004D616320E6
:1007B000416464723D0067657420776C616E0D0062
:1007C000535349443D00676574206F70740D0044B5
:1007D000657669636549643D0067657420750D0041
:1007E00042617564726174653D0073686F7720744F
:1007F000696D650D0054696D653D00557054696DF6
:10080000653D006765742074696D650D005A6F6EF3
:10081000653D0067657420646E730D004164647209
:100820006573733D0073686F77207420740D0052F8
:1008300054433D00444843503D004D6F64653D00C6
:1008400067657420636F6D6D0D00466C7573685439
:10085000696D65723D004D61746368436861723D06
:1008600000466C75736853697A653D0073686F77ED
:1008700020727373690D00525353493D282D004671
:100880004C4147533D307800484F53543D0050523F
:100890004F544F3D00676574206164686F630D00BD
:1008A000426561636F6E3D0050726F62653D00523C
:1008B00065626F6F743D004A6F696E3D00526174EE
:1008C000653D005478506F7765723D005265706CDD
:1008D0006163653D0000480FBA1579165D23112448
:1008E0001FBECFEFD0E1DEBFCDBF14E0A0E0B1E08E
:1008F000E4E5F8E402C005900D92A63AB107D9F7F5
:1009000016E0A6EAB4E001C01D92A338B107E1F7F2
:1009100018E0CEEDD8E004C02297FE010E94E22349
:10092000C63DD107C9F70E94DF100C9428240C940F
:1009300000000F93DF93CF93CDB7DEB760970FB66C
:10094000F894DEBF0FBECDBF002309F459C0298340
:100950003A834B835C836D837E838F83988760E2C9
:10096000601B8D819E81AF81B8851616CCF09C01ED
:10097000AD01550F220B322FA9012D873E874F87DE
:10098000588B262F332727FD3095309521953F4FE3
:1009900004C0B595A795979587952A95D2F724C059
:1009A0009C01AD01002E04C05595479537952795BC
:1009B0000A94D2F72D873E874F87588B04C0880F43
:1009C000991FAA1FBB1F6A95D2F729813A814B81D3
:1009D0005C8104C056954795379527950A95D2F7BF
:1009E000822B932BA42BB52B89879A87AB87BC8747
:1009F00029853A854B855C856D857E858F859889AF
:100A000060960FB6F894DEBF0FBECDBFCF91DF91D9
:100A10000F910895ACE4B0E0E0E1F5E00C94A92377
:100A2000F50129833A834B835C836D837E838F83B7
:100A30009887A986FA87CB86DC86ED86FE860F87A7
:100A4000188B8D809E80AF80B884B7FE67C02195DB
:100A5000B1E0121608F0B0E03195A1E0131608F0ED
:100A6000A0E0232E2B1AB22DBB24B394321508F02C
:100A7000BB24AB29419531E0141608F030E0342E48
:100A80003A1AA32DBB24B394431508F0BB243B2989
:100A9000519541E0151608F040E0A52EA31A31E06B
:100AA0005A1508F030E0432B619531E0161608F036
:100AB00030E0B62EB41A41E06B1508F040E0342B5C
:100AC000719541E0171608F040E0572F531B31E0B5
:100AD000751708F030E0432B819531E0181608F0C7
:100AE00030E0482E441A442D61E0841508F060E09F
:100AF000362B9195931B2983BA83AB83AC82BD823D
:100B00005E834F8398872FEF3FEF4FEF5FEF219684
:100B10002CAF3DAF4EAF5FAF219706C021961CAE04
:100B20001DAE1EAE1FAE21978D859E85AF85B889FF
:100B3000B7FF68C021964CAD5DAD6EAD7FAD21971E
:100B4000409550956095709521964CAF5DAF6EAF16
:100B50007FAF2197E19581E01E1608F080E0F195C6
:100B600091E01F1608F090E04F2F481B81E0F4172A
:100B700008F080E0982BC19481E01C1408F080E01C
:100B80006C2D691B91E0C61608F090E0892BD1947A
:100B900091E01D1408F090E05D2D581B81E0D51602
:100BA00008F080E0982BE19481E01E1408F080E0CA
:100BB0003E2D391B91E0E31608F090E0892BF1946B
:100BC00091E01F1408F090E02F2D281B81E0F21611
:100BD00008F080E0982B019581E0101608F080E085
:100BE000702F791B972F71E0091708F070E0872BA1
:100BF0001195181BE9874A876B875C873D872E878D
:100C00009F87188B79856A855B854C853D852E8508
:100C10009F858889E981E98BEA81EA8BEB81EB8BFF
:100C2000EC81EC8BED81ED8BEE81EE8BEF81EF8B28
:100C3000E885E88F798F6A8F5B8F4C8F3D8F2E8F81
:100C40009F8F88A3E98CFA8C0B8D1C8D2D8D3E8D8A
:100C50004F8D58A189899A89AB89BC898DAB9EAB90
:100C6000AFABB8AFAD88BE88CF88D88C2115310521
:100C70004105510509F0BEC3AE14BF04C006D1063C
:100C800008F04FC190E0E91690E0F90691E00907FD
:100C900090E0190758F4AFEFEA16F10401051105C9
:100CA00009F090F420E030E0A90117C0B0E0EB16A5
:100CB000B0E0FB06B0E00B07B1E01B0750F420E109
:100CC00030E040E050E009C028E030E040E050E093
:100CD00004C028E130E040E050E0D801C701022E16
:100CE00004C0B695A795979587950A94D2F7865133
:100CF0009D4FFC01608180E290E0A0E0B0E0821BAB
:100D0000930BA40BB50B861B9109A109B1090097A0
:100D1000A105B105A1F1082E04C0EE0CFF1C001FB7
:100D2000111F0A94D2F7A6019501082E04C0220FC4
:100D3000331F441F551F0A94D2F760E270E0681B0E
:100D4000790BADA8BEA8CFA8D8AC04C0D694C794E0
:100D5000B794A7946A95D2F7A22AB32AC42AD52AAF
:100D60002DA83EA84FA858AC04C0220C331C441C2C
:100D7000551C8A95D2F72DAA3EAA4FAA58AE380123
:100D800088249924A8019701407050702DA73EA790
:100D90004FA758ABC601B501A40193010E94872358
:100DA000222E532E442E352E69AB7AAB8BAB9CABE7
:100DB000C601B501A40193010E948723822D952DC0
:100DC000A42DB32D89A79AA7ABA7BCA7BC01CD01C1
:100DD0002DA53EA54FA558A90E9468235B016C0173
:100DE00049A95AA96BA97CA9DA01992788272DA8B6
:100DF0003EA84FA858AC920144275527822B932B2D
:100E0000A42BB52B8A159B05AC05BD0530F529A58E
:100E10003AA54BA55CA5215030404040504029A741
:100E20003AA74BA75CA78E0D9F1DA01FB11F8E1563
:100E30009F05A007B10788F08A159B05AC05BD0585
:100E400060F4215030404040504029A73AA74BA7BA
:100E50005CA78E0D9F1DA01FB11FAC01BD014A19DB
:100E60005B096C097D095A016B01CB01BA01A40130
:100E700093010E948723222E532E442E352E69ABD8
:100E80007AAB8BAB9CABC601B501A40193010E9468
:100E90008723A22CB52CC42CD32CC601B5012DA5BB
:100EA0003EA54FA558A90E9468233B014C0169A9A2
:100EB0007AA98BA99CA9AB01332722278DA99EA9CA
:100EC000AFA9B8ADA070B070282B392B4A2B5B2B83
:100ED0002615370548055905C0F40894A108B1083E
:100EE000C108D1082E0D3F1D401F511F2E153F0573
:100EF0004007510750F0261537054805590528F4D5
:100F00000894A108B108C108D10889A59AA5ABA584
:100F1000BCA58C01FF24EE24EA28FB280C291D29FE
:100F2000C7C4E114F1040105110559F461E070E052
:100F300080E090E0A80197010E94872379018A014F
:100F400010C090E0E91690E0F90691E0090790E002
:100F5000190758F4AFEFEA16F1040105110509F07D
:100F600090F420E030E0A90117C0B0E0EB16B0E04B
:100F7000FB06B0E00B07B1E01B0750F420E130E0C6
:100F800040E050E009C028E030E040E050E004C01C
:100F900028E130E040E050E0D801C701022E04C053
:100FA000B695A795979587950A94D2F786519D4F48
:100FB000FC018081280F311D411D511D80E290E010
:100FC000A0E0B0E0821B930BA40BB50B61F41501FC
:100FD00026012E183F08400A510A81E0A82EB12CA4
:100FE000C12CD12C29C1082E04C0EE0CFF1C001FFF
:100FF000111F0A94D2F715012601022E04C056943F
:101000004794379427940A94D2F729A63AA64BA678
:101010005CA6B601A501082E04C0440F551F661F2B
:10102000771F0A94D2F74DA75EA76FA778AB2DA8BC
:101030003EA84FA858AC04C05694479437942794C0
:101040002A95D2F7ADA4BEA4CFA4D8A8A228B328CD
:10105000C428D528ADA6BEA6CFA6D8AA2DA93EA93C
:101060004FA958AD04C0220F331F441F551F8A9546
:10107000D2F72DAB3EAB4FAB58AF38018824992443
:10108000B801A7016070707049AB5AAB6BAB7CAB19
:1010900069A57AA58BA59CA5A40193010E9487232D
:1010A000222E532E442E352E69AF7AAF8BAF9CAFD4
:1010B00069A57AA58BA59CA5A40193010E9487230D
:1010C000A22CB52CC42CD32CA9A6BAA6CBA6DCA6E0
:1010D000C601B50129A93AA94BA95CA90E946823B8
:1010E0005B016C0129AC3AAC4BAC5CACD1019927EB
:1010F00088272DA43EA44FA458A892014427552721
:10110000822B932BA42BB52B8A159B05AC05BD0513
:1011100030F529A53AA54BA55CA5215030404040AB
:10112000504029A73AA74BA75CA78E0D9F1DA01F73
:10113000B11F8E159F05A007B10788F08A159B0582
:10114000AC05BD0560F4215030404040504029A717
:101150003AA74BA75CA78E0D9F1DA01FB11FAC0126
:10116000BD014A195B096C097D095A016B01CB016C
:10117000BA01A40193010E948723222E532E442EEC
:10118000352E69AF7AAF8BAF9CAFC601B501A40114
:1011900093010E948723622C752C842C932CC4010C
:1011A000B30129A93AA94BA95CA90E9468239B0114
:1011B000AC0169AD7AAD8BAD9CAD6B01BB24AA24AB
:1011C0008DA59EA5AFA5B8A9A070B070A82AB92A10
:1011D000CA2ADB2AA216B306C406D506E0F4089490
:1011E0006108710881089108AE0CBF1CC01ED11E99
:1011F000AE14BF04C006D10670F0A216B306C40632
:10120000D50648F408946108710881089108AE0C6D
:10121000BF1CC01ED11E15012601221A330A440A22
:10122000550A89A59AA5ABA5BCA56C01BB24AA2427
:10123000A628B728C828D9289801442755272DA7BC
:101240003EA74FA758ABB801A7016070707049ABBB
:101250005AAB6BAB7CABC201B1012DA53EA54FA52E
:1012600058A90E948723622E932E842E752E69AF73
:101270007AAF8BAF9CAFC201B1012DA53EA54FA5A2
:1012800058A90E948723862D992DA82DB72D89A7AF
:101290009AA7ABA7BCA7BC01CD0129A93AA94BA924
:1012A0005CA90E9468233B014C0129AC3AAC4BACD1
:1012B0005CACD101992788272DA83EA84FA858AC2F
:1012C000920144275527822B932BA42BB52B8615EF
:1012D0009705A805B90530F529A53AA54BA55CA544
:1012E000215030404040504029A73AA74BA75CA767
:1012F0008E0D9F1DA01FB11F8E159F05A007B10762
:1013000088F086159705A805B90560F4215030408E
:101310004040504029A73AA74BA75CA78E0D9F1DC0
:10132000A01FB11FAC01BD01461957096809790911
:101330003A014B01CB01BA012DA53EA54FA558A9F5
:101340000E948723522E432E342E252E69AF7AAF6A
:101350008BAF9CAFC401B3012DA53EA54FA558A9E5
:101360000E948723652C742C832C922CC401B3011A
:1013700029A93AA94BA95CA90E9468231B012C0149
:1013800069AD7AAD8BAD9CADAB01332722278DA91A
:101390009EA9AFA9B8ADA070B070282B392B4A2BED
:1013A0005B2B2215330544055505C0F408946108EC
:1013B0007108810891082E0D3F1D401F511F2E15E9
:1013C0003F054007510750F02215330544055505E8
:1013D00028F40894610871088108910889A59AA5E4
:1013E000ABA5BCA58C01FF24EE24E628F72808292C
:1013F000192961C2A216B306C406D50608F448C26C
:10140000203090E0390791E0490790E0590750F407
:101410002F3F31054105510509F090F466247724EA
:10142000430119C02030A0E03A07A0E04A07A1E03C
:101430005A0760F490E1692E712C812C912C0BC01D
:1014400088E0682E712C812C912C05C0B8E16B2EA0
:10145000712C812C912CDA01C901062C04C0B6959F
:10146000A795979587950A94D2F786519D4FFC01D1
:101470008081680E711C811C911C80E290E0A0E0CC
:10148000B0E086199709A809B90989F42A153B051E
:101490004C055D0508F403C22DA83EA84FA858AC22
:1014A0002E143F044006510608F0F9C1F1C189AF7E
:1014B00019012A0104C0220C331C441C551C8A95B6
:1014C000D2F7D801C701062C04C0B695A795979509
:1014D00087950A94D2F7282A392A4A2A5B2AA80132
:1014E000970109AC04C0220F331F441F551F0A94F3
:1014F000D2F729962CAF3DAF4EAF5FAF299786014B
:101500007501062C04C016950795F794E7940A9484
:10151000D2F7B601A50109AC04C0440F551F661FE0
:10152000771F0A94D2F74DA75EA76FA778AB6DA976
:101530007EA98FA998AD04C09695879577956795F4
:101540006A94D2F73B014C018DA59EA5AFA5B8A921
:1015500086299729A829B9298DA79EA7AFA7B8AB37
:101560005201CC24DD24A9AABAAACBAADCAAA201E2
:101570009101407050702D962CAF3DAF4EAF5FAFD4
:101580002D97C801B701A60195010E948723622EFD
:10159000A32ED42EC52E25966CAF7DAF8EAF9FAFF8
:1015A0002597C801B70129A93AA94BA95CA90E94AE
:1015B0008723E62CFA2C0D2D1C2DE9A6FAA60BA7E5
:1015C0001CA7C801B7012D962CAD3DAD4EAD5FAD4A
:1015D0002D970E9468232596ACACBDACCEACDFAC99
:1015E00025978501FF24EE24ADA4BEA4CFA4D8A8DE
:1015F000960144275527E22AF32A042B152BE616D9
:10160000F7060807190730F529A53AA54BA55CA5EB
:10161000215030404040504029A73AA74BA75CA733
:10162000E20CF31C041D151DE214F304040515055A
:1016300088F0E616F7060807190760F421503040D5
:101640004040504029A73AA74BA75CA7E20CF31CE7
:10165000041D151DE61AF70A080B190BC801B7017E
:1016600029A93AA94BA95CA90E948723A22ED32EAF
:10167000C42EB52E25966CAF7DAF8EAF9FAF25974C
:10168000C801B70129A93AA94BA95CA90E948723DF
:101690006A2C7D2C8C2C9B2CC401B3012D962CAD77
:1016A0003DAD4EAD5FAD2D970E9468239B01AC010F
:1016B0002596ACACBDACCEACDFAC2597D501992757
:1016C0008827ADA4BEA4CFA4D8A86FEFE62E6FEFF5
:1016D000F62E012D112DAE20BF20C022D1228A2945
:1016E0009B29AC29BD2982179307A407B507E0F40D
:1016F00008946108710881089108820D931DA41D4A
:10170000B51D82159305A405B50570F082179307E2
:10171000A407B50748F40894610871088108910886
:10172000820D931DA41DB51D1C012D01221A330A23
:10173000440A550A2DA63EA64FA658AAA9A4BAA4A3
:10174000CBA4DCA48501FF24EE24E628F728082991
:101750001929AFEFAA2EAFEFBA2EC12CD12CAE2093
:10176000BF20C022D12218014424552429966CACF4
:101770007DAC8EAC9FAC29972FEF3FEF40E050E05F
:10178000622273228422952229966CAD7DAD8EADA6
:101790009FAD2997AC016627772749A75AA76BA762
:1017A0007CA7C601B501A40193010E94682369AB1F
:1017B0007AAB8BAB9CABC601B50129A53AA54BA56D
:1017C0005CA50E9468235B016C01C201B101A40108
:1017D00093010E9468233B014C01C201B10129A57C
:1017E0003AA54BA55CA50E9468239B01AC01A60C01
:1017F000B71CC81CD91C29A83AA84BA85CA8C201D0
:10180000AA27BB27A80EB91ECA1EDB1EA614B70442
:10181000C804D90420F4205030404F4F5F4FC60118
:10182000AA27BB27820F931FA41FB51F2DA53EA576
:101830004FA558A9281739074A075B0718F18217DF
:101840009307A407B507A1F56501BB24AA2489A9BC
:101850009AA9ABA9BCA9A070B070A80EB91ECA1EE7
:10186000DB1E8DA99EA9AFA9B8AD09AC04C0880F35
:10187000991FAA1FBB1F0A94D2F78A159B05AC05B6
:10188000BD05B0F40894E108F1080109110910C080
:10189000AA24BB246501EE24FF2487010CC0AA24DE
:1018A000BB24650181E0E82EF12C012D112D03C030
:1018B000AA24BB246501FE01B19688E0DF011D92D8
:1018C0008A95E9F7E9A2FAA20BA31CA3ADA2BEA2D6
:1018D000CFA2D8A62E2D3AA14BA15CA16A2D7EA144
:1018E0008FA198A521962CAC3DAC4EAC5FAC219756
:1018F000211431044104510409F456C02195E1E05A
:10190000121608F0E0E03195F1E0131608F0F0E06F
:10191000032F0E1BE1E0301708F0E0E0FE2B4195AD
:10192000E1E0141608F0E0E0142F1F1B31E041172E
:1019300008F030E0E32B5195F1E0151608F0F0E0E7
:10194000B52FBE1B31E05B1708F030E0F32B61953B
:10195000E1E0161608F0E0E0A62EAF1A31E06A15B5
:1019600008F030E0E32B7195F1E0171608F0F0E095
:10197000A72FAE1B31E07A1708F030E0F32B8195EA
:10198000E1E0181608F0E0E0382E3F1AF32D31E0C0
:10199000831508F030E0E32B9195302F412F5B2F1A
:1019A0006A2D7A2F8F2F9E1BC45BDF4FE2E10C94D0
:1019B000C5238091EA0361E00E94A7106091FE03B5
:1019C0007091FF03882777FD8095982F0E94D30F91
:1019D0008091EA0360E00E94A7108091EC0361E02F
:1019E0000E94A7106091FE037091FF03882777FD86
:1019F0008095982F0E94D30F8091EC0360E00E94A5
:101A0000A7108091EE0361E00E94A7106091FE0391
:101A10007091FF03882777FD8095982F0E94D30F40
:101A20008091EE0360E00E94A7108091F00361E0D6
:101A30000E94A7106091FE037091FF03882777FD35
:101A40008095982F0E94D30F8091F00360E00E9450
:101A5000A7108091F20361E00E94A7106091FE033D
:101A60007091FF03882777FD8095982F0E94D30FF0
:101A70008091F20360E00E94A7108091F40361E07E
:101A80000E94A7106091FE037091FF03882777FDE5
:101A90008095982F0E94D30F8091F40360E00E94FC
:101AA000A7108091F60361E00E94A7106091FE03E9
:101AB0007091FF03882777FD8095982F0E94D30FA0
:101AC0008091F60360E00E94A7108091F80361E026
:101AD0000E94A7106091FE037091FF03882777FD95
:101AE0008095982F0E94D30F8091F80360E00E94A8
:101AF000A7108091FA0361E00E94A7106091FE0395
:101B00007091FF03882777FD8095982F0E94D30F4F
:101B10008091FA0360E00E94A7108091FC0361E0CD
:101B20000E94A7106091FE037091FF03882777FD44
:101B30008095982F0E94D30F8091FC0360E00E9453
:101B4000A7106091FE037091FF03882777FD8095B1
:101B5000982F0E94D30F6091FE037091FF03882796
:101B600077FD8095982F0E94D30F08958BE196E022
:101B700060E071E00E947F1186EA94E00E94171AEB
:101B8000181619064CF486EA94E00E948D1A682F04
:101B90008BE196E00E94C0128BE196E00E945B12FE
:101BA000009751F38BE196E00E948A12682F86EA33
:101BB00094E00E940418E0CF0F931F93DF93CF931C
:101BC000CDB7DEB7A0970FB6F894DEBF0FBECDBF7E
:101BD0008091EA0361E00E9462108091EC0361E071
:101BE0000E9462108091EE0361E00E946210809179
:101BF000F00361E00E9462108091F20361E00E94B4
:101C000062108091F40361E00E9462108091F603FB
:101C100061E00E9462108091F80361E00E9462100E
:101C20008091FA0361E00E9462108091FC0361E000
:101C30000E9462108BE196E040E051EE60E070E0BF
:101C40000E94E7138BE196E06FE071E00E947F1144
:101C500068EC70E080E090E00E94D30F8BE196E0AA
:101C600062E271E00E947F1168EC70E080E090E039
:101C70000E94D30F8AE396E040E05BE460E070E00E
:101C80000E94E71386EA94E06AE376E040E050E0E1
:101C90000E948522882341F48BE196E066E471E09E
:101CA0000E947F110E94B60D86EA94E00E944820AF
:101CB0008A309105A1F08BE196E064E971E00E9421
:101CC0007F1186EA94E06AE070E00E94F22186EAE1
:101CD00094E00E94752186EA94E00E945A2286EAE6
:101CE00094E00E94B022882329F48BE196E064EC12
:101CF00071E004C08BE196E063EE71E00E947F1119
:101D000086EA94E08E010F5F1F4FB80140E250E079
:101D10000E944E1F8BE196E06CEF71E00E944C1127
:101D20008BE196E0B8010E944C118BE196E062E0F5
:101D300072E00E944C1186EA94E0B8010E94DB2216
:101D4000882329F08BE196E068E072E004C08BE123
:101D500096E06EE072E00E947F118BE196E066E211
:101D600072E00E944C1186EA94E06AE372E00E94FD
:101D7000DB22882329F08BE196E065E472E004C061
:101D80008BE196E06AE472E00E947F118BE196E0BD
:101D900061E672E00E944C1186EA94E067E772E027
:101DA0000E94DB22882329F08BE196E065E472E053
:101DB00004C08BE196E062E872E00E947F1186EA3F
:101DC00094E061E00E94EF2186EA94E06FE972E01E
:101DD0004AE65FE10E94B3218BE196E06CEA72E093
:101DE0000E944C1186EA94E08E010F5F1F4FB801EC
:101DF00040E250E00E94561FBC018BE196E00E9439
:101E00007F118BE196E062EB72E00E944C1186EA52
:101E100094E0B80140E250E00E942A1FBC018BE12F
:101E200096E00E947F118BE196E067EB72E00E94E2
:101E30004C1186EA94E0B80140E250E00E94461F4F
:101E4000BC018BE196E00E947F118BE196E061EC92
:101E500072E00E944C1186EA94E0B80140E250E042
:101E60000E944E1FBC018BE196E00E947F118BE126
:101E700096E06BEC72E00E947F11A0960FB6F8948A
:101E8000DEBF0FBECDBFCF91DF911F910F9108959F
:101E90000F938CEF94E060E040E020E000E00E94CF
:101EA0006D1686EA94E00E9467180F9108951F92BC
:101EB0000F920FB60F9211242F933F938F939F93FE
:101EC000AF93BF938091060590910705A0910805F7
:101ED000B091090530910A050196A11DB11D232F6E
:101EE0002D5F2D3720F02D570196A11DB11D209398
:101EF0000A058093060590930705A0930805B09303
:101F000009058091020590910305A0910405B09107
:101F100005050196A11DB11D80930205909303054F
:101F2000A0930405B0930505BF91AF919F918F9148
:101F30003F912F910F900FBE0F901F9018958FB764
:101F4000F8942091060530910705409108055091BD
:101F500009058FBFB901CA0108959FB7F894209170
:101F6000020530910305409104055091050586B5A1
:101F7000A89B06C08F3F21F02F5F3F4F4F4F5F4F11
:101F80009FBF542F432F322F2227280F311D411D71
:101F9000511D82E0220F331F441F551F8A95D1F730
:101FA000B901CA010895EF92FF920F931F93CF9347
:101FB000DF937B018C010E94AD0FEB010FC00E94EB
:101FC000AD0F6C1B7D0B83E0683E780738F00894FA
:101FD000E108F10801091109C851DC4FE114F104CD
:101FE0000105110561F7DF91CF911F910F91FF90CE
:101FF000EF900895789484B5826084BD84B5816043
:1020000084BD85B5826085BD85B5816085BDEEE600
:10201000F0E0808181608083E1E8F0E010828081DF
:1020200082608083808181608083E0E8F0E080814D
:1020300081608083E1EBF0E0808184608083E0EB6D
:10204000F0E0808181608083EAE7F0E08081846055
:1020500080838081826080838081816080838081B1
:10206000806880831092C1000895833071F08430BD
:1020700028F48130A1F0823021F514C08630B1F00F
:102080008730D1F08430E9F404C0809180008F77EC
:1020900003C0809180008F7D80938000089584B577
:1020A0008F7702C084B58F7D84BD08958091B00084
:1020B0008F778093B00008958091B0008F7D8093DA
:1020C000B0000895EF92FF92CF93DF9390E0FC0170
:1020D000E654FF4F449186569F4FFC01849188231C
:1020E00089F190E0880F991FFC01E458FF4F25917A
:1020F0003491D9018A579F4FFC0125913491E22EEA
:10210000E7017E01F32EE701662349F49FB7F894B7
:102110008C91409584238C93888184230BC06230FA
:1021200059F49FB7F8948C91242F209582238C9397
:102130008881842B888305C09FB7F8948C91842B69
:102140008C939FBFDF91CF91FF90EF9008950F93F5
:102150001F93DF93CF930F92CDB7DEB7282F30E0D8
:10216000F901E652FF4F8491F901E654FF4F1491B3
:1021700026563F4FF90104910023D9F0882321F01E
:1021800069830E9435106981E02FF0E0EE0FFF1F98
:10219000EA57FF4F85919491DC019FB7F89466232D
:1021A00021F48C911095812302C08C91812B8C930A
:1021B0009FBF0F90CF91DF911F910F910895CF9303
:1021C000DF930E94FA0F0E94DC0DC0E6D3E10E946B
:1021D000D90C2097E1F30E946013F9CFCF92DF92E0
:1021E000EF92FF920F931F93CF93DF936C017B01CC
:1021F0008A01C0E0D0E00FC0D7016D917D01D6010A
:10220000ED91FC910190F081E02DC6010995C80F78
:10221000D91F015010400115110571F7CE01DF9152
:10222000CF911F910F91FF90EF90DF90CF90089585
:10223000DB010D900020E9F7AD0141505040461BF5
:10224000570BDC01ED91FC910280F381E02D0995A3
:102250000895EF92FF920F931F93CF93DF937C012A
:10226000062F172FC0E0D0E0F8010F5F1F4F6491D9
:10227000662351F0F701A081B181ED91FC91C70176
:102280000995C80FD91FF0CFCE01DF91CF911F91D3
:102290000F91FF90EF9008950E9418110895DC01AE
:1022A000ED91FC910190F081E02D099508950F9337
:1022B0001F93CF93DF93EC016DE00E944F118C01CF
:1022C000CE016AE00E944F11080F191FC801DF916B
:1022D000CF911F910F9108950F931F93CF93DF9389
:1022E000EC010E9429118C01CE010E945711080FA8
:1022F000191FC801DF91CF911F910F9108950F937E
:102300001F93CF93DF93EC010E9418118C01CE0133
:102310000E945711080F191FC801DF91CF911F911B
:102320000F9108950F931F93CF93DF93EC010E94B9
:102330004F118C01CE010E945711080F191FC801BF
:10234000DF91CF911F910F9108958F929F92AF923D
:10235000BF92CF92DF92EF92FF920F931F93DF9382
:10236000CF93CDB7DEB7A1970FB6F894DEBF0FBEFF
:10237000CDBF6C01042FE52FCB01122F19A2223003
:1023800008F41AE021E2E22EF12CEC0EFD1E812E63
:102390009924AA24BB2403C0022FE32FCA01602F73
:1023A0007E2FA50194010E948723129F802D112466
:1023B000081B0894E108F1080A3014F4005D01C01C
:1023C000095CF7010083211531054105510521F70D
:1023D000C601B7010E941811A1960FB6F894DEBF8E
:1023E0000FBECDBFCF91DF911F910F91FF90EF9066
:1023F000DF90CF90BF90AF909F908F900895211560
:10240000310549F4DC01ED91FC910190F081E02D62
:10241000642F099508950E94A51108959A01462FE9
:1024200050E060E070E00E94FF110895CF92DF92CB
:10243000EF92FF920F931F93CF93DF93EC017A01FA
:102440008B012115310541F4E881F9810190F0817A
:10245000E02D642F09951AC02A303105A9F477FFC1
:1024600012C06DE20E944F116C0144275527BA013A
:102470004E195F09600B710BCE012AE00E94A51175
:10248000C80ED91E04C02AE00E94A5116C01C60125
:10249000DF91CF911F910F91FF90EF90DF90CF9040
:1024A00008959A01FB01AF01662757FD6095762FCD
:1024B0000E9416120895FC0184859585FC01E05C5C
:1024C000FF4F208131818E5B9F4FFC018081918184
:1024D000281B390B2F733070C9010895FC018485C6
:1024E0009585FC01E05CFF4F40815181FC01EE5B72
:1024F000FF4F208131814217530741F00190F08155
:10250000E02DE80FF91F208130E002C02FEF3FEFF0
:10251000C9010895FC0184859585FC01E05CFF4FAD
:1025200040815181FC01EE5BFF4F208131814217D8
:10253000530771F0A081B181A80FB91F2C91808140
:10254000918101968F7390709183808330E002C0F7
:102550002FEF3FEFC9010895DC011E968D919C91EC
:102560001F97FC01E05CFF4F8E5B9F4F40815181C4
:10257000DC012D913C91119742175307B9F708954B
:10258000FC0126853785D901A05CBF4F8D919C91B8
:1025900001968F739070D901AE5BBF4F4D915C91E6
:1025A000119784179507D1F3D901A05CBF4F0D9007
:1025B000BC91A02DA20FB31F6C93A685B785A05C1C
:1025C000BF4F11969C938E93A689B7892C9181E079
:1025D00090E0058C02C0880F991F0A94E2F7282B1F
:1025E0002C9381E090E00895FB01E05CFF4F208197
:1025F00031812F5F3F4F2F733070DB01AE5BBF4FD8
:102600004D915C9111972417350739F0A081B18164
:10261000A60FB71F8C9331832083089508951F92CE
:102620000F920FB60F9211242F933F934F935F9306
:102630006F937F938F939F93AF93BF93EF93FF938A
:102640008091C6006BE075E00E94F412FF91EF915B
:10265000BF91AF919F918F917F916F915F914F91BA
:102660003F912F910F900FBE0F901F9018950895D6
:102670001F920F920FB60F9211242F933F934F93F7
:102680005F936F937F938F939F93AF93BF93EF93DA
:10269000FF938091CE0063E975E00E94F412FF91F0
:1026A000EF91BF91AF919F918F917F916F915F91CA
:1026B0004F913F912F910F900FBE0F901F90189543
:1026C0008BE196E00E945B12009711F00E940E13BE
:1026D0008AE396E00E945B12009711F00E94371384
:1026E00008951F920F920FB60F9211242F933F93CC
:1026F0008F939F93EF93FF9320918F0530919005D7
:1027000080919105909192052817390731F48091B5
:10271000C1008F7D8093C10014C0E0919105F091BC
:102720009205E15BFA4F208180919105909192058D
:1027300001968F73907090939205809391052093EA
:10274000C600FF91EF919F918F913F912F910F9034
:102750000FBE0F901F9018951F920F920FB60F92F9
:1027600011242F933F938F939F93EF93FF93209187
:102770001706309118068091190690911A062817AD
:10278000390731F48091C9008F7D8093C90014C04E
:10279000E0911906F0911A06E952FA4F20818091D2
:1027A000190690911A0601968F73907090931A06ED
:1027B000809319062093CE00FF91EF919F918F9106
:1027C0003F912F910F900FBE0F901F9018952F9251
:1027D0003F924F925F926F927F928F929F92AF92B1
:1027E000BF92CF92DF92EF92FF920F931F93DF93EE
:1027F000CF93CDB7DEB727970FB6F894DEBF0FBEE5
:10280000CDBF9F838E834A835B836C837D8321E06E
:102810002983403081EE580780E0680780E0780720
:1028200029F51982AE81BF815496ED91FC9155979F
:1028300010828A819B81AC81BD811C012D0120E821
:1028400034E84EE150E060E070E080E090E051015B
:102850006201EE24FF2400E010E00E940A05022F2E
:102860000150E1E0021708F497C095C0AE81BF8126
:102870005496ED91FC91559781E090E05E960C9016
:1028800002C0880F991F0A94E2F780838A819B8196
:10289000AC81BD811C012D0120E039E04DE350E009
:1028A00060E070E080E090E051016201EE24FF24DE
:1028B00000E010E00E940A05F22EFA94E1E0F21620
:1028C00008F0E0E0232F215001E0231708F000E09A
:1028D0002E2E220E31E0221608F030E0032B242F9A
:1028E000215011E0241708F010E0020F31E0021728
:1028F00008F030E0132B252F2150B1E0251708F008
:10290000B0E0120F31E0121708F030E0B32B262FA1
:102910002150A1E0261708F0A0E0B20F31E0B21775
:1029200008F030E0A32B272F2150F1E0271708F003
:10293000F0E0A20F31E0A21708F030E0F32B282FCF
:102940002150E1E0281708F0E0E0F20F81E0F217F3
:1029500008F080E0E82B9150E90F2F2D322DA801CF
:102960006B2F7A2F8F2F9E2FE7FF90C02F5F31E0C4
:102970002F1508F030E0320D41E0321508F040E04C
:10298000400F51E0401708F050E0510F61E051173F
:1029900008F46CC06AC0E0E0232F215011E0231737
:1029A00008F010E0FE2EF20E31E0F21608F030E0F2
:1029B000132B342F315021E0341708F020E0130F8F
:1029C00041E0131708F040E0242B352F3150B1E0DF
:1029D000351708F0B0E0222E230E21E0231608F070
:1029E00020E0B22B262F2150A1E0261708F0A0E00E
:1029F000B20F31E0B21708F030E0A32B272F21509F
:102A0000F1E0271708F0F0E0A20F31E0A21708F07C
:102A100030E0F32B282F2150E1E0281708F0E0E008
:102A2000F20F81E0F21708F080E0E82B9150E90FF7
:102A3000202F3F2D412F522D6B2F7A2F8F2F9E2F1E
:102A4000E7FF24C02F5F31E0201708F030E03F0D92
:102A500041E03F1508F040E0410F51E0411708F018
:102A600050E0520D61E0521508F060E06B0F71E02C
:102A70006B1708F070E07A0F81E07A1708F080E0B9
:102A80008F0F91E08F1708F090E09E0F01E00E94F9
:102A90009904822F932FA0E180309A0720F0B9810A
:102AA000BB2309F0BECEAE81BF815096ED91FC9163
:102AB000519790835296ED91FC915397808356964F
:102AC000ED91FC915797408181E090E09C015A96EE
:102AD0000C905A9702C0220F331F0A94E2F7422B40
:102AE00040835696ED91FC91579740819C015B96EF
:102AF0000C905B9702C0220F331F0A94E2F7422B1F
:102B000040835696ED91FC91579740819C015C96CD
:102B10000C905C9702C0220F331F0A94E2F7422BFD
:102B200040835696ED91FC91579720815D960C90CD
:102B30005D9702C0880F991F0A94E2F7809582235F
:102B4000808327960FB6F894DEBF0FBECDBFCF911E
:102B5000DF911F910F91FF90EF90DF90CF90BF908A
:102B6000AF909F908F907F906F905F904F903F902D
:102B70002F9008951F9310921E0610921D0688EE46
:102B800093E0A0E0B0E080931F0690932006A0930E
:102B90002106B0932206EDE1F6E024E034E0329322
:102BA00022934BE055E0558744874FE455E0578723
:102BB000468745EC50E0518B408B44EC50E0538B02
:102BC000428B40EC50E0558B448B41EC50E0578BEE
:102BD000468B46EC50E0518F408F14E0128F73E02B
:102BE000738F67E0648F55E0558F41E0468F1092F8
:102BF0003D0610923C0680933E0690933F06A093BC
:102C00004006B0934106ECE3F6E03293229383E969
:102C100095E09587848787ED95E0978786878DEC8B
:102C200090E0918B808B8CEC90E0938B828B88EC86
:102C300090E0958B848B89EC90E0978B868B8EEC63
:102C400090E0918F808F128F738F648F558F468F96
:102C50001F9108958F929F92AF92BF92CF92DF9271
:102C6000EF92FF920F931F93CF93DF934C017B0161
:102C700082E0A82EB12CA80CB91CC0E0D0E0CC2476
:102C8000DD24F50161915F01C7014AE050E00E9437
:102C90000E128C01C7016EE20E944F11080F191F1E
:102CA000C00ED11E2196C330D10559F7C701F401DA
:102CB00065814AE050E00E940E12C80ED91EC6017E
:102CC000DF91CF911F910F91FF90EF90DF90CF9008
:102CD000BF90AF909F908F9008950F93FC0184E177
:102CE00094E09183808362834383248305830F91DF
:102CF000089584E194E090935A06809359061092C7
:102D00005B0610925C0610925D0610925E060895B6
:102D1000DC011C968D919C911D97DC01ED91FC913D
:102D20000680F781E02D09950895DC011C968D91B0
:102D30009C911D97DC01ED91FC910480F581E02DC3
:102D400009950895DC011C968D919C911D97DC01DD
:102D5000ED91FC910284F385E02D09950895DC0145
:102D60001C968D919C911D97DC01ED91FC91008446
:102D7000F185E02D099508952F923F924F925F9231
:102D80006F927F928F929F92AF92BF92CF92DF927B
:102D9000EF92FF920F931F93DF93CF93CDB7DEB7E0
:102DA00060970FB6F894DEBF0FBECDBF6B017C01FC
:102DB000590118014E010894811C911C4A3021F5DB
:102DC00000E010E09AE0492E512C612C712C02C0D9
:102DD00069017A01C701B601A30192010E9487230C
:102DE0008C2D805D622F660F962F990F990F960F8D
:102DF000891BF40181934F010F5F1F4F211531058E
:102E00004105510529F732C0F40100E010E0D70177
:102E1000C6018F709070A070B070282F8A30910515
:102E2000A105B10510F480E301C081E4820F819314
:102E30000F5F1F4F84E0F694E794D794C7948A9568
:102E4000D1F7C114D104E104F10409F7CE010196D0
:102E5000FC01E00FF11F28E720830F5F1F4F800F59
:102E6000911F20E3FC0120830F5F1F4FFE0131966D
:102E7000E00FF11FD50120E030E00894210831086F
:102E800082918D932F5F3F4FC801821B930B1816C1
:102E900019061CF4221533059CF3F501E20FF31F0C
:102EA0001082C90160960FB6F894DEBF0FBECDBF89
:102EB000CF91DF911F910F91FF90EF90DF90CF9016
:102EC000BF90AF909F908F907F906F905F904F904A
:102ED0003F902F9008950F931F93FC0100E020E096
:102EE00030E0A90155C0812F80538A30C0F4DA0147
:102EF000C90144E0880F991FAA1FBB1F4A95D1F74B
:102F0000212F332727FD3095432F532F2053304057
:102F100040405040280F391F4A1F5B1F39C0812F86
:102F200081568630A0F4CA01B90134E0660F771FDC
:102F3000881F991F3A95D1F7212F332727FD309508
:102F4000432F532F275530404040504017C0812F0A
:102F500081548630C0F4CA01B90124E0660F771F9E
:102F6000881F991F2A95D1F7212F332727FD3095E8
:102F7000432F532F2753304040405040260F371FD8
:102F8000481F591F05C0183739F4002329F401E000
:102F90001191112309F0A7CFB901CA011F910F9117
:102FA0000895EF92FF921F93CF93DF93E82EE701EE
:102FB0007E01F92EE70120E030E0A9011AC0812F3F
:102FC00080538A30C8F4CA01B9012AE030E040E0F9
:102FD00050E00E946823212F332727FD3095432F8F
:102FE000532F2053304040405040260F371F481F7A
:102FF000591F1991112319F7B901CA01DF91CF9116
:103000001F91FF90EF900895DC01AE5ABF4F2D91B4
:103010003C911197FC01EC5AFF4F408151812417DC
:1030200035076CF4FC01E05BFF4F0190F081E02D6F
:10303000E20FF31F60832F5F3F4F2D933C93CF969A
:10304000FC01A081B181ED91FC9111970190F0817B
:10305000E02DCD010995089520917806222369F489
:10306000FC01FF9680819181DC01ED91FC9100844F
:10307000F185E02D09959C0109C0E0917906F0E009
:10308000E658F94F2081332727FD3095C90108956F
:10309000FC01FF9680819181DC01ED91FC9102841D
:1030A000F385E02D09950895FC01A485B585109759
:1030B00051F0ED91FC9111970190F081E02DCD013F
:1030C00009959C0102C020E030E0C9010895FC018F
:1030D0001382128228EE33E040E050E024833583EF
:1030E000468357838AE294E091838083DF01AD5B5E
:1030F000BF4F1D921C92DF01AB5BBF4F2D933D93E1
:103100004D935C931397DF01AF5BBF4F8AE194E06F
:103110008D939C93DF01A35BBF4F1D921C9215867C
:103120001786168617AA10AE81E0808B818B1486D5
:10313000DF01A05BBF4F1D921C92DF01AE5ABF4F53
:1031400011961C921E92EC5AFF4F11821082089524
:103150000E944C110895DC01ED91FC910190F081E9
:10316000E02D099508950E94291108956F927F928C
:103170008F929F92AF92BF92CF92DF92EF92FF9287
:103180000F931F93CF93DF93EC013B018A010E94C1
:103190009F0F4B015C016801EE24FF248E01015C4E
:1031A0001F4F6CC0D8018D919C91DC01ED91FC9179
:1031B0000480F581E02D0995181619060CF05EC003
:1031C000F80180819181DC01ED91FC910680F7810D
:1031D000E02D0995C82EF3018083DE01AE5ABF4F62
:1031E0008D919C911197FE01EC5AFF4F2081318106
:1031F000821793076CF4FE01E05BFF4F0190F081B2
:10320000E02DE80FF91FC082019611969C938E93D2
:103210008C85882309F449C08E010F5B1F4F609194
:10322000760670917706CB0101969093770680938E
:103230007606C8014AE050E00E945112C8016EE6CD
:1032400076E00E942911CC2DDD27C7FDD095C8015D
:10325000BE0140E150E00E945112CE010E94E823DD
:10326000009741F0C80160E20E944F11C8016C2D27
:103270000E944F11C8010E94571117C00E949F0F52
:10328000681979098A099B096C157D058E059F05CA
:1032900008F488CF8C85882351F0CE018F5B9F4F37
:1032A00066E576E00E946C1102C081E001C080E01A
:1032B000DF91CF911F910F91FF90EF90DF90CF9012
:1032C000BF90AF909F908F907F906F900895DF9206
:1032D000EF92FF920F931F93CF93DF93EC01FB01CB
:1032E00020917806222301F1442319F0319691E0D0
:1032F00001C090E080917906890F13C03491332387
:1033000009F44BC0893010F4A82F01C0A0E08F5FF2
:10331000B0E0A658B94F4C91431709F05DC0319603
:103320009F5F921758F303C0442309F431968F012D
:103330000F5F1F4FD490B1E4EB2EF12CEC0EFD1E6D
:1033400036C080938206893010F0109282068091F8
:1033500078068F5F80937806893008F43DC0CE01EF
:103360008F5B9F4F6CEB76E00E946C1135C08093B1
:103370008206893010F010928206809178068F5F65
:1033800080937806893028F0C70160EA76E00E94D1
:103390006C11F801D490DD2041F41092780610925F
:1033A00079061092820681E018C00F5F1F4F60916E
:1033B000820670E06658794FCE0144EF51E00E94DA
:1033C000B61880918206E82FF0E0E658F94F908118
:1033D0008F5F9D1561F2B5CF80E0DF91CF911F9196
:1033E0000F91FF90EF90DF900895CF93DF93EC0162
:1033F000462F62E976E00E946719882319F081E080
:103400008FAB01C080E0DF91CF910895CF93DF9320
:10341000EC01462F69E976E00E946719882319F0CC
:103420001FAA81E001C080E0DF91CF910895CF9283
:10343000DF92EF92FF920F931F93CF93DF93EC01F4
:103440008C01015C1F4FD8018D919C91DC01ED91A5
:10345000FC910480F581E02D09956C011816190680
:103460000CF049C08C858823C1F081E4E82EF12C52
:10347000EC0EFD1EC7016FE776E00E942911F801EE
:1034800080819181DC01ED91FC910084F185E02D3A
:103490000995682FC7010E9492118E01015C1F4F90
:1034A000F80180819181DC01ED91FC910084F1852E
:1034B000E02D09958A329105F1F48FA9882339F01E
:1034C000CE0161E00E94061A8823D1F404C0CE0127
:1034D00061E00E94F519C0907806DD24F801808132
:1034E0009181DC01ED91FC910480F581E02D09953D
:1034F000C80ED91E08C080917806C80ED11C03C022
:10350000CC24CA94DC2CC601DF91CF911F910F917E
:10351000FF90EF90DF90CF900895CF93DF93EC0171
:1035200080917806882381F090917906E92FF0E068
:10353000E658F94F208130E09F5F909379069930EB
:1035400060F11092790629C0FE01FF968081918179
:10355000DC01ED91FC910680F781E02D09959C013D
:103560008FA9882301F12A323105E9F4CE0160E008
:103570000E94061A8823A9F480917906E82FF0E0CA
:10358000E658F94F208130E08F5F809379068930CB
:1035900010F0109279068091780681508093780619
:1035A00002C02FEF3FEFC901DF91CF910895CB010A
:1035B00066E676E00E940B2421E0009709F420E003
:1035C000822F08956F927F928F929F92AF92BF92B7
:1035D000CF92DF92EF92FF920F931F93DF93CF93DF
:1035E0000F92CDB7DEB74C017B015A016115710511
:1035F00049F1FB018081882329F18B016E01089438
:10360000C11CD11C3B010894611C711C13C0898131
:10361000F8019081891719F40F5F1F4F07C0F70158
:103620009081891711F4830101C08701F80180811D
:10363000882341F0C401B601A5010E94B618882371
:1036400031F701C081E00F90CF91DF911F910F9171
:10365000FF90EF90DF90CF90BF90AF909F908F90B2
:103660007F906F9008952F923F924F925F926F924A
:103670007F928F929F92BF92CF92DF92EF92FF92B2
:103680000F931F93DF93CF930F92CDB7DEB76C01EB
:103690007B011A01FC018485882361F086010F5BA0
:1036A0001F4FC8016CE476E00E942911C801B701E0
:1036B0000E946C11F701B490BB2039F187014E01D3
:1036C0000894811C911C6B2C772427010894411CC1
:1036D000511C13C089818B1519F40F5F1F4F09C04E
:1036E000992787FD90958615970511F4820101C0F1
:1036F0008701F801B490BB2041F0C601B401A101DB
:103700000E94B618882331F701C081E00F90CF9155
:10371000DF911F910F91FF90EF90DF90CF90BF90BE
:103720009F908F907F906F905F904F903F902F90E1
:1037300008952F923F924F925F926F927F928F9255
:103740009F92AF92BF92CF92DF92EF92FF920F9330
:103750001F93DF93CF9300D00F92CDB7DEB74C010C
:103760003B01A42E29012DB63EB6242F30E0C9011D
:10377000880F991F820F931F2DB73EB7281B390B57
:103780000FB6F8943EBF0FBE2DBF8DB79EB7019602
:103790008A839B83062F172DE82EF92EBB2491E4F4
:1037A000C92ED12CC80CD91C28C0F7011082F801F1
:1037B00080819181F70192838183F401848588233C
:1037C000A9F0C6016DE376E00E942911C6016B2DB8
:1037D0004AE050E00E940E12C60160E20E944F11C2
:1037E000F80160817181C6010E946C11B39423E0DD
:1037F00030E0E20EF31E0E5F1F4FBA14B0F227C086
:103800001196ED91FC9112976491961769F0F90168
:10381000E080F1801296FC92EE921197F70164918C
:1038200070E04617570729F431961296FC93EE93F1
:1038300011971196ED91FC911297E49113962E5FDA
:103840003F4FEE23E1F08F5F8A1520F4D9CF8E0130
:103850000F5F1F4FC401B801A2010E94B618882350
:1038600069F09981492F552747FD5095262D372D11
:103870006A818B81A62FB82F80E0E6CF8FEF0FB63D
:10388000F8943EBE0FBE2DBE0F900F900F90CF91BB
:10389000DF911F910F91FF90EF90DF90CF90BF903D
:1038A000AF909F908F907F906F905F904F903F90E0
:1038B0002F900895CF93DF93EC018D858823C9F075
:1038C000CE0162E176E00E94B318CE016BE076E0B3
:1038D00044EF51E00E94331B882311F01D8609C07C
:1038E000CE018F5B9F4F6AEF75E00E946C1180E004
:1038F00001C081E0DF91CF9108952F923F924F92C6
:103900005F926F927F928F929F92BF92CF92DF923F
:10391000EF92FF920F931F93DF93CF930F92CDB748
:10392000DEB72C017B01490100E010E06E01089434
:10393000C11CD11C6EEF262E6FEF362E240E351EC5
:103940003A010894610871083BC0B9808B2D8D3015
:1039500051F5C201B601A4010E94B61889818A30CE
:1039600041F4E114F104E9F1F701E00FF11F1082D5
:1039700038C0E114F104B9F0021513055CF4F70145
:10398000E00FF11FB0820F5F1F4FF701E00FF11F33
:10399000808307C00615170534F4F701E00FF11F07
:1039A000B0820F5F1F4F0615170554F4E114F104A0
:1039B00039F0F701E00FF11F898180830F5F1F4FFE
:1039C000C201B601A4010E94B618882309F0BDCF38
:1039D000E114F10421F00E0D1F1DF801108200E02A
:1039E00010E0C8010F90CF91DF911F910F91FF90D0
:1039F000EF90DF90CF90BF909F908F907F906F90CF
:103A00005F904F903F902F900895BF92CF92DF929A
:103A1000EF92FF920F931F93DF93CF930F92CDB747
:103A2000DEB78C017E010894E11CF11C47C089813E
:103A30008C3309F043C08093660677E6E72E76E084
:103A4000F72EBB24B3946E010894C11CD11CC8018D
:103A5000B60144EF51E00E94B6188823C9F189816C
:103A6000F70181937F01B3948E3321F5C801B6012C
:103A700044EF51E00E94B618882351F189818032C9
:103A800039F5EB2DF0E0EA59F94F8083B394EB2D33
:103A9000F0E0EA59F94F108281E080936506C80191
:103AA00060E070E040E050E024EF31E00E947D1CD7
:103AB00081E00FC0FB2DFC3051F60AC0C801B701F0
:103AC00044EF51E00E94B618882309F0B0CF01C03E
:103AD00080E00F90CF91DF911F910F91FF90EF90B9
:103AE000DF90CF90BF9008951F93CF93DF93EC01A9
:103AF000AB0180916506882371F4CE010E94051DFB
:103B0000182F882371F4CE018F5B9F4F6CE276E013
:103B10000E946C1106C0CE0166E676E00E94E21AB1
:103B2000182F812FDF91CF911F910895FF920F934E
:103B30001F93CF93DF93EC018D85882309F06FC02D
:103B40006AEF70E080E090E00E94D30FCE0168E25F
:103B500076E00E94B3186AEF70E080E090E00E9487
:103B6000D30FCE0162E276E044EF51E00E94331BB6
:103B70008823F9F080916506882309F049C0E5E0C3
:103B8000FE2E8E01015C1F4FF801A081B181ED91E5
:103B9000FC9111970190F081E02DCD016DE0099528
:103BA000CE0164EF71E00E94741D882389F5FA94B8
:103BB00059F7FE01FF96A081B181ED91FC9111971B
:103BC0000190F081E02DCD016DE00995CE0164EF0B
:103BD00071E00E94741D8823D9F405E06AEF70E05B
:103BE00080E090E00E94D30FCE016EE176E00E946B
:103BF000B3186AEF70E080E090E00E94D30FCE012E
:103C000068E176E044EF51E00E94331B882319F00D
:103C100081E08D8705C0015009F780E001C081E097
:103C2000DF91CF911F910F91FF900895CF93DF9374
:103C3000EC018D85882329F4CE010E94961D8823EE
:103C400039F08E859F8501969F878E8781E001C020
:103C500080E0DF91CF910895FC01268537852150C2
:103C60003040378726872115310519F40E945A1CE8
:103C7000089581E00895CF92DF92EF92FF920F9323
:103C80001F93CF93DF93EC018B017A0169010E94AE
:103C9000161E882349F1000F111F000F111F0A5C27
:103CA0001B4FF80160817181CE010E94B318F801A9
:103CB00062817381CE0144EF51E00E94331B88235F
:103CC00081F0CE01B701A60124EF31E00E947D1CF6
:103CD000CE0164EF71E00E94741DCE010E942C1E83
:103CE00007C0CE010E942C1EF7EDEF2EF2E0FF2E52
:103CF000C701DF91CF911F910F91FF90EF90DF905F
:103D0000CF900895CF92DF92EF92FF920F931F937F
:103D1000DF93CF93CDB7DEB760970FB6F894DEBFD1
:103D20000FBECDBF8C010E94161E882351F4C8011E
:103D30008F5B9F4F62EE75E00E946C11EE24FF24B2
:103D400079C0C8016AED75E00E94B318C8016E0120
:103D50000894C11CD11CB60140E150E024EF31E0D1
:103D60000E947D1C7C01C801B6010E94D71A8823DD
:103D700051F0C801B60140E150E024EF31E00E946B
:103D80007D1C7C0105C0C80164EF71E00E94741DB8
:103D9000CE01019625E0E216F1042CF097012450A3
:103DA0003040820F931F0E946B177B01862F8F700C
:103DB000F80181AFC70144E0969587954A95E1F7F0
:103DC000817082AFC70135E0969587953A95E1F706
:103DD000817083AFC70126E0969587952A95E1F714
:103DE000817084AFC701880F892F881F990B919527
:103DF000817085AF8F2D86958F7086AFC8010E9428
:103E00002C1EF80191AD8485913049F497AB88233D
:103E100089F0C8018F5B9F4F64EC75E009C0F80121
:103E200017AA882339F0C8018F5B9F4F6BEA75E0B2
:103E30000E946C11C70160960FB6F894DEBF0FBEEA
:103E4000CDBFCF91DF911F910F91FF90EF90DF9049
:103E5000CF9008950F931F938B019A0160E070E05B
:103E6000A8010E943B1E009749F0E02FF12FCF01DF
:103E70002191222329F02A33D1F702C0802F912FDC
:103E8000FC011082C8011F910F910895FB019A0156
:103E900061E070E0AF010E943B1E0895FB019A01B2
:103EA00062E070E0AF010E943B1E0895FB019A01A1
:103EB00063E070E0AF010E943B1E0895FF920F93F4
:103EC0001F93DF93CF93CDB7DEB72B970FB6F89440
:103ED000DEBF0FBECDBFF42E8E010F5F1F4FA801B6
:103EE0002BE030E00E943B1E009769F08F2D8A3056
:103EF00021F4C8010E94D11703C0C8010E946B17AA
:103F00009B01AC0103C020E030E0A901B901CA0166
:103F10002B960FB6F894DEBF0FBECDBFCF91DF91C9
:103F20001F910F91FF900895AF92BF92CF92DF92B1
:103F3000EF92FF920F931F93DF93CF930F92CDB722
:103F4000DEB78C017B015A0169010E94161E88238D
:103F5000B9F1C80163EA75E00E94B318C801B7015E
:103F60000E94A818C8016FED72E00E94A818C8014D
:103F7000B70148E853E10E94E21A8823C9F0C8015A
:103F8000BE016F5F7F4F44EF51E00E94B618C80139
:103F9000B501A60124EF31E00E947D1CC80164EF49
:103FA00071E00E94741DC8010E942C1E81E009C0AE
:103FB000C80164EF71E00E94741DC8010E942C1EAC
:103FC00080E00F90CF91DF911F910F91FF90EF90C4
:103FD000DF90CF90BF90AF9008950F931F93DF9322
:103FE000CF93CDB7DEB760970FB6F894DEBF0FBEA4
:103FF000CDBF6CE070E08E010F5F1F4FA80120E184
:1040000030E00E943B1E0097B9F1C8016FE975E0EE
:1040100043E050E00E94EE23009731F1C8016CE9C3
:1040200075E042E050E00E94EE230097F9F0C801ED
:1040300065E975E046E050E00E94EE230097C1F08C
:10404000C8016FE875E045E050E00E94EE2300975C
:1040500089F0C80168E875E046E050E00E94EE2370
:10406000009751F484E009C080E007C081E005C0FA
:1040700082E003C083E001C08FEF60960FB6F89432
:10408000DEBF0FBECDBFCF91DF911F910F9108957D
:104090006EE070E04AE00E945E1FCB010895CF926F
:1040A000DF92EF92FF920F931F93DF93CF9300D095
:1040B00000D0CDB7DEB78C016B017A0181E595E0C8
:1040C0009A8389838BE495E09C838B83C801BE012E
:1040D0006F5F7F4F42E024EF31E00E94991B8130F7
:1040E000E9F0882399F4C801B601A70124EF31E073
:1040F0000E947D1C0F5B1F4FC80165E475E00E94A4
:104100002911C801B6010E947F1106C0C6016BE3E8
:1041100075E0A7010E94FC2380E001C081E00F90C0
:104120000F900F900F90CF91DF911F910F91FF9003
:10413000EF90DF90CF9008958F929F92AF92BF92B1
:10414000CF92DF92EF92FF920F931F93DF93CF9363
:10415000CDB7DEB760970FB6F894DEBF0FBECDBF08
:104160007C014B015A0169010E94161E882309F443
:104170006EC0C701B4010E94B318C114D10441F14B
:10418000C70160E20E94AB180023E9F086017FE4DA
:10419000C72ED12CCE0CDF1C0FC0F701A081B1813E
:1041A000603231F4ED91FC91C701D6016C9103C0EE
:1041B000ED91FC91C7010995F8010F5F1F4F6491C4
:1041C000662359F72EC0C701B6010E94B31829C053
:1041D000A114B10431F1C70160E20E94AB180023C1
:1041E000E1F085016FE4C62ED12CCE0CDF1C0FC090
:1041F000F701A081B181603231F4ED91FC91C701EA
:10420000D6016C9103C0ED91FC91C7010995F801AD
:1042100061918F01662361F704C0C701B5010E9457
:10422000A818C7016DE00E94AB18C701BE016F5FFF
:104230007F4F40E150E00E944F20082FC70164EFFC
:1042400071E00E94741DC7010E942C1E01C000E095
:10425000802F60960FB6F894DEBF0FBECDBFCF9112
:10426000DF911F910F91FF90EF90DF90CF90BF9063
:10427000AF909F908F900895AF92BF92CF92DF92B0
:10428000EF92FF920F931F93DF93CF93CDB7DEB7DB
:104290002B970FB6F894DEBF0FBECDBF6C015B014C
:1042A000CA01B901402F7E010894E11CF11C97015D
:1042B0000BE010E00E94BC16C601B501A70120E08A
:1042C00030E000E00E949C202B960FB6F894DEBFF1
:1042D0000FBECDBFCF91DF911F910F91FF90EF9057
:1042E000DF90CF90BF90AF9008951F93CF93DF934F
:1042F000EC010E94161E8823D9F0CE0165E375E01B
:104300000E94B318CE016DE275E044EF51E00E94C7
:10431000331B882339F0CE0164EF71E00E94741DD5
:1043200011E001C010E0CE010E942C1E812F01C0BF
:1043300080E0DF91CF911F9108950F93AB0169E960
:1043400074E020E030E000E00E949C200F9108958E
:104350000F939B0140E050E06BE874E00AE00E949C
:104360003C210F910895EF92FF920F931F93CF93EB
:10437000DF93EC018B017A010E94161E882349F419
:10438000CE018F5B9F4F6AE674E00E946C1180E063
:1043900013C0CE01B8010E949D21882341F0CE01B7
:1043A000B7010E94A821882311F001E001C000E0BC
:1043B000CE010E942C1E802FDF91CF911F910F9173
:1043C000FF90EF9008950F93262F30E040E050E0EB
:1043D00061E174E000E10E943C210F9108950E9488
:1043E000E32108950F939B0140E050E069E873E0FA
:1043F0000AE00E943C210F9108956BE170E040E1DA
:104400000E945E1F862F08950F93CF93DF93EC01D8
:104410001CAA1BAA1B8A65E877E040E050E020E078
:1044200030E000E00E949C20882339F4CE018F5BAD
:104430009F4F6DE677E00E946C11CE016AE577E050
:1044400040E050E020E030E000E00E949C20882323
:1044500039F4CE018F5B9F4F6DE377E00E946C11C2
:10446000CE016BE277E040E050E020E030E000E099
:104470000E949C20882339F4CE018F5B9F4F61E11D
:1044800077E00E946C11CE010E94821ECE010E9434
:10449000ED1F882319F091E0843009F490E0988BA7
:1044A000CE010E94FD21C15BDF4F8883DF91CF9158
:1044B0000F910895CF93DF93EC010E94161E88237D
:1044C00001F1CE0165E275E00E94B318CE016CE106
:1044D00075E044EF51E00E94331B882321F4CE01A4
:1044E0000E942C1E0EC068E873E180E090E00E94FC
:1044F000D30F1D861F861E86CE010E94042281E0F6
:1045000001C080E0DF91CF910895CF93DF93EC015C
:10451000FC01E35BFF4F51834083FC01FF967183F5
:1045200060830E94961D882331F4CE018F5B9F4FDC
:1045300064EF76E00DC0CE010E940422CE010E94FD
:104540005A1C882349F4CE018F5B9F4F68ED76E0BB
:104550000E946C1180E001C081E0DF91CF9108954D
:1045600021E0FC0182AD813009F020E0822F089526
:10457000FF920F931F93F62E072F10E08F2D902F91
:104580000E94D1176F3F71058105910509F070F404
:10459000EF2DF02FFE2E0F2F8191982F90539A30F0
:1045A000C8F38E3219F41F5F133041F780E01F917A
:1045B0000F91FF900895DF92EF92FF920F931F9358
:1045C000DF93CF93CDB7DEB760970FB6F894DEBF19
:1045D0000FBECDBF7C01162F072F0E94B822882363
:1045E00081F4C701612F702F8E010F5F1F4FA8014B
:1045F00020E130E00E94941F882309F44FC0D02EA0
:1046000002C0D12E102FC7010E94161EC70169E5F6
:1046100072E00E94B318C7016D2D712F0E94A81877
:10462000C7016DE00E94AB18C70160E572E044EF7E
:1046300051E00E94331BC70160E070E040E050E0B1
:1046400024EF31E00E947D1CC70164EF71E00E94FD
:10465000741D882301F1C70167E472E048E853E163
:104660000E94331B8823B9F0C70160E070E040E08E
:1046700050E024EF31E00E947D1CC70160E070E053
:1046800040E050E028E833E10E947D1CC7010E9411
:104690002C1E81E004C0C7010E942C1E80E06096A1
:1046A0000FB6F894DEBF0FBECDBFCF91DF911F9143
:1046B0000F91FF90EF90DF9008950F938FE596E0B4
:1046C00060E040E020E000E00E946D160F91089548
:1046D000629FD001739FF001829FE00DF11D649FE6
:1046E000E00DF11D929FF00D839FF00D749FF00D72
:1046F000659FF00D9927729FB00DE11DF91F639F13
:10470000B00DE11DF91FBD01CF0111240895A1E2F3
:104710001A2EAA1BBB1BFD010DC0AA1FBB1FEE1F3B
:10472000FF1FA217B307E407F50720F0A21BB30B86
:10473000E40BF50B661F771F881F991F1A9469F702
:1047400060957095809590959B01AC01BD01CF015E
:1047500008952F923F924F925F926F927F928F9225
:104760009F92AF92BF92CF92DF92EF92FF920F9300
:104770001F93CF93DF93CDB7DEB7CA1BDB0B0FB60A
:10478000F894DEBF0FBECDBF09942A8839884888C7
:104790005F846E847D848C849B84AA84B984C8845D
:1047A000DF80EE80FD800C811B81AA81B981CE0F54
:1047B000D11D0FB6F894DEBF0FBECDBFED01089539
:1047C000EE0FFF1F0590F491E02D0994803209F05F
:1047D00091113BC080528F55E0F70895FB01DC0139
:1047E0004150504030F08D910590801919F400200F
:1047F000B9F7881B990B0895FB01DC01415050402B
:1048000048F005900D920020C9F701C01D9241505B
:104810005040E0F70895FB0151915523A9F0BF01E5
:10482000DC014D9145174111E1F759F4CD0101909B
:10483000002049F04D9140154111C9F3FB01411190
:10484000EFCF81E090E00197089599278827089598
:04485000F894FFCF0A
:104854005465726D696E616C2072656164790042A1
:104864006567696E205769466920436F6E6669679C
:10487400200057616974696E6720666F7220636FE8
:104884006E74726F6C6C657220746F2073657474CF
:104894006C652E2E2E004661696C656420746F2051
:1048A4007374617274207769666C7920636F6E74B7
:1048B400726F6C6C65720A0D506C65617365206370
:1048C4006865636B20636F6E66696775726174698E
:1048D4006F6E20616E642074727920616761696E05
:1048E4002E2E2E005265736574696E6720576946D3
:1048F4006C7920636F6E74726F6C6C657220666C79
:104904007573682074696D656F757420746F2031D8
:10491400306D73004A6F696E696E67204E657477F7
:104924006F726B2E2E2E20506C656173652077613B
:10493400697400416C65616479204A6F696E6564CD
:10494400204E6574776F726B2E2E2E0070696E6721
:104954002000202E2E2E2000204F6B2120002046E8
:1049640061696C656420746F2070696E67204761AB
:1049740074657761790070696E6720676F6F676C23
:10498400652E636F6D2E2E2E2000676F6F676C652A
:104994002E636F6D00204F6B2000204661696C65AB
:1049A4006420746F2070696E6720476F6F676C6551
:1049B4000070696E67206E6574776F726B20686F24
:1049C40073742E2E2E200031302E34322E382E3396
:1049D4003500204661696C656420746F2070696ECF
:1049E40067206E6574776F726B20686F7374003123
:1049F40039322E3136382E312E3630004D41433A7D
:104A0400200049503A20004E65746D61736B3A2062
:104A140000476174657761793A20005769466C797B
:104A2400207265616479003C6572726F723E000D9C
:104A340000726174653A2000200000010202030341
:104A4400030304040404040404040505050505051E
:104A540005050505050505050505060606060606FC
:104A640006060606060606060606060606060606E2
:104A740006060606060606060606070707070707CC
:104A840007070707070707070707070707070707B2
:104A940007070707070707070707070707070707A2
:104AA4000707070707070707070707070707070792
:104AB400070707070707070707070808080808087C
:104AC4000808080808080808080808080808080862
:104AD4000808080808080808080808080808080852
:104AE4000808080808080808080808080808080842
:104AF4000808080808080808080808080808080832
:104B04000808080808080808080808080808080821
:104B14000808080808080808080808080808080811
:104B24000808080808080808080808080808080801
:104B34000808080808080808080805000100020019
:104B44000300040014001300120011001000F4010B
:104B540000000000C012EE105B128A126E12AC123A
:104B6400000000002A16000000005418EE109516EC
:104B74008816AF16A216000000000418EE10171ACB
:104B84008D1A2C1848188F0797078F079B078F07D4
:104B94009F07A307AC07B607C007C607CF07D90707
:104BA400E007EA07F507EA07FB0703080D081308FF
:104BB4001C0825082F088F073408D9073A0840082D
:104BC4004A0840085608400861086C0877088F07AF
:104BD4007F088F0788088F078E089508A008950816
:104BE400A8089508AF08B607B708B607BD08B60702
:064BF400C308C607CC084F
:00000001FF
