:100000000C9484040C94AC040C94AC040C94AC04D8
:100010000C94AC040C94AC040C94AC040C94AC04A0
:100020000C94AC040C94AC040C94AC040C94AC0490
:100030000C94AC040C94AC040C94AC040C94AC0480
:100040000C94AC040C94AC040C94C90F0C94AC0448
:100050000C949E130C9400140C94AC040C94AC04FB
:100060000C94AC040C94AC040C94AC040C94AC0450
:100070000C94C7130C943B140C94AC04533A2B000F
:10008000463A724379636C6500463A704379636C13
:100090006500463A644379636C6500463A65437986
:1000A000636C6500463A0000002100240027002A06
:1000B0000000002200250028002B00000020002363
:1000C00000260029000202020202020202040404C5
:1000D00004040404040303030303030303010101F1
:1000E0000101010101010204081020408001020405
:1000F0000810204080010204081020408080402029
:1001000010080402010000000102000000000000CD
:1001100000040307060000000000000000000000CB
:100120000000000000636C6F73653A206661696CC3
:1001300065642C206E6F202A434C4F532A00636C59
:100140006F73653A20676F74202A434C4F532A001F
:100150002A434C4F532A00636C6F73650D0054653E
:10016000726D696E616C20726561647900556E65AF
:100170007870656374656420726573703A20004618
:1001800061696C656420746F20636F6E6E65637463
:100190003A20004F50454E2A00656E61626C6548FA
:1001A0006F7374526573746F72653A2073746F72F3
:1001B00065642000302E302E302E300073656E6462
:1001C000746F3A206661696C656420746F20737483
:1001D00061727420636F6D6D616E64003C74696D53
:1001E000656F75743E00556E6578706563746564FF
:1001F00020636861723A20004661696C656420740E
:100200006F20636F6E6E6563743A20004F50454EE9
:100210002A005769466C79206861732063726173A4
:1002200068656420616E642077696C6C2072656219
:100230006F6F742E2E2E004661696C656420746F9A
:10024000206765742070726F6D7074000D006F70A0
:10025000656E20006F70656E20003235352E3235A8
:10026000352E302E30003136392E3235342E312EA7
:10027000310036342062797465730050696E6720EE
:100280007472790070696E67200073657420752040
:1002900069006C656176650D0047573D000D006A89
:1002A0006F696E20004173736F63696174656421C7
:1002B000004641494C454400736574206164686F91
:1002C000632070726F626500736574206164686F8B
:1002D0006320626561636F6E0073657420776C6183
:1002E0006E2074780040420F000080841E00016080
:1002F000EC530002808D5B00084054890009C0D88F
:10030000A70003001BB7000A80A812010B00366E7D
:10031000010C005125020D006CDC020E80F9370340
:100320000F73657420776C616E2072617465007361
:100330006574206F7074207265706C616365007302
:10034000657420776C616E207068726173650073EC
:10035000657420776C616E206B657900736574201D
:10036000776C616E206368616E0073657420776CD2
:10037000616E20737369640073657420776C616EBD
:100380002068696465203100736574207379732077
:10039000696F66756E630073657420636F6D6D20A1
:1003A00073697A650073657420636F6D6D206D618C
:1003B0007463680073657420636F6D6D2074696D7C
:1003C0006500302E302E302E30007365742062723E
:1003D0006F61646361737420696E74657276616CB9
:1003E000007365742075617274206D6F64650073AD
:1003F00065742074696D6520656E61626C6500735B
:1004000065742074696D65207A6F6E65007365741C
:100410002074696D6520706F727400736574207448
:10042000696D65206164647265737300736574201F
:1004300069702070726F746F636F6C0073657420E5
:1004400069702070726F746F636F6C0073657420D5
:10045000697020646863700073657420646E732033
:1004600061646472657373007365742069702067DA
:1004700061746577617900736574206970206E65B9
:10048000746D61736B00736574206970206E6574A0
:100490006D61736B00536574486F73743A206661C5
:1004A000696C656420746F20737461727420636F6B
:1004B0006D6D616E64007365742069702072656D86
:1004C0006F74650073657420697020686F737400C1
:1004D00073657420697020686F737400736574208D
:1004E0006970206C6F63616C706F727400736574F7
:1004F0002069702061646472657373007365742091
:100500006970206164647265737300736574207729
:100510006C616E206A6F696E00736574206F206471
:100520000053657420466163746F72792044656678
:1005300061756C747300666163746F7279205245E3
:1005400053544F52450D002A5265626F6F742A0052
:100550007265626F6F740D0053746F72696E67001D
:10056000736176650D003C74696D656F75743E004E
:100570004552523A2000414F4B0D0A004552523A23
:100580002000015544502C0000025443502C000020
:1005900004534543555200085443505F43001048EC
:1005A0005454502C00205241572C000040534D54BD
:1005B000502C005345525645520043414348450094
:1005C0004155544F4950004F4E004F4646006C6F06
:1005D0006F6B75702000676574436F6E3A205443EB
:1005E0005020646973636F6E6E6563746564006741
:1005F0006574436F6E3A2054435020636F6E6E658E
:10060000637465640073686F7720630D00676574B9
:10061000436F6E3A206661696C656420746F207365
:1006200074617274004661696C656420746F206542
:100630007869740A0D00455849540D0A00657869B7
:10064000740D00434D440D0A0024242400434D44FE
:100650000D0A002424240073657450726F6D707449
:10066000206661696C6564006D756C74694D6174B8
:1006700063685F503A20006D617463685F503A2090
:10068000007265616454696D656F7574202D207406
:10069000696D6564206F7574003A20003A2000642B
:1006A000656275672064756D7000617661696C6163
:1006B000626C653A207065656B203D20002A4F50C2
:1006C000454E2A002A434C4F532A004552524F525E
:1006D000207065656B2E3220627566666572206FCC
:1006E0007665726C6F77004552524F522070656587
:1006F0006B2E3120627566666572206F7665726C4E
:100700006F77004661696C656420746F2065786955
:100710007420636F6D6D616E64206D6F646500465B
:1007200061696C656420746F20656E746572206306
:100730006F6D6D616E64206D6F6465004661696CFC
:10074000656420746F2073657420636F6D6D207213
:10075000656D6F74650073657420636F6D6D2072D5
:10076000656D6F74652030004661696C6564207446
:100770006F207475726E206F6666207379732070B7
:1007800072696E7400736574207379732070726976
:100790006E746C766C2030004661696C6564207400
:1007A0006F207475726E206F6666206563686F00D7
:1007B0007365742075206D20310067657420697041
:1007C0000D0049503D004E4D3D0047573D006765C7
:1007D00074206D61630D004D616320416464723D5E
:1007E0000067657420776C616E0D00535349443D7A
:1007F00000676574206F70740D00446576696365E9
:1008000049643D0067657420750D0042617564722E
:100810006174653D0073686F772074696D650D00C4
:1008200054696D653D00557054696D653D0067659F
:10083000742074696D650D005A6F6E653D006765C3
:100840007420646E730D00416464726573733D00BF
:1008500073686F77207420740D005254433D004438
:100860004843503D004D6F64653D006765742063EB
:100870006F6D6D0D00466C75736854696D65723DE2
:10088000004D61746368436861723D00466C757326
:100890006853697A653D0073686F77207273736976
:1008A0000D00525353493D282D00464C4147533DBE
:1008B000307800484F53543D0050524F544F3D0044
:1008C000676574206164686F630D00426561636FE2
:1008D0006E3D0050726F62653D005265626F6F74CD
:1008E0003D004A6F696E3D00526174653D00547869
:1008F000506F7765723D005265706C6163653D00B5
:10090000BA0F49160817F52311241FBECFEFD0E107
:10091000DEBFCDBF15E0A0E0B1E0E2EDF9E402C03A
:1009200005900D92A23EB107D9F718E0A2EEB5E00E
:1009300001C01D92AE31B107E1F719E0C8E0D9E07E
:1009400004C02297FE010E94A124C030D107C9F73C
:100950000E9451110C94E7240C9400000F93DF9334
:10096000CF93CDB7DEB760970FB6F894DEBF0FBE5A
:10097000CDBF002309F459C029833A834B835C839C
:100980006D837E838F83988760E2601B8D819E815B
:10099000AF81B8851616CCF09C01AD01550F220B26
:1009A000322FA9012D873E874F87588B262F33275B
:1009B00027FD3095309521953F4F04C0B595A795FB
:1009C000979587952A95D2F724C09C01AD01002EFA
:1009D00004C055954795379527950A94D2F72D87EA
:1009E0003E874F87588B04C0880F991FAA1FBB1FD3
:1009F0006A95D2F729813A814B815C8104C0569572
:100A00004795379527950A95D2F7822B932BA42BE0
:100A1000B52B89879A87AB87BC8729853A854B8513
:100A20005C856D857E858F85988960960FB6F89474
:100A3000DEBF0FBECDBFCF91DF910F910895ACE423
:100A4000B0E0E5E2F5E00C946824F50129833A83EF
:100A50004B835C836D837E838F839887A986FA8717
:100A6000CB86DC86ED86FE860F87188B8D809E8078
:100A7000AF80B884B7FE67C02195B1E0121608F0C8
:100A8000B0E03195A1E0131608F0A0E0232E2B1A58
:100A9000B22DBB24B394321508F0BB24AB29419589
:100AA00031E0141608F030E0342E3A1AA32DBB249E
:100AB000B394431508F0BB243B29519541E015162A
:100AC00008F040E0A52EA31A31E05A1508F030E0F6
:100AD000432B619531E0161608F030E0B62EB41ABB
:100AE00041E06B1508F040E0342B719541E017169A
:100AF00008F040E0572F531B31E0751708F030E045
:100B0000432B819531E0181608F030E0482E441A46
:100B1000442D61E0841508F060E0362B9195931B1D
:100B20002983BA83AB83AC82BD825E834F8398876F
:100B30002FEF3FEF4FEF5FEF21962CAF3DAF4EAF62
:100B40005FAF219706C021961CAE1DAE1EAE1FAE34
:100B500021978D859E85AF85B889B7FF68C021969E
:100B60004CAD5DAD6EAD7FAD2197409550956095D4
:100B7000709521964CAF5DAF6EAF7FAF2197E19539
:100B800081E01E1608F080E0F19591E01F1608F054
:100B900090E04F2F481B81E0F41708F080E0982B7D
:100BA000C19481E01C1408F080E06C2D691B91E079
:100BB000C61608F090E0892BD19491E01D1408F03E
:100BC00090E05D2D581B81E0D51608F080E0982B51
:100BD000E19481E01E1408F080E03E2D391B91E085
:100BE000E31608F090E0892BF19491E01F1408F0CF
:100BF00090E02F2D281B81E0F21608F080E0982B62
:100C0000019581E0101608F080E0702F791B972F76
:100C100071E0091708F070E0872B1195181BE98720
:100C20004A876B875C873D872E879F87188B7985DE
:100C30006A855B854C853D852E859F858889E98100
:100C4000E98BEA81EA8BEB81EB8BEC81EC8BED811C
:100C5000ED8BEE81EE8BEF81EF8BE885E88F798F5E
:100C60006A8F5B8F4C8F3D8F2E8F9F8F88A3E98C6F
:100C7000FA8C0B8D1C8D2D8D3E8D4F8D58A1898941
:100C80009A89AB89BC898DAB9EABAFABB8AFAD8851
:100C9000BE88CF88D88C211531054105510509F052
:100CA000BEC3AE14BF04C006D10608F04FC190E029
:100CB000E91690E0F90691E0090790E0190758F469
:100CC000AFEFEA16F1040105110509F090F420E0F8
:100CD00030E0A90117C0B0E0EB16B0E0FB06B0E0D1
:100CE0000B07B1E01B0750F420E130E040E050E09A
:100CF00009C028E030E040E050E004C028E130E0E6
:100D000040E050E0D801C701022E04C0B695A79577
:100D1000979587950A94D2F78F5D9B4FFC01608170
:100D200080E290E0A0E0B0E0821B930BA40BB50B37
:100D3000861B9109A109B1090097A105B105A1F18F
:100D4000082E04C0EE0CFF1C001F111F0A94D2F7DE
:100D5000A6019501082E04C0220F331F441F551F02
:100D60000A94D2F760E270E0681B790BADA8BEA8C8
:100D7000CFA8D8AC04C0D694C794B794A7946A956A
:100D8000D2F7A22AB32AC42AD52A2DA83EA84FA852
:100D900058AC04C0220C331C441C551C8A95D2F755
:100DA0002DAA3EAA4FAA58AE380188249924A8013A
:100DB0009701407050702DA73EA74FA758ABC601B2
:100DC000B501A40193010E943224222E532E442EF9
:100DD000352E69AB7AAB8BAB9CABC601B501A401D8
:100DE00093010E943224822D952DA42DB32D89A725
:100DF0009AA7ABA7BCA7BC01CD012DA53EA54FA5C9
:100E000058A90E9400245B016C0149A95AA96BA949
:100E10007CA9DA01992788272DA83EA84FA858ACAD
:100E2000920144275527822B932BA42BB52B8A158F
:100E30009B05AC05BD0530F529A53AA54BA55CA5DC
:100E4000215030404040504029A73AA74BA75CA70B
:100E50008E0D9F1DA01FB11F8E159F05A007B10706
:100E600088F08A159B05AC05BD0560F42150304023
:100E70004040504029A73AA74BA75CA78E0D9F1D65
:100E8000A01FB11FAC01BD014A195B096C097D09A6
:100E90005A016B01CB01BA01A40193010E943224D3
:100EA000222E532E442E352E69AB7AAB8BAB9CABE6
:100EB000C601B501A40193010E943224A22CB52CD5
:100EC000C42CD32CC601B5012DA53EA54FA558A90C
:100ED0000E9400243B014C0169A97AA98BA99CA915
:100EE000AB01332722278DA99EA9AFA9B8ADA07069
:100EF000B070282B392B4A2B5B2B2615370548055C
:100F00005905C0F40894A108B108C108D1082E0DF4
:100F10003F1D401F511F2E153F054007510750F040
:100F2000261537054805590528F40894A108B10885
:100F3000C108D10889A59AA5ABA5BCA58C01FF2441
:100F4000EE24EA28FB280C291D29C7C4E114F1046A
:100F50000105110559F461E070E080E090E0A8011E
:100F600097010E94322479018A0110C090E0E916AD
:100F700090E0F90691E0090790E0190758F4AFEF07
:100F8000EA16F1040105110509F090F420E030E0C3
:100F9000A90117C0B0E0EB16B0E0FB06B0E00B070C
:100FA000B1E01B0750F420E130E040E050E009C020
:100FB00028E030E040E050E004C028E130E040E0CC
:100FC00050E0D801C701022E04C0B695A7959795A9
:100FD00087950A94D2F78F5D9B4FFC018081280F83
:100FE000311D411D511D80E290E0A0E0B0E0821B68
:100FF000930BA40BB50B61F4150126012E183F08C5
:10100000400A510A81E0A82EB12CC12CD12C29C153
:10101000082E04C0EE0CFF1C001F111F0A94D2F70B
:1010200015012601022E04C0569447943794279444
:101030000A94D2F729A63AA64BA65CA6B601A5014A
:10104000082E04C0440F551F661F771F0A94D2F75D
:101050004DA75EA76FA778AB2DA83EA84FA858ACA8
:1010600004C056944794379427942A95D2F7ADA498
:10107000BEA4CFA4D8A8A228B328C428D528ADA63A
:10108000BEA6CFA6D8AA2DA93EA94FA958AD04C087
:10109000220F331F441F551F8A95D2F72DAB3EAB4D
:1010A0004FAB58AF380188249924B801A70160706C
:1010B000707049AB5AAB6BAB7CAB69A57AA58BA5BD
:1010C0009CA5A40193010E943224222E532E442E6B
:1010D000352E69AF7AAF8BAF9CAF69A57AA58BA58A
:1010E0009CA5A40193010E943224A22CB52CC42CEF
:1010F000D32CA9A6BAA6CBA6DCA6C601B50129A900
:101100003AA94BA95CA90E9400245B016C0129AC9F
:101110003AAC4BAC5CACD101992788272DA43EA4F6
:101120004FA458A8920144275527822B932BA42B18
:10113000B52B8A159B05AC05BD0530F529A53AA54B
:101140004BA55CA5215030404040504029A73AA70C
:101150004BA75CA78E0D9F1DA01FB11F8E159F056D
:10116000A007B10788F08A159B05AC05BD0560F4A2
:10117000215030404040504029A73AA74BA75CA7D8
:101180008E0D9F1DA01FB11FAC01BD014A195B0947
:101190006C097D095A016B01CB01BA01A4019301CD
:1011A0000E943224222E532E442E352E69AF7AAF60
:1011B0008BAF9CAFC601B501A40193010E943224FC
:1011C000622C752C842C932CC401B30129A93AA953
:1011D0004BA95CA90E9400249B01AC0169AD7AADCA
:1011E0008BAD9CAD6B01BB24AA248DA59EA5AFA59C
:1011F000B8A9A070B070A82AB92ACA2ADB2AA216F8
:10120000B306C406D506E0F40894610871088108A5
:101210009108AE0CBF1CC01ED11EAE14BF04C00688
:10122000D10670F0A216B306C406D50648F4089499
:101230006108710881089108AE0CBF1CC01ED11E48
:1012400015012601221A330A440A550A89A59AA5CE
:10125000ABA5BCA56C01BB24AA24A628B728C82826
:10126000D9289801442755272DA73EA74FA758AB4B
:10127000B801A7016070707049AB5AAB6BAB7CAB27
:10128000C201B1012DA53EA54FA558A90E94322447
:10129000622E932E842E752E69AF7AAF8BAF9CAFE2
:1012A000C201B1012DA53EA54FA558A90E94322427
:1012B000862D992DA82DB72D89A79AA7ABA7BCA7D6
:1012C000BC01CD0129A93AA94BA95CA90E9400241F
:1012D0003B014C0129AC3AAC4BAC5CACD101992739
:1012E00088272DA83EA84FA858AC9201442755271F
:1012F000822B932BA42BB52B86159705A805B90532
:1013000030F529A53AA54BA55CA5215030404040B9
:10131000504029A73AA74BA75CA78E0D9F1DA01F81
:10132000B11F8E159F05A007B10788F08615970598
:10133000A805B90560F4215030404040504029A72D
:101340003AA74BA75CA78E0D9F1DA01FB11FAC0134
:10135000BD0146195709680979093A014B01CB01CA
:10136000BA012DA53EA54FA558A90E943224522EA0
:10137000432E342E252E69AF7AAF8BAF9CAFC401BC
:10138000B3012DA53EA54FA558A90E943224652C76
:10139000742C832C922CC401B30129A93AA94BA91E
:1013A0005CA90E9400241B012C0169AD7AAD8BADB4
:1013B0009CADAB01332722278DA99EA9AFA9B8AD5B
:1013C000A070B070282B392B4A2B5B2B22153305CC
:1013D00044055505C0F40894610871088108910816
:1013E0002E0D3F1D401F511F2E153F054007510771
:1013F00050F0221533054405550528F4089461087A
:1014000071088108910889A59AA5ABA5BCA58C0196
:10141000FF24EE24E628F7280829192961C2A2161C
:10142000B306C406D50608F448C2203090E0390758
:1014300091E0490790E0590750F42F3F31054105ED
:10144000510509F090F466247724430119C0203037
:10145000A0E03A07A0E04A07A1E05A0760F490E153
:10146000692E712C812C912C0BC088E0682E712C78
:10147000812C912C05C0B8E16B2E712C812C912C04
:10148000DA01C901062C04C0B695A79597958795F2
:101490000A94D2F78F5D9B4FFC018081680E711C0E
:1014A000811C911C80E290E0A0E0B0E086199709D1
:1014B000A809B90989F42A153B054C055D0508F40E
:1014C00003C22DA83EA84FA858AC2E143F044006D6
:1014D000510608F0F9C1F1C189AF19012A0104C010
:1014E000220C331C441C551C8A95D2F7D801C70125
:1014F000062C04C0B695A795979587950A94D2F7C0
:10150000282A392A4A2A5B2AA801970109AC04C073
:10151000220F331F441F551F0A94D2F729962CAF70
:101520003DAF4EAF5FAF299786017501062C04C011
:1015300016950795F794E7940A94D2F7B601A5019A
:1015400009AC04C0440F551F661F771F0A94D2F7D9
:101550004DA75EA76FA778AB6DA97EA98FA998AD9F
:1015600004C096958795779567956A94D2F73B0165
:101570004C018DA59EA5AFA5B8A986299729A829B4
:10158000B9298DA79EA7AFA7B8AB5201CC24DD2403
:10159000A9AABAAACBAADCAAA201910140705070F4
:1015A0002D962CAF3DAF4EAF5FAF2D97C801B70161
:1015B000A60195010E943224622EA32ED42EC52EA0
:1015C00025966CAF7DAF8EAF9FAF2597C801B70151
:1015D00029A93AA94BA95CA90E943224E62CFA2C2D
:1015E0000D2D1C2DE9A6FAA60BA71CA7C801B70153
:1015F0002D962CAD3DAD4EAD5FAD2D970E940024D4
:101600002596ACACBDACCEACDFAC25978501FF24F4
:10161000EE24ADA4BEA4CFA4D8A896014427552794
:10162000E22AF32A042B152BE616F70608071907FA
:1016300030F529A53AA54BA55CA521503040404086
:10164000504029A73AA74BA75CA7E20CF31C041D46
:10165000151DE214F3040405150588F0E616F706D7
:101660000807190760F4215030404040504029A736
:101670003AA74BA75CA7E20CF31C041D151DE61A44
:10168000F70A080B190BC801B70129A93AA94BA9F8
:101690005CA90E943224A22ED32EC42EB52E2596EC
:1016A0006CAF7DAF8EAF9FAF2597C801B70129A959
:1016B0003AA94BA95CA90E9432246A2C7D2C8C2C5F
:1016C0009B2CC401B3012D962CAD3DAD4EAD5FAD4D
:1016D0002D970E9400249B01AC012596ACACBDACBB
:1016E000CEACDFAC2597D50199278827ADA4BEA441
:1016F000CFA4D8A86FEFE62E6FEFF62E012D112D97
:10170000AE20BF20C022D1228A299B29AC29BD2925
:1017100082179307A407B507E0F4089461087108DD
:1017200081089108820D931DA41DB51D8215930596
:10173000A405B50570F082179307A407B50748F410
:1017400008946108710881089108820D931DA41DF9
:10175000B51D1C012D01221A330A440A550A2DA673
:101760003EA64FA658AAA9A4BAA4CBA4DCA485017E
:10177000FF24EE24E628F72808291929AFEFAA2E1E
:10178000AFEFBA2EC12CD12CAE20BF20C022D12267
:1017900018014424552429966CAC7DAC8EAC9FACCA
:1017A00029972FEF3FEF40E050E06222732284221E
:1017B000952229966CAD7DAD8EAD9FAD2997AC017C
:1017C0006627772749A75AA76BA77CA7C601B5014B
:1017D000A40193010E94002469AB7AAB8BAB9CAB54
:1017E000C601B50129A53AA54BA55CA50E94002418
:1017F0005B016C01C201B101A40193010E940024AC
:101800003B014C01C201B10129A53AA54BA55CA53C
:101810000E9400249B01AC01A60CB71CC81CD91C5B
:1018200029A83AA84BA85CA8C201AA27BB27A80EE2
:10183000B91ECA1EDB1EA614B704C804D90420F4BE
:10184000205030404F4F5F4FC601AA27BB27820F61
:10185000931FA41FB51F2DA53EA54FA558A9281756
:1018600039074A075B0718F182179307A407B507E2
:10187000A1F56501BB24AA2489A99AA9ABA9BCA991
:10188000A070B070A80EB91ECA1EDB1E8DA99EA93D
:10189000AFA9B8AD09AC04C0880F991FAA1FBB1F20
:1018A0000A94D2F78A159B05AC05BD05B0F40894DF
:1018B000E108F1080109110910C0AA24BB2465013F
:1018C000EE24FF2487010CC0AA24BB24650181E01B
:1018D000E82EF12C012D112D03C0AA24BB24650193
:1018E000FE01B19688E0DF011D928A95E9F7E9A231
:1018F000FAA20BA31CA3ADA2BEA2CFA2D8A62E2DE6
:101900003AA14BA15CA16A2D7EA18FA198A5219639
:101910002CAC3DAC4EAC5FAC21972114310441049A
:10192000510409F456C02195E1E0121608F0E0E0F8
:101930003195F1E0131608F0F0E0032F0E1BE1E003
:10194000301708F0E0E0FE2B4195E1E0141608F0B6
:10195000E0E0142F1F1B31E0411708F030E0E32BCB
:101960005195F1E0151608F0F0E0B52FBE1B31E0FF
:101970005B1708F030E0F32B6195E1E0161608F0F4
:10198000E0E0A62EAF1A31E06A1508F030E0E32B54
:101990007195F1E0171608F0F0E0A72FAE1B31E0CB
:1019A0007A1708F030E0F32B8195E1E0181608F083
:1019B000E0E0382E3F1AF32D31E0831508F030E0D7
:1019C000E32B9195302F412F5B2F6A2D7A2F8F2F8C
:1019D0009E1BC45BDF4FE2E10C948424DB010D907D
:1019E0000020E9F7AD0141505040461B570BDC0188
:1019F000ED91FC910280F381E02D0995089561E05D
:101A00000E941911089560E00E9419110895CF9362
:101A1000DF93C1E2D5E004C0899199910E94030D42
:101A200085E0C934D807C1F7DF91CF91089586EBDF
:101A300097E069E771E00E94E01182EE95E00E9474
:101A4000A61A181619064CF482EE95E00E941C1B8B
:101A5000682F86EB97E00E944F1386EB97E00E9479
:101A6000EA12009751F386EB97E00E941913682F52
:101A700082EE95E00E949318E0CF0F931F93DF93BF
:101A8000CF93CDB7DEB7A0970FB6F894DEBF0FBEE9
:101A9000CDBF01E215E007C0F80180810E5F1F4F46
:101AA00061E00E94D410F5E009341F07A9F786EB26
:101AB00097E040E051EE60E070E00E94761486EB23
:101AC00097E068E871E00E94E01186EB97E06BE92F
:101AD00071E00E94E01168EC70E080E090E00E940C
:101AE000451085ED97E040E05BE460E070E00E9427
:101AF000761482EE95E065ED77E040E050E00E94DC
:101B00001D23882341F486EB97E06FEB71E00E9480
:101B1000E0110E94170D82EE95E00E9404218A30A8
:101B20009105A1F086EB97E06DE072E00E94E01174
:101B300082EE95E06AE070E00E948A2282EE95E0F3
:101B40000E94312282EE95E00E94F22282EE95E020
:101B50000E944823882329F486EB97E06DE372E026
:101B600004C086EB97E06CE572E00E94E01182EE23
:101B700095E08E010F5F1F4FB80140E250E00E94D8
:101B8000122086EB97E065E772E00E94AD1186EBCC
:101B900097E0B8010E94AD1186EB97E06BE772E029
:101BA0000E94AD1182EE95E0B8010E947323882354
:101BB00029F086EB97E061E872E004C086EB97E0DD
:101BC00067E872E00E94E01182EE95E060E00E941A
:101BD0007E2282EE95E06FE972E00E94592282EE49
:101BE00095E062E00E947B2282EE95E00E94DA1F7F
:101BF0002DE08A399207D1F082EE95E06AE97DE026
:101C00000E94642282EE95E00E94312286EB97E0EA
:101C10006EEA72E00E94E01182EE95E00E94F222EC
:101C200068EB7BE080E090E00E94451086EB97E057
:101C300061E073E00E94E011A0960FB6F894DEBF59
:101C40000FBECDBFCF91DF911F910F91089582EE0E
:101C500095E06CE273E00E94EE0C809138068823D8
:101C600029F082EE95E06EE373E004C082EE95E029
:101C700068E473E00E94EE0C82EE95E060E573E0AC
:101C80000E94EE0C08956091350570913605882705
:101C900077FD8095982F0E94451080913806882303
:101CA00009F471C080913A068823C1F481E08093E1
:101CB0003A0686EB97E062E573E00E94AD11609111
:101CC0003D0670913E0686EB97E04AE050E00E94A8
:101CD000CF12E0913D06F0913E0631C080913B0667
:101CE00090913C0620913705309138058217930773
:101CF0007CF110923C0610923B06E0913D06F0917B
:101D00003E06EE0FFF1FEF5DFA4F808191810E942A
:101D1000030D80913D0690913E06019690933E06FC
:101D200080933D062091390530913A05821793073B
:101D300029F41092380610923A0625C0FC01EE0FE5
:101D4000FF1FEF5DFA4F808191810E94FF0C1BC045
:101D5000019690933C0680933B0664E670E00E94F7
:101D60001F24009781F486EB97E062E673E00E94FF
:101D7000AD1160913B0670913C0686EB97E04AE01E
:101D800050E00E94CF1282EE95E00E94A61A18162B
:101D900019060CF0EEC00E94111060938F0670932C
:101DA0009006809391069093920686EB97E067E702
:101DB00073E00E94E01182EE95E06FE376E040E58B
:101DC00050E024EF31E00E942D1D86EB97E06BE898
:101DD00073E00E94AD1186EB97E06FE376E00E941E
:101DE000E0118FE396E064EA70E042E050E00E9488
:101DF000AD24009709F068C086EB97E068E973E0CE
:101E00000E94E01182EE95E063EB73E00E94EE0C1D
:101E10008FE396E06BE970E048E050E00E94AD246B
:101E2000009769F480913906882321F481E080933A
:101E3000380675C082EE95E06AEB73E06EC08FE302
:101E400096E062E970E048E050E00E94AD2400971F
:101E500069F40E94070D1092380610923A0610920B
:101E60003C0610923B061092390659C08FE396E06B
:101E700069E870E048E050E00E94AD24009741F42A
:101E8000109238060E94070D81E08093390647C002
:101E90008FE396E060E870E048E050E00E94AD24F7
:101EA0000097E9F51092390681E080933806E091B9
:101EB0003D06F0913E06EE0FFF1FEF5DFA4F808169
:101EC00091810E94FF0C2BC08FE396E06CE770E0DD
:101ED00043E050E00E94AD24009719F40E94270EC1
:101EE0001EC086EB97E066EC73E00E94AD1186EBB6
:101EF00097E06FE376E00E94E01182EE95E064EFF8
:101F000071E00E94661B86EB97E069ED73E00E942A
:101F1000E01182EE95E061EF73E00E94EE0C0E940A
:101F20001110609393067093940680939506909396
:101F3000960686EB97E066EF73E00E94AD11409144
:101F40009306509194066091950670919606809143
:101F50008F0690919006A0919106B0919206481B31
:101F6000590B6A0B7B0B86EB97E02AE030E00E946E
:101F7000B21208950F9387E996E060E040E020E018
:101F800000E00E94FC1682EE95E00E94F6180F9188
:101F900008951F920F920FB60F9211242F933F9323
:101FA0008F939F93AF93BF938091A1069091A206C8
:101FB000A091A306B091A4063091A5060196A11D9B
:101FC000B11D232F2D5F2D3720F02D570196A11D18
:101FD000B11D2093A5068093A1069093A206A0931D
:101FE000A306B093A40680919D0690919E06A091B1
:101FF0009F06B091A0060196A11DB11D80939D067C
:1020000090939E06A0939F06B093A006BF91AF91B8
:102010009F918F913F912F910F900FBE0F901F9026
:1020200018958FB7F8942091A1063091A20640919F
:10203000A3065091A4068FBFB901CA0108959FB7A6
:10204000F89420919D0630919E0640919F065091F4
:10205000A00686B5A89B06C08F3F21F02F5F3F4F9B
:102060004F4F5F4F9FBF542F432F322F2227280FF0
:10207000311D411D511D82E0220F331F441F551F8A
:102080008A95D1F7B901CA010895EF92FF920F9393
:102090001F93CF93DF937B018C010E941F10EB01F4
:1020A0000FC00E941F106C1B7D0B83E0683E7807F9
:1020B00038F00894E108F10801091109C851DC4F12
:1020C000E114F1040105110561F7DF91CF911F9132
:1020D0000F91FF90EF900895789484B5826084BD4D
:1020E00084B5816084BD85B5826085BD85B581601C
:1020F00085BDEEE6F0E0808181608083E1E8F0E07C
:102100001082808182608083808181608083E0E8AA
:10211000F0E0808181608083E1EBF0E08081846089
:102120008083E0EBF0E0808181608083EAE7F0E08B
:1021300080818460808380818260808380818160EF
:1021400080838081806880831092C10008958330ED
:1021500071F0843028F48130A1F0823021F514C070
:102160008630B1F08730D1F08430E9F404C080913A
:1021700080008F7703C0809180008F7D80938000E6
:10218000089584B58F7702C084B58F7D84BD08958E
:102190008091B0008F778093B00008958091B00057
:1021A0008F7D8093B0000895EF92FF92CF93DF93DD
:1021B00090E0FC01EB51FF4F44918B539F4FFC018A
:1021C0008491882389F190E0880F991FFC01E955DB
:1021D000FF4F25913491D9018F549F4FFC012591D8
:1021E0003491E22EE7017E01F32EE701662349F4E4
:1021F0009FB7F8948C91409584238C938881842395
:102200000BC0623059F49FB7F8948C91242F20951D
:1022100082238C938881842B888305C09FB7F89490
:102220008C91842B8C939FBFDF91CF91FF90EF9087
:1022300008950F931F93DF93CF930F92CDB7DEB71F
:10224000282F30E0F901EB5FFE4F8491F901EB514B
:10225000FF4F14912B533F4FF90104910023D9F004
:10226000882321F069830E94A7106981E02FF0E0A4
:10227000EE0FFF1FEF54FF4F85919491DC019FB744
:10228000F894662321F48C911095812302C08C91DF
:10229000812B8C939FBF0F90CF91DF911F910F9156
:1022A0000895CF93DF930E946C100E943D0DCFEEF6
:1022B000D3E10E94430E2097E1F30E94EF13F9CF80
:1022C000CF92DF92EF92FF920F931F93CF93DF9302
:1022D0006C017B018A01C0E0D0E00FC0D7016D9195
:1022E0007D01D601ED91FC910190F081E02DC601B8
:1022F0000995C80FD91F015010400115110571F73C
:10230000CE01DF91CF911F910F91FF90EF90DF9061
:10231000CF900895EF92FF920F931F93CF93DF9387
:102320007C01062F172FC0E0D0E0F8010F5F1F4F90
:102330006491662351F0F701A081B181ED91FC9188
:10234000C7010995C80FD91FF0CFCE01DF91CF91FA
:102350001F910F91FF90EF9008950E94EE0C089549
:10236000DC01ED91FC910190F081E02D099508953B
:102370000F931F93CF93DF93EC016DE00E94B01198
:102380008C01CE016AE00E94B011080F191FC8012C
:10239000DF91CF911F910F9108950F931F93CF93CA
:1023A000DF93EC010E948A118C01CE010E94B811CA
:1023B000080F191FC801DF91CF911F910F91089548
:1023C0000F931F93CF93DF93EC010E94EE0C8C01CF
:1023D000CE010E94B811080F191FC801DF91CF91DB
:1023E0001F910F9108950F931F93CF93DF93EC01EB
:1023F0000E94B0118C01CE010E94B811080F191F64
:10240000C801DF91CF911F910F9108958F929F92F4
:10241000AF92BF92CF92DF92EF92FF920F931F93F2
:10242000DF93CF93CDB7DEB7A1970FB6F894DEBF99
:102430000FBECDBF6C01042FE52FCB01122F19A2C7
:10244000223008F41AE021E2E22EF12CEC0EFD1EFF
:10245000812E9924AA24BB2403C0022FE32FCA0192
:10246000602F7E2FA50194010E943224129F802D9F
:102470001124081B0894E108F1080A3014F4005DE7
:1024800001C0095CF70100832115310541055105A3
:1024900021F7C601B7010E94EE0CA1960FB6F89481
:1024A000DEBF0FBECDBFCF91DF911F910F91FF9087
:1024B000EF90DF90CF90BF90AF909F908F90089556
:1024C0002115310549F4DC01ED91FC910190F08179
:1024D000E02D642F099508950E94061208959A012F
:1024E000462F50E060E070E00E9460120895CF92A5
:1024F000DF92EF92FF920F931F93CF93DF93EC0144
:102500007A018B012115310541F4E881F9810190AF
:10251000F081E02D642F09951AC02A303105A9F405
:1025200077FF12C06DE20E94B0116C01442755275D
:10253000BA014E195F09600B710BCE012AE00E94AF
:102540000612C80ED91E04C02AE00E9406126C01B1
:10255000C601DF91CF911F910F91FF90EF90DF9017
:10256000CF9008950F931F93CF93DF93EC010E94B8
:1025700077128C01CE010E94B811080F191FC801F3
:10258000DF91CF911F910F9108959A01FB01AF0147
:10259000662757FD6095762F0E94771208950F9356
:1025A0001F93CF93DF93EC019A01CB01AC01662717
:1025B00057FD6095762FCE010E9477128C01CE01D7
:1025C0000E94B811080F191FC801DF91CF911F9108
:1025D0000F910895FC0184859585FC01E05CFF4F17
:1025E000208131818E5B9F4FFC0180819181281B6E
:1025F000390B2F733070C9010895FC0184859585CE
:10260000FC01E05CFF4F40815181FC01EE5BFF4F1C
:10261000208131814217530741F00190F081E02D74
:10262000E80FF91F208130E002C02FEF3FEFC90112
:102630000895FC0184859585FC01E05CFF4F408195
:102640005181FC01EE5BFF4F20813181421753071E
:1026500071F0A081B181A80FB91F2C918081918167
:1026600001968F7390709183808330E002C02FEFCA
:102670003FEFC9010895DC011E968D919C911F9733
:10268000FC01E05CFF4F8E5B9F4F40815181DC017C
:102690002D913C91119742175307B9F70895FC010A
:1026A00026853785D901A05CBF4F8D919C910196FD
:1026B0008F739070D901AE5BBF4F4D915C911197B4
:1026C00084179507D1F3D901A05CBF4F0D90BC9141
:1026D000A02DA20FB31F6C93A685B785A05CBF4F3A
:1026E00011969C938E93A689B7892C9181E090E0F6
:1026F000058C02C0880F991F0A94E2F7282B2C93AF
:1027000081E090E00895FB01E05CFF4F2081318182
:102710002F5F3F4F2F733070DB01AE5BBF4F4D918A
:102720005C9111972417350739F0A081B181A60F6C
:10273000B71F8C9331832083089508951F920F92C1
:102740000FB60F9211242F933F934F935F936F9384
:102750007F938F939F93AF93BF93EF93FF9380915A
:10276000C60066EA76E00E948313FF91EF91BF9165
:10277000AF919F918F917F916F915F914F913F9119
:102780002F910F900FBE0F901F90189508951F92D4
:102790000F920FB60F9211242F933F934F935F9395
:1027A0006F937F938F939F93AF93BF93EF93FF9319
:1027B0008091CE006EE277E00E948313FF91EF914B
:1027C000BF91AF919F918F917F916F915F914F9149
:1027D0003F912F910F900FBE0F901F90189586EB91
:1027E00097E00E94EA12009711F00E949D1385ED78
:1027F00097E00E94EA12009711F00E94C613089514
:102800001F920F920FB60F9211242F933F938F9325
:102810009F93EF93FF9320912A0730912B0780918C
:102820002C0790912D072817390731F48091C100AA
:102830008F7D8093C10014C0E0912C07F0912D078B
:10284000E651F94F208180912C0790912D07019638
:102850008F73907090932D0780932C072093C60060
:10286000FF91EF919F918F913F912F910F900FBE0C
:102870000F901F9018951F920F920FB60F92112470
:102880002F933F938F939F93EF93FF932091B207E2
:102890003091B3078091B4079091B5072817390795
:1028A00031F48091C9008F7D8093C90014C0E091FC
:1028B000B407F091B507EE58F84F20818091B40726
:1028C0009091B50701968F7390709093B5078093A0
:1028D000B4072093CE00FF91EF919F918F913F918C
:1028E0002F910F900FBE0F901F9018952F923F922F
:1028F0004F925F926F927F928F929F92AF92BF9210
:10290000CF92DF92EF92FF920F931F93DF93CF93BB
:10291000CDB7DEB727970FB6F894DEBF0FBECDBF99
:102920009F838E834A835B836C837D8321E029832D
:10293000403081EE580780E0680780E0780729F58D
:102940001982AE81BF815496ED91FC91559710820A
:102950008A819B81AC81BD811C012D0120E834E876
:102960004EE150E060E070E080E090E051016201F3
:10297000EE24FF2400E010E00E941F05022F01500A
:10298000E1E0021708F497C095C0AE81BF8154966C
:10299000ED91FC91559781E090E05E960C9002C01D
:1029A000880F991F0A94E2F780838A819B81AC810A
:1029B000BD811C012D0120E039E04DE350E060E0D5
:1029C00070E080E090E051016201EE24FF2400E01D
:1029D00010E00E941F05F22EFA94E1E0F21608F0D2
:1029E000E0E0232F215001E0231708F000E02E2E15
:1029F000220E31E0221608F030E0032B242F215064
:102A000011E0241708F010E0020F31E0021708F07F
:102A100030E0132B252F2150B1E0251708F0B0E04E
:102A2000120F31E0121708F030E0B32B262F21509F
:102A3000A1E0261708F0A0E0B20F31E0B21708F0CD
:102A400030E0A32B272F2150F1E0271708F0F0E00A
:102A5000A20F31E0A21708F030E0F32B282F21500D
:102A6000E1E0281708F0E0E0F20F81E0F21708F04B
:102A700080E0E82B9150E90F2F2D322DA8016B2F0C
:102A80007A2F8F2F9E2FE7FF90C02F5F31E02F15F9
:102A900008F030E0320D41E0321508F040E0400F20
:102AA00051E0401708F050E0510F61E0511708F471
:102AB0006CC06AC0E0E0232F215011E0231708F01A
:102AC00010E0FE2EF20E31E0F21608F030E0132B8B
:102AD000342F315021E0341708F020E0130F41E08B
:102AE000131708F040E0242B352F3150B1E0351793
:102AF00008F0B0E0222E230E21E0231608F020E09B
:102B0000B22B262F2150A1E0261708F0A0E0B20F2B
:102B100031E0B21708F030E0A32B272F2150F1E06D
:102B2000271708F0F0E0A20F31E0A21708F030E01C
:102B3000F32B282F2150E1E0281708F0E0E0F20FF6
:102B400081E0F21708F080E0E82B9150E90F202F88
:102B50003F2D412F522D6B2F7A2F8F2F9E2FE7FF66
:102B600024C02F5F31E0201708F030E03F0D41E036
:102B70003F1508F040E0410F51E0411708F050E0E8
:102B8000520D61E0521508F060E06B0F71E06B17B9
:102B900008F070E07A0F81E07A1708F080E08F0F7C
:102BA00091E08F1708F090E09E0F01E00E94AE04C4
:102BB000822F932FA0E180309A0720F0B981BB23A8
:102BC00009F0BECEAE81BF815096ED91FC91519738
:102BD00090835296ED91FC91539780835696ED9198
:102BE000FC915797408181E090E09C015A960C90AF
:102BF0005A9702C0220F331F0A94E2F7422B4083F8
:102C00005696ED91FC91579740819C015B960C90F4
:102C10005B9702C0220F331F0A94E2F7422B4083D6
:102C20005696ED91FC91579740819C015C960C90D3
:102C30005C9702C0220F331F0A94E2F7422B4083B5
:102C40005696ED91FC91579720815D960C905D977B
:102C500002C0880F991F0A94E2F78095822380832F
:102C600027960FB6F894DEBF0FBECDBFCF91DF9190
:102C70001F910F91FF90EF90DF90CF90BF90AF909A
:102C80009F908F907F906F905F904F903F902F908C
:102C900008951F931092B9071092B80788EE93E039
:102CA000A0E0B0E08093BA079093BB07A093BC0765
:102CB000B093BD07E8EBF7E02FE335E032932293C2
:102CC00046EA56E0558744874AEE56E057874687DE
:102CD00045EC50E0518B408B44EC50E0538B428BE1
:102CE00040EC50E0558B448B41EC50E0578B468BC9
:102CF00046EC50E0518F408F14E0128F73E0738FD9
:102D000067E0648F55E0558F41E0468F1092D807F9
:102D10001092D7078093D9079093DA07A093DB0727
:102D2000B093DC07E7EDF7E0329322938EE297E071
:102D30009587848782E797E0978786878DEC90E078
:102D4000918B808B8CEC90E0938B828B88EC90E065
:102D5000958B848B89EC90E0978B868B8EEC90E042
:102D6000918F808F128F738F648F558F468F1F9135
:102D700008958F929F92AF92BF92CF92DF92EF927F
:102D8000FF920F931F93CF93DF934C017B0182E05F
:102D9000A82EB12CA80CB91CC0E0D0E0CC24DD24B6
:102DA000F50161915F01C7014AE050E00E946F1296
:102DB0008C01C7016EE20E94B011080F191FC00EEE
:102DC000D11E2196C330D10559F7C701F4016581A1
:102DD0004AE050E00E946F12C80ED91EC601DF9172
:102DE000CF911F910F91FF90EF90DF90CF90BF9008
:102DF000AF909F908F9008950F93FC018FE495E022
:102E00009183808362834383248305830F91089594
:102E10008FE495E09093F5078093F4071092F607FE
:102E20001092F7071092F8071092F9070895DC0145
:102E30001C968D919C911D97DC01ED91FC91068073
:102E4000F781E02D09950895DC011C968D919C91E8
:102E50001D97DC01ED91FC910480F581E02D099531
:102E60000895DC011C968D919C911D97DC01ED91DC
:102E7000FC910284F385E02D09950895DC011C96F0
:102E80008D919C911D97DC01ED91FC910084F18561
:102E9000E02D099508952F923F924F925F926F9285
:102EA0007F928F929F92AF92BF92CF92DF92EF92DA
:102EB000FF920F931F93DF93CF93CDB7DEB7609749
:102EC0000FB6F894DEBF0FBECDBF6B017C01590178
:102ED00018014E010894811C911C4A3021F500E034
:102EE00010E09AE0492E512C612C712C02C069012E
:102EF0007A01C701B601A30192010E9432248C2DF0
:102F0000805D622F660F962F990F990F960F891B80
:102F1000F40181934F010F5F1F4F211531054105CA
:102F2000510529F732C0F40100E010E0D701C601D5
:102F30008F709070A070B070282F8A309105A10515
:102F4000B10510F480E301C081E4820F81930F5F2B
:102F50001F4F84E0F694E794D794C7948A95D1F7ED
:102F6000C114D104E104F10409F7CE010196FC017A
:102F7000E00FF11F28E720830F5F1F4F800F911F85
:102F800020E3FC0120830F5F1F4FFE013196E00F0D
:102F9000F11FD50120E030E008942108310882912A
:102FA0008D932F5F3F4FC801821B930B1816190694
:102FB0001CF4221533059CF3F501E20FF31F108278
:102FC000C90160960FB6F894DEBF0FBECDBFCF919A
:102FD000DF911F910F91FF90EF90DF90CF90BF9006
:102FE000AF909F908F907F906F905F904F903F90A9
:102FF0002F9008950F931F93FC0100E020E030E034
:10300000A90155C0812F80538A30C0F4DA01C9016B
:1030100044E0880F991FAA1FBB1F4A95D1F7212FA3
:10302000332727FD3095432F532F20533040404006
:103030005040280F391F4A1F5B1F39C0812F81560E
:103040008630A0F4CA01B90134E0660F771F881FEB
:10305000991F3A95D1F7212F332727FD3095432F1C
:10306000532F275530404040504017C0812F815486
:103070008630C0F4CA01B90124E0660F771F881FAB
:10308000991F2A95D1F7212F332727FD3095432FFC
:10309000532F2753304040405040260F371F481FC2
:1030A000591F05C0183739F4002329F401E01191A4
:1030B000112309F0A7CFB901CA011F910F910895FB
:1030C000EF92FF921F93CF93DF93E82EE7017E01EB
:1030D000F92EE70120E030E0A9011AC0812F8053CA
:1030E0008A30C8F4CA01B9012AE030E040E050E07B
:1030F0000E940024212F332727FD3095432F532F83
:103100002053304040405040260F371F481F591F62
:103110001991112319F7B901CA01DF91CF911F91BC
:10312000FF90EF900895DC01AE5ABF4F2D913C9176
:103130001197FC01EC5AFF4F40815181241735074C
:103140006CF4FC01E05BFF4F0190F081E02DE20F99
:10315000F31F60832F5F3F4F2D933C93CF96FC016D
:10316000A081B181ED91FC9111970190F081E02D4A
:10317000CD010995089520911308222369F4FC01DB
:10318000FF9680819181DC01ED91FC910084F185B5
:10319000E02D09959C0109C0E0911408F0E0EB5E78
:1031A000F74F2081332727FD3095C9010895FC0191
:1031B000FF9680819181DC01ED91FC910284F38581
:1031C000E02D09950895FC01A485B585109751F06F
:1031D000ED91FC9111970190F081E02DCD010995C1
:1031E0009C0102C020E030E0C9010895FC01138277
:1031F000128228EE33E040E050E02483358346839A
:10320000578385E695E091838083DF01AD5BBF4FF7
:103210001D921C92DF01AB5BBF4F2D933D934D93ED
:103220005C931397DF01AF5BBF4F85E595E08D930E
:103230009C93DF01A35BBF4F1D921C9215861786DE
:10324000168617AA10AE81E0808B818B1486DF0171
:10325000A05BBF4F1D921C92DF01AE5ABF4F11966B
:103260001C921E92EC5AFF4F1182108208950E9408
:10327000AD110895DC01ED91FC910190F081E02DFC
:10328000099508950E948A1108956F927F928F92F6
:103290009F92AF92BF92CF92DF92EF92FF920F93E5
:1032A0001F93CF93DF93EC013B018A010E94111021
:1032B0004B015C016801EE24FF248E01015C1F4F6D
:1032C0006CC0D8018D919C91DC01ED91FC91048042
:1032D000F581E02D0995181619060CF05EC0F8016D
:1032E00080819181DC01ED91FC910680F781E02DD8
:1032F0000995C82EF3018083DE01AE5ABF4F8D9130
:103300009C911197FE01EC5AFF4F20813181821769
:1033100093076CF4FE01E05BFF4F0190F081E02D1C
:10332000E80FF91FC082019611969C938E938C85AD
:10333000882309F449C08E010F5B1F4F609111086B
:1033400070911208CB010196909312088093110896
:10335000C8014AE050E00E94C512C80169E976E060
:103360000E948A11CC2DDD27C7FDD095C801BE0172
:1033700040E150E00E94C512CE010E94A7240097B0
:1033800041F0C80160E20E94B011C8016C2D0E949A
:10339000B011C8010E94B81117C00E94111068191D
:1033A00079098A099B096C157D058E059F0508F42E
:1033B00088CF8C85882351F0CE018F5B9F4F61E8C9
:1033C00076E00E94CD1102C081E001C080E0DF9173
:1033D000CF911F910F91FF90EF90DF90CF90BF9012
:1033E000AF909F908F907F906F900895DF92EF92B3
:1033F000FF920F931F93CF93DF93EC01FB0120917A
:103400001308222301F1442319F0319691E001C001
:1034100090E080911408890F13C03491332309F48C
:103420004BC0893010F4A82F01C0A0E08F5FB0E03E
:10343000AB5EB74F4C91431709F05DC031969F5F6B
:10344000921758F303C0442309F431968F010F5F9C
:103450001F4FD490B1E4EB2EF12CEC0EFD1E36C0C4
:1034600080931D08893010F010921D088091130878
:103470008F5F80931308893008F43DC0CE018F5BC5
:103480009F4F67EE76E00E94CD1135C080931D08F6
:10349000893010F010921D08809113088F5F80937F
:1034A0001308893028F0C7016BEC76E00E94CD113B
:1034B000F801D490DD2041F4109213081092140802
:1034C00010921D0881E018C00F5F1F4F60911D080A
:1034D00070E06B5E774FCE0144EF51E00E944519DA
:1034E00080911D08E82FF0E0EB5EF74F90818F5F31
:1034F0009D1561F2B5CF80E0DF91CF911F910F91C3
:10350000FF90EF90DF900895CF93DF93EC01462F6B
:103510006DEB76E00E94F619882319F081E08FABFD
:1035200001C080E0DF91CF910895CF93DF93EC014C
:10353000462F64EC76E00E94F619882319F01FAA42
:1035400081E001C080E0DF91CF910895CF92DF92BA
:10355000EF92FF920F931F93CF93DF93EC018C01B7
:10356000015C1F4FD8018D919C91DC01ED91FC9184
:103570000480F581E02D09956C01181619060CF0F0
:1035800049C08C858823C1F081E4E82EF12CEC0E33
:10359000FD1EC7016AEA76E00E948A11F801808167
:1035A0009181DC01ED91FC910084F185E02D09957C
:1035B000682FC7010E94F3118E01015C1F4FF801B3
:1035C00080819181DC01ED91FC910084F185E02DF9
:1035D00009958A329105F1F48FA9882339F0CE013B
:1035E00061E00E94951A8823D1F404C0CE0161E005
:1035F0000E94841AC0901308DD24F8018081918113
:10360000DC01ED91FC910480F581E02D0995C80E57
:10361000D91E08C080911308C80ED11C03C0CC2449
:10362000CA94DC2CC601DF91CF911F910F91FF90BE
:10363000EF90DF90CF900895CF93DF93EC018091CE
:103640001308882381F090911408E92FF0E0EB5ED5
:10365000F74F208130E09F5F90931408993060F11C
:103660001092140829C0FE01FF9680819181DC012F
:10367000ED91FC910680F781E02D09959C018FA9C1
:10368000882301F12A323105E9F4CE0160E00E947D
:10369000951A8823A9F480911408E82FF0E0EB5ED6
:1036A000F74F208130E08F5F80931408893010F04D
:1036B000109214088091130881508093130802C05F
:1036C0002FEF3FEFC901DF91CF910895CF92DF92A5
:1036D000EF92FF920F931F93DF93CF930F92CDB78B
:1036E000DEB77C016B018E010F5F1F4FC701B80170
:1036F000A6010E9445198823C9F70F90CF91DF9149
:103700001F910F91FF90EF90DF90CF900895CB0124
:1037100061E078E00E94CA2421E0009709F420E0EB
:10372000822F08956F927F928F929F92AF92BF9255
:10373000CF92DF92EF92FF920F931F93DF93CF937D
:103740000F92CDB7DEB74C017B015A0161157105AF
:1037500049F1FB018081882329F18B016E010894D6
:10376000C11CD11C3B010894611C711C13C08981D0
:10377000F8019081891719F40F5F1F4F07C0F701F7
:103780009081891711F4830101C08701F8018081BC
:10379000882341F0C401B601A5010E944519882380
:1037A00031F701C081E00F90CF91DF911F910F9110
:1037B000FF90EF90DF90CF90BF90AF909F908F9051
:1037C0007F906F9008952F923F924F925F926F92E9
:1037D0007F928F929F92BF92CF92DF92EF92FF9251
:1037E0000F931F93DF93CF930F92CDB7DEB76C018A
:1037F0007B011A01FC018485882361F086010F5B3F
:103800001F4FC80167E776E00E948A11C801B7011F
:103810000E94CD11F701B490BB2039F187014E0110
:103820000894811C911C6B2C772427010894411C5F
:10383000511C13C089818B1519F40F5F1F4F09C0EC
:10384000992787FD90958615970511F4820101C08F
:103850008701F801B490BB2041F0C601B401A10179
:103860000E944519882331F701C081E00F90CF9164
:10387000DF911F910F91FF90EF90DF90CF90BF905D
:103880009F908F907F906F905F904F903F902F9080
:1038900008952F923F924F925F926F927F928F92F4
:1038A0009F92AF92BF92CF92DF92EF92FF920F93CF
:1038B0001F93DF93CF9300D00F92CDB7DEB74C01AB
:1038C0003B01A42E29012DB63EB6242F30E0C901BC
:1038D000880F991F820F931F2DB73EB7281B390BF6
:1038E0000FB6F8943EBF0FBE2DBF8DB79EB70196A1
:1038F0008A839B83062F172DE82EF92EBB2491E493
:10390000C92ED12CC80CD91C28C0F7011082F8018F
:1039100080819181F70192838183F40184858823DA
:10392000A9F0C60168E676E00E948A11C6016B2DF7
:103930004AE050E00E946F12C60160E20E94B0119E
:10394000F80160817181C6010E94CD11B39423E01A
:1039500030E0E20EF31E0E5F1F4FBA14B0F227C024
:103960001196ED91FC9112976491961769F0F90107
:10397000E080F1801296FC92EE921197F70164912B
:1039800070E04617570729F431961296FC93EE9390
:1039900011971196ED91FC911297E49113962E5F79
:1039A0003F4FEE23E1F08F5F8A1520F4D9CF8E01CF
:1039B0000F5F1F4FC401B801A2010E94451988235F
:1039C00069F09981492F552747FD5095262D372DB0
:1039D0006A818B81A62FB82F80E0E6CF8FEF0FB6DC
:1039E000F8943EBE0FBE2DBE0F900F900F90CF915A
:1039F000DF911F910F91FF90EF90DF90CF90BF90DC
:103A0000AF909F908F907F906F905F904F903F907E
:103A10002F900895CF93DF93EC018D858823C9F013
:103A2000CE016DE376E00E944219CE0166E376E0B6
:103A300044EF51E00E94E31B882311F01D8609C06A
:103A4000CE018F5B9F4F65E276E00E94CD1180E052
:103A500001C081E0DF91CF9108952F923F924F9264
:103A60005F926F927F928F929F92BF92CF92DF92DE
:103A7000EF92FF920F931F93DF93CF930F92CDB7E7
:103A8000DEB72C017B01490100E010E06E010894D3
:103A9000C11CD11C6EEF262E6FEF362E240E351E64
:103AA0003A010894610871083BC0B9808B2D8D30B4
:103AB00051F5C201B601A4010E94451989818A30DD
:103AC00041F4E114F104E9F1F701E00FF11F108274
:103AD00038C0E114F104B9F0021513055CF4F701E4
:103AE000E00FF11FB0820F5F1F4FF701E00FF11FD2
:103AF000808307C00615170534F4F701E00FF11FA6
:103B0000B0820F5F1F4F0615170554F4E114F1043E
:103B100039F0F701E00FF11F898180830F5F1F4F9C
:103B2000C201B601A4010E944519882309F0BDCF46
:103B3000E114F10421F00E0D1F1DF801108200E0C8
:103B400010E0C8010F90CF91DF911F910F91FF906E
:103B5000EF90DF90CF90BF909F908F907F906F906D
:103B60005F904F903F902F900895BF92CF92DF9239
:103B7000EF92FF920F931F93DF93CF930F92CDB7E6
:103B8000DEB78C017E010894E11CF11C47C08981DD
:103B90008C3309F043C08093010872E0E72E78E08F
:103BA000F72EBB24B3946E010894C11CD11CC8012C
:103BB000B60144EF51E00E9445198823C9F189817B
:103BC000F70181937F01B3948E3321F5C801B601CB
:103BD00044EF51E00E944519882351F189818032D8
:103BE00039F5EB2DF0E0EF5FF74F8083B394EB2DC9
:103BF000F0E0EF5FF74F108281E080930008C8018A
:103C000060E070E040E050E024EF31E00E942D1DC4
:103C100081E00FC0FB2DFC3051F60AC0C801B7018E
:103C200044EF51E00E944519882309F0B0CF01C04C
:103C300080E00F90CF91DF911F910F91FF90EF9057
:103C4000DF90CF90BF9008951F93CF93DF93EC0147
:103C5000AB0180910008882371F4CE010E94B51D4C
:103C6000182F882371F4CE018F5B9F4F67E576E0B4
:103C70000E94CD1106C0CE0161E078E00E94921B47
:103C8000182F812FDF91CF911F910895FF920F93ED
:103C90001F93CF93DF93EC018D85882309F06FC0CC
:103CA0006AEF70E080E090E00E944510CE0163E58D
:103CB00076E00E9442196AEF70E080E090E00E9496
:103CC0004510CE016DE476E044EF51E00E94E31B25
:103CD0008823F9F080910008882309F049C0E5E0C5
:103CE000FE2E8E01015C1F4FF801A081B181ED9184
:103CF000FC9111970190F081E02DCD016DE00995C7
:103D0000CE0164EF71E00E94241E882389F5FA94A5
:103D100059F7FE01FF96A081B181ED91FC911197B9
:103D20000190F081E02DCD016DE00995CE0164EFA9
:103D300071E00E94241E8823D9F405E06AEF70E048
:103D400080E090E00E944510CE0169E476E00E9498
:103D500042196AEF70E080E090E00E944510CE01C9
:103D600063E476E044EF51E00E94E31B882319F0FE
:103D700081E08D8705C0015009F780E001C081E036
:103D8000DF91CF911F910F91FF900895CF93DF9313
:103D9000EC018D85882329F4CE010E94461E8823DC
:103DA00039F08E859F8501969F878E8781E001C0BF
:103DB00080E0DF91CF910895FC0126853785215061
:103DC0003040378726872115310519F40E940A1DD6
:103DD000089581E00895CF92DF92EF92FF920F93C2
:103DE0001F93CF93DF93EC018B017A0169010E944D
:103DF000C61E882349F1000F111F000F111F0F5815
:103E00001A4FF80160817181CE010E944219F801B8
:103E100062817381CE0144EF51E00E94E31B88234D
:103E200081F0CE01B701A60124EF31E00E942D1DE3
:103E3000CE0164EF71E00E94241ECE010E94DC1EC0
:103E400007C0CE010E94DC1EFEE0EF2EF4E0FF2E44
:103E5000C701DF91CF911F910F91FF90EF90DF90FD
:103E6000CF900895CF92DF92EF92FF920F931F931E
:103E7000DF93CF93CDB7DEB760970FB6F894DEBF70
:103E80000FBECDBF8C010E94C61E882351F4C8010D
:103E90008F5B9F4F6DE076E00E94CD11EE24FF24F2
:103EA00079C0C80165E076E00E944219C8016E0140
:103EB0000894C11CD11CB60140E150E024EF31E070
:103EC0000E942D1D7C01C801B6010E94871B88231A
:103ED00051F0C801B60140E150E024EF31E00E940A
:103EE0002D1D7C0105C0C80164EF71E00E94241EF5
:103EF000CE01019625E0E216F1042CF09701245042
:103F00003040820F931F0E94FA177B01862F8F701B
:103F1000F80181AFC70144E0969587954A95E1F78E
:103F2000817082AFC70135E0969587953A95E1F7A4
:103F3000817083AFC70126E0969587952A95E1F7B2
:103F4000817084AFC701880F892F881F990B9195C5
:103F5000817085AF8F2D86958F7086AFC8010E94C6
:103F6000DC1EF80191AD8485913049F497AB88232C
:103F700089F0C8018F5B9F4F6FEE75E009C0F801B3
:103F800017AA882339F0C8018F5B9F4F66ED75E053
:103F90000E94CD11C70160960FB6F894DEBF0FBE28
:103FA000CDBFCF91DF911F910F91FF90EF90DF90E8
:103FB000CF9008950F931F93DF93CF93CDB7DEB7C4
:103FC00066970FB6F894DEBF0FBECDBF60E070E01D
:103FD0008E010F5F1F4FA80126E130E00E94EB1E0B
:103FE000009791F020E003C02F5F8A3331F0F80191
:103FF000E20FF11D80818823B9F7CE010196820F6F
:10400000911D0E94601802C060E070E0CB016696CE
:104010000FB6F894DEBF0FBECDBFCF91DF911F91D9
:104020000F910895FB019A0162E070E0AF010E94D8
:10403000EB1E0895FF920F931F93DF93CF93CDB79D
:10404000DEB72B970FB6F894DEBF0FBECDBFF42EB0
:104050008E010F5F1F4FA8012BE030E00E94EB1E86
:10406000009769F08F2D8A3021F4C8010E946018F2
:1040700003C0C8010E94FA179B01AC0103C020E0F5
:1040800030E0A901B901CA012B960FB6F894DEBF42
:104090000FBECDBFCF91DF911F910F91FF9008957B
:1040A000AF92BF92CF92DF92EF92FF920F931F9346
:1040B000DF93CF930F92CDB7DEB78C017B015A010E
:1040C00069010E94C61E8823B9F1C8016EEC75E033
:1040D0000E944219C801B7010E943719C80166E160
:1040E00074E00E943719C801B70148E853E10E9403
:1040F000921B8823C9F0C801BE016F5F7F4F44EF58
:1041000051E00E944519C801B501A60124EF31E034
:104110000E942D1DC80164EF71E00E94241EC80199
:104120000E94DC1E81E009C0C80164EF71E00E94BA
:10413000241EC8010E94DC1E80E00F90CF91DF9109
:104140001F910F91FF90EF90DF90CF90BF90AF90B5
:1041500008950F931F93DF93CF93CDB7DEB760978A
:104160000FB6F894DEBF0FBECDBF6CE070E08E01DD
:104170000F5F1F4FA80120E130E00E94EB1E009767
:10418000B9F1C8016AEC75E043E050E00E94AD244B
:10419000009731F1C80167EC75E042E050E00E9401
:1041A000AD240097F9F0C80160EC75E046E050E0FE
:1041B0000E94AD240097C1F0C8016AEB75E045E0AC
:1041C00050E00E94AD24009789F0C80163EB75E0D0
:1041D00046E050E00E94AD24009751F484E009C00D
:1041E00080E007C081E005C082E003C083E001C039
:1041F0008FEF60960FB6F894DEBF0FBECDBFCF91A4
:10420000DF911F910F9108956EE070E04AE00E94E7
:104210001A20CB010895CF92DF92EF92FF920F9375
:104220001F93DF93CF9300D000D0CDB7DEB78C01C2
:104230006B017A018CE795E09A83898386E795E0A4
:104240009C838B83C801BE016F5F7F4F42E024EFE8
:1042500031E00E94491C8130E9F0882399F4C801BB
:10426000B601A70124EF31E00E942D1D0F5B1F4F07
:10427000C80160E775E00E948A11C801B6010E947A
:10428000E01106C0C60166E675E0A7010E94BB24E6
:1042900080E001C081E00F900F900F900F90CF91C0
:1042A000DF911F910F91FF90EF90DF90CF900895D5
:1042B0008F929F92AF92BF92CF92DF92EF92FF9236
:1042C0000F931F93DF93CF93CDB7DEB760970FB6F1
:1042D000F894DEBF0FBECDBF7C014B015A016901CE
:1042E0000E94C61E882309F46EC0C701B4010E9453
:1042F0004219C114D10441F1C70160E20E943A1988
:104300000023E9F086017FE4C72ED12CCE0CDF1C00
:104310000FC0F701A081B181603231F4ED91FC91C1
:10432000C701D6016C9103C0ED91FC91C7010995BD
:10433000F8010F5F1F4F6491662359F72EC0C70124
:10434000B6010E94421929C0A114B10431F1C7017C
:1043500060E20E943A190023E1F085016FE4C62E65
:10436000D12CCE0CDF1C0FC0F701A081B1816032CF
:1043700031F4ED91FC91C701D6016C9103C0ED9130
:10438000FC91C7010995F80161918F01662361F7DE
:1043900004C0C701B5010E943719C7016DE00E9432
:1043A0003A19C701BE016F5F7F4F40E150E00E94A4
:1043B0000B21082FC70164EF71E00E94241EC70182
:1043C0000E94DC1E01C000E0802F60960FB6F894BA
:1043D000DEBF0FBECDBFCF91DF911F910F91FF9038
:1043E000EF90DF90CF90BF90AF909F908F90089507
:1043F000AF92BF92CF92DF92EF92FF920F931F93F3
:10440000DF93CF93CDB7DEB72B970FB6F894DEBF0F
:104410000FBECDBF6C015B01CA01B901402F7E0107
:104420000894E11CF11C97010BE010E00E944B176F
:10443000C601B501A70120E030E000E00E9458214C
:104440002B960FB6F894DEBF0FBECDBFCF91DF9194
:104450001F910F91FF90EF90DF90CF90BF90AF90A2
:1044600008951F93CF93DF93EC010E94C61E88230B
:10447000D9F0CE0160E675E00E944219CE0168E5F0
:1044800075E044EF51E00E94E31B882339F0CE0130
:1044900064EF71E00E94241E11E001C010E0CE0123
:1044A0000E94DC1E812F01C080E0DF91CF911F911F
:1044B00008950F93AB0169E175E020E030E000E082
:1044C0000E9458210F9108950F939B0140E050E006
:1044D0006CED74E00AE00E94F8210F9108950F93AB
:1044E000262F30E040E050E06CE374E000E10E94F1
:1044F000F8210F9108950E946F2208950F93262F9F
:1045000030E040E050E06AEC73E000E10E94F82106
:104510000F9108950F939B0140E050E064EB73E02E
:104520000AE00E94F8210F9108956BE170E040E1EC
:104530000E941A20862F08950F93CF93DF93EC01EA
:104540001CAA1BAA1B8A60EB77E040E050E020E049
:1045500030E000E00E945821882339F4CE018F5BBF
:104560009F4F68E977E00E94CD11CE0165E877E0C2
:1045700040E050E020E030E000E00E945821882335
:1045800039F4CE018F5B9F4F68E677E00E94CD1132
:10459000CE0166E577E040E050E020E030E000E06A
:1045A0000E945821882339F4CE018F5B9F4F6CE322
:1045B00077E00E94CD11CE010E94321FCE010E94F1
:1045C000A920882319F091E0843009F490E0988BB9
:1045D000CE010E949522C15BDF4F8883DF91CF918E
:1045E0000F910895CF93DF93EC010E94C61E88239C
:1045F00001F1CE0160E575E00E944219CE0167E449
:1046000075E044EF51E00E94E31B882321F4CE01C2
:104610000E94DC1E0EC068E873E180E090E00E941A
:1046200045101D861F861E86CE010E949C2281E0B9
:1046300001C080E0DF91CF910895CF93DF93EC012B
:10464000FC01E35BFF4F51834083FC01FF967183C4
:1046500060830E94461E882331F4CE018F5B9F4FFA
:104660006FE177E00DC0CE010E949C22CE010E9436
:104670000A1D882349F4CE018F5B9F4F63E077E0EA
:104680000E94CD1180E001C081E0DF91CF910895BB
:1046900021E0FC0182AD813009F020E0822F0895F5
:1046A000FF920F931F93F62E072F10E08F2D902F60
:1046B0000E9460186F3F71058105910509F070F443
:1046C000EF2DF02FFE2E0F2F8191982F90539A30BF
:1046D000C8F38E3219F41F5F133041F780E01F9149
:1046E0000F91FF900895DF92EF92FF920F931F9327
:1046F000DF93CF93CDB7DEB760970FB6F894DEBFE8
:104700000FBECDBF7C01162F072F0E945023882398
:1047100081F4C701612F702F8E010F5F1F4FA80119
:1047200020E130E00E945020882309F44FC0D02EB1
:1047300002C0D12E102FC7010E94C61EC70164E817
:1047400072E00E944219C7016D2D712F0E94371926
:10475000C7016DE00E943A19C7016BE772E044EFB0
:1047600051E00E94E31BC70160E070E040E050E0D0
:1047700024EF31E00E942D1DC70164EF71E00E941B
:10478000241E882301F1C70162E772E048E853E183
:104790000E94E31B8823B9F0C70160E070E040E0AD
:1047A00050E024EF31E00E942D1DC70160E070E071
:1047B00040E050E028E833E10E942D1DC7010E942F
:1047C000DC1E81E004C0C7010E94DC1E80E0609610
:1047D0000FB6F894DEBF0FBECDBFCF91DF911F9112
:1047E0000F91FF90EF90DF9008950F938AEF97E07D
:1047F00060E040E020E000E00E94FC160F91089588
:10480000629FD001739FF001829FE00DF11D649FB4
:10481000E00DF11D929FF00D839FF00D749FF00D40
:10482000659FF00D9927729FB00DE11DF91F639FE1
:10483000B00DE11DF91FBD01CF011124089597FBB3
:10484000092E07260AD077FD04D02ED006D00020EE
:104850001AF4709561957F4F0895F6F790958195BC
:104860009F4F0895A1E21A2EAA1BBB1BFD010DC08C
:10487000AA1FBB1FEE1FFF1FA217B307E407F50710
:1048800020F0A21BB30BE40BF50B661F771F881FEC
:10489000991F1A9469F760957095809590959B0182
:1048A000AC01BD01CF010895AA1BBB1B51E107C09C
:1048B000AA1FBB1FA617B70710F0A61BB70B881FB0
:1048C000991F5A95A9F780959095BC01CD0108953F
:1048D0002F923F924F925F926F927F928F929F9210
:1048E000AF92BF92CF92DF92EF92FF920F931F93FE
:1048F000CF93DF93CDB7DEB7CA1BDB0B0FB6F894AF
:10490000DEBF0FBECDBF09942A88398848885F84EE
:104910006E847D848C849B84AA84B984C884DF805F
:10492000EE80FD800C811B81AA81B981CE0FD11D43
:104930000FB6F894DEBF0FBECDBFED010895EE0FA8
:10494000FF1F0590F491E02D0994803209F0911138
:104950003BC080528F55E0F70895FB01DC014150C8
:10496000504030F08D910590801919F40020B9F76E
:10497000881B990B0895FB01DC014150504048F021
:1049800005900D920020C9F701C01D924150504082
:10499000E0F70895FB0151915523A9F0BF01DC0117
:1049A0004D9145174111E1F759F4CD0101900020D7
:1049B00049F04D9140154111C9F3FB014111EFCF71
:1049C00081E090E001970895992788270895F89449
:0249D000FFCF17
:1049D20070696E6720676F6F676C652E636F6D2EEF
:1049E2002E2E2000676F6F676C652E636F6D00203F
:1049F2004F6B2000204661696C656420746F2070E3
:104A0200696E6720476F6F676C650070696E67201B
:104A12006E6574776F726B20686F73742E2E2E2002
:104A22000031302E34322E382E3335002046616963
:104A32006C656420746F2070696E67206E65747790
:104A42006F726B20686F7374005465726D696E616A
:104A52006C20726561647900426567696E205769EE
:104A6200466920436F6E6669672000576169746901
:104A72006E6720666F7220636F6E74726F6C6C6506
:104A82007220746F20736574746C652E2E2E00462E
:104A920061696C656420746F20737461727420772D
:104AA20069666C7920636F6E74726F6C6C65720AE2
:104AB2000D506C6561736520636865636B20636F7D
:104AC2006E66696775726174696F6E20616E6420CB
:104AD20074727920616761696E2E2E2E00526573A1
:104AE2006574696E67205769466C7920636F6E74CE
:104AF200726F6C6C657220666C7573682074696D78
:104B0200656F757420746F2031306D73004A6F6960
:104B12006E696E67204E6574776F726B2E2E2E2033
:104B2200506C65617365207761697400416C6561E1
:104B32006479204A6F696E6564204E6574776F727E
:104B42006B2E2E2E0070696E672000202E2E2E20D6
:104B520000204F6B212000204661696C656420743F
:104B62006F2070696E6720476174657761790057BD
:104B720069466C792D537072696E6B6C650057696A
:104B8200466C7920636F6E66696775726174696FCE
:104B92006E207570646174656420746F207573652E
:104BA20020706F727420333438322E2E2E0A5265E2
:104BB200626F6F74696E6720436F6E74726F6C6C94
:104BC20065722E20506C6561736520576169742E81
:104BD200005769466C79207265616479004D4143E2
:104BE2003A200049503A20004E65746D61736B3A69
:104BF2002000476174657761793A20007B2253591E
:104C02005354454D5F535441545553223A00224167
:104C12004354495645222C002249444C45222C003B
:104C22007D0043757272656E74205A6F6E65203D09
:104C3200200043757272656E7420497465726174E6
:104C4200696F6E203D200057694669204461746196
:104C520020417661696C61626C65004275666665C9
:104C620072206861733A2000416363657074656401
:104C72002066756E6374696F6E20636F6D6D616E11
:104C820064200041434345505400453A53797350E0
:104C9200617573656400556E45787065637465640B
:104CA2002044617461203A200053656E64696E6726
:104CB200206572726F7220726573706F6E73652EEB
:104CC20000453A3031005374617475732074726117
:104CD2006E736D69742074696D65203D20003C65BA
:104CE20072726F723E000D00726174653A2000208C
:104CF2000000010202030303030404040404040485
:104D02000405050505050505050505050505050552
:104D12000506060606060606060606060606060632
:104D22000606060606060606060606060606060621
:104D32000607070707070707070707070707070702
:104D420007070707070707070707070707070707F1
:104D520007070707070707070707070707070707E1
:104D620007070707070707070707070707070707D1
:104D720007080808080808080808080808080808B2
:104D820008080808080808080808080808080808A1
:104D92000808080808080808080808080808080891
:104DA2000808080808080808080808080808080881
:104DB2000808080808080808080808080808080871
:104DC2000808080808080808080808080808080861
:104DD2000808080808080808080808080808080851
:104DE2000808080808080808080808080808080841
:104DF2000805000100020003000400140013001261
:104E020000110010003200B0040A00000000004F40
:104E1200136011EA121913FD123B1300000000B9CE
:104E22001600000000E3186011241717173E17310F
:104E3200170000000093186011A61A1C1BBB18D79C
:104E420018BA07C207BA07C607BA07CA07CE07D7F2
:104E520007E107EB07F107FA0704080B081508201A
:104E620008150826082E0838083E08470850085A30
:104E720008BA075F08040865086B0875086B0881A3
:104E8200086B088C089708A208BA07AA08BA07B3E1
:104E920008BA07B908C008CB08C008D308C008DAA6
:104EA20008E107E208E107E808E107EE08F107F781
:024EB2000800F6
:00000001FF
