:100000000C9462000C948A000C948A000C948A0070
:100010000C948A000C948A000C948A000C948A0038
:100020000C948A000C948A000C948A000C948A0028
:100030000C948A000C948A000C948A000C948A0018
:100040000C94F6000C948A000C940C040C943D045F
:100050000C948A000C948A000C948A000C948A00F8
:100060000C948A000C948A000000000024002700F1
:100070002A0000000000250028002B0000000000DE
:1000800023002600290004040404040404040202DA
:100090000202020203030303030301020408102007
:1000A0004080010204081020010204081020000012
:1000B0000007000201000003040600000000000029
:1000C0000000F60411241FBECFEFD4E0DEBFCDBF89
:1000D00011E0A0E0B1E0EAEBFAE002C005900D9279
:1000E000A433B107D9F711E0A4E3B1E001C01D9238
:1000F000A63EB107E1F710E0C4ECD0E004C02297BF
:10010000FE010E945705C23CD107C9F70E942B028D
:100110000C945B050C940000CF93DF93C7ECD1E007
:10012000CE0140E051EE60E070E00E947804CE0124
:1001300060E071E00E94950260ED77E080E090E081
:100140000E946401DF91CF91089564EF71E080E037
:1001500090E00E94640180911E010E94D50090935E
:1001600035018093340187EC91E068E171E00E94F1
:100170007502609134017091350187EC91E04AE09D
:1001800050E00E943D0361E070E080912001909179
:100190002101009711F060E070E0709321016093FD
:1001A00020018DE00E94F30108958E3008F08E50FA
:1001B0008770909122019295990F990F907C982BBE
:1001C00090937C0080917A00806480937A00809183
:1001D0007A0086FDFCCF2091780030917900932F32
:1001E00080E030E0282B392BC90108951F920F922F
:1001F0000FB60F9211242F933F938F939F93AF933A
:10020000BF9380913A0190913B01A0913C01B09144
:100210003D0130913E010196A11DB11D232F2D5F9F
:100220002D3720F02D570196A11DB11D20933E01C1
:1002300080933A0190933B01A0933C01B0933D0120
:100240008091360190913701A0913801B091390128
:100250000196A11DB11D8093360190933701A093A3
:100260003801B0933901BF91AF919F918F913F9128
:100270002F910F900FBE0F901F9018959FB7F89475
:100280002091360130913701409138015091390168
:1002900086B5A89B06C08F3F21F02F5F3F4F4F4F81
:1002A0005F4F9FBF542F432F322F2227280F311D1E
:1002B000411D511D82E0220F331F441F551F8A9597
:1002C000D1F7B901CA010895EF92FF920F931F93DE
:1002D000CF93DF937B018C010E943E01EB010FC0A5
:1002E0000E943E016C1B7D0B83E0683E780738F06E
:1002F0000894E108F10801091109C851DC4FE11423
:10030000F1040105110561F7DF91CF911F910F9164
:10031000FF90EF900895789484B5826084BD84B591
:10032000816084BD85B5826085BD85B5816085BDF0
:10033000EEE6F0E0808181608083E1E8F0E0108209
:10034000808182608083808181608083E0E8F0E04A
:10035000808181608083E1EBF0E080818460808334
:10036000E0EBF0E0808181608083EAE7F0E080816B
:1003700084608083808182608083808181608083CB
:100380008081806880831092C1000895833071F06D
:10039000843028F48130A1F0823021F514C08630F9
:1003A000B1F08730D1F08430E9F404C0809180004E
:1003B0008F7703C0809180008F7D809380000895A7
:1003C00084B58F7702C084B58F7D84BD08958091F8
:1003D000B0008F778093B00008958091B0008F7D3A
:1003E0008093B00008950F931F93DF93CF930F92E4
:1003F000CDB7DEB7282F30E0F901E255FF4F8491E9
:10040000F901E656FF4F14912A573F4FF901049125
:100410000023D9F0882321F069830E94C6016981F5
:10042000E02FF0E0EE0FFF1FEE58FF4F8591949103
:10043000DC019FB7F894662321F48C9110958123F9
:1004400002C08C91812B8C939FBF0F90CF91DF9135
:100450001F910F910895CF93DF930E948B010E940B
:100460008C00C4E3D4E00E94A5002097E1F30E9431
:100470003404F9CFCF92DF92EF92FF920F931F9344
:10048000CF93DF936C017B018A01C0E0D0E00FC005
:10049000D7016D917D01D601ED91FC910190F08124
:1004A000E02DC6010995C80FD91F01501040011554
:1004B000110571F7CE01DF91CF911F910F91FF9040
:1004C000EF90DF90CF900895DB010D900020E9F7C9
:1004D000AD0141505040461B570BDC01ED91FC91A2
:1004E0000280F381E02D099508950E946402089529
:1004F000DC01ED91FC910190F081E02D09950895CA
:100500000F931F93CF93DF93EC016DE00E9478026D
:100510008C01CE016AE00E947802080F191FC80101
:10052000DF91CF911F910F9108950F931F93CF9358
:10053000DF93EC010E9464028C01CE010E948002D4
:10054000080F191FC801DF91CF911F910F910895D6
:100550008F929F92AF92BF92CF92DF92EF92FF92D3
:100560000F931F93DF93CF93CDB7DEB7A1970FB64D
:10057000F894DEBF0FBECDBF6C01042FE52FCB0179
:10058000122F19A2223008F41AE021E2E22EF12CF7
:10059000EC0EFD1E812E9924AA24BB2403C0022F39
:1005A000E32FCA01602F7E2FA50194010E9433051D
:1005B000129F802D1124081B0894E108F1080A30CD
:1005C00014F4005D01C0095CF701008321153105B9
:1005D0004105510521F7C601B7010E946402A196A9
:1005E0000FB6F894DEBF0FBECDBFCF91DF911F9144
:1005F0000F91FF90EF90DF90CF90BF90AF909F90C2
:100600008F900895CF92DF92EF92FF920F931F93F6
:10061000CF93DF93EC017A018B012115310541F471
:10062000E881F9810190F081E02D642F09951AC0CD
:100630002A303105A9F477FF12C06DE20E947802DA
:100640006C0144275527BA014E195F09600B710BE5
:10065000CE012AE00E94A802C80ED91E04C02AE0DA
:100660000E94A8026C01C601DF91CF911F910F91EA
:10067000FF90EF90DF90CF9008950F931F93CF934B
:10068000DF93EC019A01CB01AC01662757FD609521
:10069000762FCE010E9402038C01CE010E948002BF
:1006A000080F191FC801DF91CF911F910F91089575
:1006B000FC0184859585FC01E05CFF4F2081318140
:1006C0008E5B9F4FFC0180819181281B390B2F731A
:1006D0003070C9010895FC0184859585FC01E05CBA
:1006E000FF4F40815181FC01EE5BFF4F2081318142
:1006F0004217530741F00190F081E02DE80FF91FF8
:10070000208130E002C02FEF3FEFC9010895FC01C6
:1007100084859585FC01E05CFF4F40815181FC019F
:10072000EE5BFF4F208131814217530771F0A081AA
:10073000B181A80FB91F2C918081918101968F738F
:1007400090709183808330E002C02FEF3FEFC901AA
:100750000895DC011E968D919C911F97FC01E05C31
:10076000FF4F8E5B9F4F40815181DC012D913C9169
:10077000119742175307B9F70895FC01268537856D
:10078000D901A05CBF4F8D919C9101968F739070A1
:10079000D901AE5BBF4F4D915C91119784179507BE
:1007A000D1F3D901A05CBF4F0D90BC91A02DA20F39
:1007B000B31F6C93A685B785A05CBF4F11969C9321
:1007C0008E93A689B7892C9181E090E0058C02C0B8
:1007D000880F991F0A94E2F7282B2C9381E090E070
:1007E0000895FB01E05CFF4F208131812F5F3F4F77
:1007F0002F733070DB01AE5BBF4F4D915C91119751
:100800002417350739F0A081B181A60FB71F8C934B
:1008100031832083089508951F920F920FB60F928F
:1008200011242F933F934F935F936F937F938F93F5
:100830009F93AF93BF93EF93FF938091C6006FE3B5
:1008400071E00E94F103FF91EF91BF91AF919F91F1
:100850008F917F916F915F914F913F912F910F9069
:100860000FBE0F901F90189587EC91E00E945803DF
:10087000009711F00E940B0408951F920F920FB67B
:100880000F9211242F933F938F939F93EF93FF9396
:100890002091C3013091C4018091C5019091C6019E
:1008A0002817390731F48091C1008F7D8093C100F2
:1008B00014C0E091C501F091C601ED57FE4F2081B3
:1008C0008091C5019091C60101968F7390709093AD
:1008D000C6018093C5012093C600FF91EF919F91BF
:1008E0008F913F912F910F900FBE0F901F901895F1
:1008F000DF92EF92FF920F931F93CF93DF93EC0160
:100900007A018B01DD24D394403081EE580780E0DA
:10091000680780E0780749F4DD24EC89FD891082BE
:1009200060E874E88EE190E00FC0EC89FD8981E019
:1009300090E00E8C02C0880F991F0A94E2F7808322
:1009400060E079E08DE390E0A80197010E94330513
:100950002150304040405040569547953795279557
:1009600080E12030380710F0DD20B1F6E889F98900
:100970003083EA89FB892083EE89FF89408181E009
:1009800090E09C010A8C02C0220F331F0A94E2F708
:10099000422B4083EE89FF8940819C010B8C02C071
:1009A000220F331F0A94E2F7422B4083EE89FF891E
:1009B00040819C010C8C02C0220F331F0A94E2F785
:1009C000422B4083EE89FF8920810D8C02C0880F65
:1009D000991F0A94E2F7809582238083DF91CF915B
:1009E0001F910F91FF90EF90DF9008951092CA0130
:1009F0001092C90188EE93E0A0E0B0E08093CB01B3
:100A00009093CC01A093CD01B093CE01E9ECF1E03D
:100A100087E291E0929382938FE391E095878487B8
:100A200083E891E09787868785EC90E0918B808BB7
:100A300084EC90E0938B828B80EC90E0958B848BA0
:100A400081EC90E0978B868B86EC90E0918F808F85
:100A500084E0828F83E0838F87E0848F85E0858FB9
:100A600081E0868F0895A1E21A2EAA1BBB1BFD010F
:100A70000DC0AA1FBB1FEE1FFF1FA217B307E4077D
:100A8000F50720F0A21BB30BE40BF50B661F771FD5
:100A9000881F991F1A9469F76095709580959095B5
:100AA0009B01AC01BD01CF010895EE0FFF1F059022
:0A0AB000F491E02D0994F894FFCFB3
:100ABA005374617274696E672073657269616C2020
:100ACA00706F72742E2E2E005056203D20000100A9
:100ADA0001000100000000BD033A02580387036BBE
:040AEA0003A9030059
:00000001FF
