:100000000C946F040C9497040C9497040C9497042C
:100010000C9497040C9497040C9497040C949704F4
:100020000C9497040C9497040C9497040C949704E4
:100030000C9497040C9497040C9497040C949704D4
:100040000C9497040C9497040C94A5160C949704A4
:100050000C9428100C948A100C9497040C94970418
:100060000C9497040C9497040C9497040C949704A4
:100070000C9451100C94C5100C94970400002100AE
:10008000240027002A0000002200250028002B0061
:1000900000002000230026002900020202020202C2
:1000A000020204040404040404040303030303031A
:1000B00003030101010101010101010204081020F3
:1000C0004080010204081020408001020408102032
:1000D000408080402010080402010000000102005E
:1000E00000000000000004030706000000000000FC
:1000F00000000000000000000000636C6F73653AB0
:10010000206661696C65642C206E6F202A434C4F19
:10011000532A00636C6F73653A20676F74202A431B
:100120004C4F532A002A434C4F532A00636C6F7381
:10013000650D005465726D696E616C207265616455
:100140007900556E657870656374656420726573B7
:10015000703A20004661696C656420746F20636F9B
:100160006E6E6563743A20004F50454E2A00656EEE
:1001700061626C65486F7374526573746F72653A2F
:100180002073746F7265642000302E302E302E3054
:100190000073656E64746F3A206661696C656420F3
:1001A000746F20737461727420636F6D6D616E641F
:1001B000003C74696D656F75743E00556E657870AE
:1001C000656374656420636861723A200046616902
:1001D0006C656420746F20636F6E6E6563743A2083
:1001E000004F50454E2A005769466C79206861736C
:1001F000206372617368656420616E642077696C46
:100200006C207265626F6F742E2E2E004661696CD1
:10021000656420746F206765742070726F6D7074F0
:10022000000D006F70656E20006F70656E200032EB
:1002300035352E3235352E302E30003136392E32CE
:1002400035342E312E3100363420627974657300D6
:1002500050696E67207472790070696E6720007350
:10026000657420752069006C656176650D004757DF
:100270003D000D006A6F696E20004173736F636902
:100280006174656421004641494C454400736574BE
:10029000206164686F632070726F626500736574BB
:1002A000206164686F6320626561636F6E007365CF
:1002B0007420776C616E2074780040420F000080DB
:1002C000841E000160EC530002808D5B00084054E6
:1002D000890009C0D8A70003001BB7000A80A81234
:1002E000010B00366E010C005125020D006CDC0282
:1002F0000E80F937030F73657420776C616E20727E
:1003000061746500736574206F7074207265706C21
:100310006163650073657420776C616E207068722C
:100320006173650073657420776C616E206B65790D
:100330000073657420776C616E206368616E007372
:10034000657420776C616E207373696400736574E3
:1003500020776C616E206869646520310073657474
:100360002073797320696F66756E630073657420FE
:10037000636F6D6D2073697A650073657420636FB8
:100380006D6D206D617463680073657420636F6DBB
:100390006D2074696D6500302E302E302E30007364
:1003A00065742062726F61646361737420696E7436
:1003B000657276616C007365742075617274206D6E
:1003C0006F6465007365742074696D6520656E6186
:1003D000626C65007365742074696D65207A6F6E58
:1003E00065007365742074696D6520706F727400A8
:1003F0007365742074696D652061646472657373DC
:10040000007365742069702070726F746F636F6C15
:10041000007365742069702070726F746F636F6C05
:10042000007365742069702064686370007365747C
:1004300020646E7320616464726573730073657405
:100440002069702067617465776179007365742035
:100450006970206E65746D61736B007365742069DB
:1004600070206E65746D61736B00536574486F73B3
:10047000743A206661696C656420746F20737461DE
:10048000727420636F6D6D616E64007365742069B2
:10049000702072656D6F74650073657420697020DB
:1004A000686F73740073657420697020686F73746B
:1004B00000736574206970206C6F63616C706F727B
:1004C000740073657420697020616464726573736D
:1004D00000736574206970206164647265737300D1
:1004E00073657420776C616E206A6F696E00736546
:1004F00074206F20640053657420466163746F72CA
:10050000792044656661756C747300666163746F0D
:10051000727920524553544F52450D002A5265625C
:100520006F6F742A007265626F6F740D0053746F81
:1005300072696E6700736176650D003C74696D6564
:100540006F75743E004552523A2000414F4B0D0AE0
:10055000004552523A2000015544502C00000254EC
:1005600043502C0000045345435552000854435057
:100570005F430010485454502C00205241572C0027
:100580000040534D54502C005345525645520043A1
:1005900041434845004155544F4950004F4E004F8C
:1005A0004646006C6F6F6B75702000676574436F13
:1005B0006E3A2054435020646973636F6E6E6563B6
:1005C00074656400676574436F6E3A20544350202D
:1005D000636F6E6E65637465640073686F77206324
:1005E0000D00676574436F6E3A206661696C6564DF
:1005F00020746F207374617274004661696C656465
:1006000020746F20657869740A0D00455849540DAF
:100610000A00657869740D00434D440D0A002424D6
:100620002400434D440D0A002424240073657450B3
:10063000726F6D7074206661696C6564006D756CB5
:1006400074694D617463685F503A20006D61746332
:10065000685F503A20007265616454696D656F751A
:1006600074202D2074696D6564206F7574003A20C4
:10067000003A200064656275672064756D700061E2
:100680007661696C61626C653A207065656B203DCE
:1006900020002A4F50454E2A002A434C4F532A002F
:1006A0004552524F52207065656B2E32206275663E
:1006B000666572206F7665726C6F77004552524F97
:1006C00052207065656B2E312062756666657220FA
:1006D0006F7665726C6F77004661696C6564207433
:1006E0006F206578697420636F6D6D616E64206D35
:1006F0006F6465004661696C656420746F20656E87
:1007000074657220636F6D6D616E64206D6F6465DA
:10071000004661696C656420746F207365742063A2
:100720006F6D6D2072656D6F746500736574206305
:100730006F6D6D2072656D6F746520300046616964
:100740006C656420746F207475726E206F6666200D
:10075000737973207072696E740073657420737995
:1007600073207072696E746C766C2030004661691B
:100770006C656420746F207475726E206F666620DD
:100780006563686F007365742075206D20310067A4
:1007900065742069700D0049503D004E4D3D004785
:1007A000573D00676574206D61630D004D616320E6
:1007B000416464723D0067657420776C616E0D0062
:1007C000535349443D00676574206F70740D0044B5
:1007D000657669636549643D0067657420750D0041
:1007E00042617564726174653D0073686F7720744F
:1007F000696D650D0054696D653D00557054696DF6
:10080000653D006765742074696D650D005A6F6EF3
:10081000653D0067657420646E730D004164647209
:100820006573733D0073686F77207420740D0052F8
:1008300054433D00444843503D004D6F64653D00C6
:1008400067657420636F6D6D0D00466C7573685439
:10085000696D65723D004D61746368436861723D06
:1008600000466C75736853697A653D0073686F77ED
:1008700020727373690D00525353493D282D004671
:100880004C4147533D307800484F53543D0050523F
:100890004F544F3D00676574206164686F630D00BD
:1008A000426561636F6E3D0050726F62653D00523C
:1008B00065626F6F743D004A6F696E3D00526174EE
:1008C000653D005478506F7765723D005265706CDD
:1008D0006163653D0000420DD31292139A161124F4
:1008E0001FBECFEFD0E1DEBFCDBF12E0A0E0B1E090
:1008F000E2E8FFE202C005900D92AA36B107D9F7EF
:1009000014E0AAE6B2E001C01D92A833B107E1F7F6
:1009100018E0CEEDD8E004C02297FE010E94B01787
:10092000C63DD107C9F70E94FB0D0C94BF170C946C
:1009300000000F93DF93CF93CDB7DEB760970FB66C
:10094000F894DEBF0FBECDBF002309F459C0298340
:100950003A834B835C836D837E838F83988760E2C9
:10096000601B8D819E81AF81B8851616CCF09C01ED
:10097000AD01550F220B322FA9012D873E874F87DE
:10098000588B262F332727FD3095309521953F4FE3
:1009900004C0B595A795979587952A95D2F724C059
:1009A0009C01AD01002E04C05595479537952795BC
:1009B0000A94D2F72D873E874F87588B04C0880F43
:1009C000991FAA1FBB1F6A95D2F729813A814B81D3
:1009D0005C8104C056954795379527950A95D2F7BF
:1009E000822B932BA42BB52B89879A87AB87BC8747
:1009F00029853A854B855C856D857E858F859889AF
:100A000060960FB6F894DEBF0FBECDBFCF91DF91D9
:100A10000F910895ACE4B0E0E0E1F5E00C947717B5
:100A2000F50129833A834B835C836D837E838F83B7
:100A30009887A986FA87CB86DC86ED86FE860F87A7
:100A4000188B8D809E80AF80B884B7FE67C02195DB
:100A5000B1E0121608F0B0E03195A1E0131608F0ED
:100A6000A0E0232E2B1AB22DBB24B394321508F02C
:100A7000BB24AB29419531E0141608F030E0342E48
:100A80003A1AA32DBB24B394431508F0BB243B2989
:100A9000519541E0151608F040E0A52EA31A31E06B
:100AA0005A1508F030E0432B619531E0161608F036
:100AB00030E0B62EB41A41E06B1508F040E0342B5C
:100AC000719541E0171608F040E0572F531B31E0B5
:100AD000751708F030E0432B819531E0181608F0C7
:100AE00030E0482E441A442D61E0841508F060E09F
:100AF000362B9195931B2983BA83AB83AC82BD823D
:100B00005E834F8398872FEF3FEF4FEF5FEF219684
:100B10002CAF3DAF4EAF5FAF219706C021961CAE04
:100B20001DAE1EAE1FAE21978D859E85AF85B889FF
:100B3000B7FF68C021964CAD5DAD6EAD7FAD21971E
:100B4000409550956095709521964CAF5DAF6EAF16
:100B50007FAF2197E19581E01E1608F080E0F195C6
:100B600091E01F1608F090E04F2F481B81E0F4172A
:100B700008F080E0982BC19481E01C1408F080E01C
:100B80006C2D691B91E0C61608F090E0892BD1947A
:100B900091E01D1408F090E05D2D581B81E0D51602
:100BA00008F080E0982BE19481E01E1408F080E0CA
:100BB0003E2D391B91E0E31608F090E0892BF1946B
:100BC00091E01F1408F090E02F2D281B81E0F21611
:100BD00008F080E0982B019581E0101608F080E085
:100BE000702F791B972F71E0091708F070E0872BA1
:100BF0001195181BE9874A876B875C873D872E878D
:100C00009F87188B79856A855B854C853D852E8508
:100C10009F858889E981E98BEA81EA8BEB81EB8BFF
:100C2000EC81EC8BED81ED8BEE81EE8BEF81EF8B28
:100C3000E885E88F798F6A8F5B8F4C8F3D8F2E8F81
:100C40009F8F88A3E98CFA8C0B8D1C8D2D8D3E8D8A
:100C50004F8D58A189899A89AB89BC898DAB9EAB90
:100C6000AFABB8AFAD88BE88CF88D88C2115310521
:100C70004105510509F0BEC3AE14BF04C006D1063C
:100C800008F04FC190E0E91690E0F90691E00907FD
:100C900090E0190758F4AFEFEA16F10401051105C9
:100CA00009F090F420E030E0A90117C0B0E0EB16A5
:100CB000B0E0FB06B0E00B07B1E01B0750F420E109
:100CC00030E040E050E009C028E030E040E050E093
:100CD00004C028E130E040E050E0D801C701022E16
:100CE00004C0B695A795979587950A94D2F78C5D21
:100CF0009E4FFC01608180E290E0A0E0B0E0821BAA
:100D0000930BA40BB50B861B9109A109B1090097A0
:100D1000A105B105A1F1082E04C0EE0CFF1C001FB7
:100D2000111F0A94D2F7A6019501082E04C0220FC4
:100D3000331F441F551F0A94D2F760E270E0681B0E
:100D4000790BADA8BEA8CFA8D8AC04C0D694C794E0
:100D5000B794A7946A95D2F7A22AB32AC42AD52AAF
:100D60002DA83EA84FA858AC04C0220C331C441C2C
:100D7000551C8A95D2F72DAA3EAA4FAA58AE380123
:100D800088249924A8019701407050702DA73EA790
:100D90004FA758ABC601B501A40193010E94551796
:100DA000222E532E442E352E69AB7AAB8BAB9CABE7
:100DB000C601B501A40193010E945517822D952DFE
:100DC000A42DB32D89A79AA7ABA7BCA7BC01CD01C1
:100DD0002DA53EA54FA558A90E9436175B016C01B1
:100DE00049A95AA96BA97CA9DA01992788272DA8B6
:100DF0003EA84FA858AC920144275527822B932B2D
:100E0000A42BB52B8A159B05AC05BD0530F529A58E
:100E10003AA54BA55CA5215030404040504029A741
:100E20003AA74BA75CA78E0D9F1DA01FB11F8E1563
:100E30009F05A007B10788F08A159B05AC05BD0585
:100E400060F4215030404040504029A73AA74BA7BA
:100E50005CA78E0D9F1DA01FB11FAC01BD014A19DB
:100E60005B096C097D095A016B01CB01BA01A40130
:100E700093010E945517222E532E442E352E69AB16
:100E80007AAB8BAB9CABC601B501A40193010E9468
:100E90005517A22CB52CC42CD32CC601B5012DA5F9
:100EA0003EA54FA558A90E9436173B014C0169A9E0
:100EB0007AA98BA99CA9AB01332722278DA99EA9CA
:100EC000AFA9B8ADA070B070282B392B4A2B5B2B83
:100ED0002615370548055905C0F40894A108B1083E
:100EE000C108D1082E0D3F1D401F511F2E153F0573
:100EF0004007510750F0261537054805590528F4D5
:100F00000894A108B108C108D10889A59AA5ABA584
:100F1000BCA58C01FF24EE24EA28FB280C291D29FE
:100F2000C7C4E114F1040105110559F461E070E052
:100F300080E090E0A80197010E94551779018A018D
:100F400010C090E0E91690E0F90691E0090790E002
:100F5000190758F4AFEFEA16F1040105110509F07D
:100F600090F420E030E0A90117C0B0E0EB16B0E04B
:100F7000FB06B0E00B07B1E01B0750F420E130E0C6
:100F800040E050E009C028E030E040E050E004C01C
:100F900028E130E040E050E0D801C701022E04C053
:100FA000B695A795979587950A94D2F78C5D9E4F35
:100FB000FC018081280F311D411D511D80E290E010
:100FC000A0E0B0E0821B930BA40BB50B61F41501FC
:100FD00026012E183F08400A510A81E0A82EB12CA4
:100FE000C12CD12C29C1082E04C0EE0CFF1C001FFF
:100FF000111F0A94D2F715012601022E04C056943F
:101000004794379427940A94D2F729A63AA64BA678
:101010005CA6B601A501082E04C0440F551F661F2B
:10102000771F0A94D2F74DA75EA76FA778AB2DA8BC
:101030003EA84FA858AC04C05694479437942794C0
:101040002A95D2F7ADA4BEA4CFA4D8A8A228B328CD
:10105000C428D528ADA6BEA6CFA6D8AA2DA93EA93C
:101060004FA958AD04C0220F331F441F551F8A9546
:10107000D2F72DAB3EAB4FAB58AF38018824992443
:10108000B801A7016070707049AB5AAB6BAB7CAB19
:1010900069A57AA58BA59CA5A40193010E9455176B
:1010A000222E532E442E352E69AF7AAF8BAF9CAFD4
:1010B00069A57AA58BA59CA5A40193010E9455174B
:1010C000A22CB52CC42CD32CA9A6BAA6CBA6DCA6E0
:1010D000C601B50129A93AA94BA95CA90E943617F6
:1010E0005B016C0129AC3AAC4BAC5CACD1019927EB
:1010F00088272DA43EA44FA458A892014427552721
:10110000822B932BA42BB52B8A159B05AC05BD0513
:1011100030F529A53AA54BA55CA5215030404040AB
:10112000504029A73AA74BA75CA78E0D9F1DA01F73
:10113000B11F8E159F05A007B10788F08A159B0582
:10114000AC05BD0560F4215030404040504029A717
:101150003AA74BA75CA78E0D9F1DA01FB11FAC0126
:10116000BD014A195B096C097D095A016B01CB016C
:10117000BA01A40193010E945517222E532E442E2A
:10118000352E69AF7AAF8BAF9CAFC601B501A40114
:1011900093010E945517622C752C842C932CC4014A
:1011A000B30129A93AA94BA95CA90E9436179B0152
:1011B000AC0169AD7AAD8BAD9CAD6B01BB24AA24AB
:1011C0008DA59EA5AFA5B8A9A070B070A82AB92A10
:1011D000CA2ADB2AA216B306C406D506E0F4089490
:1011E0006108710881089108AE0CBF1CC01ED11E99
:1011F000AE14BF04C006D10670F0A216B306C40632
:10120000D50648F408946108710881089108AE0C6D
:10121000BF1CC01ED11E15012601221A330A440A22
:10122000550A89A59AA5ABA5BCA56C01BB24AA2427
:10123000A628B728C828D9289801442755272DA7BC
:101240003EA74FA758ABB801A7016070707049ABBB
:101250005AAB6BAB7CABC201B1012DA53EA54FA52E
:1012600058A90E945517622E932E842E752E69AFB1
:101270007AAF8BAF9CAFC201B1012DA53EA54FA5A2
:1012800058A90E945517862D992DA82DB72D89A7ED
:101290009AA7ABA7BCA7BC01CD0129A93AA94BA924
:1012A0005CA90E9436173B014C0129AC3AAC4BAC0F
:1012B0005CACD101992788272DA83EA84FA858AC2F
:1012C000920144275527822B932BA42BB52B8615EF
:1012D0009705A805B90530F529A53AA54BA55CA544
:1012E000215030404040504029A73AA74BA75CA767
:1012F0008E0D9F1DA01FB11F8E159F05A007B10762
:1013000088F086159705A805B90560F4215030408E
:101310004040504029A73AA74BA75CA78E0D9F1DC0
:10132000A01FB11FAC01BD01461957096809790911
:101330003A014B01CB01BA012DA53EA54FA558A9F5
:101340000E945517522E432E342E252E69AF7AAFA8
:101350008BAF9CAFC401B3012DA53EA54FA558A9E5
:101360000E945517652C742C832C922CC401B30158
:1013700029A93AA94BA95CA90E9436171B012C0187
:1013800069AD7AAD8BAD9CADAB01332722278DA91A
:101390009EA9AFA9B8ADA070B070282B392B4A2BED
:1013A0005B2B2215330544055505C0F408946108EC
:1013B0007108810891082E0D3F1D401F511F2E15E9
:1013C0003F054007510750F02215330544055505E8
:1013D00028F40894610871088108910889A59AA5E4
:1013E000ABA5BCA58C01FF24EE24E628F72808292C
:1013F000192961C2A216B306C406D50608F448C26C
:10140000203090E0390791E0490790E0590750F407
:101410002F3F31054105510509F090F466247724EA
:10142000430119C02030A0E03A07A0E04A07A1E03C
:101430005A0760F490E1692E712C812C912C0BC01D
:1014400088E0682E712C812C912C05C0B8E16B2EA0
:10145000712C812C912CDA01C901062C04C0B6959F
:10146000A795979587950A94D2F78C5D9E4FFC01BE
:101470008081680E711C811C911C80E290E0A0E0CC
:10148000B0E086199709A809B90989F42A153B051E
:101490004C055D0508F403C22DA83EA84FA858AC22
:1014A0002E143F044006510608F0F9C1F1C189AF7E
:1014B00019012A0104C0220C331C441C551C8A95B6
:1014C000D2F7D801C701062C04C0B695A795979509
:1014D00087950A94D2F7282A392A4A2A5B2AA80132
:1014E000970109AC04C0220F331F441F551F0A94F3
:1014F000D2F729962CAF3DAF4EAF5FAF299786014B
:101500007501062C04C016950795F794E7940A9484
:10151000D2F7B601A50109AC04C0440F551F661FE0
:10152000771F0A94D2F74DA75EA76FA778AB6DA976
:101530007EA98FA998AD04C09695879577956795F4
:101540006A94D2F73B014C018DA59EA5AFA5B8A921
:1015500086299729A829B9298DA79EA7AFA7B8AB37
:101560005201CC24DD24A9AABAAACBAADCAAA201E2
:101570009101407050702D962CAF3DAF4EAF5FAFD4
:101580002D97C801B701A60195010E945517622E3B
:10159000A32ED42EC52E25966CAF7DAF8EAF9FAFF8
:1015A0002597C801B70129A93AA94BA95CA90E94AE
:1015B0005517E62CFA2C0D2D1C2DE9A6FAA60BA723
:1015C0001CA7C801B7012D962CAD3DAD4EAD5FAD4A
:1015D0002D970E9436172596ACACBDACCEACDFACD7
:1015E00025978501FF24EE24ADA4BEA4CFA4D8A8DE
:1015F000960144275527E22AF32A042B152BE616D9
:10160000F7060807190730F529A53AA54BA55CA5EB
:10161000215030404040504029A73AA74BA75CA733
:10162000E20CF31C041D151DE214F304040515055A
:1016300088F0E616F7060807190760F421503040D5
:101640004040504029A73AA74BA75CA7E20CF31CE7
:10165000041D151DE61AF70A080B190BC801B7017E
:1016600029A93AA94BA95CA90E945517A22ED32EED
:10167000C42EB52E25966CAF7DAF8EAF9FAF25974C
:10168000C801B70129A93AA94BA95CA90E9455171D
:101690006A2C7D2C8C2C9B2CC401B3012D962CAD77
:1016A0003DAD4EAD5FAD2D970E9436179B01AC014D
:1016B0002596ACACBDACCEACDFAC2597D501992757
:1016C0008827ADA4BEA4CFA4D8A86FEFE62E6FEFF5
:1016D000F62E012D112DAE20BF20C022D1228A2945
:1016E0009B29AC29BD2982179307A407B507E0F40D
:1016F00008946108710881089108820D931DA41D4A
:10170000B51D82159305A405B50570F082179307E2
:10171000A407B50748F40894610871088108910886
:10172000820D931DA41DB51D1C012D01221A330A23
:10173000440A550A2DA63EA64FA658AAA9A4BAA4A3
:10174000CBA4DCA48501FF24EE24E628F728082991
:101750001929AFEFAA2EAFEFBA2EC12CD12CAE2093
:10176000BF20C022D12218014424552429966CACF4
:101770007DAC8EAC9FAC29972FEF3FEF40E050E05F
:10178000622273228422952229966CAD7DAD8EADA6
:101790009FAD2997AC016627772749A75AA76BA762
:1017A0007CA7C601B501A40193010E94361769AB5D
:1017B0007AAB8BAB9CABC601B50129A53AA54BA56D
:1017C0005CA50E9436175B016C01C201B101A40146
:1017D00093010E9436173B014C01C201B10129A5BA
:1017E0003AA54BA55CA50E9436179B01AC01A60C3F
:1017F000B71CC81CD91C29A83AA84BA85CA8C201D0
:10180000AA27BB27A80EB91ECA1EDB1EA614B70442
:10181000C804D90420F4205030404F4F5F4FC60118
:10182000AA27BB27820F931FA41FB51F2DA53EA576
:101830004FA558A9281739074A075B0718F18217DF
:101840009307A407B507A1F56501BB24AA2489A9BC
:101850009AA9ABA9BCA9A070B070A80EB91ECA1EE7
:10186000DB1E8DA99EA9AFA9B8AD09AC04C0880F35
:10187000991FAA1FBB1F0A94D2F78A159B05AC05B6
:10188000BD05B0F40894E108F1080109110910C080
:10189000AA24BB246501EE24FF2487010CC0AA24DE
:1018A000BB24650181E0E82EF12C012D112D03C030
:1018B000AA24BB246501FE01B19688E0DF011D92D8
:1018C0008A95E9F7E9A2FAA20BA31CA3ADA2BEA2D6
:1018D000CFA2D8A62E2D3AA14BA15CA16A2D7EA144
:1018E0008FA198A521962CAC3DAC4EAC5FAC219756
:1018F000211431044104510409F456C02195E1E05A
:10190000121608F0E0E03195F1E0131608F0F0E06F
:10191000032F0E1BE1E0301708F0E0E0FE2B4195AD
:10192000E1E0141608F0E0E0142F1F1B31E041172E
:1019300008F030E0E32B5195F1E0151608F0F0E0E7
:10194000B52FBE1B31E05B1708F030E0F32B61953B
:10195000E1E0161608F0E0E0A62EAF1A31E06A15B5
:1019600008F030E0E32B7195F1E0171608F0F0E095
:10197000A72FAE1B31E07A1708F030E0F32B8195EA
:10198000E1E0181608F0E0E0382E3F1AF32D31E0C0
:10199000831508F030E0E32B9195302F412F5B2F1A
:1019A0006A2D7A2F8F2F9E1BC45BDF4FE2E10C94D0
:1019B0009317CF93DF93C8EDD3E0CE0140E051EE13
:1019C00060E070E00E9400118091240261E00E94BA
:1019D0007E0D8091260261E00E947E0D809128029A
:1019E00061E00E947E0D80912A0261E00E947E0DDE
:1019F00080912C0261E00E947E0D80912E0261E0B8
:101A00000E947E0D8091300261E00E947E0D8091E7
:101A1000320261E00E947E0DCE0160E071E00E9422
:101A2000980E8091C00261E00E94C30D8091240253
:101A300061E00E94C30D8091260261E00E94C30D07
:101A40008091280261E00E94C30D80912A0261E02A
:101A50000E94C30D80912C0261E00E94C30D809111
:101A60002E0261E00E94C30D8091300261E00E946D
:101A7000C30D8091320261E00E94C30DDF91CF91CE
:101A8000089508950F9382EC92E060E040E020E03A
:101A900000E00E9486138AE692E00E9438140F91BB
:101AA0000895833071F0843028F48130A1F08230C1
:101AB00021F514C08630B1F08730D1F08430E9F4DC
:101AC00004C0809180008F7703C0809180008F7D5B
:101AD00080938000089584B58F7702C084B58F7D90
:101AE00084BD08958091B0008F778093B0000895F1
:101AF0008091B0008F7D8093B0000895EF92FF92A7
:101B0000CF93DF9390E0FC01E654FF4F449186565B
:101B10009F4FFC018491882389F190E0880F991FE1
:101B2000FC01E458FF4F25913491D9018A579F4F0A
:101B3000FC0125913491E22EE7017E01F32EE701AD
:101B4000662349F49FB7F8948C91409584238C9335
:101B5000888184230BC0623059F49FB7F8948C912C
:101B6000242F209582238C938881842B888305C021
:101B70009FB7F8948C91842B8C939FBFDF91CF916A
:101B8000FF90EF9008950F931F93DF93CF930F92E1
:101B9000CDB7DEB7282F30E0F901E652FF4F849130
:101BA000F901E654FF4F149126563F4FF901049175
:101BB0000023D9F0882321F069830E94510D6981A7
:101BC000E02FF0E0EE0FFF1FEA57FF4F8591949151
:101BD000DC019FB7F894662321F48C911095812342
:101BE00002C08C91812B8C939FBF0F90CF91DF917E
:101BF0001F910F910895CF93DF930E94FB160E94CF
:101C0000D90CC9E7D0E10E94410D2097E1F30E9471
:101C10007910F9CFCF92DF92EF92FF920F931F933B
:101C2000CF93DF936C017B018A01C0E0D0E00FC04D
:101C3000D7016D917D01D601ED91FC910190F0816C
:101C4000E02DC6010995C80FD91F0150104001159C
:101C5000110571F7CE01DF91CF911F910F91FF9088
:101C6000EF90DF90CF900895DB010D900020E9F711
:101C7000AD0141505040461B570BDC01ED91FC91EA
:101C80000280F381E02D09950895EF92FF920F9362
:101C90001F93CF93DF937C01062F172FC0E0D0E076
:101CA000F8010F5F1F4F6491662351F0F701A08187
:101CB000B181ED91FC91C7010995C80FD91FF0CFF3
:101CC000CE01DF91CF911F910F91FF90EF9008957A
:101CD000DC01ED91FC910190F081E02D09950895D2
:101CE0000F931F93CF93DF93EC016DE00E94680E7A
:101CF0008C01CE016AE00E94680E080F191FC8010E
:101D0000DF91CF911F910F9108950F931F93CF9360
:101D1000DF93EC010E94450E8C01CE010E94700EF3
:101D2000080F191FC801DF91CF911F910F910895DE
:101D30000F931F93CF93DF93EC010E94340E8C011D
:101D4000CE010E94700E080F191FC801DF91CF91BC
:101D50001F910F9108950F931F93CF93DF93EC0181
:101D60000E94680E8C01CE010E94700E080F191F90
:101D7000C801DF91CF911F910F9108958F929F928B
:101D8000AF92BF92CF92DF92EF92FF920F931F9389
:101D9000DF93CF93CDB7DEB7A1970FB6F894DEBF30
:101DA0000FBECDBF6C01042FE52FCB01122F19A25E
:101DB000223008F41AE021E2E22EF12CEC0EFD1E96
:101DC000812E9924AA24BB2403C0022FE32FCA0129
:101DD000602F7E2FA50194010E945517129F802D20
:101DE0001124081B0894E108F1080A3014F4005D7E
:101DF00001C0095CF701008321153105410551053A
:101E000021F7C601B7010E94340EA1960FB6F894CF
:101E1000DEBF0FBECDBFCF91DF911F910F91FF901D
:101E2000EF90DF90CF90BF90AF909F908F900895EC
:101E30002115310549F4DC01ED91FC910190F0810F
:101E4000E02D642F099508950E94BE0E08959A0111
:101E5000462F50E060E070E00E94180F0895CF9286
:101E6000DF92EF92FF920F931F93CF93DF93EC01DA
:101E70007A018B012115310541F4E881F981019046
:101E8000F081E02D642F09951AC02A303105A9F49C
:101E900077FF12C06DE20E94680E6C01442755273F
:101EA000BA014E195F09600B710BCE012AE00E9446
:101EB000BE0EC80ED91E04C02AE00E94BE0E6C01E0
:101EC000C601DF91CF911F910F91FF90EF90DF90AE
:101ED000CF9008959A01FB01AF01662757FD6095E9
:101EE000762F0E942F0F0895FC0184859585FC01B3
:101EF000E05CFF4F208131818E5B9F4FFC01808130
:101F00009181281B390B2F733070C9010895FC0192
:101F100084859585FC01E05CFF4F40815181FC0187
:101F2000EE5BFF4F208131814217530741F0019052
:101F3000F081E02DE80FF91F208130E002C02FEF83
:101F40003FEFC9010895FC0184859585FC01E05CA3
:101F5000FF4F40815181FC01EE5BFF4F20813181B9
:101F60004217530771F0A081B181A80FB91F2C91BE
:101F70008081918101968F7390709183808330E08E
:101F800002C02FEF3FEFC9010895DC011E968D912D
:101F90009C911F97FC01E05CFF4F8E5B9F4F40813F
:101FA0005181DC012D913C91119742175307B9F7EC
:101FB0000895FC0126853785D901A05CBF4F8D911E
:101FC0009C9101968F739070D901AE5BBF4F4D917C
:101FD0005C91119784179507D1F3D901A05CBF4F8D
:101FE0000D90BC91A02DA20FB31F6C93A685B78551
:101FF000A05CBF4F11969C938E93A689B7892C91B4
:1020000081E090E0058C02C0880F991F0A94E2F7E6
:10201000282B2C9381E090E00895FB01E05CFF4FBA
:10202000208131812F5F3F4F2F733070DB01AE5B1A
:10203000BF4F4D915C9111972417350739F0A0815E
:10204000B181A60FB71F8C93318320830895089523
:102050001F920F920FB60F9211242F933F934F931D
:102060005F936F937F938F939F93AF93BF93EF9300
:10207000FF938091C60068EC72E00E940D10FF9102
:10208000EF91BF91AF919F918F917F916F915F91F0
:102090004F913F912F910F900FBE0F901F90189569
:1020A00008951F920F920FB60F9211242F933F9312
:1020B0004F935F936F937F938F939F93AF93BF9350
:1020C000EF93FF938091CE0060E573E00E940D10C6
:1020D000FF91EF91BF91AF919F918F917F916F9100
:1020E0005F914F913F912F910F900FBE0F901F90D6
:1020F000189588ED93E00E94740F009711F00E94EC
:10210000271087EF93E00E94740F009711F00E9450
:10211000501008951F920F920FB60F9211242F9313
:102120003F938F939F93EF93FF9320914C033091B4
:102130004D0380914E0390914F032817390731F4D6
:102140008091C1008F7D8093C10014C0E0914E0347
:10215000F0914F03E45FFC4F208180914E039091FA
:102160004F0301968F73907090934F0380934E03AB
:102170002093C600FF91EF919F918F913F912F91F6
:102180000F900FBE0F901F9018951F920F920FB6D1
:102190000F9211242F933F938F939F93EF93FF936D
:1021A0002091D4033091D5038091D6039091D70329
:1021B0002817390731F48091C9008F7D8093C900B9
:1021C00014C0E091D603F091D703EC56FC4F208168
:1021D0008091D6039091D70301968F73907090935E
:1021E000D7038093D6032093CE00FF91EF919F9168
:1021F0008F913F912F910F900FBE0F901F901895C8
:102200002F923F924F925F926F927F928F929F9206
:10221000AF92BF92CF92DF92EF92FF920F931F93F4
:10222000DF93CF93CDB7DEB727970FB6F894DEBF15
:102230000FBECDBF9F838E834A835B836C837D8378
:1022400021E02983403081EE580780E0680780E074
:10225000780729F51982AE81BF815496ED91FC91E2
:10226000559710828A819B81AC81BD811C012D0113
:1022700020E834E84EE150E060E070E080E090E07B
:1022800051016201EE24FF2400E010E00E940A05E3
:10229000022F0150E1E0021708F497C095C0AE810B
:1022A000BF815496ED91FC91559781E090E05E9648
:1022B0000C9002C0880F991F0A94E2F780838A81EC
:1022C0009B81AC81BD811C012D0120E039E04DE3F3
:1022D00050E060E070E080E090E051016201EE24A7
:1022E000FF2400E010E00E940A05F22EFA94E1E0DB
:1022F000F21608F0E0E0232F215001E0231708F048
:1023000000E02E2E220E31E0221608F030E0032BE2
:10231000242F215011E0241708F010E0020F31E0C3
:10232000021708F030E0132B252F2150B1E02517BC
:1023300008F0B0E0120F31E0121708F030E0B32BD4
:10234000262F2150A1E0261708F0A0E0B20F31E0BF
:10235000B21708F030E0A32B272F2150F1E0271708
:1023600008F0F0E0A20F31E0A21708F030E0F32B04
:10237000282F2150E1E0281708F0E0E0F20F81E07B
:10238000F21708F080E0E82B9150E90F2F2D322D45
:10239000A8016B2F7A2F8F2F9E2FE7FF90C02F5F02
:1023A00031E02F1508F030E0320D41E0321508F031
:1023B00040E0400F51E0401708F050E0510F61E05D
:1023C000511708F46CC06AC0E0E0232F215011E0DF
:1023D000231708F010E0FE2EF20E31E0F21608F09E
:1023E00030E0132B342F315021E0341708F020E077
:1023F000130F41E0131708F040E0242B352F315024
:10240000B1E0351708F0B0E0222E230E21E02316AC
:1024100008F020E0B22B262F2150A1E0261708F06B
:10242000A0E0B20F31E0B21708F030E0A32B272F65
:102430002150F1E0271708F0F0E0A20F31E0A217D9
:1024400008F030E0F32B282F2150E1E0281708F0A6
:10245000E0E0F20F81E0F21708F080E0E82B915005
:10246000E90F202F3F2D412F522D6B2F7A2F8F2FC9
:102470009E2FE7FF24C02F5F31E0201708F030E0E7
:102480003F0D41E03F1508F040E0410F51E041179A
:1024900008F050E0520D61E0521508F060E06B0F5B
:1024A00071E06B1708F070E07A0F81E07A1708F09E
:1024B00080E08F0F91E08F1708F090E09E0F01E011
:1024C0000E949904822F932FA0E180309A0720F078
:1024D000B981BB2309F0BECEAE81BF815096ED918C
:1024E000FC91519790835296ED91FC915397808384
:1024F0005696ED91FC915797408181E090E09C01C8
:102500005A960C905A9702C0220F331F0A94E2F792
:10251000422B40835696ED91FC91579740819C0148
:102520005B960C905B9702C0220F331F0A94E2F770
:10253000422B40835696ED91FC91579740819C0128
:102540005C960C905C9702C0220F331F0A94E2F74E
:10255000422B40835696ED91FC91579720815D96D2
:102560000C905D9702C0880F991F0A94E2F780953E
:102570008223808327960FB6F894DEBF0FBECDBFAF
:10258000CF91DF911F910F91FF90EF90DF90CF904F
:10259000BF90AF909F908F907F906F905F904F9083
:1025A0003F902F9008951F931092DB031092DA034F
:1025B00088EE93E0A0E0B0E08093DC039093DD032D
:1025C000A093DE03B093DF03EAEDF3E028E332E00B
:1025D0003293229348EC52E0558744874CE053E015
:1025E0005787468745EC50E0518B408B44EC50E0D8
:1025F000538B428B40EC50E0558B448B41EC50E0C8
:10260000578B468B46EC50E0518F408F14E0128F71
:1026100073E0738F67E0648F55E0558F41E0468F1C
:102620001092FA031092F9038093FB039093FC033A
:10263000A093FD03B093FE03E9EFF3E032932293FE
:1026400080E593E09587848784E993E09787868780
:102650008DEC90E0918B808B8CEC90E0938B828B57
:1026600088EC90E0958B848B89EC90E0978B868B3F
:102670008EEC90E0918F808F128F738F648F558FC7
:10268000468F1F9108958F929F92AF92BF92CF92E3
:10269000DF92EF92FF920F931F93CF93DF934C0142
:1026A0007B0182E0A82EB12CA80CB91CC0E0D0E0C0
:1026B000CC24DD24F50161915F01C7014AE050E0BF
:1026C0000E94270F8C01C7016EE20E94680E080F5E
:1026D000191FC00ED11E2196C330D10559F7C7016D
:1026E000F40165814AE050E00E94270FC80ED91E10
:1026F000C601DF91CF911F910F91FF90EF90DF9076
:10270000CF90BF90AF909F908F9008950F93FC0152
:1027100088E492E0918380836283438324830583EA
:102720000F91089588E492E0909317048093160423
:10273000109218041092190410921A0410921B049B
:102740000895DC011C968D919C911D97DC01ED9103
:10275000FC910680F781E02D09950895DC011C9617
:102760008D919C911D97DC01ED91FC910480F58188
:10277000E02D09950895DC011C968D919C911D9783
:10278000DC01ED91FC910284F385E02D099508951B
:10279000DC011C968D919C911D97DC01ED91FC91C3
:1027A0000084F185E02D09950895DC01AE5ABF4FF4
:1027B0002D913C911197FC01EC5AFF4F40815181C2
:1027C000241735076CF4FC01E05BFF4F0190F081AA
:1027D000E02DE20FF31F60832F5F3F4F2D933C935B
:1027E000CF96FC01A081B181ED91FC9111970190F0
:1027F000F081E02DCD010995089520912404222334
:1028000069F4FC01FF9680819181DC01ED91FC91DE
:102810000084F185E02D09959C0109C0E091250413
:10282000F0E0EA5DFB4F2081332727FD3095C90199
:102830000895FC01FF9680819181DC01ED91FC916E
:102840000284F385E02D09950895FC01A485B585E2
:10285000109751F0ED91FC9111970190F081E02DCE
:10286000CD0109959C0102C020E030E0C901089526
:10287000FC011382128228EE33E040E050E0248312
:102880003583468357838EE592E091838083DF0111
:10289000AD5BBF4F1D921C92DF01AB5BBF4F2D9311
:1028A0003D934D935C931397DF01AF5BBF4F8EE475
:1028B00092E08D939C93DF01A35BBF4F1D921C920E
:1028C00015861786168617AA10AE81E0808B818B3D
:1028D0001486DF01A05BBF4F1D921C92DF01AE5A30
:1028E000BF4F11961C921E92EC5AFF4F118210821C
:1028F00008956F927F928F929F92AF92BF92CF92E4
:10290000DF92EF92FF920F931F93CF93DF93EC012F
:102910003B018A010E94ED164B015C016801EE2427
:10292000FF248E01015C1F4F6CC0D8018D919C91DA
:10293000DC01ED91FC910480F581E02D09951816DC
:1029400019060CF05EC0F80180819181DC01ED91E7
:10295000FC910680F781E02D0995C82EF301808354
:10296000DE01AE5ABF4F8D919C911197FE01EC5A3A
:10297000FF4F20813181821793076CF4FE01E05BE9
:10298000FF4F0190F081E02DE80FF91FC082019602
:1029900011969C938E938C85882309F449C08E01EF
:1029A0000F5B1F4F6091220470912304CB010196AD
:1029B0009093230480932204C8014AE050E00E94CF
:1029C0006A0FC8016EE676E00E94450ECC2DDD2729
:1029D000C7FDD095C801BE0140E150E00E946A0FDA
:1029E000CE010E94B617009741F0C80160E20E9434
:1029F000680EC8016C2D0E94680EC8010E94700EFE
:102A000017C00E94ED16681979098A099B096C158F
:102A10007D058E059F0508F488CF8C85882351F0AD
:102A2000CE018F5B9F4F66E576E00E94850E02C067
:102A300081E001C080E0DF91CF911F910F91FF9065
:102A4000EF90DF90CF90BF90AF909F908F907F904E
:102A50006F900895DF92EF92FF920F931F93CF93A1
:102A6000DF93EC01FB0120912404222301F1442394
:102A700019F0319691E001C090E080912504890F12
:102A800013C03491332309F44BC0893010F4A82FBC
:102A900001C0A0E08F5FB0E0AA5DBB4F4C9143172F
:102AA00009F05DC031969F5F921758F303C044232D
:102AB00009F431968F010F5F1F4FD490B1E4EB2ED4
:102AC000F12CEC0EFD1E36C080932E04893010F0E0
:102AD00010922E04809124048F5F80932404893007
:102AE00008F43DC0CE018F5B9F4F6CEB76E00E94F7
:102AF000850E35C080932E04893010F010922E047C
:102B0000809124048F5F80932404893028F0C701CA
:102B100060EA76E00E94850EF801D490DD2041F451
:102B2000109224041092250410922E0481E018C003
:102B30000F5F1F4F60912E0470E06A5D7B4FCE01E6
:102B400044EF51E00E94791480912E04E82FF0E0C8
:102B5000EA5DFB4F90818F5F9D1561F2B5CF80E0FC
:102B6000DF91CF911F910F91FF90EF90DF9008952B
:102B7000CF93DF93EC01462F62E976E00E942A159D
:102B8000882319F081E08FAB01C080E0DF91CF9105
:102B90000895CF93DF93EC01462F69E976E00E9418
:102BA0002A15882319F01FAA81E001C080E0DF9177
:102BB000CF910895CF92DF92EF92FF920F931F93E0
:102BC000CF93DF93EC018C01015C1F4FD8018D91F5
:102BD0009C91DC01ED91FC910480F581E02D09953B
:102BE0006C01181619060CF049C08C858823C1F0B9
:102BF00081E4E82EF12CEC0EFD1EC7016FE776E0B4
:102C00000E94450EF80180819181DC01ED91FC91DB
:102C10000084F185E02D0995682FC7010E94AB0E55
:102C20008E01015C1F4FF80180819181DC01ED91E3
:102C3000FC910084F185E02D09958A329105F1F42B
:102C40008FA9882339F0CE0161E00E94C91588233D
:102C5000D1F404C0CE0161E00E94B815C0902404F4
:102C6000DD24F80180819181DC01ED91FC910480EB
:102C7000F581E02D0995C80ED91E08C08091240465
:102C8000C80ED11C03C0CC24CA94DC2CC601DF9131
:102C9000CF911F910F91FF90EF90DF90CF9008950B
:102CA000CF93DF93EC0180912404882381F09091ED
:102CB0002504E92FF0E0EA5DFB4F208130E09F5FC3
:102CC00090932504993060F11092250429C0FE01EB
:102CD000FF9680819181DC01ED91FC910680F78166
:102CE000E02D09959C018FA9882301F12A32310535
:102CF000E9F4CE0160E00E94C9158823A9F480910F
:102D00002504E82FF0E0EA5DFB4F208130E08F5F83
:102D100080932504893010F01092250480912404BA
:102D200081508093240402C02FEF3FEFC901DF914F
:102D3000CF9108950F938CE194E060E040E020E0B3
:102D400000E00E9486130F9108951F920F920FB614
:102D50000F9211242F933F938F939F93AF93BF9321
:102D60008091330490913404A0913504B0913604DD
:102D7000309137040196A11DB11D232F2D5F2D37F2
:102D800020F02D570196A11DB11D2093370480938B
:102D9000330490933404A0933504B09336048091A7
:102DA0002F0490913004A0913104B0913204019627
:102DB000A11DB11D80932F0490933004A093310482
:102DC000B0933204BF91AF919F918F913F912F911A
:102DD0000F900FBE0F901F9018958FB7F894209109
:102DE00033043091340440913504509136048FBF40
:102DF000B901CA010895789484B5826084BD84B510
:102E0000816084BD85B5826085BD85B5816085BDE5
:102E1000EEE6F0E0808181608083E1E8F0E01082FE
:102E2000808182608083808181608083E0E8F0E03F
:102E3000808181608083E1EBF0E080818460808329
:102E4000E0EBF0E0808181608083EAE7F0E0808160
:102E500084608083808182608083808181608083C0
:102E60008081806880831092C1000895629FD001A4
:102E7000739FF001829FE00DF11D649FE00DF11D35
:102E8000929FF00D839FF00D749FF00D659FF00DE4
:102E90009927729FB00DE11DF91F639FB00DE11DD1
:102EA000F91FBD01CF0111240895A1E21A2EAA1B1A
:102EB000BB1BFD010DC0AA1FBB1FEE1FFF1FA217EA
:102EC000B307E407F50720F0A21BB30BE40BF50BE7
:102ED000661F771F881F991F1A9469F76095709570
:102EE000809590959B01AC01BD01CF0108952F9273
:102EF0003F924F925F926F927F928F929F92AF928A
:102F0000BF92CF92DF92EF92FF920F931F93CF93D6
:102F1000DF93CDB7DEB7CA1BDB0B0FB6F894DEBF6D
:102F20000FBECDBF09942A88398848885F846E8493
:102F30007D848C849B84AA84B984C884DF80EE80DD
:102F4000FD800C811B81AA81B981CE0FD11D0FB6E6
:102F5000F894DEBF0FBECDBFED010895EE0FFF1F49
:102F60000590F491E02D0994803209F0911104C08C
:102F700080528F55E0F70895992788270895F8948F
:022F8000FFCF81
:102F8200506F776572696E67204F6E2050696E735D
:102F920020312D34005465726D696E616C2072654A
:102FA20061647900000102020303030304040404C0
:102FB20004040404050505050505050505050505C3
:102FC20005050505060606060606060606060606A3
:102FD200060606060606060606060606060606068F
:102FE2000606060607070707070707070707070773
:102FF200070707070707070707070707070707075F
:10300200070707070707070707070707070707074E
:10301200070707070707070707070707070707073E
:103022000707070708080808080808080808080822
:10303200080808080808080808080808080808080E
:1030420008080808080808080808080808080808FE
:1030520008080808080808080808080808080808EE
:1030620008080808080808080808080808080808DE
:1030720008080808080808080808080808080808CE
:1030820008080808080808080808080808080808BE
:1030920008080808080808080808080808080808AE
:1030A2000808080801000200030004000E001400D2
:1030B2001500110000000000D90F0A0E740FA30FB3
:1030C200870FC50F00000000431300000000251405
:1030D2000A0EAE13A113C813BB1300000000D513D0
:0A30E2000A0EDA155016FD1319143A
:00000001FF
