:100000000C94AB040C94D3040C94D3040C94D3043C
:100010000C94D3040C94D3040C94D3040C94D30404
:100020000C94D3040C94D3040C94D3040C94D304F4
:100030000C94D3040C94D3040C94D3040C94D304E4
:100040000C94D3040C94D3040C9476140C94D30421
:100050000C945C180C94BE180C94D3040C94D30428
:100060000C94D3040C94D3040C94D3040C94D304B4
:100070000C9485180C94F9180C94D304533A2B0063
:10008000463A724379636C6500463A704379636C13
:100090006500463A644379636C6500463A65437986
:1000A000636C6500463A004661696C656420746F54
:1000B000207374617274207769666C7920636F6E47
:1000C00074726F6C6C65720A0D506C65617365209B
:1000D000636865636B20636F6E66696775726174D0
:1000E000696F6E20616E6420747279206167616946
:1000F0006E2E2E2E0000002100240027002A000072
:10010000002200250028002B0000002000230026EC
:100110000029000202020202020202040404040492
:1001200004040403030303030303030101010101A6
:10013000010101010204081020408001020408109E
:1001400020408001020408102040808040201008D8
:100150000402010000000102000000000000000491
:10016000030706000000000000000000000000007F
:10017000000000636C6F73653A206661696C6564AA
:100180002C206E6F202A434C4F532A00636C6F73F0
:10019000653A20676F74202A434C4F532A002A4344
:1001A0004C4F532A00636C6F73650D005465726D7C
:1001B000696E616C20726561647900556E65787056
:1001C000656374656420726573703A2000466169E6
:1001D0006C656420746F20636F6E6E6563743A2083
:1001E000004F50454E2A00656E61626C65486F7322
:1001F00074526573746F72653A2073746F726564BC
:100200002000302E302E302E300073656E64746FF7
:100210003A206661696C656420746F207374617242
:100220007420636F6D6D616E64003C74696D656F01
:1002300075743E00556E65787065637465642063FF
:100240006861723A20004661696C656420746F20B1
:10025000636F6E6E6563743A20004F50454E2A00FE
:100260005769466C792068617320637261736865B1
:100270006420616E642077696C6C207265626F6FB8
:10028000742E2E2E004661696C656420746F2067A1
:1002900065742070726F6D7074000D006F70656E04
:1002A00020006F70656E20003235352E3235352EC8
:1002B000302E30003136392E3235342E312E310089
:1002C00036342062797465730050696E67207472E9
:1002D000790070696E67200073657420752069006D
:1002E0006C656176650D0047573D000D006A6F69CA
:1002F0006E20004173736F63696174656421004609
:1003000041494C454400736574206164686F632003
:1003100070726F626500736574206164686F63203A
:10032000626561636F6E0073657420776C616E2027
:1003300074780040420F000080841E000160EC537E
:100340000002808D5B00084054890009C0D8A700D6
:1003500003001BB7000A80A812010B00366E010CC7
:10036000005125020D006CDC020E80F937030F737B
:10037000657420776C616E207261746500736574BA
:10038000206F7074207265706C61636500736574B2
:1003900020776C616E20706872617365007365749C
:1003A00020776C616E206B65790073657420776CC3
:1003B000616E206368616E0073657420776C616E96
:1003C00020737369640073657420776C616E2068B4
:1003D0006964652031007365742073797320696FD7
:1003E00066756E630073657420636F6D6D2073694D
:1003F0007A650073657420636F6D6D206D61746341
:10040000680073657420636F6D6D2074696D65009D
:10041000302E302E302E30007365742062726F6182
:10042000646361737420696E74657276616C0073C5
:1004300065742075617274206D6F646500736574F6
:100440002074696D6520656E61626C65007365740A
:100450002074696D65207A6F6E6500736574207411
:10046000696D6520706F7274007365742074696DB6
:1004700065206164647265737300736574206970CC
:100480002070726F746F636F6C0073657420697095
:100490002070726F746F636F6C0073657420697085
:1004A00020646863700073657420646E73206164F7
:1004B000647265737300736574206970206761747A
:1004C0006577617900736574206970206E65746D5D
:1004D00061736B00736574206970206E65746D6163
:1004E000736B00536574486F73743A206661696C6E
:1004F000656420746F20737461727420636F6D6D16
:10050000616E64007365742069702072656D6F742C
:10051000650073657420697020686F73740073657B
:100520007420697020686F7374007365742069703B
:10053000206C6F63616C706F7274007365742069F6
:1005400070206164647265737300736574206970F0
:1005500020616464726573730073657420776C61E5
:100560006E206A6F696E00736574206F206400539B
:10057000657420466163746F7279204465666175A5
:100580006C747300666163746F72792052455354C2
:100590004F52450D002A5265626F6F742A007265D2
:1005A000626F6F740D0053746F72696E67007361D0
:1005B00076650D003C74696D656F75743E0045523B
:1005C000523A2000414F4B0D0A004552523A20004A
:1005D000015544502C0000025443502C0000045399
:1005E0004543555200085443505F4300104854544B
:1005F000502C00205241572C000040534D54502C99
:100600000053455256455200434143484500415529
:10061000544F4950004F4E004F4646006C6F6F6B71
:1006200075702000676574436F6E3A205443502004
:10063000646973636F6E6E65637465640067657487
:10064000436F6E3A2054435020636F6E6E6563743F
:1006500065640073686F7720630D00676574436F8E
:100660006E3A206661696C656420746F20737461F2
:100670007274004661696C656420746F20657869E6
:10068000740A0D00455849540D0A00657869740DC7
:1006900000434D440D0A0024242400434D440D0A18
:1006A000002424240073657450726F6D707420668A
:1006B00061696C6564006D756C74694D6174636823
:1006C0005F503A20006D617463685F503A20007299
:1006D00065616454696D656F7574202D2074696D52
:1006E0006564206F7574003A20003A2000646562EA
:1006F00075672064756D7000617661696C61626C0C
:10070000653A207065656B203D20002A4F50454EAC
:100710002A002A434C4F532A004552524F52207010
:1007200065656B2E3220627566666572206F766530
:10073000726C6F77004552524F52207065656B2E78
:100740003120627566666572206F7665726C6F77B0
:10075000004661696C656420746F20657869742057
:10076000636F6D6D616E64206D6F646500466169D5
:100770006C656420746F20656E74657220636F6DA4
:100780006D616E64206D6F6465004661696C6564BF
:1007900020746F2073657420636F6D6D2072656DBA
:1007A0006F74650073657420636F6D6D2072656D85
:1007B0006F74652030004661696C656420746F2039
:1007C0007475726E206F666620737973207072691B
:1007D0006E740073657420737973207072696E741F
:1007E0006C766C2030004661696C656420746F2003
:1007F0007475726E206F6666206563686F0073653E
:10080000742075206D2031006765742069700D00BB
:1008100049503D004E4D3D0047573D0067657420EF
:100820006D61630D004D616320416464723D00673A
:10083000657420776C616E0D00535349443D006729
:100840006574206F70740D00446576696365496452
:100850003D0067657420750D0042617564726174B6
:10086000653D0073686F772074696D650D0054698C
:100870006D653D00557054696D653D006765742078
:1008800074696D650D005A6F6E653D006765742073
:10089000646E730D00416464726573733D00736828
:1008A0006F77207420740D005254433D0044484338
:1008B000503D004D6F64653D0067657420636F6D4A
:1008C0006D0D00466C75736854696D65723D004D21
:1008D00061746368436861723D00466C7573685368
:1008E000697A653D0073686F7720727373690D00D4
:1008F000525353493D282D00464C4147533D3078D3
:1009000000484F53543D0050524F544F3D006765CF
:1009100074206164686F630D00426561636F6E3DB2
:100920000050726F62653D005265626F6F743D00EA
:100930004A6F696E3D00526174653D005478506F96
:100940007765723D005265706C6163653D006714A8
:10095000071BC61BB32811241FBECFEFD0E1DEBF9B
:10096000CDBF15E0A0E0B1E0E2EAF8E502C00590F5
:100970000D92A433B107D9F717E0A4E3B5E001C0A5
:100980001D92AB38B107E1F719E0C6E5D9E004C024
:100990002297FE010E945F29CE34D107C9F70E9439
:1009A000FE150C944F2C0C9400000F93DF93CF9303
:1009B000CDB7DEB760970FB6F894DEBF0FBECDBFE0
:1009C000002309F459C029833A834B835C836D83E8
:1009D0007E838F83988760E2601B8D819E81AF81CB
:1009E000B8851616CCF09C01AD01550F220B322FA5
:1009F000A9012D873E874F87588B262F332727FD48
:100A00003095309521953F4F04C0B595A7959795A2
:100A100087952A95D2F724C09C01AD01002E04C011
:100A200055954795379527950A94D2F72D873E8798
:100A30004F87588B04C0880F991FAA1FBB1F6A9548
:100A4000D2F729813A814B815C8104C05695479544
:100A5000379527950A95D2F7822B932BA42BB52B8C
:100A600089879A87AB87BC8729853A854B855C85C2
:100A70006D857E858F85988960960FB6F894DEBF68
:100A80000FBECDBFCF91DF910F910895ACE4B0E0E0
:100A9000ECE4F5E00C942629F50129833A834B8395
:100AA0005C836D837E838F839887A986FA87CB8644
:100AB000DC86ED86FE860F87188B8D809E80AF804A
:100AC000B884B7FE67C02195B1E0121608F0B0E017
:100AD0003195A1E0131608F0A0E0232E2B1AB22DB9
:100AE000BB24B394321508F0BB24AB29419531E007
:100AF000141608F030E0342E3A1AA32DBB24B39418
:100B0000431508F0BB243B29519541E0151608F028
:100B100040E0A52EA31A31E05A1508F030E0432B2F
:100B2000619531E0161608F030E0B62EB41A41E0B7
:100B30006B1508F040E0342B719541E0171608F072
:100B400040E0572F531B31E0751708F030E0432B7E
:100B5000819531E0181608F030E0482E441A442DF3
:100B600061E0841508F060E0362B9195931B298392
:100B7000BA83AB83AC82BD825E834F8398872FEFAD
:100B80003FEF4FEF5FEF21962CAF3DAF4EAF5FAF22
:100B9000219706C021961CAE1DAE1EAE1FAE21973A
:100BA0008D859E85AF85B889B7FF68C021964CAD0D
:100BB0005DAD6EAD7FAD2197409550956095709578
:100BC00021964CAF5DAF6EAF7FAF2197E19581E08D
:100BD0001E1608F080E0F19591E01F1608F090E0F5
:100BE0004F2F481B81E0F41708F080E0982BC19448
:100BF00081E01C1408F080E06C2D691B91E0C616A2
:100C000008F090E0892BD19491E01D1408F090E059
:100C10005D2D581B81E0D51608F080E0982BE194FB
:100C200081E01E1408F080E03E2D391B91E0E316B0
:100C300008F090E0892BF19491E01F1408F090E007
:100C40002F2D281B81E0F21608F080E0982B0195EB
:100C500081E0101608F080E0702F791B972F71E06B
:100C6000091708F070E0872B1195181BE9874A8750
:100C70006B875C873D872E879F87188B79856A8570
:100C80005B854C853D852E859F858889E981E98B2B
:100C9000EA81EA8BEB81EB8BEC81EC8BED81ED8BC8
:100CA000EE81EE8BEF81EF8BE885E88F798F6A8F8D
:100CB0005B8F4C8F3D8F2E8F9F8F88A3E98CFA8C92
:100CC0000B8D1C8D2D8D3E8D4F8D58A189899A8954
:100CD000AB89BC898DAB9EABAFABB8AFAD88BE88DE
:100CE000CF88D88C211531054105510509F0BEC3C7
:100CF000AE14BF04C006D10608F04FC190E0E9165B
:100D000090E0F90691E0090790E0190758F4AFEF79
:100D1000EA16F1040105110509F090F420E030E035
:100D2000A90117C0B0E0EB16B0E0FB06B0E00B077E
:100D3000B1E01B0750F420E130E040E050E009C092
:100D400028E030E040E050E004C028E130E040E03E
:100D500050E0D801C701022E04C0B695A79597951B
:100D600087950A94D2F78C589C4FFC01608180E2F1
:100D700090E0A0E0B0E0821B930BA40BB50B861BA8
:100D80009109A109B1090097A105B105A1F1082EAA
:100D900004C0EE0CFF1C001F111F0A94D2F7A6011D
:100DA0009501082E04C0220F331F441F551F0A94BB
:100DB000D2F760E270E0681B790BADA8BEA8CFA89F
:100DC000D8AC04C0D694C794B794A7946A95D2F7C8
:100DD000A22AB32AC42AD52A2DA83EA84FA858ACC7
:100DE00004C0220C331C441C551C8A95D2F72DAA32
:100DF0003EAA4FAA58AE380188249924A801970129
:100E0000407050702DA73EA74FA758ABC601B50143
:100E1000A40193010E94F028222E532E442E352E39
:100E200069AB7AAB8BAB9CABC601B501A401930156
:100E30000E94F028822D952DA42DB32D89A79AA765
:100E4000ABA7BCA7BC01CD012DA53EA54FA558A9B8
:100E50000E94BE285B016C0149A95AA96BA97CA913
:100E6000DA01992788272DA83EA84FA858AC9201EF
:100E700044275527822B932BA42BB52B8A159B0532
:100E8000AC05BD0530F529A53AA54BA55CA52150BB
:100E900030404040504029A73AA74BA75CA78E0D91
:100EA0009F1DA01FB11F8E159F05A007B10788F0D9
:100EB0008A159B05AC05BD0560F4215030404040CB
:100EC000504029A73AA74BA75CA78E0D9F1DA01FD6
:100ED000B11FAC01BD014A195B096C097D095A01BA
:100EE0006B01CB01BA01A40193010E94F028222ECC
:100EF000532E442E352E69AB7AAB8BAB9CABC6011F
:100F0000B501A40193010E94F028A22CB52CC42C99
:100F1000D32CC601B5012DA53EA54FA558A90E9409
:100F2000BE283B014C0169A97AA98BA99CA9AB01F8
:100F3000332722278DA99EA9AFA9B8ADA070B070A4
:100F4000282B392B4A2B5B2B2615370548055905CD
:100F5000C0F40894A108B108C108D1082E0D3F1DA6
:100F6000401F511F2E153F054007510750F0261511
:100F700037054805590528F40894A108B108C108A7
:100F8000D10889A59AA5ABA5BCA58C01FF24EE24A8
:100F9000EA28FB280C291D29C7C4E114F104010526
:100FA000110559F461E070E080E090E0A80197013C
:100FB0000E94F02879018A0110C090E0E91690E0C3
:100FC000F90691E0090790E0190758F4AFEFEA1627
:100FD000F1040105110509F090F420E030E0A901C9
:100FE00017C0B0E0EB16B0E0FB06B0E00B07B1E0D5
:100FF0001B0750F420E130E040E050E009C028E059
:1010000030E040E050E004C028E130E040E050E053
:10101000D801C701022E04C0B695A795979587956C
:101020000A94D2F78C589C4FFC018081280F311D07
:10103000411D511D80E290E0A0E0B0E0821B930BC7
:10104000A40BB50B61F4150126012E183F08400AC8
:10105000510A81E0A82EB12CC12CD12C29C1082E17
:1010600004C0EE0CFF1C001F111F0A94D2F71501DB
:101070002601022E04C056944794379427940A946C
:10108000D2F729A63AA64BA65CA6B601A501082E62
:1010900004C0440F551F661F771F0A94D2F74DA74F
:1010A0005EA76FA778AB2DA83EA84FA858AC04C088
:1010B00056944794379427942A95D2F7ADA4BEA4AA
:1010C000CFA4D8A8A228B328C428D528ADA6BEA6E8
:1010D000CFA6D8AA2DA93EA94FA958AD04C0220F6A
:1010E000331F441F551F8A95D2F72DAB3EAB4FAB34
:1010F00058AF380188249924B801A7016070707036
:1011000049AB5AAB6BAB7CAB69A57AA58BA59CA50B
:10111000A40193010E94F028222E532E442E352E36
:1011200069AF7AAF8BAF9CAF69A57AA58BA59CA55B
:10113000A40193010E94F028A22CB52CC42CD32C1E
:10114000A9A6BAA6CBA6DCA6C601B50129A93AA9CB
:101150004BA95CA90E94BE285B016C0129AC3AAC8A
:101160004BAC5CACD101992788272DA43EA44FA499
:1011700058A8920144275527822B932BA42BB52BDB
:101180008A159B05AC05BD0530F529A53AA54BA5EB
:101190005CA5215030404040504029A73AA74BA7BA
:1011A0005CA78E0D9F1DA01FB11F8E159F05A00768
:1011B000B10788F08A159B05AC05BD0560F4215088
:1011C00030404040504029A73AA74BA75CA78E0D5E
:1011D0009F1DA01FB11FAC01BD014A195B096C091D
:1011E0007D095A016B01CB01BA01A40193010E9450
:1011F000F028222E532E442E352E69AF7AAF8BAFB6
:101200009CAFC601B501A40193010E94F028622C95
:10121000752C842C932CC401B30129A93AA94BA99C
:101220005CA90E94BE289B01AC0169AD7AAD8BAD73
:101230009CAD6B01BB24AA248DA59EA5AFA5B8A922
:10124000A070B070A82AB92ACA2ADB2AA216B3064F
:10125000C406D506E0F40894610871088108910875
:10126000AE0CBF1CC01ED11EAE14BF04C006D106FA
:1012700070F0A216B306C406D50648F408946108B7
:10128000710881089108AE0CBF1CC01ED11E15014B
:101290002601221A330A440A550A89A59AA5ABA544
:1012A000BCA56C01BB24AA24A628B728C828D92825
:1012B0009801442755272DA73EA74FA758ABB80143
:1012C000A7016070707049AB5AAB6BAB7CABC201CD
:1012D000B1012DA53EA54FA558A90E94F028622E68
:1012E000932E842E752E69AF7AAF8BAF9CAFC2015F
:1012F000B1012DA53EA54FA558A90E94F028862D25
:10130000992DA82DB72D89A79AA7ABA7BCA7BC017B
:10131000CD0129A93AA94BA95CA90E94BE283B018D
:101320004C0129AC3AAC4BAC5CACD1019927882775
:101330002DA83EA84FA858AC920144275527822BD0
:10134000932BA42BB52B86159705A805B90530F569
:1013500029A53AA54BA55CA52150304040405040FE
:1013600029A73AA74BA75CA78E0D9F1DA01FB11FF1
:101370008E159F05A007B10788F086159705A8056B
:10138000B90560F4215030404040504029A73AA7A9
:101390004BA75CA78E0D9F1DA01FB11FAC01BD0107
:1013A00046195709680979093A014B01CB01BA017D
:1013B0002DA53EA54FA558A90E94F028522E432ED8
:1013C000342E252E69AF7AAF8BAF9CAFC401B30129
:1013D0002DA53EA54FA558A90E94F028652C742C78
:1013E000832C922CC401B30129A93AA94BA95CA969
:1013F0000E94BE281B012C0169AD7AAD8BAD9CAD5E
:10140000AB01332722278DA99EA9AFA9B8ADA07043
:10141000B070282B392B4A2B5B2B22153305440542
:101420005505C0F4089461087108810891082E0DD3
:101430003F1D401F511F2E153F054007510750F01B
:10144000221533054405550528F4089461087108F0
:101450008108910889A59AA5ABA5BCA58C01FF249C
:10146000EE24E628F7280829192961C2A216B30636
:10147000C406D50608F448C2203090E0390791E050
:10148000490790E0590750F42F3F310541055105B8
:1014900009F090F466247724430119C02030A0E0BD
:1014A0003A07A0E04A07A1E05A0760F490E1692EEC
:1014B000712C812C912C0BC088E0682E712C812C12
:1014C000912C05C0B8E16B2E712C812C912CDA0186
:1014D000C901062C04C0B695A795979587950A94DF
:1014E000D2F78C589C4FFC018081680E711C811CC6
:1014F000911C80E290E0A0E0B0E086199709A8096D
:10150000B90989F42A153B054C055D0508F403C2A9
:101510002DA83EA84FA858AC2E143F0440065106F3
:1015200008F0F9C1F1C189AF19012A0104C0220CE8
:10153000331C441C551C8A95D2F7D801C701062CD0
:1015400004C0B695A795979587950A94D2F7282A4F
:10155000392A4A2A5B2AA801970109AC04C0220F44
:10156000331F441F551F0A94D2F729962CAF3DAF65
:101570004EAF5FAF299786017501062C04C0169502
:101580000795F794E7940A94D2F7B601A50109AC40
:1015900004C0440F551F661F771F0A94D2F74DA74A
:1015A0005EA76FA778AB6DA97EA98FA998AD04C07F
:1015B00096958795779567956A94D2F73B014C018C
:1015C0008DA59EA5AFA5B8A986299729A829B929CF
:1015D0008DA79EA7AFA7B8AB5201CC24DD24A9AA42
:1015E000BAAACBAADCAAA2019101407050702D9634
:1015F0002CAF3DAF4EAF5FAF2D97C801B701A6012D
:1016000095010E94F028622EA32ED42EC52E259679
:101610006CAF7DAF8EAF9FAF2597C801B70129A9E9
:101620003AA94BA95CA90E94F028E62CFA2C0D2DB2
:101630001C2DE9A6FAA60BA71CA7C801B7012D9679
:101640002CAD3DAD4EAD5FAD2D970E94BE282596C9
:10165000ACACBDACCEACDFAC25978501FF24EE244D
:10166000ADA4BEA4CFA4D8A8960144275527E22A4A
:10167000F32A042B152BE616F7060807190730F591
:1016800029A53AA54BA55CA52150304040405040CB
:1016900029A73AA74BA75CA7E20CF31C041D151D54
:1016A000E214F3040405150588F0E616F7060807AA
:1016B000190760F4215030404040504029A73AA714
:1016C0004BA75CA7E20CF31C041D151DE61AF70AD4
:1016D000080B190BC801B70129A93AA94BA95CA9A4
:1016E0000E94F028A22ED32EC42EB52E25966CAFC4
:1016F0007DAF8EAF9FAF2597C801B70129A93AA941
:101700004BA95CA90E94F0286A2C7D2C8C2C9B2C68
:10171000C401B3012D962CAD3DAD4EAD5FAD2D97FF
:101720000E94BE289B01AC012596ACACBDACCEACF2
:10173000DFAC2597D50199278827ADA4BEA4CFA4F7
:10174000D8A86FEFE62E6FEFF62E012D112DAE20EB
:10175000BF20C022D1228A299B29AC29BD2982170A
:101760009307A407B507E0F408946108710881089D
:101770009108820D931DA41DB51D82159305A40526
:10178000B50570F082179307A407B50748F40894CD
:101790006108710881089108820D931DA41DB51D73
:1017A0001C012D01221A330A440A550A2DA63EA611
:1017B0004FA658AAA9A4BAA4CBA4DCA48501FF24EF
:1017C000EE24E628F72808291929AFEFAA2EAFEF53
:1017D000BA2EC12CD12CAE20BF20C022D12218019C
:1017E0004424552429966CAC7DAC8EAC9FAC2997D3
:1017F0002FEF3FEF40E050E06222732284229522D7
:1018000029966CAD7DAD8EAD9FAD2997AC01662755
:10181000772749A75AA76BA77CA7C601B501A401E2
:1018200093010E94BE2869AB7AAB8BAB9CABC6011F
:10183000B50129A53AA54BA55CA50E94BE285B0170
:101840006C01C201B101A40193010E94BE283B01B9
:101850004C01C201B10129A53AA54BA55CA50E9486
:10186000BE289B01AC01A60CB71CC81CD91C29A81A
:101870003AA84BA85CA8C201AA27BB27A80EB91E8C
:10188000CA1EDB1EA614B704C804D90420F42050D5
:1018900030404F4F5F4FC601AA27BB27820F931FCF
:1018A000A41FB51F2DA53EA54FA558A92817390778
:1018B0004A075B0718F182179307A407B507A1F53C
:1018C0006501BB24AA2489A99AA9ABA9BCA9A070C7
:1018D000B070A80EB91ECA1EDB1E8DA99EA9AFA9A5
:1018E000B8AD09AC04C0880F991FAA1FBB1F0A948A
:1018F000D2F78A159B05AC05BD05B0F40894E10844
:10190000F1080109110910C0AA24BB246501EE24C5
:10191000FF2487010CC0AA24BB24650181E0E82EC6
:10192000F12C012D112D03C0AA24BB246501FE0159
:10193000B19688E0DF011D928A95E9F7E9A2FAA243
:101940000BA31CA3ADA2BEA2CFA2D8A62E2D3AA156
:101950004BA15CA16A2D7EA18FA198A521962CACEC
:101960003DAC4EAC5FAC21972114310441045104CD
:1019700009F456C02195E1E0121608F0E0E0319537
:10198000F1E0131608F0F0E0032F0E1BE1E0301732
:1019900008F0E0E0FE2B4195E1E0141608F0E0E0ED
:1019A000142F1F1B31E0411708F030E0E32B519555
:1019B000F1E0151608F0F0E0B52FBE1B31E05B1723
:1019C00008F030E0F32B6195E1E0161608F0E0E056
:1019D000A62EAF1A31E06A1508F030E0E32B7195BE
:1019E000F1E0171608F0F0E0A72FAE1B31E07A17F0
:1019F00008F030E0F32B8195E1E0181608F0E0E004
:101A0000382E3F1AF32D31E0831508F030E0E32B38
:101A10009195302F412F5B2F6A2D7A2F8F2F9E1B90
:101A2000C45BDF4FE2E10C944229A0E2B0E0EBE1BD
:101A3000FDE00C94262969837A838B839C832D8314
:101A40003E834F835887CE010196BE01675F7F4F6B
:101A50000E949710CE010596BE016F5E7F4F0E94D7
:101A600097109985923078F089898230C0F094304F
:101A700019F4823041F4CBC0843019F4923079F4F7
:101A8000C6C0923051F481E02A859A89291709F459
:101A900080E08A87CE010996BCC0823051F481E093
:101AA0002A859A89291709F480E08A8BCE0141960C
:101AB000B0C06D847E848F849888ED88FE880F89FD
:101AC000188DE0E2F0E080E090E0DC01AA24BB2485
:101AD000650120E030E0A901B3016170707061150B
:101AE0007105D1F02E0D3F1D401F511F150126011C
:101AF000280E391E4A1E5B1E81E090E0A0E0B0E097
:101B00002E153F054007510718F080E090E0DC01FA
:101B1000820D931DA41DB51DAA0CBB1CCC1CDD1C85
:101B200017FF09C061E0262E312C412C512CA22830
:101B3000B328C428D528319749F0EE0CFF1C001FAC
:101B4000111F9694879477946794C6CF6B897C898C
:101B5000EB85FC856E0F7F1F6E5F7F4F7C8F6B8FD9
:101B600061E0EA857A89E71709F460E06A8F6B8D96
:101B70007C8D10C0FC01E170F070309729F0569513
:101B80004795379527955068B695A795979587956A
:101B90006F5F7F4FB7FDEECF0CC0880F991FAA1F54
:101BA000BB1F57FD8160220F331F441F551F61501B
:101BB00070408030E0E09E07E0E0AE07E0E4BE0762
:101BC00060F36B8F7C8F6FE7E62EF12C012D112DCA
:101BD000E822F9220A231B2360E4E616F10401053A
:101BE000110561F487FD0AC0211531054105510534
:101BF00029F0805C9F4FAF4FBF4F80788D8F9E8FB5
:101C0000AF8FB8A383E0898FCE01499602C08CE6DE
:101C100093E00E94C90FA096E2E10C944229A8E14A
:101C2000B0E0E5E1FEE00C942E2969837A838B8392
:101C30009C832D833E834F8358878E01075F1F4F00
:101C4000CE010196B8010E94971081E1E82EF12C97
:101C5000EC0EFD1ECE010596B7010E9497109985E6
:101C6000923008F483C08989823008F47BC02A85C9
:101C70003A8923272A87943011F0923021F498175B
:101C800009F06CC071C0843039F41D861E861F8631
:101C9000188A1C861B866AC0823019F484E0898702
:101CA00065C08B859C852B893C89821B930B9C8707
:101CB0008B872D853E854F855889ED88FE880F8955
:101CC000188D2E153F054007510738F4220F331F9A
:101CD000441F551F01979C878B876FE170E0A12CF3
:101CE000B12CC12CA0E4DA2E80E090E0DC012E15AE
:101CF0003F054007510740F08A299B29AC29BD299F
:101D00002E193F09400B510BD694C794B794A79452
:101D1000220F331F441F551F6150704041F76FE77A
:101D2000E62EF12C012D112DE822F9220A231B2386
:101D300060E4E616F1040105110561F487FD0AC0AF
:101D4000211531054105510529F0805C9F4FAF4FAA
:101D5000BF4F80788D879E87AF87B88B8E01075FD6
:101D60001F4F04C0870102C00CE613E0C8010E94A7
:101D7000C90F6896EAE00C944A29A8E0B0E0E3ECC9
:101D8000FEE00C9432297B018C0183E08983D80129
:101D9000C7018827B7FD83959927AA27BB27282F36
:101DA0008A83E114F1040105110519F482E08983A5
:101DB00037C08EE190E09C838B83222389F080E002
:101DC000E81680E0F80680E0080780E8180769F167
:101DD00010950095F094E094E11CF11C011D111D7B
:101DE000ED82FE820F831887C801B7010E946F0F32
:101DF0009C01215030401216130694F4022E04C0A8
:101E0000EE0CFF1C001F111F0A94D2F7ED82FE8218
:101E10000F8318878EE190E0821B930B9C838B834A
:101E2000CE0101960E94C90F04C060E070E080E01E
:101E30009FEC2896E6E00C944E29ACE0B0E0E3E29B
:101E4000FFE00C94362969837A838B839C83CE01CF
:101E50000196BE016B5F7F4F0E9497108D8182308B
:101E600081F1823070F1843021F48E81882369F110
:101E70000AC02F81388537FD24C06E812F3131058E
:101E80003CF0662311F120E030E040E050E821C052
:101E90008EE190E0821B930B29853A854B855C850A
:101EA00004C056954795379527958A95D2F76623AE
:101EB00081F050954095309521953F4F4F4F5F4FA2
:101EC00008C020E030E0A90104C02FEF3FEF4FEF42
:101ED0005FE7B901CA012C96E2E00C945229AF9257
:101EE000BF92CF92DF92EF92FF920F931F937B01ED
:101EF0008C0180E0E81680E0F80681E0080780E0C9
:101F0000180758F4EFEFEE16F1040105110509F07A
:101F100090F480E090E0DC0117C0F0E0EF16F0E014
:101F2000FF06F0E00F07F1E01F0750F480E190E0BA
:101F3000A0E0B0E009C088E090E0A0E0B0E004C01C
:101F400088E190E0A0E0B0E020E230E040E050E046
:101F5000281B390B4A0B5B0B5701680104C0D69450
:101F6000C794B794A7948A95D2F7D601C5018C5827
:101F70009C4FFC018081281B310941095109C9018D
:101F80001F910F91FF90EF90DF90CF90BF90AF9097
:101F90000895EF92FF920F931F93CF93DF93FC016D
:101FA000248135814681578161818081823020F48E
:101FB0004061EFEFF0E0A3C0843009F49BC08230B1
:101FC00009F492C0211531054105510509F48FC06E
:101FD0000280F381E02D8FEFE238F8070CF05AC051
:101FE000C2E8DFEFCE1BDF0BCA31D1056CF57901FA
:101FF0008A010C2E04C016950795F794E7940A946D
:10200000D2F781E090E0A0E0B0E00C2E04C0880F91
:10201000991FAA1FBB1F0A94D2F70197A109B10902
:1020200082239323A423B52321E030E040E050E055
:102030000097A105B10519F420E030E0A9012E298F
:102040003F29402B512B03C020E030E0A901DA01E9
:10205000C9018F779070A070B07080349105A10590
:10206000B10539F427FF09C0205C3F4F4F4F5F4F48
:1020700004C0215C3F4F4F4F5F4FE1E0F0E0203064
:1020800080E0380780E0480780E4580728F5E0E062
:10209000F0E022C0E038F1056CF5E158FF4FDA01BD
:1020A000C9018F779070A070B07080349105A10540
:1020B000B10539F427FF09C0205C3F4F4F4F5F4FF8
:1020C00004C0215C3F4F4F4F5F4F57FF05C05695EF
:1020D000479537952795319687E0569547953795DB
:1020E00027958A95D1F70BC0E0E0F0E005C0E0E06D
:1020F000F0E005C0EFEFF0E020E030E0A9018E2F26
:10210000879588278795942F9F776795662767958A
:10211000E695E22EA92FA82BFE2FF62B622F732F08
:102120008A2F9F2FCDB7DEB7E6E00C944E29DC0155
:10213000FB012C9111963C91119712968C9112975C
:10214000482F4F7750E0982F991F9927991F139682
:102150006C911397862F880F892B90E0661F662756
:10216000661F6183009739F5211531054105510539
:1021700011F482E029C082E89FEF9383828367E0B5
:10218000220F331F441F551F6A95D1F783E08083C8
:1021900009C0220F331F441F551F8281938101976D
:1021A00093838283203080E0380780E0480780E412
:1021B000580778F320C08F3F910579F42115310538
:1021C0004105510519F484E08083089544FF03C05C
:1021D00081E0808310C010820EC08F57904093839F
:1021E000828383E0808387E0220F331F441F551FC3
:1021F0008A95D1F7506424833583468357830895A5
:10220000BC01DC010D900020E9F7AD0141505040C8
:10221000481B590BE0913405F09135050280F3819C
:10222000E02D84E395E0099508950F931F93DF93C4
:10223000CF93CDB7DEB7A0970FB6F894DEBF0FBE31
:10224000CDBF04E714E007C0F80180810E5F1F4F87
:1022500061E00E948115F4E00C391F07A9F783E2C1
:1022600097E040E051EE60E070E00E94341983E2B4
:1022700097E060E071E00E949E1683E297E063E1E0
:1022800071E00E949E1668EC70E080E090E00E9491
:10229000F21482E497E040E05BE460E070E00E94CA
:1022A000341984E395E062E477E040E050E00E9476
:1022B000DB27882331F483E297E067EA70E00E942D
:1022C0008B1684E395E00E94C2258A309105A1F027
:1022D00083E297E067E371E00E949E1684E395E055
:1022E0006AE070E00E94482784E395E00E94EF26B0
:1022F00084E395E00E94B02784E395E00E940628DD
:10230000882329F483E297E067E671E004C083E262
:1023100097E066E871E00E949E1684E395E08E01E6
:102320000F5F1F4FB80140E250E00E94D02483E2CB
:1023300097E06FE971E00E946B1683E297E0B801C5
:102340000E946B1683E297E065EA71E00E946B16CB
:1023500084E395E0B8010E943128882329F083E2C4
:1023600097E06BEA71E004C083E297E061EB71E013
:102370000E949E1684E395E060E00E943C2784E37F
:1023800095E069EC71E00E94172784E395E062E034
:102390000E94392784E395E00E9498242DE08A3931
:1023A0009207D1F084E395E06AE97DE00E9422275C
:1023B00084E395E00E94EF2683E297E068ED71E008
:1023C0000E949E1684E395E00E94B02768EB7BE0B4
:1023D00080E090E00E94F21483E297E06BE272E00A
:1023E0000E949E16A0960FB6F894DEBF0FBECDBF1A
:1023F000CF91DF911F910F91089561E00E94C61562
:10240000089560E00E94C6150895CF93DF93C4E756
:10241000D4E004C0899199910E94011284E0CC39E2
:10242000D807C1F7DF91CF910895CF93DF932DB7F0
:102430003EB7285030400FB6F8943EBF0FBE2DBFB8
:10244000EDB7FEB73196C5EFD5E0ADB7BEB7129682
:10245000DC93CE93119727E332E0338322836483A6
:102460007583868397830E94A2292DB73EB7285F84
:102470003F4F0FB6F8943EBF0FBE2DBFCE01DF9188
:10248000CF910895EF92FF920F931F93CF93DF9315
:102490008AE392E00E94001180918A05882319F056
:1024A00085E492E009C080918B05882319F08FE4C0
:1024B00092E002C089E592E00E94001181E692E07C
:1024C0000E94001189E692E00E94001160918F0540
:1024D00070919005882777FD8095982F0E9415129E
:1024E0000E9400118BE692E00E9400118EE692E0BD
:1024F0000E94001189E692E00E940011C0918D05B2
:10250000D0918E05BE01882777FD8095982F0E9477
:10251000BD0E7B018C0160918A0470918B04882729
:1025200077FD8095982F0E94BD0E9B01AC01C801DC
:10253000B7010E940F0E20E030E048EC52E40E9408
:10254000150D262F372F482F592F209393053093A1
:10255000940540939505509396050E941D0F709326
:1025600092056093910583E297E0BE014AE050E056
:102570000E948D1760918A0470918B0483E297E02A
:102580004AE050E00E948D1783E297E069E772E02D
:102590000E946B16609191057091920583E297E01D
:1025A0004AE050E00E948D1760919105709192056C
:1025B000882777FD8095982F0E9415120E940011A0
:1025C0008CE892E00E94001180E992E00E940011E4
:1025D000DF91CF911F910F91FF90EF90089560913F
:1025E000880470918904882777FD8095982F0E9430
:1025F000F21480918A05882309F471C080918C05BA
:102600008823C1F481E080938C0583E297E062E93E
:1026100072E00E946B1660918F057091900583E2C5
:1026200097E04AE050E00E948D17E0918F05F0910D
:10263000900531C080918D0590918E0520918A047E
:1026400030918B04821793077CF110928E051092C3
:102650008D05E0918F05F0919005EE0FFF1FEC586E
:10266000FB4F808191810E94011280918F05909192
:10267000900501969093900580938F0520918C048E
:1026800030918D048217930729F410928A051092D5
:102690008C0525C0FC01EE0FFF1FEC58FB4F80811D
:1026A00091810E94FD111BC0019690938E0580932D
:1026B0008D0564E670E00E94DD28009781F483E2D6
:1026C00097E062EA72E00E946B1660918D0570914E
:1026D0008E0583E297E04AE050E00E948D1784E384
:1026E00095E00E94641F181619060CF0EFC00E94B6
:1026F000BE146093E7057093E8058093E905909315
:10270000EA0583E297E067EB72E00E949E1684E39D
:1027100095E067E975E040E550E024EF31E00E9484
:10272000EB2183E297E06BEC72E00E946B1683E290
:1027300097E067E975E00E949E1687E995E064EAF4
:1027400070E042E050E00E946B29009709F06BC0F6
:1027500083E297E068ED72E00E949E1683EF92E0BC
:102760000E94001187E995E06BE970E048E050E0D5
:102770000E946B29009759F480918B05882321F4DE
:1027800081E080938A0578C08AEF92E073C087E980
:1027900095E062E970E048E050E00E946B29009704
:1027A00089F40E94051210928A0510928C051092ED
:1027B0008E0510928D051092900510928F05109243
:1027C0008B055AC087E995E069E870E048E050E081
:1027D0000E946B29009741F410928A050E9405120D
:1027E00081E080938B0548C087E995E060E870E060
:1027F00048E050E00E946B29009791F410928B05FD
:1028000081E080938A05E0918F05F0919005EE0FAD
:10281000FF1FEC58FB4F808191810E94FD112CC05D
:1028200086E093E027C087E995E06CE770E043E03D
:1028300050E00E946B29009719F40E9442121CC0BC
:1028400083E297E06BE073E00E946B1683E297E00F
:1028500067E975E00E949E1684E395E064EF71E0FD
:102860000E94242083E297E06EE173E00E949E16AE
:1028700086E393E00E9400110E94BE146093EB0572
:102880007093EC058093ED059093EE0583E297E05D
:102890006BE373E00E946B164091EB055091EC05E1
:1028A0006091ED057091EE058091E7059091E80546
:1028B000A091E905B091EA05481B590B6A0B7B0B07
:1028C00083E297E02AE030E00E94701708950F93AA
:1028D0008FEE95E060E040E020E000E00E94BA1B4F
:1028E00084E395E00E94B41D0F9108951F920F920A
:1028F0000FB60F9211242F933F938F939F93AF9313
:10290000BF9380910E0690910F06A0911006B09192
:102910001106309112060196A11DB11D232F2D5FC6
:102920002D3720F02D570196A11DB11D20931206C1
:1029300080930E0690930F06A0931006B093110695
:1029400080910A0690910B06A0910C06B0910D069D
:102950000196A11DB11D80930A0690930B06A093CA
:102960000C06B0930D06BF91AF919F918F913F914F
:102970002F910F900FBE0F901F9018958FB7F8945E
:1029800020910E0630910F064091100650911106CD
:102990008FBFB901CA0108959FB7F89420910A0624
:1029A00030910B0640910C0650910D0686B5A89B00
:1029B00006C08F3F21F02F5F3F4F4F4F5F4F9FBFAC
:1029C000542F432F322F2227280F311D411D511D17
:1029D00082E0220F331F441F551F8A95D1F7B9019A
:1029E000CA010895EF92FF920F931F93CF93DF9345
:1029F0007B018C010E94CC14EB010FC00E94CC140F
:102A00006C1B7D0B83E0683E780738F00894E10882
:102A1000F10801091109C851DC4FE114F104010565
:102A2000110561F7DF91CF911F910F91FF90EF900A
:102A30000895789484B5826084BD84B5816084BD36
:102A400085B5826085BD85B5816085BDEEE6F0E027
:102A5000808181608083E1E8F0E010828081826083
:102A60008083808181608083E0E8F0E08081816004
:102A70008083E1EBF0E0808184608083E0EBF0E034
:102A8000808181608083EAE7F0E0808184608083D8
:102A90008081826080838081816080838081806882
:102AA00080831092C1000895833071F0843028F43F
:102AB0008130A1F0823021F514C08630B1F087302A
:102AC000D1F08430E9F404C0809180008F7703C096
:102AD000809180008F7D80938000089584B58F77EA
:102AE00002C084B58F7D84BD08958091B0008F773A
:102AF0008093B00008958091B0008F7D8093B000E6
:102B00000895EF92FF92CF93DF9390E0FC01ED5C8C
:102B1000FE4F44918D5E9E4FFC018491882389F184
:102B200090E0880F991FFC01EB50FF4F25913491E5
:102B3000D90181509F4FFC0125913491E22EE7018C
:102B40007E01F32EE701662349F49FB7F8948C9138
:102B5000409584238C93888184230BC0623059F480
:102B60009FB7F8948C91242F209582238C93888191
:102B7000842B888305C09FB7F8948C91842B8C9309
:102B80009FBFDF91CF91FF90EF9008950F931F9318
:102B9000DF93CF930F92CDB7DEB7282F30E0F90146
:102BA000ED5AFE4F8491F901ED5CFE4F14912D5EBC
:102BB0003E4FF90104910023D9F0882321F0698365
:102BC0000E9454156981E02FF0E0EE0FFF1FE150E5
:102BD000FF4F85919491DC019FB7F894662321F40F
:102BE0008C911095812302C08C91812B8C939FBF77
:102BF0000F90CF91DF911F910F910895CF93DF93A5
:102C00000E9419150E941511CDEAD8E10E94EF1219
:102C10002097E1F30E94AD18F9CFCF92DF92EF92A7
:102C2000FF920F931F93CF93DF936C017B018A0177
:102C3000C0E0D0E00FC0D7016D917D01D601ED91CC
:102C4000FC910190F081E02DC6010995C80FD91FB4
:102C5000015010400115110571F7CE01DF91CF91A0
:102C60001F910F91FF90EF90DF90CF900895DB01BF
:102C70000D900020E9F7AD0141505040461B570B25
:102C8000DC01ED91FC910280F381E02D099508951E
:102C9000EF92FF920F931F93CF93DF937C01062F48
:102CA000172FC0E0D0E0F8010F5F1F4F649166233B
:102CB00051F0F701A081B181ED91FC91C701099517
:102CC000C80FD91FF0CFCE01DF91CF911F910F9187
:102CD000FF90EF9008950E9437160895DC01ED9162
:102CE000FC910190F081E02D099508950F931F93B9
:102CF000CF93DF93EC016DE00E946E168C01CE0144
:102D00006AE00E946E16080F191FC801DF91CF916B
:102D10001F910F9108950F931F93CF93DF93EC01B1
:102D20000E9448168C01CE010E947616080F191FCA
:102D3000C801DF91CF911F910F9108950F931F93B9
:102D4000CF93DF93EC010E9437168C01CE010E94D5
:102D50007616080F191FC801DF91CF911F910F91AF
:102D600008950F931F93CF93DF93EC010E946E168B
:102D70008C01CE010E947616080F191FC801DF9141
:102D8000CF911F910F9108958F929F92AF92BF9212
:102D9000CF92DF92EF92FF920F931F93DF93CF9327
:102DA000CDB7DEB7A1970FB6F894DEBF0FBECDBF8B
:102DB0006C01042FE52FCB01122F19A2223008F449
:102DC0001AE021E2E22EF12CEC0EFD1E812E992458
:102DD000AA24BB2403C0022FE32FCA01602F7E2F39
:102DE000A50194010E94F028129F802D1124081B38
:102DF0000894E108F1080A3014F4005D01C0095C90
:102E0000F7010083211531054105510521F7C60160
:102E1000B7010E943716A1960FB6F894DEBF0FBE19
:102E2000CDBFCF91DF911F910F91FF90EF90DF9079
:102E3000CF90BF90AF909F908F900895211531054E
:102E400049F4DC01ED91FC910190F081E02D642FBB
:102E5000099508950E94C41608959A01462F50E0DE
:102E600060E070E00E941E170895CF92DF92EF920B
:102E7000FF920F931F93CF93DF93EC017A018B01A5
:102E80002115310541F4E881F9810190F081E02DAF
:102E9000642F09951AC02A303105A9F477FF12C0B2
:102EA0006DE20E946E166C0144275527BA014E1937
:102EB0005F09600B710BCE012AE00E94C416C80E98
:102EC000D91E04C02AE00E94C4166C01C601DF911D
:102ED000CF911F910F91FF90EF90DF90CF900895C9
:102EE0000F931F93CF93DF93EC010E9435178C0152
:102EF000CE010E947616080F191FC801DF91CF91ED
:102F00001F910F9108959A01FB01AF01662757FDAC
:102F10006095762F0E94351708950F931F93CF93D6
:102F2000DF93EC019A01CB01AC01662757FD609558
:102F3000762FCE010E9435178C01CE010E947616A5
:102F4000080F191FC801DF91CF911F910F910895AC
:102F5000FC0184859585FC01E05CFF4F2081318177
:102F60008E5B9F4FFC0180819181281B390B2F7351
:102F70003070C9010895FC0184859585FC01E05CF1
:102F8000FF4F40815181FC01EE5BFF4F2081318179
:102F90004217530741F00190F081E02DE80FF91F2F
:102FA000208130E002C02FEF3FEFC9010895FC01FE
:102FB00084859585FC01E05CFF4F40815181FC01D7
:102FC000EE5BFF4F208131814217530771F0A081E2
:102FD000B181A80FB91F2C918081918101968F73C7
:102FE00090709183808330E002C02FEF3FEFC901E2
:102FF0000895DC011E968D919C911F97FC01E05C69
:10300000FF4F8E5B9F4F40815181DC012D913C91A0
:10301000119742175307B9F70895FC0126853785A4
:10302000D901A05CBF4F8D919C9101968F739070D8
:10303000D901AE5BBF4F4D915C91119784179507F5
:10304000D1F3D901A05CBF4F0D90BC91A02DA20F70
:10305000B31F6C93A685B785A05CBF4F11969C9358
:103060008E93A689B7892C9181E090E0058C02C0EF
:10307000880F991F0A94E2F7282B2C9381E090E0A7
:103080000895FB01E05CFF4F208131812F5F3F4FAE
:103090002F733070DB01AE5BBF4F4D915C91119788
:1030A0002417350739F0A081B181A60FB71F8C9383
:1030B00031832083089508951F920F920FB60F92C7
:1030C00011242F933F934F935F936F937F938F932D
:1030D0009F93AF93BF93EF93FF938091C60063E1FB
:1030E00076E00E944118FF91EF91BF91AF919F91BF
:1030F0008F917F916F915F914F913F912F910F90A1
:103100000FBE0F901F90189508951F920F920FB643
:103110000F9211242F933F934F935F936F937F935D
:103120008F939F93AF93BF93EF93FF938091CE00C4
:103130006BE976E00E944118FF91EF91BF91AF914A
:103140009F918F917F916F915F914F913F912F91BF
:103150000F900FBE0F901F90189583E297E00E948A
:10316000A817009711F00E945B1882E497E00E9474
:10317000A817009711F00E94841808951F920F92CB
:103180000FB60F9211242F933F938F939F93EF933A
:10319000FF9320919706309198068091990690911F
:1031A0009A062817390731F48091C1008F7D8093EA
:1031B000C10014C0E0919906F0919A06E95AF94FBE
:1031C00020818091990690919A0601968F73907054
:1031D00090939A06809399062093C600FF91EF91F1
:1031E0009F918F913F912F910F900FBE0F901F9045
:1031F00018951F920F920FB60F9211242F933F93A1
:103200008F939F93EF93FF9320911F073091200797
:1032100080912107909122072817390731F4809176
:10322000C9008F7D8093C90014C0E0912107F091FF
:103230002207E152F94F20818091210790912207C6
:1032400001968F73907090932207809321072093AB
:10325000CE00FF91EF919F918F913F912F910F9011
:103260000FBE0F901F9018952F923F924F925F9232
:103270006F927F928F929F92AF92BF92CF92DF9286
:10328000EF92FF920F931F93DF93CF93CDB7DEB7EB
:1032900027970FB6F894DEBF0FBECDBF9F838E83F6
:1032A0004A835B836C837D8321E02983403081EEF8
:1032B000580780E0680780E0780729F51982AE8119
:1032C000BF815496ED91FC91559710828A819B8124
:1032D000AC81BD811C012D0120E834E84EE150E0B5
:1032E00060E070E080E090E051016201EE24FF2494
:1032F00000E010E00E944605022F0150E1E00217B5
:1033000008F497C095C0AE81BF815496ED91FC91B1
:10331000559781E090E05E960C9002C0880F991F4F
:103320000A94E2F780838A819B81AC81BD811C0174
:103330002D0120E039E04DE350E060E070E080E0F6
:1033400090E051016201EE24FF2400E010E00E94B1
:103350004605F22EFA94E1E0F21608F0E0E0232FA1
:10336000215001E0231708F000E02E2E220E31E05C
:10337000221608F030E0032B242F215011E02417EF
:1033800008F010E0020F31E0021708F030E0132BD4
:10339000252F2150B1E0251708F0B0E0120F31E0E1
:1033A000121708F030E0B32B262F2150A1E026178A
:1033B00008F0A0E0B20F31E0B21708F030E0A32B24
:1033C000272F2150F1E0271708F0F0E0A20F31E09D
:1033D000A21708F030E0F32B282F2150E1E0281746
:1033E00008F0E0E0F20F81E0F21708F080E0E82B4F
:1033F0009150E90F2F2D322DA8016B2F7A2F8F2F8F
:103400009E2FE7FF90C02F5F31E02F1508F030E0CE
:10341000320D41E0321508F040E0400F51E0401716
:1034200008F050E0510F61E0511708F46CC06AC019
:10343000E0E0232F215011E0231708F010E0FE2ECA
:10344000F20E31E0F21608F030E0132B342F315039
:1034500021E0341708F020E0130F41E0131708F0C3
:1034600040E0242B352F3150B1E0351708F0B0E0A3
:10347000222E230E21E0231608F020E0B22B262F67
:103480002150A1E0261708F0A0E0B20F31E0B217FA
:1034900008F030E0A32B272F2150F1E0271708F088
:1034A000F0E0A20F31E0A21708F030E0F32B282F54
:1034B0002150E1E0281708F0E0E0F20F81E0F21778
:1034C00008F080E0E82B9150E90F202F3F2D412F8D
:1034D000522D6B2F7A2F8F2F9E2FE7FF24C02F5F47
:1034E00031E0201708F030E03F0D41E03F1508F0D3
:1034F00040E0410F51E0411708F050E0520D61E00B
:10350000521508F060E06B0F71E06B1708F070E087
:103510007A0F81E07A1708F080E08F0F91E08F1723
:1035200008F090E09E0F01E00E94D504822F932FB7
:10353000A0E180309A0720F0B981BB2309F0BECE0C
:10354000AE81BF815096ED91FC9151979083529638
:10355000ED91FC91539780835696ED91FC9157978E
:10356000408181E090E09C015A960C905A9702C0ED
:10357000220F331F0A94E2F7422B40835696ED91B7
:10358000FC91579740819C015B960C905B9702C021
:10359000220F331F0A94E2F7422B40835696ED9197
:1035A000FC91579740819C015C960C905C9702C0FF
:1035B000220F331F0A94E2F7422B40835696ED9177
:1035C000FC91579720815D960C905D9702C0880F03
:1035D000991F0A94E2F780958223808327960FB67D
:1035E000F894DEBF0FBECDBFCF91DF911F910F9139
:1035F000FF90EF90DF90CF90BF90AF909F908F9013
:103600007F906F905F904F903F902F9008951F9301
:10361000109226071092250788EE93E0A0E0B0E014
:103620008093270790932807A0932907B0932A0730
:10363000E5E2F7E022E934E03293229343E156E0F9
:103640005587448747E556E05787468745EC50E065
:10365000518B408B44EC50E0538B428B40EC50E05C
:10366000558B448B41EC50E0578B468B46EC50E039
:10367000518F408F14E0128F73E0738F67E0648F77
:1036800055E0558F41E0468F109245071092440750
:103690008093460790934707A0934807B093490744
:1036A000E4E4F7E0329322938BE996E095878487F0
:1036B0008FED96E0978786878DEC90E0918B808BDD
:1036C0008CEC90E0938B828B88EC90E0958B848BD4
:1036D00089EC90E0978B868B8EEC90E0918F808FB9
:1036E000128F738F648F558F468F1F9108958F921D
:1036F0009F92AF92BF92CF92DF92EF92FF920F9381
:103700001F93CF93DF934C017B0182E0A82EB12C55
:10371000A80CB91CC0E0D0E0CC24DD24F5016191F7
:103720005F01C7014AE050E00E942D178C01C701DC
:103730006EE20E946E16080F191FC00ED11E219650
:10374000C330D10559F7C701F40165814AE050E063
:103750000E942D17C80ED91EC601DF91CF911F916F
:103760000F91FF90EF90DF90CF90BF90AF909F9020
:103770008F9008950F93FC0182EA94E091838083F7
:1037800062834383248305830F91089582EA94E042
:103790009093620780936107109263071092640709
:1037A00010926507109266070895DC011C968D91B2
:1037B0009C911D97DC01ED91FC910680F781E02D35
:1037C00009950895DC011C968D919C911D97DC0153
:1037D000ED91FC910480F581E02D09950895DC01BF
:1037E0001C968D919C911D97DC01ED91FC910284BA
:1037F000F385E02D09950895DC011C968D919C912F
:103800001D97DC01ED91FC910084F185E02D099577
:1038100008952F923F924F925F926F927F928F9274
:103820009F92AF92BF92CF92DF92EF92FF920F934F
:103830001F93DF93CF93CDB7DEB760970FB6F894A1
:10384000DEBF0FBECDBF6B017C01590118014E01D7
:103850000894811C911C4A3021F500E010E09AE0A8
:10386000492E512C612C712C02C069017A01C701CB
:10387000B601A30192010E94F0288C2D805D622F79
:10388000660F962F990F990F960F891BF40181935C
:103890004F010F5F1F4F211531054105510529F7D4
:1038A00032C0F40100E010E0D701C6018F709070C3
:1038B000A070B070282F8A309105A105B10510F4D1
:1038C00080E301C081E4820F81930F5F1F4F84E08A
:1038D000F694E794D794C7948A95D1F7C114D1048C
:1038E000E104F10409F7CE010196FC01E00FF11F9C
:1038F00028E720830F5F1F4F800F911F20E3FC01FB
:1039000020830F5F1F4FFE013196E00FF11FD5019D
:1039100020E030E008942108310882918D932F5FD8
:103920003F4FC801821B930B181619061CF4221571
:1039300033059CF3F501E20FF31F1082C901609675
:103940000FB6F894DEBF0FBECDBFCF91DF911F91B0
:103950000F91FF90EF90DF90CF90BF90AF909F902E
:103960008F907F906F905F904F903F902F90089531
:103970000F931F93FC0100E020E030E0A90155C047
:10398000812F80538A30C0F4DA01C90144E0880FE6
:10399000991FAA1FBB1F4A95D1F7212F332727FD57
:1039A0003095432F532F2053304040405040280F34
:1039B000391F4A1F5B1F39C0812F81568630A0F402
:1039C000CA01B90134E0660F771F881F991F3A9525
:1039D000D1F7212F332727FD3095432F532F27551C
:1039E00030404040504017C0812F81548630C0F491
:1039F000CA01B90124E0660F771F881F991F2A9515
:103A0000D1F7212F332727FD3095432F532F2753ED
:103A1000304040405040260F371F481F591F05C0F7
:103A2000183739F4002329F401E01191112309F02A
:103A3000A7CFB901CA011F910F910895EF92FF928C
:103A40001F93CF93DF93E82EE7017E01F92EE70164
:103A500020E030E0A9011AC0812F80538A30C8F4D9
:103A6000CA01B9012AE030E040E050E00E94BE28DF
:103A7000212F332727FD3095432F532F20533040DC
:103A800040405040260F371F481F591F19911123DE
:103A900019F7B901CA01DF91CF911F91FF90EF9003
:103AA0000895DC01AE5ABF4F2D913C911197FC0156
:103AB000EC5AFF4F40815181241735076CF4FC010B
:103AC000E05BFF4F0190F081E02DE20FF31F608378
:103AD0002F5F3F4F2D933C93CF96FC01A081B18186
:103AE000ED91FC9111970190F081E02DCD010995A8
:103AF000089520918007222369F4FC01FF968081BC
:103B00009181DC01ED91FC910084F185E02D099516
:103B10009C0109C0E0918107F0E0EE57F84F208149
:103B2000332727FD3095C9010895FC01FF96808158
:103B30009181DC01ED91FC910284F385E02D0995E2
:103B40000895FC01A485B585109751F0ED91FC9185
:103B500011970190F081E02DCD0109959C0102C0E3
:103B600020E030E0C9010895FC011382128228EEA2
:103B700033E040E050E0248335834683578388EB6D
:103B800094E091838083DF01AD5BBF4F1D921C9257
:103B9000DF01AB5BBF4F2D933D934D935C93139728
:103BA000DF01AF5BBF4F88EA94E08D939C93DF0108
:103BB000A35BBF4F1D921C9215861786168617AA07
:103BC00010AE81E0808B818B1486DF01A05BBF4F3C
:103BD0001D921C92DF01AE5ABF4F11961C921E928D
:103BE000EC5AFF4F1182108208950E946B160895BF
:103BF000DC01ED91FC910190F081E02D0995089593
:103C00000E94481608956F927F928F929F92AF9272
:103C1000BF92CF92DF92EF92FF920F931F93CF93B9
:103C2000DF93EC013B018A010E94BE144B015C0151
:103C30006801EE24FF248E01015C1F4F6CC0D80187
:103C40008D919C91DC01ED91FC910480F581E02D3A
:103C50000995181619060CF05EC0F8018081918153
:103C6000DC01ED91FC910680F781E02D0995C82ECD
:103C7000F3018083DE01AE5ABF4F8D919C91119765
:103C8000FE01EC5AFF4F20813181821793076CF4BB
:103C9000FE01E05BFF4F0190F081E02DE80FF91F7E
:103CA000C082019611969C938E938C85882309F48B
:103CB00049C08E010F5B1F4F60917E0770917F0797
:103CC000CB01019690937F0780937E07C8014AE05D
:103CD00050E00E948317C80167EE76E00E94481604
:103CE000CC2DDD27C7FDD095C801BE0140E150E0D5
:103CF0000E948317CE010E946529009741F0C801F8
:103D000060E20E946E16C8016C2D0E946E16C801FA
:103D10000E94761617C00E94BE14681979098A0994
:103D20009B096C157D058E059F0508F488CF8C8551
:103D3000882351F0CE018F5B9F4F6FEC76E00E949D
:103D40008B1602C081E001C080E0DF91CF911F910E
:103D50000F91FF90EF90DF90CF90BF90AF909F902A
:103D60008F907F906F900895DF92EF92FF920F9364
:103D70001F93CF93DF93EC01FB0120918007222357
:103D800001F1442319F0319691E001C090E0809157
:103D90008107890F13C03491332309F44BC0893054
:103DA00010F4A82F01C0A0E08F5FB0E0AE57B84F6D
:103DB0004C91431709F05DC031969F5F921758F3FD
:103DC00003C0442309F431968F010F5F1F4FD49035
:103DD000B1E4EB2EF12CEC0EFD1E36C080938A0769
:103DE000893010F010928A07809180078F5F80934E
:103DF0008007893008F43DC0CE018F5B9F4F65E39B
:103E000077E00E948B1635C080938A07893010F0C6
:103E100010928A07809180078F5F80938007893096
:103E200028F0C70169E177E00E948B16F801D49071
:103E3000DD2041F4109280071092810710928A07CA
:103E400081E018C00F5F1F4F60918A0770E06E57C6
:103E5000784FCE0144EF51E00E94031E80918A0703
:103E6000E82FF0E0EE57F84F90818F5F9D1561F2DB
:103E7000B5CF80E0DF91CF911F910F91FF90EF9030
:103E8000DF900895CF93DF93EC01462F6BE077E04E
:103E90000E94B41E882319F081E08FAB01C080E03E
:103EA000DF91CF910895CF93DF93EC01462F62E12C
:103EB00077E00E94B41E882319F01FAA81E001C098
:103EC00080E0DF91CF910895CF92DF92EF92FF9241
:103ED0000F931F93CF93DF93EC018C01015C1F4F75
:103EE000D8018D919C91DC01ED91FC910480F581CC
:103EF000E02D09956C01181619060CF049C08C8547
:103F00008823C1F081E4E82EF12CEC0EFD1EC701E0
:103F100068EF76E00E944816F80180819181DC010B
:103F2000ED91FC910084F185E02D0995682FC70182
:103F30000E94B1168E01015C1F4FF80180819181B2
:103F4000DC01ED91FC910084F185E02D09958A3228
:103F50009105F1F48FA9882339F0CE0161E00E9428
:103F6000531F8823D1F404C0CE0161E00E94421F98
:103F7000C0908007DD24F80180819181DC01ED9102
:103F8000FC910480F581E02D0995C80ED91E08C06A
:103F900080918007C80ED11C03C0CC24CA94DC2CAD
:103FA000C601DF91CF911F910F91FF90EF90DF90AD
:103FB000CF900895CF93DF93EC0180918007882301
:103FC00081F090918107E92FF0E0EE57F84F2081C2
:103FD00030E09F5F90938107993060F110928107E4
:103FE00029C0FE01FF9680819181DC01ED91FC9159
:103FF0000680F781E02D09959C018FA9882301F1A6
:104000002A323105E9F4CE0160E00E94531F882373
:10401000A9F480918107E82FF0E0EE57F84F208156
:1040200030E08F5F80938107893010F01092810714
:104030008091800781508093800702C02FEF3FEF6F
:10404000C901DF91CF910895CF92DF92EF92FF9255
:104050000F931F93DF93CF930F92CDB7DEB77C0101
:104060006B018E010F5F1F4FC701B801A6010E94AF
:10407000031E8823C9F70F90CF91DF911F910F91F5
:10408000FF90EF90DF90CF900895CB016EE677E040
:104090000E94882921E0009709F420E0822F0895EA
:1040A0006F927F928F929F92AF92BF92CF92DF9248
:1040B000EF92FF920F931F93DF93CF930F92CDB7A1
:1040C000DEB74C017B015A016115710549F1FB0115
:1040D0008081882329F18B016E010894C11CD11CB9
:1040E0003B010894611C711C13C08981F801908107
:1040F000891719F40F5F1F4F07C0F70190818917C7
:1041000011F4830101C08701F8018081882341F007
:10411000C401B601A5010E94031E882331F701C026
:1041200081E00F90CF91DF911F910F91FF90EF9061
:10413000DF90CF90BF90AF909F908F907F906F90C7
:1041400008952F923F924F925F926F927F928F923B
:104150009F92BF92CF92DF92EF92FF920F931F93A5
:10416000DF93CF930F92CDB7DEB76C017B011A01BD
:10417000FC018485882361F086010F5B1F4FC80115
:1041800065EC76E00E944816C801B7010E948B16C4
:10419000F701B490BB2039F187014E010894811CCE
:1041A000911C6B2C772427010894411C511C13C0CF
:1041B00089818B1519F40F5F1F4F09C0992787FD5F
:1041C00090958615970511F4820101C08701F801C9
:1041D000B490BB2041F0C601B401A1010E94031EAE
:1041E000882331F701C081E00F90CF91DF911F91BB
:1041F0000F91FF90EF90DF90CF90BF909F908F90A6
:104200007F906F905F904F903F902F9008952F92E6
:104210003F924F925F926F927F928F929F92AF9256
:10422000BF92CF92DF92EF92FF920F931F93DF9393
:10423000CF9300D00F92CDB7DEB74C013B01A42E37
:1042400029012DB63EB6242F30E0C901880F991FF1
:10425000820F931F2DB73EB7281B390B0FB6F8946A
:104260003EBF0FBE2DBF8DB79EB701968A839B833D
:10427000062F172DE82EF92EBB2491E4C92ED12C40
:10428000C80CD91C28C0F7011082F80180819181E7
:10429000F70192838183F40184858823A9F0C60104
:1042A00066EB76E00E944816C6016B2D4AE050E0AE
:1042B0000E942D17C60160E20E946E16F80160810F
:1042C0007181C6010E948B16B39423E030E0E20EA8
:1042D000F31E0E5F1F4FBA14B0F227C01196ED9176
:1042E000FC9112976491961769F0F901E080F180D2
:1042F0001296FC92EE921197F701649170E04617C6
:10430000570729F431961296FC93EE931197119664
:10431000ED91FC911297E49113962E5F3F4FEE239F
:10432000E1F08F5F8A1520F4D9CF8E010F5F1F4F08
:10433000C401B801A2010E94031E882369F099817B
:10434000492F552747FD5095262D372D6A818B81A2
:10435000A62FB82F80E0E6CF8FEF0FB6F8943EBEC1
:104360000FBE2DBE0F900F900F90CF91DF911F9138
:104370000F91FF90EF90DF90CF90BF90AF909F9004
:104380008F907F906F905F904F903F902F90089507
:10439000CF93DF93EC018D858823C9F0CE016BE8C4
:1043A00076E00E94001ECE0164E876E044EF51E022
:1043B0000E94A120882311F01D8609C0CE018F5BC9
:1043C0009F4F63E776E00E948B1680E001C081E09A
:1043D000DF91CF9108952F923F924F925F926F920B
:1043E0007F928F929F92BF92CF92DF92EF92FF9235
:1043F0000F931F93DF93CF930F92CDB7DEB72C01AE
:104400007B01490100E010E06E010894C11CD11C41
:104410006EEF262E6FEF362E240E351E3A010894CD
:10442000610871083BC0B9808B2D8D3051F5C201F8
:10443000B601A4010E94031E89818A3041F4E1146F
:10444000F104E9F1F701E00FF11F108238C0E11427
:10445000F104B9F0021513055CF4F701E00FF11F48
:10446000B0820F5F1F4FF701E00FF11F808307C07D
:104470000615170534F4F701E00FF11FB0820F5F46
:104480001F4F0615170554F4E114F10439F0F70134
:10449000E00FF11F898180830F5F1F4FC201B601BA
:1044A000A4010E94031E882309F0BDCFE114F1048A
:1044B00021F00E0D1F1DF801108200E010E0C80170
:1044C0000F90CF91DF911F910F91FF90EF90DF90B0
:1044D000CF90BF909F908F907F906F905F904F9004
:1044E0003F902F900895BF92CF92DF92EF92FF926C
:1044F0000F931F93DF93CF930F92CDB7DEB78C014D
:104500007E010894E11CF11C47C089818C3309F0BD
:1045100043C080936E077FE6E72E77E0F72EBB243B
:10452000B3946E010894C11CD11CC801B60144EFBC
:1045300051E00E94031E8823C9F18981F70181930C
:104540007F01B3948E3321F5C801B60144EF51E0E9
:104550000E94031E882351F18981803239F5EB2DA9
:10456000F0E0E259F84F8083B394EB2DF0E0E2598C
:10457000F84F108281E080936D07C80160E070E021
:1045800040E050E024EF31E00E94EB2181E00FC0D9
:10459000FB2DFC3051F60AC0C801B70144EF51E0D1
:1045A0000E94031E882309F0B0CF01C080E00F9065
:1045B000CF91DF911F910F91FF90EF90DF90CF90FF
:1045C000BF9008951F93CF93DF93EC01AB018091CF
:1045D0006D07882371F4CE010E947322182F88235F
:1045E00071F4CE018F5B9F4F65EA76E00E948B16D7
:1045F00006C0CE016EE677E00E945020182F812F72
:10460000DF91CF911F910895FF920F931F93CF9346
:10461000DF93EC018D85882309F06FC06AEF70E0AD
:1046200080E090E00E94F214CE0161EA76E00E9400
:10463000001E6AEF70E080E090E00E94F214CE016C
:104640006BE976E044EF51E00E94A1208823F9F065
:1046500080916D07882309F049C0E5E0FE2E8E01A8
:10466000015C1F4FF801A081B181ED91FC91119780
:104670000190F081E02DCD016DE00995CE0164EF50
:1046800071E00E94E222882389F5FA9459F7FE012D
:10469000FF96A081B181ED91FC9111970190F0817D
:1046A000E02DCD016DE00995CE0164EF71E00E942F
:1046B000E2228823D9F405E06AEF70E080E090E020
:1046C0000E94F214CE0167E976E00E94001E6AEFB4
:1046D00070E080E090E00E94F214CE0161E976E0A3
:1046E00044EF51E00E94A120882319F081E08D87DA
:1046F00005C0015009F780E001C081E0DF91CF9152
:104700001F910F91FF900895CF93DF93EC018D855A
:10471000882329F4CE010E940423882339F08E8552
:104720009F8501969F878E8781E001C080E0DF91A1
:10473000CF910895FC012685378521503040378779
:1047400026872115310519F40E94C821089581E0BA
:104750000895CF92DF92EF92FF920F931F93CF9322
:10476000DF93EC018B017A0169010E948423882385
:1047700049F1000F111F000F111F0C531B4FF801BF
:1047800060817181CE010E94001EF80162817381F7
:10479000CE0144EF51E00E94A120882381F0CE0198
:1047A000B701A60124EF31E00E94EB21CE0164EFB6
:1047B00071E00E94E222CE010E949A2307C0CE013E
:1047C0000E949A23F9E5EF2EF3E0FF2EC701DF9157
:1047D000CF911F910F91FF90EF90DF90CF900895B0
:1047E000CF92DF92EF92FF920F931F93DF93CF93BD
:1047F000CDB7DEB760970FB6F894DEBF0FBECDBF62
:104800008C010E948423882351F4C8018F5B9F4F41
:104810006BE576E00E948B16EE24FF2479C0C80178
:1048200063E576E00E94001EC8016E010894C11C79
:10483000D11CB60140E150E024EF31E00E94EB21B1
:104840007C01C801B6010E944520882351F0C801AF
:10485000B60140E150E024EF31E00E94EB217C0101
:1048600005C0C80164EF71E00E94E222CE0101960A
:1048700025E0E216F1042CF0970124503040820F1D
:10488000931F0E94B81C7B01862F8F70F80181AFA7
:10489000C70144E0969587954A95E1F7817082AF0C
:1048A000C70135E0969587953A95E1F7817083AF1A
:1048B000C70126E0969587952A95E1F7817084AF28
:1048C000C701880F892F881F990B9195817085AF3B
:1048D0008F2D86958F7086AFC8010E949A23F801AC
:1048E00091AD8485913049F497AB882389F0C80154
:1048F0008F5B9F4F6DE376E009C0F80117AA88230C
:1049000039F0C8018F5B9F4F64E276E00E948B16FE
:10491000C70160960FB6F894DEBF0FBECDBFCF9132
:10492000DF911F910F91FF90EF90DF90CF9008954E
:104930000F931F93DF93CF93CDB7DEB766970FB674
:10494000F894DEBF0FBECDBF60E070E08E010F5F58
:104950001F4FA80126E130E00E94A923009791F0A3
:1049600020E003C02F5F8A3331F0F801E20FF11D20
:1049700080818823B9F7CE010196820F911D0E9494
:104980001E1D02C060E070E0CB0166960FB6F89481
:10499000DEBF0FBECDBFCF91DF911F910F91089564
:1049A000FB019A0162E070E0AF010E94A923089523
:1049B000FF920F931F93DF93CF93CDB7DEB72B9763
:1049C0000FB6F894DEBF0FBECDBFF42E8E010F5F81
:1049D0001F4FA8012BE030E00E94A923009769F047
:1049E0008F2D8A3021F4C8010E941E1D03C0C8010A
:1049F0000E94B81C9B01AC0103C020E030E0A9017B
:104A0000B901CA012B960FB6F894DEBF0FBECDBF19
:104A1000CF91DF911F910F91FF900895AF92BF92B8
:104A2000CF92DF92EF92FF920F931F93DF93CF937A
:104A30000F92CDB7DEB78C017B015A0169010E944C
:104A400084238823B9F1C8016CE176E00E94001E3E
:104A5000C801B7010E94F51DC80161E673E00E941C
:104A6000F51DC801B70148E853E10E945020882392
:104A7000C9F0C801BE016F5F7F4F44EF51E00E9453
:104A8000031EC801B501A60124EF31E00E94EB210D
:104A9000C80164EF71E00E94E222C8010E949A23DB
:104AA00081E009C0C80164EF71E00E94E222C80100
:104AB0000E949A2380E00F90CF91DF911F910F9178
:104AC000FF90EF90DF90CF90BF90AF9008950F933D
:104AD0001F93DF93CF93CDB7DEB760970FB6F894EF
:104AE000DEBF0FBECDBF6CE070E08E010F5F1F4FC9
:104AF000A80120E130E00E94A9230097B9F1C80184
:104B000068E176E043E050E00E946B29009731F1C4
:104B1000C80165E176E042E050E00E946B29009711
:104B2000F9F0C8016EE076E046E050E00E946B29A3
:104B30000097C1F0C80168E076E045E050E00E94CF
:104B40006B29009789F0C80161E076E046E050E00B
:104B50000E946B29009751F484E009C080E007C0EF
:104B600081E005C082E003C083E001C08FEF609662
:104B70000FB6F894DEBF0FBECDBFCF91DF911F916E
:104B80000F9108956EE070E04AE00E94D824CB01B6
:104B90000895CF92DF92EF92FF920F931F93DF93CE
:104BA000CF9300D000D0CDB7DEB78C016B017A0176
:104BB0008AEC95E09A83898384EC95E09C838B83CF
:104BC000C801BE016F5F7F4F42E024EF31E00E94D9
:104BD00007218130E9F0882399F4C801B601A701C3
:104BE00024EF31E00E94EB210F5B1F4FC8016EEBF9
:104BF00075E00E944816C801B6010E949E1606C0C4
:104C0000C60164EB75E0A7010E94792980E001C02C
:104C100081E00F900F900F900F90CF91DF911F9137
:104C20000F91FF90EF90DF90CF9008958F929F9219
:104C3000AF92BF92CF92DF92EF92FF920F931F93AA
:104C4000DF93CF93CDB7DEB760970FB6F894DEBF92
:104C50000FBECDBF7C014B015A0169010E94842324
:104C6000882309F46EC0C701B4010E94001EC1145C
:104C7000D10441F1C70160E20E94F81D0023E9F070
:104C800086017FE4C72ED12CCE0CDF1C0FC0F701AC
:104C9000A081B181603231F4ED91FC91C701D60160
:104CA0006C9103C0ED91FC91C7010995F8010F5F6C
:104CB0001F4F6491662359F72EC0C701B6010E94A9
:104CC000001E29C0A114B10431F1C70160E20E94A5
:104CD000F81D0023E1F085016FE4C62ED12CCE0C27
:104CE000DF1C0FC0F701A081B181603231F4ED917A
:104CF000FC91C701D6016C9103C0ED91FC91C701F5
:104D00000995F80161918F01662361F704C0C7011D
:104D1000B5010E94F51DC7016DE00E94F81DC70195
:104D2000BE016F5F7F4F40E150E00E94C925082F10
:104D3000C70164EF71E00E94E222C7010E949A233A
:104D400001C000E0802F60960FB6F894DEBF0FBE62
:104D5000CDBFCF91DF911F910F91FF90EF90DF902A
:104D6000CF90BF90AF909F908F900895AF92BF92D9
:104D7000CF92DF92EF92FF920F931F93DF93CF9327
:104D8000CDB7DEB72B970FB6F894DEBF0FBECDBF01
:104D90006C015B01CA01B901402F7E010894E11C3E
:104DA000F11C97010BE010E00E94091CC601B5013F
:104DB000A70120E030E000E00E9416262B960FB6F7
:104DC000F894DEBF0FBECDBFCF91DF911F910F9141
:104DD000FF90EF90DF90CF90BF90AF9008951F931A
:104DE000CF93DF93EC010E9484238823D9F0CE0176
:104DF0006EEA75E00E94001ECE0166EA75E044EF9F
:104E000051E00E94A120882339F0CE0164EF71E0C7
:104E10000E94E22211E001C010E0CE010E949A231C
:104E2000812F01C080E0DF91CF911F9108950F93F2
:104E3000AB0167E675E020E030E000E00E94162656
:104E40000F9108950F939B0140E050E06AE275E0F6
:104E50000AE00E94B6260F9108950F93262F30E0A6
:104E600040E050E06AE874E000E10E94B6260F914D
:104E700008950E942D2708950F93262F30E040E0DB
:104E800050E068E174E000E10E94B6260F910895B9
:104E90000F939B0140E050E062E074E00AE00E9462
:104EA000B6260F9108956BE170E040E10E94D8248E
:104EB000862F08950F93CF93DF93EC011CAA1BAAB2
:104EC0001B8A6EEF77E040E050E020E030E000E049
:104ED0000E941626882339F4CE018F5B9F4F66EE21
:104EE00077E00E948B16CE0163ED77E040E050E062
:104EF00020E030E000E00E941626882339F4CE013D
:104F00008F5B9F4F66EB77E00E948B16CE0164EAC1
:104F100077E040E050E020E030E000E00E9416261C
:104F2000882339F4CE018F5B9F4F6AE877E00E94B7
:104F30008B16CE010E94F023CE010E9467258823A4
:104F400019F091E0843009F490E0988BCE010E9432
:104F50005327C15BDF4F8883DF91CF910F91089575
:104F6000CF93DF93EC010E948423882301F1CE01CB
:104F70006EE975E00E94001ECE0165E975E044EF20
:104F800051E00E94A120882321F4CE010E949A239F
:104F90000EC068E873E180E090E00E94F2141D8684
:104FA0001F861E86CE010E945A2781E001C080E044
:104FB000DF91CF910895CF93DF93EC01FC01E35B88
:104FC000FF4F51834083FC01FF96718360830E94F1
:104FD0000423882331F4CE018F5B9F4F6DE677E089
:104FE0000DC0CE010E945A27CE010E94C8218823FD
:104FF00049F4CE018F5B9F4F61E577E00E948B16ED
:1050000080E001C081E0DF91CF91089521E0FC01B3
:1050100082AD813009F020E0822F0895FF920F9336
:105020001F93F62E072F10E08F2D902F0E941E1D2C
:105030006F3F71058105910509F070F4EF2DF02F98
:10504000FE2E0F2F8191982F90539A30C8F38E32F5
:1050500019F41F5F133041F780E01F910F91FF900B
:105060000895DF92EF92FF920F931F93DF93CF93F8
:10507000CDB7DEB760970FB6F894DEBF0FBECDBFD9
:105080007C01162F072F0E940E28882381F4C70168
:10509000612F702F8E010F5F1F4FA80120E130E0BC
:1050A0000E940E25882309F44FC0D02E02C0D12EB5
:1050B000102FC7010E948423C70162ED72E00E9495
:1050C000001EC7016D2D712F0E94F51DC7016DE0F7
:1050D0000E94F81DC70169EC72E044EF51E00E94A4
:1050E000A120C70160E070E040E050E024EF31E033
:1050F0000E94EB21C70164EF71E00E94E222882345
:1051000001F1C70160EC72E048E853E10E94A12080
:105110008823B9F0C70160E070E040E050E024EF80
:1051200031E00E94EB21C70160E070E040E050E018
:1051300028E833E10E94EB21C7010E949A2381E015
:1051400004C0C7010E949A2380E060960FB6F894CD
:10515000DEBF0FBECDBFCF91DF911F910F91FF90AA
:10516000EF90DF9008950F9387E697E060E040E0CE
:1051700020E000E00E94BA1B0F910895629FD001C9
:10518000739FF001829FE00DF11D649FE00DF11D02
:10519000929FF00D839FF00D749FF00D659FF00DB1
:1051A0009927729FB00DE11DF91F639FB00DE11D9E
:1051B000F91FBD01CF011124089597FB092E072681
:1051C0000AD077FD04D02ED006D000201AF47095B6
:1051D00061957F4F0895F6F7909581959F4F0895BB
:1051E000A1E21A2EAA1BBB1BFD010DC0AA1FBB1FEB
:1051F000EE1FFF1FA217B307E407F50720F0A21B5D
:10520000B30BE40BF50B661F771F881F991F1A94C9
:1052100069F760957095809590959B01AC01BD01F3
:10522000CF010895AA1BBB1B51E107C0AA1FBB1FDA
:10523000A617B70710F0A61BB70B881F991F5A9522
:10524000A9F780959095BC01CD0108952F923F92CA
:105250004F925F926F927F928F929F92AF92BF9286
:10526000CF92DF92EF92FF920F931F93CF93DF9332
:10527000CDB7DEB7CA1BDB0B0FB6F894DEBF0FBE8F
:10528000CDBF09942A88398848885F846E847D84DC
:105290008C849B84AA84B984C884DF80EE80FD80DE
:1052A0000C811B81AA81B981CE0FD11D0FB6F89454
:1052B000DEBF0FBECDBFED010895EE0FFF1F0590BD
:1052C000F491E02D0994803209F0911145C2805289
:1052D0008F55E0F70895FB01DC014150504030F05C
:1052E0008D910590801919F40020B9F7881B990B4E
:1052F0000895FB01DC014150504048F005900D92AB
:105300000020C9F701C01D9241505040E0F70895B8
:10531000FB0151915523A9F0BF01DC014D914517C7
:105320004111E1F759F4CD010190002049F04D9170
:1053300040154111C9F3FB014111EFCF81E090E02D
:1053400001970895AEE0B0E0E8EAF9E20C94342960
:105350000D891E8986E08C831A8309838FEF9FE76E
:105360009E838D839E01275E3F4FCE0101966F89FC
:10537000788DA9010E94C529EF81F885E00FF11F02
:1053800010822E96E4E00C945029ACE0B0E0EBECF7
:10539000F9E20C9426296C011B018A01FC01178299
:1053A0001682838181FFD1C12E010894411C511CBA
:1053B000F6019381F10193FD859193FF81911F0186
:1053C000882309F4BEC1853239F493FD859193FF9A
:1053D00081911F01853229F490E0B6010E94C52B0E
:1053E000E7CFEE24FF2420E02032B0F48B3269F0C6
:1053F0008C3228F4803251F0833271F40BC08D323C
:1054000039F0803349F421602CC02260246029C027
:10541000286027C0206125C027FD2CC0382F3053BD
:105420003A3098F426FF08C08E2D880FE82EEE0C37
:10543000EE0CE80EE30E15C08F2D880FF82EFF0C32
:10544000FF0CF80EF30E20620CC08E3221F426FD04
:1054500078C1206406C08C3611F4206802C08836FA
:1054600049F4F10193FD859193FF81911F018823F8
:1054700009F0BACF982F9554933018F0905293308A
:1054800028F40C5F1F4FFFE3F9830DC0833631F022
:10549000833771F0833509F060C022C0F801808144
:1054A00089830E5F1F4F420171E0A72EB12C16C0F9
:1054B00062E0662E712C600E711EF8018080918072
:1054C00026FF03C06E2D70E002C06FEF7FEFC401B6
:1054D0002C870E94BA2B5C0183012C852F7717C083
:1054E00052E0652E712C600E711EF8018080918053
:1054F00026FF03C06E2D70E002C06FEF7FEFC40186
:105500002C870E94AF2B5C012C852068830123FD32
:1055100020C008C080E290E0B6012C870E94C52B15
:10552000FA942C858F2D90E0A816B90698F311C037
:10553000F40127FD859127FF81914F0190E0B6018D
:105540002C870E94C52B2C85F110FA940894A10891
:10555000B108A114B10461F7F1C0843611F08936A5
:1055600049F527FF08C0F80160817181828193812C
:105570000C5F1F4F09C0F80160817181882777FD9A
:105580008095982F0E5F1F4F4FE6B42EB22297FFE3
:1055900009C090958095709561957F4F8F4F9F4F73
:1055A000F0E8BF2AA2012AE030E00E94F12B782E19
:1055B000741845C0853731F43FEEB32EB2222AE08D
:1055C00030E025C099EFB92EB2228F36C1F0803776
:1055D00020F4883509F0B5C00DC0803721F0883738
:1055E00009F0AFC002C020E1B22AB4FE0BC084E0D3
:1055F000B82A08C0B4FE09C0E6E0BE2A06C028E00A
:1056000030E005C020E130E002C020E132E0B7FE2A
:1056100008C0F80160817181828193810C5F1F4F06
:1056200007C0F8016081718180E090E00E5F1F4F3C
:10563000A2010E94F12B782E7418FFE7BF22B6FE5C
:105640000BC02EEFB2227E1438F4B4FE07C0B2FCB9
:1056500005C08FEEB82202C0A72C01C0AE2C8B2D46
:1056600090E0B4FE0DC0FE01E70DF11D2081203356
:1056700019F4E9EEBE2209C0A394B2FE06C004C02C
:1056800086789070009709F0A3948B2C9924B3FC32
:1056900014C0B0FE0FC0AF1428F4E72CEF0CEA18CA
:1056A000AF2C08C0E72C06C080E290E0B6010E9453
:1056B000C52BA394AF14C0F304C0AF1410F4FA18B0
:1056C00001C0FF2484FE0FC080E390E0B6010E9479
:1056D000C52B82FE1FC081FE03C088E590E010C08C
:1056E00088E790E00DC0C40186789070009791F033
:1056F00081FC02C080E201C08BE2B7FC8DE290E049
:10570000B6010E94C52B06C080E390E0B6010E945E
:10571000C52BEA947E14C0F37A94F201E70DF11DD3
:10572000808190E0B6010E94C52B7720A9F706C0C2
:1057300080E290E0B6010E94C52BFA94FF20C1F7E9
:1057400037CEF6012681378102C02FEF3FEFC90126
:105750002C96E2E10C944229992788270895FC01B0
:105760000590615070400110D8F7809590958E0F8C
:105770009F1F0895FC016150704001900110D8F7FF
:10578000809590958E0F9F1F08950F931F93CF9331
:10579000DF938C01EB018B8181FF1BC082FF0DC069
:1057A0002E813F818C819D812817390764F4E8811F
:1057B000F9810193F983E88306C0E885F985802F94
:1057C0000995009731F48E819F8101969F838E8386
:1057D00002C00FEF1FEFC801DF91CF911F910F9112
:1057E0000895FA01AA27283051F1203181F1E89477
:1057F0006F936E7F6E5F7F4F8F4F9F4FAF4FB1E0C4
:105800003ED0B4E03CD0670F781F891F9A1FA11DBE
:10581000680F791F8A1F911DA11D6A0F711D811DBF
:10582000911DA11D20D009F468943F912AE0269F84
:1058300011243019305D3193DEF6CF010895462FE3
:105840004770405D4193B3E00FD0C9F7F6CF462FC4
:105850004F70405D4A3318F0495D31FD405241932D
:1058600002D0A9F7EACFB4E0A695979587957795EA
:105870006795BA95C9F700976105710508959B0171
:10588000AC010A2E06945795479537952795BA95FA
:10589000C9F7620F731F841F951FA01D0895F89408
:0258A000FFCF38
:1058A200426567696E205769466920436F6E666973
:1058B20067200057616974696E6720666F722063A2
:1058C2006F6E74726F6C6C657220746F2073657486
:1058D200746C652E2E2E005265736574696E672096
:1058E2005769466C7920636F6E74726F6C6C657267
:1058F20020666C7573682074696D656F75742074A9
:105902006F2031306D73004A6F696E696E67204E89
:105912006574776F726B2E2E2E20506C65617365E5
:10592200207761697400416C65616479204A6F690E
:105932006E6564204E6574776F726B2E2E2E00702A
:10594200696E672000202E2E2E2000204F6B212012
:1059520000204661696C656420746F2070696E670F
:105962002047617465776179005769466C792D53D8
:105972007072696E6B6C65005769466C7920636F53
:105982006E66696775726174696F6E2075706461A5
:1059920074656420746F2075736520706F72742053
:1059A200333438322E2E2E0A5265626F6F74696E4E
:1059B2006720436F6E74726F6C6C65722E20506C30
:1059C2006561736520576169742E005769466C7969
:1059D200207265616479002575007B225359535406
:1059E200454D223A0022414354495645222C002279
:1059F200504155534544222C002249444C45222C07
:105A020000225A4F4E45223A002200222C002250F8
:105A1200455243454E54223A0050657263656E7496
:105A220020636F6D706C6574653A200025222C002E
:105A32007D0043757272656E74205A6F6E65203DEB
:105A4200200043757272656E7420497465726174C8
:105A5200696F6E203D200057694669204461746178
:105A620020417661696C61626C65004275666665AB
:105A720072206861733A20004163636570746564E3
:105A82002066756E6374696F6E20636F6D6D616EF3
:105A920064200041434345505400453A53797350C2
:105AA200617573656400453A303200556E45787011
:105AB20065637465642044617461203A2000536513
:105AC2006E64696E67206572726F722072657370A0
:105AD2006F6E73652E00453A3031005374617475F0
